{
	"Basic/SimpleStorage.sol": {
		"SimpleStorage": {
			"abi": [
				{
					"inputs": [],
					"name": "ViewArray",
					"outputs": [
						{
							"internalType": "uint16[]",
							"name": "",
							"type": "uint16[]"
						}
					],
					"stateMutability": "view",
					"type": "function"
				},
				{
					"inputs": [
						{
							"internalType": "uint16",
							"name": "_number",
							"type": "uint16"
						}
					],
					"name": "addNumber",
					"outputs": [],
					"stateMutability": "nonpayable",
					"type": "function"
				},
				{
					"inputs": [
						{
							"internalType": "uint256",
							"name": "",
							"type": "uint256"
						}
					],
					"name": "array",
					"outputs": [
						{
							"internalType": "uint16",
							"name": "",
							"type": "uint16"
						}
					],
					"stateMutability": "view",
					"type": "function"
				},
				{
					"inputs": [
						{
							"internalType": "uint256",
							"name": "",
							"type": "uint256"
						}
					],
					"name": "dynamic_array",
					"outputs": [
						{
							"internalType": "uint16",
							"name": "sdt",
							"type": "uint16"
						},
						{
							"internalType": "string",
							"name": "name",
							"type": "string"
						}
					],
					"stateMutability": "view",
					"type": "function"
				},
				{
					"inputs": [
						{
							"internalType": "uint16",
							"name": "index",
							"type": "uint16"
						}
					],
					"name": "getNumberFromArray",
					"outputs": [
						{
							"internalType": "uint16",
							"name": "",
							"type": "uint16"
						}
					],
					"stateMutability": "view",
					"type": "function"
				},
				{
					"inputs": [],
					"name": "number",
					"outputs": [
						{
							"internalType": "uint16",
							"name": "",
							"type": "uint16"
						}
					],
					"stateMutability": "view",
					"type": "function"
				},
				{
					"inputs": [
						{
							"internalType": "uint16",
							"name": "_number",
							"type": "uint16"
						}
					],
					"name": "store",
					"outputs": [],
					"stateMutability": "nonpayable",
					"type": "function"
				}
			],
			"devdoc": {
				"kind": "dev",
				"methods": {},
				"version": 1
			},
			"evm": {
				"assembly": "    /* \"Basic/SimpleStorage.sol\":60:794  contract SimpleStorage {... */\n  mstore(0x40, 0x80)\n  callvalue\n  dup1\n  iszero\n  tag_1\n  jumpi\n  revert(0x00, 0x00)\ntag_1:\n  pop\n  dataSize(sub_0)\n  dup1\n  dataOffset(sub_0)\n  0x00\n  codecopy\n  0x00\n  return\nstop\n\nsub_0: assembly {\n        /* \"Basic/SimpleStorage.sol\":60:794  contract SimpleStorage {... */\n      mstore(0x40, 0x80)\n      callvalue\n      dup1\n      iszero\n      tag_1\n      jumpi\n      revert(0x00, 0x00)\n    tag_1:\n      pop\n      jumpi(tag_2, lt(calldatasize, 0x04))\n      shr(0xe0, calldataload(0x00))\n      dup1\n      0x6cfe98a7\n      gt\n      tag_10\n      jumpi\n      dup1\n      0x6cfe98a7\n      eq\n      tag_6\n      jumpi\n      dup1\n      0x78308047\n      eq\n      tag_7\n      jumpi\n      dup1\n      0x8381f58a\n      eq\n      tag_8\n      jumpi\n      dup1\n      0xfafcd1a5\n      eq\n      tag_9\n      jumpi\n      jump(tag_2)\n    tag_10:\n      dup1\n      0x31f62cc7\n      eq\n      tag_3\n      jumpi\n      dup1\n      0x38d94193\n      eq\n      tag_4\n      jumpi\n      dup1\n      0x4420598c\n      eq\n      tag_5\n      jumpi\n    tag_2:\n      revert(0x00, 0x00)\n        /* \"Basic/SimpleStorage.sol\":220:249  Person[] public dynamic_array */\n    tag_3:\n      tag_11\n      0x04\n      dup1\n      calldatasize\n      sub\n      dup2\n      add\n      swap1\n      tag_12\n      swap2\n      swap1\n      tag_13\n      jump\t// in\n    tag_12:\n      tag_14\n      jump\t// in\n    tag_11:\n      mload(0x40)\n      tag_15\n      swap3\n      swap2\n      swap1\n      tag_16\n      jump\t// in\n    tag_15:\n      mload(0x40)\n      dup1\n      swap2\n      sub\n      swap1\n      return\n        /* \"Basic/SimpleStorage.sol\":118:139  uint16[] public array */\n    tag_4:\n      tag_17\n      0x04\n      dup1\n      calldatasize\n      sub\n      dup2\n      add\n      swap1\n      tag_18\n      swap2\n      swap1\n      tag_13\n      jump\t// in\n    tag_18:\n      tag_19\n      jump\t// in\n    tag_17:\n      mload(0x40)\n      tag_20\n      swap2\n      swap1\n      tag_21\n      jump\t// in\n    tag_20:\n      mload(0x40)\n      dup1\n      swap2\n      sub\n      swap1\n      return\n        /* \"Basic/SimpleStorage.sol\":452:543  function ViewArray () public view returns (uint16[] memory) {... */\n    tag_5:\n      tag_22\n      tag_23\n      jump\t// in\n    tag_22:\n      mload(0x40)\n      tag_24\n      swap2\n      swap1\n      tag_25\n      jump\t// in\n    tag_24:\n      mload(0x40)\n      dup1\n      swap2\n      sub\n      swap1\n      return\n        /* \"Basic/SimpleStorage.sol\":341:446  function addNumber(uint16 _number) public {... */\n    tag_6:\n      tag_26\n      0x04\n      dup1\n      calldatasize\n      sub\n      dup2\n      add\n      swap1\n      tag_27\n      swap2\n      swap1\n      tag_28\n      jump\t// in\n    tag_27:\n      tag_29\n      jump\t// in\n    tag_26:\n      stop\n        /* \"Basic/SimpleStorage.sol\":549:791  function getNumberFromArray(uint16 index) public view returns (uint16) {... */\n    tag_7:\n      tag_30\n      0x04\n      dup1\n      calldatasize\n      sub\n      dup2\n      add\n      swap1\n      tag_31\n      swap2\n      swap1\n      tag_28\n      jump\t// in\n    tag_31:\n      tag_32\n      jump\t// in\n    tag_30:\n      mload(0x40)\n      tag_33\n      swap2\n      swap1\n      tag_21\n      jump\t// in\n    tag_33:\n      mload(0x40)\n      dup1\n      swap2\n      sub\n      swap1\n      return\n        /* \"Basic/SimpleStorage.sol\":90:111  uint16 public  number */\n    tag_8:\n      tag_34\n      tag_35\n      jump\t// in\n    tag_34:\n      mload(0x40)\n      tag_36\n      swap2\n      swap1\n      tag_21\n      jump\t// in\n    tag_36:\n      mload(0x40)\n      dup1\n      swap2\n      sub\n      swap1\n      return\n        /* \"Basic/SimpleStorage.sol\":262:335  function store(uint16 _number) public {... */\n    tag_9:\n      tag_37\n      0x04\n      dup1\n      calldatasize\n      sub\n      dup2\n      add\n      swap1\n      tag_38\n      swap2\n      swap1\n      tag_28\n      jump\t// in\n    tag_38:\n      tag_39\n      jump\t// in\n    tag_37:\n      stop\n        /* \"Basic/SimpleStorage.sol\":220:249  Person[] public dynamic_array */\n    tag_14:\n      0x02\n      dup2\n      dup2\n      sload\n      dup2\n      lt\n      tag_40\n      jumpi\n      0x00\n      dup1\n      revert\n    tag_40:\n      swap1\n      0x00\n      mstore\n      keccak256(0x00, 0x20)\n      swap1\n      0x02\n      mul\n      add\n      0x00\n      swap2\n      pop\n      swap1\n      pop\n      dup1\n      0x00\n      add\n      0x00\n      swap1\n      sload\n      swap1\n      0x0100\n      exp\n      swap1\n      div\n      0xffff\n      and\n      swap1\n      dup1\n      0x01\n      add\n      dup1\n      sload\n      tag_42\n      swap1\n      tag_43\n      jump\t// in\n    tag_42:\n      dup1\n      0x1f\n      add\n      0x20\n      dup1\n      swap2\n      div\n      mul\n      0x20\n      add\n      mload(0x40)\n      swap1\n      dup2\n      add\n      0x40\n      mstore\n      dup1\n      swap3\n      swap2\n      swap1\n      dup2\n      dup2\n      mstore\n      0x20\n      add\n      dup3\n      dup1\n      sload\n      tag_44\n      swap1\n      tag_43\n      jump\t// in\n    tag_44:\n      dup1\n      iszero\n      tag_45\n      jumpi\n      dup1\n      0x1f\n      lt\n      tag_46\n      jumpi\n      0x0100\n      dup1\n      dup4\n      sload\n      div\n      mul\n      dup4\n      mstore\n      swap2\n      0x20\n      add\n      swap2\n      jump(tag_45)\n    tag_46:\n      dup3\n      add\n      swap2\n      swap1\n      0x00\n      mstore\n      keccak256(0x00, 0x20)\n      swap1\n    tag_47:\n      dup2\n      sload\n      dup2\n      mstore\n      swap1\n      0x01\n      add\n      swap1\n      0x20\n      add\n      dup1\n      dup4\n      gt\n      tag_47\n      jumpi\n      dup3\n      swap1\n      sub\n      0x1f\n      and\n      dup3\n      add\n      swap2\n    tag_45:\n      pop\n      pop\n      pop\n      pop\n      pop\n      swap1\n      pop\n      dup3\n      jump\t// out\n        /* \"Basic/SimpleStorage.sol\":118:139  uint16[] public array */\n    tag_19:\n      0x01\n      dup2\n      dup2\n      sload\n      dup2\n      lt\n      tag_48\n      jumpi\n      0x00\n      dup1\n      revert\n    tag_48:\n      swap1\n      0x00\n      mstore\n      keccak256(0x00, 0x20)\n      swap1\n      0x10\n      swap2\n      dup3\n      dup3\n      div\n      add\n      swap2\n      swap1\n      mod\n      0x02\n      mul\n      swap2\n      pop\n      sload\n      swap1\n      0x0100\n      exp\n      swap1\n      div\n      0xffff\n      and\n      dup2\n      jump\t// out\n        /* \"Basic/SimpleStorage.sol\":452:543  function ViewArray () public view returns (uint16[] memory) {... */\n    tag_23:\n        /* \"Basic/SimpleStorage.sol\":495:510  uint16[] memory */\n      0x60\n        /* \"Basic/SimpleStorage.sol\":530:535  array */\n      0x01\n        /* \"Basic/SimpleStorage.sol\":523:535  return array */\n      dup1\n      sload\n      dup1\n      0x20\n      mul\n      0x20\n      add\n      mload(0x40)\n      swap1\n      dup2\n      add\n      0x40\n      mstore\n      dup1\n      swap3\n      swap2\n      swap1\n      dup2\n      dup2\n      mstore\n      0x20\n      add\n      dup3\n      dup1\n      sload\n      dup1\n      iszero\n      tag_51\n      jumpi\n      0x20\n      mul\n      dup3\n      add\n      swap2\n      swap1\n      0x00\n      mstore\n      keccak256(0x00, 0x20)\n      swap1\n      0x00\n      swap1\n    tag_52:\n      dup3\n      dup3\n      swap1\n      sload\n      swap1\n      0x0100\n      exp\n      swap1\n      div\n      0xffff\n      and\n      0xffff\n      and\n      dup2\n      mstore\n      0x20\n      add\n      swap1\n      0x02\n      add\n      swap1\n      0x20\n      dup3\n      0x01\n      add\n      div\n      swap3\n      dup4\n      add\n      swap3\n      0x01\n      sub\n      dup3\n      mul\n      swap2\n      pop\n      dup1\n      dup5\n      gt\n      tag_52\n      jumpi\n      swap1\n      pop\n    tag_51:\n      pop\n      pop\n      pop\n      pop\n      pop\n      swap1\n      pop\n        /* \"Basic/SimpleStorage.sol\":452:543  function ViewArray () public view returns (uint16[] memory) {... */\n      swap1\n      jump\t// out\n        /* \"Basic/SimpleStorage.sol\":341:446  function addNumber(uint16 _number) public {... */\n    tag_29:\n        /* \"Basic/SimpleStorage.sol\":394:408  store(_number) */\n      tag_54\n        /* \"Basic/SimpleStorage.sol\":400:407  _number */\n      dup2\n        /* \"Basic/SimpleStorage.sol\":394:399  store */\n      tag_39\n        /* \"Basic/SimpleStorage.sol\":394:408  store(_number) */\n      jump\t// in\n    tag_54:\n        /* \"Basic/SimpleStorage.sol\":419:424  array */\n      0x01\n        /* \"Basic/SimpleStorage.sol\":430:436  number */\n      0x00\n      0x00\n      swap1\n      sload\n      swap1\n      0x0100\n      exp\n      swap1\n      div\n      0xffff\n      and\n        /* \"Basic/SimpleStorage.sol\":419:438  array.push(number ) */\n      swap1\n      dup1\n      0x01\n      dup2\n      sload\n      add\n      dup1\n      dup3\n      sstore\n      dup1\n      swap2\n      pop\n      pop\n      0x01\n      swap1\n      sub\n      swap1\n      0x00\n      mstore\n      keccak256(0x00, 0x20)\n      swap1\n      0x10\n      swap2\n      dup3\n      dup3\n      div\n      add\n      swap2\n      swap1\n      mod\n      0x02\n      mul\n      swap1\n      swap2\n      swap1\n      swap2\n      swap1\n      swap2\n      0x0100\n      exp\n      dup2\n      sload\n      dup2\n      0xffff\n      mul\n      not\n      and\n      swap1\n      dup4\n      0xffff\n      and\n      mul\n      or\n      swap1\n      sstore\n      pop\n        /* \"Basic/SimpleStorage.sol\":341:446  function addNumber(uint16 _number) public {... */\n      pop\n      jump\t// out\n        /* \"Basic/SimpleStorage.sol\":549:791  function getNumberFromArray(uint16 index) public view returns (uint16) {... */\n    tag_32:\n        /* \"Basic/SimpleStorage.sol\":612:618  uint16 */\n      0x00\n        /* \"Basic/SimpleStorage.sol\":656:657  1 */\n      0x01\n        /* \"Basic/SimpleStorage.sol\":643:648  array */\n      dup1\n        /* \"Basic/SimpleStorage.sol\":643:655  array.length */\n      dup1\n      sload\n      swap1\n      pop\n        /* \"Basic/SimpleStorage.sol\":643:657  array.length-1 */\n      tag_57\n      swap2\n      swap1\n      tag_58\n      jump\t// in\n    tag_57:\n        /* \"Basic/SimpleStorage.sol\":635:640  index */\n      dup3\n        /* \"Basic/SimpleStorage.sol\":635:657  index > array.length-1 */\n      0xffff\n      and\n      gt\n        /* \"Basic/SimpleStorage.sol\":631:774  if (index > array.length-1)... */\n      iszero\n      tag_59\n      jumpi\n        /* \"Basic/SimpleStorage.sol\":687:688  0 */\n      0x00\n        /* \"Basic/SimpleStorage.sol\":680:688  return 0 */\n      swap1\n      pop\n      jump(tag_56)\n        /* \"Basic/SimpleStorage.sol\":631:774  if (index > array.length-1)... */\n    tag_59:\n        /* \"Basic/SimpleStorage.sol\":750:755  array */\n      0x01\n        /* \"Basic/SimpleStorage.sol\":756:761  index */\n      dup3\n        /* \"Basic/SimpleStorage.sol\":750:762  array[index] */\n      0xffff\n      and\n      dup2\n      sload\n      dup2\n      lt\n      tag_61\n      jumpi\n      tag_62\n      tag_63\n      jump\t// in\n    tag_62:\n    tag_61:\n      swap1\n      0x00\n      mstore\n      keccak256(0x00, 0x20)\n      swap1\n      0x10\n      swap2\n      dup3\n      dup3\n      div\n      add\n      swap2\n      swap1\n      mod\n      0x02\n      mul\n      swap1\n      sload\n      swap1\n      0x0100\n      exp\n      swap1\n      div\n      0xffff\n      and\n        /* \"Basic/SimpleStorage.sol\":743:762  return array[index] */\n      swap1\n      pop\n        /* \"Basic/SimpleStorage.sol\":549:791  function getNumberFromArray(uint16 index) public view returns (uint16) {... */\n    tag_56:\n      swap2\n      swap1\n      pop\n      jump\t// out\n        /* \"Basic/SimpleStorage.sol\":90:111  uint16 public  number */\n    tag_35:\n      0x00\n      0x00\n      swap1\n      sload\n      swap1\n      0x0100\n      exp\n      swap1\n      div\n      0xffff\n      and\n      dup2\n      jump\t// out\n        /* \"Basic/SimpleStorage.sol\":262:335  function store(uint16 _number) public {... */\n    tag_39:\n        /* \"Basic/SimpleStorage.sol\":320:327  _number */\n      dup1\n        /* \"Basic/SimpleStorage.sol\":311:317  number */\n      0x00\n      0x00\n        /* \"Basic/SimpleStorage.sol\":311:327  number = _number */\n      0x0100\n      exp\n      dup2\n      sload\n      dup2\n      0xffff\n      mul\n      not\n      and\n      swap1\n      dup4\n      0xffff\n      and\n      mul\n      or\n      swap1\n      sstore\n      pop\n        /* \"Basic/SimpleStorage.sol\":262:335  function store(uint16 _number) public {... */\n      pop\n      jump\t// out\n        /* \"#utility.yul\":88:205   */\n    tag_67:\n        /* \"#utility.yul\":197:198   */\n      0x00\n        /* \"#utility.yul\":194:195   */\n      0x00\n        /* \"#utility.yul\":187:199   */\n      revert\n        /* \"#utility.yul\":334:411   */\n    tag_69:\n        /* \"#utility.yul\":371:378   */\n      0x00\n        /* \"#utility.yul\":400:405   */\n      dup2\n        /* \"#utility.yul\":389:405   */\n      swap1\n      pop\n        /* \"#utility.yul\":334:411   */\n      swap2\n      swap1\n      pop\n      jump\t// out\n        /* \"#utility.yul\":417:539   */\n    tag_70:\n        /* \"#utility.yul\":490:514   */\n      tag_96\n        /* \"#utility.yul\":508:513   */\n      dup2\n        /* \"#utility.yul\":490:514   */\n      tag_69\n      jump\t// in\n    tag_96:\n        /* \"#utility.yul\":483:488   */\n      dup2\n        /* \"#utility.yul\":480:515   */\n      eq\n        /* \"#utility.yul\":470:533   */\n      tag_97\n      jumpi\n        /* \"#utility.yul\":529:530   */\n      0x00\n        /* \"#utility.yul\":526:527   */\n      0x00\n        /* \"#utility.yul\":519:531   */\n      revert\n        /* \"#utility.yul\":470:533   */\n    tag_97:\n        /* \"#utility.yul\":417:539   */\n      pop\n      jump\t// out\n        /* \"#utility.yul\":545:684   */\n    tag_71:\n        /* \"#utility.yul\":591:596   */\n      0x00\n        /* \"#utility.yul\":629:635   */\n      dup2\n        /* \"#utility.yul\":616:636   */\n      calldataload\n        /* \"#utility.yul\":607:636   */\n      swap1\n      pop\n        /* \"#utility.yul\":645:678   */\n      tag_99\n        /* \"#utility.yul\":672:677   */\n      dup2\n        /* \"#utility.yul\":645:678   */\n      tag_70\n      jump\t// in\n    tag_99:\n        /* \"#utility.yul\":545:684   */\n      swap3\n      swap2\n      pop\n      pop\n      jump\t// out\n        /* \"#utility.yul\":690:1019   */\n    tag_13:\n        /* \"#utility.yul\":749:755   */\n      0x00\n        /* \"#utility.yul\":798:800   */\n      0x20\n        /* \"#utility.yul\":786:795   */\n      dup3\n        /* \"#utility.yul\":777:784   */\n      dup5\n        /* \"#utility.yul\":773:796   */\n      sub\n        /* \"#utility.yul\":769:801   */\n      slt\n        /* \"#utility.yul\":766:885   */\n      iszero\n      tag_101\n      jumpi\n        /* \"#utility.yul\":804:883   */\n      tag_102\n      tag_67\n      jump\t// in\n    tag_102:\n        /* \"#utility.yul\":766:885   */\n    tag_101:\n        /* \"#utility.yul\":924:925   */\n      0x00\n        /* \"#utility.yul\":949:1002   */\n      tag_103\n        /* \"#utility.yul\":994:1001   */\n      dup5\n        /* \"#utility.yul\":985:991   */\n      dup3\n        /* \"#utility.yul\":974:983   */\n      dup6\n        /* \"#utility.yul\":970:992   */\n      add\n        /* \"#utility.yul\":949:1002   */\n      tag_71\n      jump\t// in\n    tag_103:\n        /* \"#utility.yul\":939:1002   */\n      swap2\n      pop\n        /* \"#utility.yul\":895:1012   */\n      pop\n        /* \"#utility.yul\":690:1019   */\n      swap3\n      swap2\n      pop\n      pop\n      jump\t// out\n        /* \"#utility.yul\":1025:1114   */\n    tag_72:\n        /* \"#utility.yul\":1061:1068   */\n      0x00\n        /* \"#utility.yul\":1101:1107   */\n      0xffff\n        /* \"#utility.yul\":1094:1099   */\n      dup3\n        /* \"#utility.yul\":1090:1108   */\n      and\n        /* \"#utility.yul\":1079:1108   */\n      swap1\n      pop\n        /* \"#utility.yul\":1025:1114   */\n      swap2\n      swap1\n      pop\n      jump\t// out\n        /* \"#utility.yul\":1120:1235   */\n    tag_73:\n        /* \"#utility.yul\":1205:1228   */\n      tag_106\n        /* \"#utility.yul\":1222:1227   */\n      dup2\n        /* \"#utility.yul\":1205:1228   */\n      tag_72\n      jump\t// in\n    tag_106:\n        /* \"#utility.yul\":1200:1203   */\n      dup3\n        /* \"#utility.yul\":1193:1229   */\n      mstore\n        /* \"#utility.yul\":1120:1235   */\n      pop\n      pop\n      jump\t// out\n        /* \"#utility.yul\":1241:1340   */\n    tag_74:\n        /* \"#utility.yul\":1293:1299   */\n      0x00\n        /* \"#utility.yul\":1327:1332   */\n      dup2\n        /* \"#utility.yul\":1321:1333   */\n      mload\n        /* \"#utility.yul\":1311:1333   */\n      swap1\n      pop\n        /* \"#utility.yul\":1241:1340   */\n      swap2\n      swap1\n      pop\n      jump\t// out\n        /* \"#utility.yul\":1346:1515   */\n    tag_75:\n        /* \"#utility.yul\":1430:1441   */\n      0x00\n        /* \"#utility.yul\":1464:1470   */\n      dup3\n        /* \"#utility.yul\":1459:1462   */\n      dup3\n        /* \"#utility.yul\":1452:1471   */\n      mstore\n        /* \"#utility.yul\":1504:1508   */\n      0x20\n        /* \"#utility.yul\":1499:1502   */\n      dup3\n        /* \"#utility.yul\":1495:1509   */\n      add\n        /* \"#utility.yul\":1480:1509   */\n      swap1\n      pop\n        /* \"#utility.yul\":1346:1515   */\n      swap3\n      swap2\n      pop\n      pop\n      jump\t// out\n        /* \"#utility.yul\":1521:1660   */\n    tag_76:\n        /* \"#utility.yul\":1610:1616   */\n      dup3\n        /* \"#utility.yul\":1605:1608   */\n      dup2\n        /* \"#utility.yul\":1600:1603   */\n      dup4\n        /* \"#utility.yul\":1594:1617   */\n      mcopy\n        /* \"#utility.yul\":1651:1652   */\n      0x00\n        /* \"#utility.yul\":1642:1648   */\n      dup4\n        /* \"#utility.yul\":1637:1640   */\n      dup4\n        /* \"#utility.yul\":1633:1649   */\n      add\n        /* \"#utility.yul\":1626:1653   */\n      mstore\n        /* \"#utility.yul\":1521:1660   */\n      pop\n      pop\n      pop\n      jump\t// out\n        /* \"#utility.yul\":1666:1768   */\n    tag_77:\n        /* \"#utility.yul\":1707:1713   */\n      0x00\n        /* \"#utility.yul\":1758:1760   */\n      0x1f\n        /* \"#utility.yul\":1754:1761   */\n      not\n        /* \"#utility.yul\":1749:1751   */\n      0x1f\n        /* \"#utility.yul\":1742:1747   */\n      dup4\n        /* \"#utility.yul\":1738:1752   */\n      add\n        /* \"#utility.yul\":1734:1762   */\n      and\n        /* \"#utility.yul\":1724:1762   */\n      swap1\n      pop\n        /* \"#utility.yul\":1666:1768   */\n      swap2\n      swap1\n      pop\n      jump\t// out\n        /* \"#utility.yul\":1774:2151   */\n    tag_78:\n        /* \"#utility.yul\":1862:1865   */\n      0x00\n        /* \"#utility.yul\":1890:1929   */\n      tag_112\n        /* \"#utility.yul\":1923:1928   */\n      dup3\n        /* \"#utility.yul\":1890:1929   */\n      tag_74\n      jump\t// in\n    tag_112:\n        /* \"#utility.yul\":1945:2016   */\n      tag_113\n        /* \"#utility.yul\":2009:2015   */\n      dup2\n        /* \"#utility.yul\":2004:2007   */\n      dup6\n        /* \"#utility.yul\":1945:2016   */\n      tag_75\n      jump\t// in\n    tag_113:\n        /* \"#utility.yul\":1938:2016   */\n      swap4\n      pop\n        /* \"#utility.yul\":2025:2090   */\n      tag_114\n        /* \"#utility.yul\":2083:2089   */\n      dup2\n        /* \"#utility.yul\":2078:2081   */\n      dup6\n        /* \"#utility.yul\":2071:2075   */\n      0x20\n        /* \"#utility.yul\":2064:2069   */\n      dup7\n        /* \"#utility.yul\":2060:2076   */\n      add\n        /* \"#utility.yul\":2025:2090   */\n      tag_76\n      jump\t// in\n    tag_114:\n        /* \"#utility.yul\":2115:2144   */\n      tag_115\n        /* \"#utility.yul\":2137:2143   */\n      dup2\n        /* \"#utility.yul\":2115:2144   */\n      tag_77\n      jump\t// in\n    tag_115:\n        /* \"#utility.yul\":2110:2113   */\n      dup5\n        /* \"#utility.yul\":2106:2145   */\n      add\n        /* \"#utility.yul\":2099:2145   */\n      swap2\n      pop\n        /* \"#utility.yul\":1866:2151   */\n      pop\n        /* \"#utility.yul\":1774:2151   */\n      swap3\n      swap2\n      pop\n      pop\n      jump\t// out\n        /* \"#utility.yul\":2157:2576   */\n    tag_16:\n        /* \"#utility.yul\":2296:2300   */\n      0x00\n        /* \"#utility.yul\":2334:2336   */\n      0x40\n        /* \"#utility.yul\":2323:2332   */\n      dup3\n        /* \"#utility.yul\":2319:2337   */\n      add\n        /* \"#utility.yul\":2311:2337   */\n      swap1\n      pop\n        /* \"#utility.yul\":2347:2416   */\n      tag_117\n        /* \"#utility.yul\":2413:2414   */\n      0x00\n        /* \"#utility.yul\":2402:2411   */\n      dup4\n        /* \"#utility.yul\":2398:2415   */\n      add\n        /* \"#utility.yul\":2389:2395   */\n      dup6\n        /* \"#utility.yul\":2347:2416   */\n      tag_73\n      jump\t// in\n    tag_117:\n        /* \"#utility.yul\":2463:2472   */\n      dup2\n        /* \"#utility.yul\":2457:2461   */\n      dup2\n        /* \"#utility.yul\":2453:2473   */\n      sub\n        /* \"#utility.yul\":2448:2450   */\n      0x20\n        /* \"#utility.yul\":2437:2446   */\n      dup4\n        /* \"#utility.yul\":2433:2451   */\n      add\n        /* \"#utility.yul\":2426:2474   */\n      mstore\n        /* \"#utility.yul\":2491:2569   */\n      tag_118\n        /* \"#utility.yul\":2564:2568   */\n      dup2\n        /* \"#utility.yul\":2555:2561   */\n      dup5\n        /* \"#utility.yul\":2491:2569   */\n      tag_78\n      jump\t// in\n    tag_118:\n        /* \"#utility.yul\":2483:2569   */\n      swap1\n      pop\n        /* \"#utility.yul\":2157:2576   */\n      swap4\n      swap3\n      pop\n      pop\n      pop\n      jump\t// out\n        /* \"#utility.yul\":2582:2800   */\n    tag_21:\n        /* \"#utility.yul\":2673:2677   */\n      0x00\n        /* \"#utility.yul\":2711:2713   */\n      0x20\n        /* \"#utility.yul\":2700:2709   */\n      dup3\n        /* \"#utility.yul\":2696:2714   */\n      add\n        /* \"#utility.yul\":2688:2714   */\n      swap1\n      pop\n        /* \"#utility.yul\":2724:2793   */\n      tag_120\n        /* \"#utility.yul\":2790:2791   */\n      0x00\n        /* \"#utility.yul\":2779:2788   */\n      dup4\n        /* \"#utility.yul\":2775:2792   */\n      add\n        /* \"#utility.yul\":2766:2772   */\n      dup5\n        /* \"#utility.yul\":2724:2793   */\n      tag_73\n      jump\t// in\n    tag_120:\n        /* \"#utility.yul\":2582:2800   */\n      swap3\n      swap2\n      pop\n      pop\n      jump\t// out\n        /* \"#utility.yul\":2806:2919   */\n    tag_79:\n        /* \"#utility.yul\":2872:2878   */\n      0x00\n        /* \"#utility.yul\":2906:2911   */\n      dup2\n        /* \"#utility.yul\":2900:2912   */\n      mload\n        /* \"#utility.yul\":2890:2912   */\n      swap1\n      pop\n        /* \"#utility.yul\":2806:2919   */\n      swap2\n      swap1\n      pop\n      jump\t// out\n        /* \"#utility.yul\":2925:3108   */\n    tag_80:\n        /* \"#utility.yul\":3023:3034   */\n      0x00\n        /* \"#utility.yul\":3057:3063   */\n      dup3\n        /* \"#utility.yul\":3052:3055   */\n      dup3\n        /* \"#utility.yul\":3045:3064   */\n      mstore\n        /* \"#utility.yul\":3097:3101   */\n      0x20\n        /* \"#utility.yul\":3092:3095   */\n      dup3\n        /* \"#utility.yul\":3088:3102   */\n      add\n        /* \"#utility.yul\":3073:3102   */\n      swap1\n      pop\n        /* \"#utility.yul\":2925:3108   */\n      swap3\n      swap2\n      pop\n      pop\n      jump\t// out\n        /* \"#utility.yul\":3114:3245   */\n    tag_81:\n        /* \"#utility.yul\":3180:3184   */\n      0x00\n        /* \"#utility.yul\":3203:3206   */\n      dup2\n        /* \"#utility.yul\":3195:3206   */\n      swap1\n      pop\n        /* \"#utility.yul\":3233:3237   */\n      0x20\n        /* \"#utility.yul\":3228:3231   */\n      dup3\n        /* \"#utility.yul\":3224:3238   */\n      add\n        /* \"#utility.yul\":3216:3238   */\n      swap1\n      pop\n        /* \"#utility.yul\":3114:3245   */\n      swap2\n      swap1\n      pop\n      jump\t// out\n        /* \"#utility.yul\":3251:3356   */\n    tag_82:\n        /* \"#utility.yul\":3326:3349   */\n      tag_125\n        /* \"#utility.yul\":3343:3348   */\n      dup2\n        /* \"#utility.yul\":3326:3349   */\n      tag_72\n      jump\t// in\n    tag_125:\n        /* \"#utility.yul\":3321:3324   */\n      dup3\n        /* \"#utility.yul\":3314:3350   */\n      mstore\n        /* \"#utility.yul\":3251:3356   */\n      pop\n      pop\n      jump\t// out\n        /* \"#utility.yul\":3362:3537   */\n    tag_83:\n        /* \"#utility.yul\":3429:3439   */\n      0x00\n        /* \"#utility.yul\":3450:3494   */\n      tag_127\n        /* \"#utility.yul\":3490:3493   */\n      dup4\n        /* \"#utility.yul\":3482:3488   */\n      dup4\n        /* \"#utility.yul\":3450:3494   */\n      tag_82\n      jump\t// in\n    tag_127:\n        /* \"#utility.yul\":3526:3530   */\n      0x20\n        /* \"#utility.yul\":3521:3524   */\n      dup4\n        /* \"#utility.yul\":3517:3531   */\n      add\n        /* \"#utility.yul\":3503:3531   */\n      swap1\n      pop\n        /* \"#utility.yul\":3362:3537   */\n      swap3\n      swap2\n      pop\n      pop\n      jump\t// out\n        /* \"#utility.yul\":3543:3655   */\n    tag_84:\n        /* \"#utility.yul\":3612:3616   */\n      0x00\n        /* \"#utility.yul\":3644:3648   */\n      0x20\n        /* \"#utility.yul\":3639:3642   */\n      dup3\n        /* \"#utility.yul\":3635:3649   */\n      add\n        /* \"#utility.yul\":3627:3649   */\n      swap1\n      pop\n        /* \"#utility.yul\":3543:3655   */\n      swap2\n      swap1\n      pop\n      jump\t// out\n        /* \"#utility.yul\":3689:4413   */\n    tag_85:\n        /* \"#utility.yul\":3806:3809   */\n      0x00\n        /* \"#utility.yul\":3835:3888   */\n      tag_130\n        /* \"#utility.yul\":3882:3887   */\n      dup3\n        /* \"#utility.yul\":3835:3888   */\n      tag_79\n      jump\t// in\n    tag_130:\n        /* \"#utility.yul\":3904:3989   */\n      tag_131\n        /* \"#utility.yul\":3982:3988   */\n      dup2\n        /* \"#utility.yul\":3977:3980   */\n      dup6\n        /* \"#utility.yul\":3904:3989   */\n      tag_80\n      jump\t// in\n    tag_131:\n        /* \"#utility.yul\":3897:3989   */\n      swap4\n      pop\n        /* \"#utility.yul\":4013:4068   */\n      tag_132\n        /* \"#utility.yul\":4062:4067   */\n      dup4\n        /* \"#utility.yul\":4013:4068   */\n      tag_81\n      jump\t// in\n    tag_132:\n        /* \"#utility.yul\":4091:4098   */\n      dup1\n        /* \"#utility.yul\":4122:4123   */\n      0x00\n        /* \"#utility.yul\":4107:4388   */\n    tag_133:\n        /* \"#utility.yul\":4132:4138   */\n      dup4\n        /* \"#utility.yul\":4129:4130   */\n      dup2\n        /* \"#utility.yul\":4126:4139   */\n      lt\n        /* \"#utility.yul\":4107:4388   */\n      iszero\n      tag_135\n      jumpi\n        /* \"#utility.yul\":4208:4214   */\n      dup2\n        /* \"#utility.yul\":4202:4215   */\n      mload\n        /* \"#utility.yul\":4235:4296   */\n      tag_136\n        /* \"#utility.yul\":4292:4295   */\n      dup9\n        /* \"#utility.yul\":4277:4290   */\n      dup3\n        /* \"#utility.yul\":4235:4296   */\n      tag_83\n      jump\t// in\n    tag_136:\n        /* \"#utility.yul\":4228:4296   */\n      swap8\n      pop\n        /* \"#utility.yul\":4319:4378   */\n      tag_137\n        /* \"#utility.yul\":4371:4377   */\n      dup4\n        /* \"#utility.yul\":4319:4378   */\n      tag_84\n      jump\t// in\n    tag_137:\n        /* \"#utility.yul\":4309:4378   */\n      swap3\n      pop\n        /* \"#utility.yul\":4167:4388   */\n      pop\n        /* \"#utility.yul\":4154:4155   */\n      0x01\n        /* \"#utility.yul\":4151:4152   */\n      dup2\n        /* \"#utility.yul\":4147:4156   */\n      add\n        /* \"#utility.yul\":4142:4156   */\n      swap1\n      pop\n        /* \"#utility.yul\":4107:4388   */\n      jump(tag_133)\n    tag_135:\n        /* \"#utility.yul\":4111:4125   */\n      pop\n        /* \"#utility.yul\":4404:4407   */\n      dup6\n        /* \"#utility.yul\":4397:4407   */\n      swap4\n      pop\n        /* \"#utility.yul\":3811:4413   */\n      pop\n      pop\n      pop\n        /* \"#utility.yul\":3689:4413   */\n      swap3\n      swap2\n      pop\n      pop\n      jump\t// out\n        /* \"#utility.yul\":4419:4788   */\n    tag_25:\n        /* \"#utility.yul\":4560:4564   */\n      0x00\n        /* \"#utility.yul\":4598:4600   */\n      0x20\n        /* \"#utility.yul\":4587:4596   */\n      dup3\n        /* \"#utility.yul\":4583:4601   */\n      add\n        /* \"#utility.yul\":4575:4601   */\n      swap1\n      pop\n        /* \"#utility.yul\":4647:4656   */\n      dup2\n        /* \"#utility.yul\":4641:4645   */\n      dup2\n        /* \"#utility.yul\":4637:4657   */\n      sub\n        /* \"#utility.yul\":4633:4634   */\n      0x00\n        /* \"#utility.yul\":4622:4631   */\n      dup4\n        /* \"#utility.yul\":4618:4635   */\n      add\n        /* \"#utility.yul\":4611:4658   */\n      mstore\n        /* \"#utility.yul\":4675:4781   */\n      tag_139\n        /* \"#utility.yul\":4776:4780   */\n      dup2\n        /* \"#utility.yul\":4767:4773   */\n      dup5\n        /* \"#utility.yul\":4675:4781   */\n      tag_85\n      jump\t// in\n    tag_139:\n        /* \"#utility.yul\":4667:4781   */\n      swap1\n      pop\n        /* \"#utility.yul\":4419:4788   */\n      swap3\n      swap2\n      pop\n      pop\n      jump\t// out\n        /* \"#utility.yul\":4794:4914   */\n    tag_86:\n        /* \"#utility.yul\":4866:4889   */\n      tag_141\n        /* \"#utility.yul\":4883:4888   */\n      dup2\n        /* \"#utility.yul\":4866:4889   */\n      tag_72\n      jump\t// in\n    tag_141:\n        /* \"#utility.yul\":4859:4864   */\n      dup2\n        /* \"#utility.yul\":4856:4890   */\n      eq\n        /* \"#utility.yul\":4846:4908   */\n      tag_142\n      jumpi\n        /* \"#utility.yul\":4904:4905   */\n      0x00\n        /* \"#utility.yul\":4901:4902   */\n      0x00\n        /* \"#utility.yul\":4894:4906   */\n      revert\n        /* \"#utility.yul\":4846:4908   */\n    tag_142:\n        /* \"#utility.yul\":4794:4914   */\n      pop\n      jump\t// out\n        /* \"#utility.yul\":4920:5057   */\n    tag_87:\n        /* \"#utility.yul\":4965:4970   */\n      0x00\n        /* \"#utility.yul\":5003:5009   */\n      dup2\n        /* \"#utility.yul\":4990:5010   */\n      calldataload\n        /* \"#utility.yul\":4981:5010   */\n      swap1\n      pop\n        /* \"#utility.yul\":5019:5051   */\n      tag_144\n        /* \"#utility.yul\":5045:5050   */\n      dup2\n        /* \"#utility.yul\":5019:5051   */\n      tag_86\n      jump\t// in\n    tag_144:\n        /* \"#utility.yul\":4920:5057   */\n      swap3\n      swap2\n      pop\n      pop\n      jump\t// out\n        /* \"#utility.yul\":5063:5390   */\n    tag_28:\n        /* \"#utility.yul\":5121:5127   */\n      0x00\n        /* \"#utility.yul\":5170:5172   */\n      0x20\n        /* \"#utility.yul\":5158:5167   */\n      dup3\n        /* \"#utility.yul\":5149:5156   */\n      dup5\n        /* \"#utility.yul\":5145:5168   */\n      sub\n        /* \"#utility.yul\":5141:5173   */\n      slt\n        /* \"#utility.yul\":5138:5257   */\n      iszero\n      tag_146\n      jumpi\n        /* \"#utility.yul\":5176:5255   */\n      tag_147\n      tag_67\n      jump\t// in\n    tag_147:\n        /* \"#utility.yul\":5138:5257   */\n    tag_146:\n        /* \"#utility.yul\":5296:5297   */\n      0x00\n        /* \"#utility.yul\":5321:5373   */\n      tag_148\n        /* \"#utility.yul\":5365:5372   */\n      dup5\n        /* \"#utility.yul\":5356:5362   */\n      dup3\n        /* \"#utility.yul\":5345:5354   */\n      dup6\n        /* \"#utility.yul\":5341:5363   */\n      add\n        /* \"#utility.yul\":5321:5373   */\n      tag_87\n      jump\t// in\n    tag_148:\n        /* \"#utility.yul\":5311:5373   */\n      swap2\n      pop\n        /* \"#utility.yul\":5267:5383   */\n      pop\n        /* \"#utility.yul\":5063:5390   */\n      swap3\n      swap2\n      pop\n      pop\n      jump\t// out\n        /* \"#utility.yul\":5396:5576   */\n    tag_88:\n        /* \"#utility.yul\":5444:5521   */\n      0x4e487b7100000000000000000000000000000000000000000000000000000000\n        /* \"#utility.yul\":5441:5442   */\n      0x00\n        /* \"#utility.yul\":5434:5522   */\n      mstore\n        /* \"#utility.yul\":5541:5545   */\n      0x22\n        /* \"#utility.yul\":5538:5539   */\n      0x04\n        /* \"#utility.yul\":5531:5546   */\n      mstore\n        /* \"#utility.yul\":5565:5569   */\n      0x24\n        /* \"#utility.yul\":5562:5563   */\n      0x00\n        /* \"#utility.yul\":5555:5570   */\n      revert\n        /* \"#utility.yul\":5582:5902   */\n    tag_43:\n        /* \"#utility.yul\":5626:5632   */\n      0x00\n        /* \"#utility.yul\":5663:5664   */\n      0x02\n        /* \"#utility.yul\":5657:5661   */\n      dup3\n        /* \"#utility.yul\":5653:5665   */\n      div\n        /* \"#utility.yul\":5643:5665   */\n      swap1\n      pop\n        /* \"#utility.yul\":5710:5711   */\n      0x01\n        /* \"#utility.yul\":5704:5708   */\n      dup3\n        /* \"#utility.yul\":5700:5712   */\n      and\n        /* \"#utility.yul\":5731:5749   */\n      dup1\n        /* \"#utility.yul\":5721:5802   */\n      tag_151\n      jumpi\n        /* \"#utility.yul\":5787:5791   */\n      0x7f\n        /* \"#utility.yul\":5779:5785   */\n      dup3\n        /* \"#utility.yul\":5775:5792   */\n      and\n        /* \"#utility.yul\":5765:5792   */\n      swap2\n      pop\n        /* \"#utility.yul\":5721:5802   */\n    tag_151:\n        /* \"#utility.yul\":5849:5851   */\n      0x20\n        /* \"#utility.yul\":5841:5847   */\n      dup3\n        /* \"#utility.yul\":5838:5852   */\n      lt\n        /* \"#utility.yul\":5818:5836   */\n      dup2\n        /* \"#utility.yul\":5815:5853   */\n      sub\n        /* \"#utility.yul\":5812:5896   */\n      tag_152\n      jumpi\n        /* \"#utility.yul\":5868:5886   */\n      tag_153\n      tag_88\n      jump\t// in\n    tag_153:\n        /* \"#utility.yul\":5812:5896   */\n    tag_152:\n        /* \"#utility.yul\":5633:5902   */\n      pop\n        /* \"#utility.yul\":5582:5902   */\n      swap2\n      swap1\n      pop\n      jump\t// out\n        /* \"#utility.yul\":5908:6088   */\n    tag_89:\n        /* \"#utility.yul\":5956:6033   */\n      0x4e487b7100000000000000000000000000000000000000000000000000000000\n        /* \"#utility.yul\":5953:5954   */\n      0x00\n        /* \"#utility.yul\":5946:6034   */\n      mstore\n        /* \"#utility.yul\":6053:6057   */\n      0x11\n        /* \"#utility.yul\":6050:6051   */\n      0x04\n        /* \"#utility.yul\":6043:6058   */\n      mstore\n        /* \"#utility.yul\":6077:6081   */\n      0x24\n        /* \"#utility.yul\":6074:6075   */\n      0x00\n        /* \"#utility.yul\":6067:6082   */\n      revert\n        /* \"#utility.yul\":6094:6288   */\n    tag_58:\n        /* \"#utility.yul\":6134:6138   */\n      0x00\n        /* \"#utility.yul\":6154:6174   */\n      tag_156\n        /* \"#utility.yul\":6172:6173   */\n      dup3\n        /* \"#utility.yul\":6154:6174   */\n      tag_69\n      jump\t// in\n    tag_156:\n        /* \"#utility.yul\":6149:6174   */\n      swap2\n      pop\n        /* \"#utility.yul\":6188:6208   */\n      tag_157\n        /* \"#utility.yul\":6206:6207   */\n      dup4\n        /* \"#utility.yul\":6188:6208   */\n      tag_69\n      jump\t// in\n    tag_157:\n        /* \"#utility.yul\":6183:6208   */\n      swap3\n      pop\n        /* \"#utility.yul\":6232:6233   */\n      dup3\n        /* \"#utility.yul\":6229:6230   */\n      dup3\n        /* \"#utility.yul\":6225:6234   */\n      sub\n        /* \"#utility.yul\":6217:6234   */\n      swap1\n      pop\n        /* \"#utility.yul\":6256:6257   */\n      dup2\n        /* \"#utility.yul\":6250:6254   */\n      dup2\n        /* \"#utility.yul\":6247:6258   */\n      gt\n        /* \"#utility.yul\":6244:6281   */\n      iszero\n      tag_158\n      jumpi\n        /* \"#utility.yul\":6261:6279   */\n      tag_159\n      tag_89\n      jump\t// in\n    tag_159:\n        /* \"#utility.yul\":6244:6281   */\n    tag_158:\n        /* \"#utility.yul\":6094:6288   */\n      swap3\n      swap2\n      pop\n      pop\n      jump\t// out\n        /* \"#utility.yul\":6294:6474   */\n    tag_63:\n        /* \"#utility.yul\":6342:6419   */\n      0x4e487b7100000000000000000000000000000000000000000000000000000000\n        /* \"#utility.yul\":6339:6340   */\n      0x00\n        /* \"#utility.yul\":6332:6420   */\n      mstore\n        /* \"#utility.yul\":6439:6443   */\n      0x32\n        /* \"#utility.yul\":6436:6437   */\n      0x04\n        /* \"#utility.yul\":6429:6444   */\n      mstore\n        /* \"#utility.yul\":6463:6467   */\n      0x24\n        /* \"#utility.yul\":6460:6461   */\n      0x00\n        /* \"#utility.yul\":6453:6468   */\n      revert\n\n    auxdata: 0xa26469706673582212207283f14eb5cc4732abee501d094ddd6c1b2fe90acbefff5bc7c51ca01712163364736f6c634300081e0033\n}\n",
				"bytecode": {
					"linkReferences": {},
					"object": "6080604052348015600e575f5ffd5b506107728061001c5f395ff3fe608060405234801561000f575f5ffd5b506004361061007b575f3560e01c80636cfe98a7116100595780636cfe98a7146100fe578063783080471461011a5780638381f58a1461014a578063fafcd1a5146101685761007b565b806331f62cc71461007f57806338d94193146100b05780634420598c146100e0575b5f5ffd5b61009960048036038101906100949190610428565b610184565b6040516100a79291906104df565b60405180910390f35b6100ca60048036038101906100c59190610428565b610246565b6040516100d7919061050d565b60405180910390f35b6100e861027b565b6040516100f591906105dd565b60405180910390f35b61011860048036038101906101139190610627565b6102f8565b005b610134600480360381019061012f9190610627565b61035a565b604051610141919061050d565b60405180910390f35b6101526103c1565b60405161015f919061050d565b60405180910390f35b610182600480360381019061017d9190610627565b6103d3565b005b60028181548110610193575f80fd5b905f5260205f2090600202015f91509050805f015f9054906101000a900461ffff16908060010180546101c59061067f565b80601f01602080910402602001604051908101604052809291908181526020018280546101f19061067f565b801561023c5780601f106102135761010080835404028352916020019161023c565b820191905f5260205f20905b81548152906001019060200180831161021f57829003601f168201915b5050505050905082565b60018181548110610255575f80fd5b905f5260205f209060109182820401919006600202915054906101000a900461ffff1681565b606060018054806020026020016040519081016040528092919081815260200182805480156102ee57602002820191905f5260205f20905f905b82829054906101000a900461ffff1661ffff16815260200190600201906020826001010492830192600103820291508084116102b55790505b5050505050905090565b610301816103d3565b60015f5f9054906101000a900461ffff16908060018154018082558091505060019003905f5260205f2090601091828204019190066002029091909190916101000a81548161ffff021916908361ffff16021790555050565b5f6001808054905061036c91906106dc565b8261ffff16111561037f575f90506103bc565b60018261ffff16815481106103975761039661070f565b5b905f5260205f2090601091828204019190066002029054906101000a900461ffff1690505b919050565b5f5f9054906101000a900461ffff1681565b805f5f6101000a81548161ffff021916908361ffff16021790555050565b5f5ffd5b5f819050919050565b610407816103f5565b8114610411575f5ffd5b50565b5f81359050610422816103fe565b92915050565b5f6020828403121561043d5761043c6103f1565b5b5f61044a84828501610414565b91505092915050565b5f61ffff82169050919050565b61046981610453565b82525050565b5f81519050919050565b5f82825260208201905092915050565b8281835e5f83830152505050565b5f601f19601f8301169050919050565b5f6104b18261046f565b6104bb8185610479565b93506104cb818560208601610489565b6104d481610497565b840191505092915050565b5f6040820190506104f25f830185610460565b818103602083015261050481846104a7565b90509392505050565b5f6020820190506105205f830184610460565b92915050565b5f81519050919050565b5f82825260208201905092915050565b5f819050602082019050919050565b61055881610453565b82525050565b5f610569838361054f565b60208301905092915050565b5f602082019050919050565b5f61058b82610526565b6105958185610530565b93506105a083610540565b805f5b838110156105d05781516105b7888261055e565b97506105c283610575565b9250506001810190506105a3565b5085935050505092915050565b5f6020820190508181035f8301526105f58184610581565b905092915050565b61060681610453565b8114610610575f5ffd5b50565b5f81359050610621816105fd565b92915050565b5f6020828403121561063c5761063b6103f1565b5b5f61064984828501610613565b91505092915050565b7f4e487b71000000000000000000000000000000000000000000000000000000005f52602260045260245ffd5b5f600282049050600182168061069657607f821691505b6020821081036106a9576106a8610652565b5b50919050565b7f4e487b71000000000000000000000000000000000000000000000000000000005f52601160045260245ffd5b5f6106e6826103f5565b91506106f1836103f5565b9250828203905081811115610709576107086106af565b5b92915050565b7f4e487b71000000000000000000000000000000000000000000000000000000005f52603260045260245ffdfea26469706673582212207283f14eb5cc4732abee501d094ddd6c1b2fe90acbefff5bc7c51ca01712163364736f6c634300081e0033",
					"opcodes": "PUSH1 0x80 PUSH1 0x40 MSTORE CALLVALUE DUP1 ISZERO PUSH1 0xE JUMPI PUSH0 PUSH0 REVERT JUMPDEST POP PUSH2 0x772 DUP1 PUSH2 0x1C PUSH0 CODECOPY PUSH0 RETURN INVALID PUSH1 0x80 PUSH1 0x40 MSTORE CALLVALUE DUP1 ISZERO PUSH2 0xF JUMPI PUSH0 PUSH0 REVERT JUMPDEST POP PUSH1 0x4 CALLDATASIZE LT PUSH2 0x7B JUMPI PUSH0 CALLDATALOAD PUSH1 0xE0 SHR DUP1 PUSH4 0x6CFE98A7 GT PUSH2 0x59 JUMPI DUP1 PUSH4 0x6CFE98A7 EQ PUSH2 0xFE JUMPI DUP1 PUSH4 0x78308047 EQ PUSH2 0x11A JUMPI DUP1 PUSH4 0x8381F58A EQ PUSH2 0x14A JUMPI DUP1 PUSH4 0xFAFCD1A5 EQ PUSH2 0x168 JUMPI PUSH2 0x7B JUMP JUMPDEST DUP1 PUSH4 0x31F62CC7 EQ PUSH2 0x7F JUMPI DUP1 PUSH4 0x38D94193 EQ PUSH2 0xB0 JUMPI DUP1 PUSH4 0x4420598C EQ PUSH2 0xE0 JUMPI JUMPDEST PUSH0 PUSH0 REVERT JUMPDEST PUSH2 0x99 PUSH1 0x4 DUP1 CALLDATASIZE SUB DUP2 ADD SWAP1 PUSH2 0x94 SWAP2 SWAP1 PUSH2 0x428 JUMP JUMPDEST PUSH2 0x184 JUMP JUMPDEST PUSH1 0x40 MLOAD PUSH2 0xA7 SWAP3 SWAP2 SWAP1 PUSH2 0x4DF JUMP JUMPDEST PUSH1 0x40 MLOAD DUP1 SWAP2 SUB SWAP1 RETURN JUMPDEST PUSH2 0xCA PUSH1 0x4 DUP1 CALLDATASIZE SUB DUP2 ADD SWAP1 PUSH2 0xC5 SWAP2 SWAP1 PUSH2 0x428 JUMP JUMPDEST PUSH2 0x246 JUMP JUMPDEST PUSH1 0x40 MLOAD PUSH2 0xD7 SWAP2 SWAP1 PUSH2 0x50D JUMP JUMPDEST PUSH1 0x40 MLOAD DUP1 SWAP2 SUB SWAP1 RETURN JUMPDEST PUSH2 0xE8 PUSH2 0x27B JUMP JUMPDEST PUSH1 0x40 MLOAD PUSH2 0xF5 SWAP2 SWAP1 PUSH2 0x5DD JUMP JUMPDEST PUSH1 0x40 MLOAD DUP1 SWAP2 SUB SWAP1 RETURN JUMPDEST PUSH2 0x118 PUSH1 0x4 DUP1 CALLDATASIZE SUB DUP2 ADD SWAP1 PUSH2 0x113 SWAP2 SWAP1 PUSH2 0x627 JUMP JUMPDEST PUSH2 0x2F8 JUMP JUMPDEST STOP JUMPDEST PUSH2 0x134 PUSH1 0x4 DUP1 CALLDATASIZE SUB DUP2 ADD SWAP1 PUSH2 0x12F SWAP2 SWAP1 PUSH2 0x627 JUMP JUMPDEST PUSH2 0x35A JUMP JUMPDEST PUSH1 0x40 MLOAD PUSH2 0x141 SWAP2 SWAP1 PUSH2 0x50D JUMP JUMPDEST PUSH1 0x40 MLOAD DUP1 SWAP2 SUB SWAP1 RETURN JUMPDEST PUSH2 0x152 PUSH2 0x3C1 JUMP JUMPDEST PUSH1 0x40 MLOAD PUSH2 0x15F SWAP2 SWAP1 PUSH2 0x50D JUMP JUMPDEST PUSH1 0x40 MLOAD DUP1 SWAP2 SUB SWAP1 RETURN JUMPDEST PUSH2 0x182 PUSH1 0x4 DUP1 CALLDATASIZE SUB DUP2 ADD SWAP1 PUSH2 0x17D SWAP2 SWAP1 PUSH2 0x627 JUMP JUMPDEST PUSH2 0x3D3 JUMP JUMPDEST STOP JUMPDEST PUSH1 0x2 DUP2 DUP2 SLOAD DUP2 LT PUSH2 0x193 JUMPI PUSH0 DUP1 REVERT JUMPDEST SWAP1 PUSH0 MSTORE PUSH1 0x20 PUSH0 KECCAK256 SWAP1 PUSH1 0x2 MUL ADD PUSH0 SWAP2 POP SWAP1 POP DUP1 PUSH0 ADD PUSH0 SWAP1 SLOAD SWAP1 PUSH2 0x100 EXP SWAP1 DIV PUSH2 0xFFFF AND SWAP1 DUP1 PUSH1 0x1 ADD DUP1 SLOAD PUSH2 0x1C5 SWAP1 PUSH2 0x67F JUMP JUMPDEST DUP1 PUSH1 0x1F ADD PUSH1 0x20 DUP1 SWAP2 DIV MUL PUSH1 0x20 ADD PUSH1 0x40 MLOAD SWAP1 DUP2 ADD PUSH1 0x40 MSTORE DUP1 SWAP3 SWAP2 SWAP1 DUP2 DUP2 MSTORE PUSH1 0x20 ADD DUP3 DUP1 SLOAD PUSH2 0x1F1 SWAP1 PUSH2 0x67F JUMP JUMPDEST DUP1 ISZERO PUSH2 0x23C JUMPI DUP1 PUSH1 0x1F LT PUSH2 0x213 JUMPI PUSH2 0x100 DUP1 DUP4 SLOAD DIV MUL DUP4 MSTORE SWAP2 PUSH1 0x20 ADD SWAP2 PUSH2 0x23C JUMP JUMPDEST DUP3 ADD SWAP2 SWAP1 PUSH0 MSTORE PUSH1 0x20 PUSH0 KECCAK256 SWAP1 JUMPDEST DUP2 SLOAD DUP2 MSTORE SWAP1 PUSH1 0x1 ADD SWAP1 PUSH1 0x20 ADD DUP1 DUP4 GT PUSH2 0x21F JUMPI DUP3 SWAP1 SUB PUSH1 0x1F AND DUP3 ADD SWAP2 JUMPDEST POP POP POP POP POP SWAP1 POP DUP3 JUMP JUMPDEST PUSH1 0x1 DUP2 DUP2 SLOAD DUP2 LT PUSH2 0x255 JUMPI PUSH0 DUP1 REVERT JUMPDEST SWAP1 PUSH0 MSTORE PUSH1 0x20 PUSH0 KECCAK256 SWAP1 PUSH1 0x10 SWAP2 DUP3 DUP3 DIV ADD SWAP2 SWAP1 MOD PUSH1 0x2 MUL SWAP2 POP SLOAD SWAP1 PUSH2 0x100 EXP SWAP1 DIV PUSH2 0xFFFF AND DUP2 JUMP JUMPDEST PUSH1 0x60 PUSH1 0x1 DUP1 SLOAD DUP1 PUSH1 0x20 MUL PUSH1 0x20 ADD PUSH1 0x40 MLOAD SWAP1 DUP2 ADD PUSH1 0x40 MSTORE DUP1 SWAP3 SWAP2 SWAP1 DUP2 DUP2 MSTORE PUSH1 0x20 ADD DUP3 DUP1 SLOAD DUP1 ISZERO PUSH2 0x2EE JUMPI PUSH1 0x20 MUL DUP3 ADD SWAP2 SWAP1 PUSH0 MSTORE PUSH1 0x20 PUSH0 KECCAK256 SWAP1 PUSH0 SWAP1 JUMPDEST DUP3 DUP3 SWAP1 SLOAD SWAP1 PUSH2 0x100 EXP SWAP1 DIV PUSH2 0xFFFF AND PUSH2 0xFFFF AND DUP2 MSTORE PUSH1 0x20 ADD SWAP1 PUSH1 0x2 ADD SWAP1 PUSH1 0x20 DUP3 PUSH1 0x1 ADD DIV SWAP3 DUP4 ADD SWAP3 PUSH1 0x1 SUB DUP3 MUL SWAP2 POP DUP1 DUP5 GT PUSH2 0x2B5 JUMPI SWAP1 POP JUMPDEST POP POP POP POP POP SWAP1 POP SWAP1 JUMP JUMPDEST PUSH2 0x301 DUP2 PUSH2 0x3D3 JUMP JUMPDEST PUSH1 0x1 PUSH0 PUSH0 SWAP1 SLOAD SWAP1 PUSH2 0x100 EXP SWAP1 DIV PUSH2 0xFFFF AND SWAP1 DUP1 PUSH1 0x1 DUP2 SLOAD ADD DUP1 DUP3 SSTORE DUP1 SWAP2 POP POP PUSH1 0x1 SWAP1 SUB SWAP1 PUSH0 MSTORE PUSH1 0x20 PUSH0 KECCAK256 SWAP1 PUSH1 0x10 SWAP2 DUP3 DUP3 DIV ADD SWAP2 SWAP1 MOD PUSH1 0x2 MUL SWAP1 SWAP2 SWAP1 SWAP2 SWAP1 SWAP2 PUSH2 0x100 EXP DUP2 SLOAD DUP2 PUSH2 0xFFFF MUL NOT AND SWAP1 DUP4 PUSH2 0xFFFF AND MUL OR SWAP1 SSTORE POP POP JUMP JUMPDEST PUSH0 PUSH1 0x1 DUP1 DUP1 SLOAD SWAP1 POP PUSH2 0x36C SWAP2 SWAP1 PUSH2 0x6DC JUMP JUMPDEST DUP3 PUSH2 0xFFFF AND GT ISZERO PUSH2 0x37F JUMPI PUSH0 SWAP1 POP PUSH2 0x3BC JUMP JUMPDEST PUSH1 0x1 DUP3 PUSH2 0xFFFF AND DUP2 SLOAD DUP2 LT PUSH2 0x397 JUMPI PUSH2 0x396 PUSH2 0x70F JUMP JUMPDEST JUMPDEST SWAP1 PUSH0 MSTORE PUSH1 0x20 PUSH0 KECCAK256 SWAP1 PUSH1 0x10 SWAP2 DUP3 DUP3 DIV ADD SWAP2 SWAP1 MOD PUSH1 0x2 MUL SWAP1 SLOAD SWAP1 PUSH2 0x100 EXP SWAP1 DIV PUSH2 0xFFFF AND SWAP1 POP JUMPDEST SWAP2 SWAP1 POP JUMP JUMPDEST PUSH0 PUSH0 SWAP1 SLOAD SWAP1 PUSH2 0x100 EXP SWAP1 DIV PUSH2 0xFFFF AND DUP2 JUMP JUMPDEST DUP1 PUSH0 PUSH0 PUSH2 0x100 EXP DUP2 SLOAD DUP2 PUSH2 0xFFFF MUL NOT AND SWAP1 DUP4 PUSH2 0xFFFF AND MUL OR SWAP1 SSTORE POP POP JUMP JUMPDEST PUSH0 PUSH0 REVERT JUMPDEST PUSH0 DUP2 SWAP1 POP SWAP2 SWAP1 POP JUMP JUMPDEST PUSH2 0x407 DUP2 PUSH2 0x3F5 JUMP JUMPDEST DUP2 EQ PUSH2 0x411 JUMPI PUSH0 PUSH0 REVERT JUMPDEST POP JUMP JUMPDEST PUSH0 DUP2 CALLDATALOAD SWAP1 POP PUSH2 0x422 DUP2 PUSH2 0x3FE JUMP JUMPDEST SWAP3 SWAP2 POP POP JUMP JUMPDEST PUSH0 PUSH1 0x20 DUP3 DUP5 SUB SLT ISZERO PUSH2 0x43D JUMPI PUSH2 0x43C PUSH2 0x3F1 JUMP JUMPDEST JUMPDEST PUSH0 PUSH2 0x44A DUP5 DUP3 DUP6 ADD PUSH2 0x414 JUMP JUMPDEST SWAP2 POP POP SWAP3 SWAP2 POP POP JUMP JUMPDEST PUSH0 PUSH2 0xFFFF DUP3 AND SWAP1 POP SWAP2 SWAP1 POP JUMP JUMPDEST PUSH2 0x469 DUP2 PUSH2 0x453 JUMP JUMPDEST DUP3 MSTORE POP POP JUMP JUMPDEST PUSH0 DUP2 MLOAD SWAP1 POP SWAP2 SWAP1 POP JUMP JUMPDEST PUSH0 DUP3 DUP3 MSTORE PUSH1 0x20 DUP3 ADD SWAP1 POP SWAP3 SWAP2 POP POP JUMP JUMPDEST DUP3 DUP2 DUP4 MCOPY PUSH0 DUP4 DUP4 ADD MSTORE POP POP POP JUMP JUMPDEST PUSH0 PUSH1 0x1F NOT PUSH1 0x1F DUP4 ADD AND SWAP1 POP SWAP2 SWAP1 POP JUMP JUMPDEST PUSH0 PUSH2 0x4B1 DUP3 PUSH2 0x46F JUMP JUMPDEST PUSH2 0x4BB DUP2 DUP6 PUSH2 0x479 JUMP JUMPDEST SWAP4 POP PUSH2 0x4CB DUP2 DUP6 PUSH1 0x20 DUP7 ADD PUSH2 0x489 JUMP JUMPDEST PUSH2 0x4D4 DUP2 PUSH2 0x497 JUMP JUMPDEST DUP5 ADD SWAP2 POP POP SWAP3 SWAP2 POP POP JUMP JUMPDEST PUSH0 PUSH1 0x40 DUP3 ADD SWAP1 POP PUSH2 0x4F2 PUSH0 DUP4 ADD DUP6 PUSH2 0x460 JUMP JUMPDEST DUP2 DUP2 SUB PUSH1 0x20 DUP4 ADD MSTORE PUSH2 0x504 DUP2 DUP5 PUSH2 0x4A7 JUMP JUMPDEST SWAP1 POP SWAP4 SWAP3 POP POP POP JUMP JUMPDEST PUSH0 PUSH1 0x20 DUP3 ADD SWAP1 POP PUSH2 0x520 PUSH0 DUP4 ADD DUP5 PUSH2 0x460 JUMP JUMPDEST SWAP3 SWAP2 POP POP JUMP JUMPDEST PUSH0 DUP2 MLOAD SWAP1 POP SWAP2 SWAP1 POP JUMP JUMPDEST PUSH0 DUP3 DUP3 MSTORE PUSH1 0x20 DUP3 ADD SWAP1 POP SWAP3 SWAP2 POP POP JUMP JUMPDEST PUSH0 DUP2 SWAP1 POP PUSH1 0x20 DUP3 ADD SWAP1 POP SWAP2 SWAP1 POP JUMP JUMPDEST PUSH2 0x558 DUP2 PUSH2 0x453 JUMP JUMPDEST DUP3 MSTORE POP POP JUMP JUMPDEST PUSH0 PUSH2 0x569 DUP4 DUP4 PUSH2 0x54F JUMP JUMPDEST PUSH1 0x20 DUP4 ADD SWAP1 POP SWAP3 SWAP2 POP POP JUMP JUMPDEST PUSH0 PUSH1 0x20 DUP3 ADD SWAP1 POP SWAP2 SWAP1 POP JUMP JUMPDEST PUSH0 PUSH2 0x58B DUP3 PUSH2 0x526 JUMP JUMPDEST PUSH2 0x595 DUP2 DUP6 PUSH2 0x530 JUMP JUMPDEST SWAP4 POP PUSH2 0x5A0 DUP4 PUSH2 0x540 JUMP JUMPDEST DUP1 PUSH0 JUMPDEST DUP4 DUP2 LT ISZERO PUSH2 0x5D0 JUMPI DUP2 MLOAD PUSH2 0x5B7 DUP9 DUP3 PUSH2 0x55E JUMP JUMPDEST SWAP8 POP PUSH2 0x5C2 DUP4 PUSH2 0x575 JUMP JUMPDEST SWAP3 POP POP PUSH1 0x1 DUP2 ADD SWAP1 POP PUSH2 0x5A3 JUMP JUMPDEST POP DUP6 SWAP4 POP POP POP POP SWAP3 SWAP2 POP POP JUMP JUMPDEST PUSH0 PUSH1 0x20 DUP3 ADD SWAP1 POP DUP2 DUP2 SUB PUSH0 DUP4 ADD MSTORE PUSH2 0x5F5 DUP2 DUP5 PUSH2 0x581 JUMP JUMPDEST SWAP1 POP SWAP3 SWAP2 POP POP JUMP JUMPDEST PUSH2 0x606 DUP2 PUSH2 0x453 JUMP JUMPDEST DUP2 EQ PUSH2 0x610 JUMPI PUSH0 PUSH0 REVERT JUMPDEST POP JUMP JUMPDEST PUSH0 DUP2 CALLDATALOAD SWAP1 POP PUSH2 0x621 DUP2 PUSH2 0x5FD JUMP JUMPDEST SWAP3 SWAP2 POP POP JUMP JUMPDEST PUSH0 PUSH1 0x20 DUP3 DUP5 SUB SLT ISZERO PUSH2 0x63C JUMPI PUSH2 0x63B PUSH2 0x3F1 JUMP JUMPDEST JUMPDEST PUSH0 PUSH2 0x649 DUP5 DUP3 DUP6 ADD PUSH2 0x613 JUMP JUMPDEST SWAP2 POP POP SWAP3 SWAP2 POP POP JUMP JUMPDEST PUSH32 0x4E487B7100000000000000000000000000000000000000000000000000000000 PUSH0 MSTORE PUSH1 0x22 PUSH1 0x4 MSTORE PUSH1 0x24 PUSH0 REVERT JUMPDEST PUSH0 PUSH1 0x2 DUP3 DIV SWAP1 POP PUSH1 0x1 DUP3 AND DUP1 PUSH2 0x696 JUMPI PUSH1 0x7F DUP3 AND SWAP2 POP JUMPDEST PUSH1 0x20 DUP3 LT DUP2 SUB PUSH2 0x6A9 JUMPI PUSH2 0x6A8 PUSH2 0x652 JUMP JUMPDEST JUMPDEST POP SWAP2 SWAP1 POP JUMP JUMPDEST PUSH32 0x4E487B7100000000000000000000000000000000000000000000000000000000 PUSH0 MSTORE PUSH1 0x11 PUSH1 0x4 MSTORE PUSH1 0x24 PUSH0 REVERT JUMPDEST PUSH0 PUSH2 0x6E6 DUP3 PUSH2 0x3F5 JUMP JUMPDEST SWAP2 POP PUSH2 0x6F1 DUP4 PUSH2 0x3F5 JUMP JUMPDEST SWAP3 POP DUP3 DUP3 SUB SWAP1 POP DUP2 DUP2 GT ISZERO PUSH2 0x709 JUMPI PUSH2 0x708 PUSH2 0x6AF JUMP JUMPDEST JUMPDEST SWAP3 SWAP2 POP POP JUMP JUMPDEST PUSH32 0x4E487B7100000000000000000000000000000000000000000000000000000000 PUSH0 MSTORE PUSH1 0x32 PUSH1 0x4 MSTORE PUSH1 0x24 PUSH0 REVERT INVALID LOG2 PUSH5 0x6970667358 0x22 SLT KECCAK256 PUSH19 0x83F14EB5CC4732ABEE501D094DDD6C1B2FE90A 0xCB 0xEF SELFDESTRUCT JUMPDEST 0xC7 0xC5 SHR LOG0 OR SLT AND CALLER PUSH5 0x736F6C6343 STOP ADDMOD 0x1E STOP CALLER "
				},
				"gasEstimates": {
					"creation": {
						"codeDepositCost": "381200",
						"executionCost": "416",
						"totalCost": "381616"
					},
					"external": {
						"ViewArray()": "infinite",
						"addNumber(uint16)": "77048",
						"array(uint256)": "6562",
						"dynamic_array(uint256)": "infinite",
						"getNumberFromArray(uint16)": "infinite",
						"number()": "2509",
						"store(uint16)": "24738"
					}
				},
				"methodIdentifiers": {
					"ViewArray()": "4420598c",
					"addNumber(uint16)": "6cfe98a7",
					"array(uint256)": "38d94193",
					"dynamic_array(uint256)": "31f62cc7",
					"getNumberFromArray(uint16)": "78308047",
					"number()": "8381f58a",
					"store(uint16)": "fafcd1a5"
				}
			},
			"storageLayout": {
				"storage": [
					{
						"astId": 3,
						"contract": "Basic/SimpleStorage.sol:SimpleStorage",
						"label": "number",
						"offset": 0,
						"slot": "0",
						"type": "t_uint16"
					},
					{
						"astId": 6,
						"contract": "Basic/SimpleStorage.sol:SimpleStorage",
						"label": "array",
						"offset": 0,
						"slot": "1",
						"type": "t_array(t_uint16)dyn_storage"
					},
					{
						"astId": 15,
						"contract": "Basic/SimpleStorage.sol:SimpleStorage",
						"label": "dynamic_array",
						"offset": 0,
						"slot": "2",
						"type": "t_array(t_struct(Person)11_storage)dyn_storage"
					}
				],
				"types": {
					"t_array(t_struct(Person)11_storage)dyn_storage": {
						"base": "t_struct(Person)11_storage",
						"encoding": "dynamic_array",
						"label": "struct SimpleStorage.Person[]",
						"numberOfBytes": "32"
					},
					"t_array(t_uint16)dyn_storage": {
						"base": "t_uint16",
						"encoding": "dynamic_array",
						"label": "uint16[]",
						"numberOfBytes": "32"
					},
					"t_string_storage": {
						"encoding": "bytes",
						"label": "string",
						"numberOfBytes": "32"
					},
					"t_struct(Person)11_storage": {
						"encoding": "inplace",
						"label": "struct SimpleStorage.Person",
						"members": [
							{
								"astId": 8,
								"contract": "Basic/SimpleStorage.sol:SimpleStorage",
								"label": "sdt",
								"offset": 0,
								"slot": "0",
								"type": "t_uint16"
							},
							{
								"astId": 10,
								"contract": "Basic/SimpleStorage.sol:SimpleStorage",
								"label": "name",
								"offset": 0,
								"slot": "1",
								"type": "t_string_storage"
							}
						],
						"numberOfBytes": "64"
					},
					"t_uint16": {
						"encoding": "inplace",
						"label": "uint16",
						"numberOfBytes": "2"
					}
				}
			},
			"userdoc": {
				"kind": "user",
				"methods": {},
				"version": 1
			}
		}
	}
}