{
	"contract/StudentInfo.sol": {
		"StudentInfo": {
			"abi": [
				{
					"anonymous": false,
					"inputs": [
						{
							"indexed": false,
							"internalType": "int256",
							"name": "studentId",
							"type": "int256"
						},
						{
							"indexed": false,
							"internalType": "uint32",
							"name": "mark1",
							"type": "uint32"
						},
						{
							"indexed": false,
							"internalType": "uint32",
							"name": "mark2",
							"type": "uint32"
						},
						{
							"indexed": false,
							"internalType": "uint32",
							"name": "mark3",
							"type": "uint32"
						}
					],
					"name": "GradeUpdated",
					"type": "event"
				},
				{
					"inputs": [],
					"name": "addFunds",
					"outputs": [],
					"stateMutability": "payable",
					"type": "function"
				},
				{
					"inputs": [],
					"name": "balance",
					"outputs": [
						{
							"internalType": "uint256",
							"name": "",
							"type": "uint256"
						}
					],
					"stateMutability": "view",
					"type": "function"
				},
				{
					"inputs": [
						{
							"internalType": "int256",
							"name": "_studentId",
							"type": "int256"
						}
					],
					"name": "getGrade",
					"outputs": [
						{
							"components": [
								{
									"internalType": "uint32",
									"name": "mark1",
									"type": "uint32"
								},
								{
									"internalType": "uint32",
									"name": "mark2",
									"type": "uint32"
								},
								{
									"internalType": "uint32",
									"name": "mark3",
									"type": "uint32"
								}
							],
							"internalType": "struct Grade",
							"name": "",
							"type": "tuple"
						}
					],
					"stateMutability": "view",
					"type": "function"
				},
				{
					"inputs": [],
					"name": "id",
					"outputs": [
						{
							"internalType": "int256",
							"name": "",
							"type": "int256"
						}
					],
					"stateMutability": "view",
					"type": "function"
				},
				{
					"inputs": [],
					"name": "name",
					"outputs": [
						{
							"internalType": "string",
							"name": "",
							"type": "string"
						}
					],
					"stateMutability": "view",
					"type": "function"
				},
				{
					"inputs": [
						{
							"internalType": "int256",
							"name": "_studentId",
							"type": "int256"
						},
						{
							"internalType": "uint32[3]",
							"name": "_grades",
							"type": "uint32[3]"
						}
					],
					"name": "setGrade",
					"outputs": [],
					"stateMutability": "nonpayable",
					"type": "function"
				},
				{
					"inputs": [
						{
							"internalType": "int256",
							"name": "_studentId",
							"type": "int256"
						},
						{
							"internalType": "address",
							"name": "_wallet",
							"type": "address"
						}
					],
					"name": "setStudentWallet",
					"outputs": [],
					"stateMutability": "nonpayable",
					"type": "function"
				},
				{
					"inputs": [
						{
							"internalType": "int256",
							"name": "",
							"type": "int256"
						}
					],
					"name": "student_grades",
					"outputs": [
						{
							"internalType": "uint32",
							"name": "mark1",
							"type": "uint32"
						},
						{
							"internalType": "uint32",
							"name": "mark2",
							"type": "uint32"
						},
						{
							"internalType": "uint32",
							"name": "mark3",
							"type": "uint32"
						}
					],
					"stateMutability": "view",
					"type": "function"
				},
				{
					"inputs": [],
					"name": "student_type",
					"outputs": [
						{
							"internalType": "enum StudentType",
							"name": "",
							"type": "uint8"
						}
					],
					"stateMutability": "view",
					"type": "function"
				},
				{
					"inputs": [
						{
							"internalType": "int256",
							"name": "",
							"type": "int256"
						}
					],
					"name": "student_wallet",
					"outputs": [
						{
							"internalType": "address",
							"name": "",
							"type": "address"
						}
					],
					"stateMutability": "view",
					"type": "function"
				},
				{
					"inputs": [
						{
							"internalType": "string",
							"name": "ta",
							"type": "string"
						}
					],
					"name": "test",
					"outputs": [],
					"stateMutability": "nonpayable",
					"type": "function"
				}
			],
			"devdoc": {
				"kind": "dev",
				"methods": {},
				"version": 1
			},
			"evm": {
				"assembly": "    /* \"contract/StudentInfo.sol\":200:1902  contract StudentInfo {... */\n  mstore(0x40, 0x80)\n  callvalue\n  dup1\n  iszero\n  tag_1\n  jumpi\n  revert(0x00, 0x00)\ntag_1:\n  pop\n  dataSize(sub_0)\n  dup1\n  dataOffset(sub_0)\n  0x00\n  codecopy\n  0x00\n  return\nstop\n\nsub_0: assembly {\n        /* \"contract/StudentInfo.sol\":200:1902  contract StudentInfo {... */\n      mstore(0x40, 0x80)\n      jumpi(tag_1, lt(calldatasize, 0x04))\n      shr(0xe0, calldataload(0x00))\n      dup1\n      0x99c7e31b\n      gt\n      tag_13\n      jumpi\n      dup1\n      0x99c7e31b\n      eq\n      tag_7\n      jumpi\n      dup1\n      0xa26759cb\n      eq\n      tag_8\n      jumpi\n      dup1\n      0xaf640d0f\n      eq\n      tag_9\n      jumpi\n      dup1\n      0xb69ef8a8\n      eq\n      tag_10\n      jumpi\n      dup1\n      0xf9fbd554\n      eq\n      tag_11\n      jumpi\n      dup1\n      0xfd90c86a\n      eq\n      tag_12\n      jumpi\n      jump(tag_1)\n    tag_13:\n      dup1\n      0x06fdde03\n      eq\n      tag_2\n      jumpi\n      dup1\n      0x100a5f68\n      eq\n      tag_3\n      jumpi\n      dup1\n      0x1fdbb82a\n      eq\n      tag_4\n      jumpi\n      dup1\n      0x654b5def\n      eq\n      tag_5\n      jumpi\n      dup1\n      0x71f94692\n      eq\n      tag_6\n      jumpi\n    tag_1:\n      revert(0x00, 0x00)\n        /* \"contract/StudentInfo.sol\":255:273  string public name */\n    tag_2:\n      callvalue\n      dup1\n      iszero\n      tag_14\n      jumpi\n      revert(0x00, 0x00)\n    tag_14:\n      pop\n      tag_15\n      tag_16\n      jump\t// in\n    tag_15:\n      mload(0x40)\n      tag_17\n      swap2\n      swap1\n      tag_18\n      jump\t// in\n    tag_17:\n      mload(0x40)\n      dup1\n      swap2\n      sub\n      swap1\n      return\n        /* \"contract/StudentInfo.sol\":1570:1693  function setStudentWallet(int256  _studentId, address _wallet) public {... */\n    tag_3:\n      callvalue\n      dup1\n      iszero\n      tag_19\n      jumpi\n      revert(0x00, 0x00)\n    tag_19:\n      pop\n      tag_20\n      0x04\n      dup1\n      calldatasize\n      sub\n      dup2\n      add\n      swap1\n      tag_21\n      swap2\n      swap1\n      tag_22\n      jump\t// in\n    tag_21:\n      tag_23\n      jump\t// in\n    tag_20:\n      stop\n        /* \"contract/StudentInfo.sol\":780:1345  function setGrade(int256  _studentId, uint32[3] memory _grades) public {... */\n    tag_4:\n      callvalue\n      dup1\n      iszero\n      tag_24\n      jumpi\n      revert(0x00, 0x00)\n    tag_24:\n      pop\n      tag_25\n      0x04\n      dup1\n      calldatasize\n      sub\n      dup2\n      add\n      swap1\n      tag_26\n      swap2\n      swap1\n      tag_27\n      jump\t// in\n    tag_26:\n      tag_28\n      jump\t// in\n    tag_25:\n      stop\n        /* \"contract/StudentInfo.sol\":1395:1518  function getGrade(int256  _studentId) public view returns (Grade memory) {... */\n    tag_5:\n      callvalue\n      dup1\n      iszero\n      tag_29\n      jumpi\n      revert(0x00, 0x00)\n    tag_29:\n      pop\n      tag_30\n      0x04\n      dup1\n      calldatasize\n      sub\n      dup2\n      add\n      swap1\n      tag_31\n      swap2\n      swap1\n      tag_32\n      jump\t// in\n    tag_31:\n      tag_33\n      jump\t// in\n    tag_30:\n      mload(0x40)\n      tag_34\n      swap2\n      swap1\n      tag_35\n      jump\t// in\n    tag_34:\n      mload(0x40)\n      dup1\n      swap2\n      sub\n      swap1\n      return\n        /* \"contract/StudentInfo.sol\":372:420  mapping(int256 => address) public student_wallet */\n    tag_6:\n      callvalue\n      dup1\n      iszero\n      tag_36\n      jumpi\n      revert(0x00, 0x00)\n    tag_36:\n      pop\n      tag_37\n      0x04\n      dup1\n      calldatasize\n      sub\n      dup2\n      add\n      swap1\n      tag_38\n      swap2\n      swap1\n      tag_32\n      jump\t// in\n    tag_38:\n      tag_39\n      jump\t// in\n    tag_37:\n      mload(0x40)\n      tag_40\n      swap2\n      swap1\n      tag_41\n      jump\t// in\n    tag_40:\n      mload(0x40)\n      dup1\n      swap2\n      sub\n      swap1\n      return\n        /* \"contract/StudentInfo.sol\":279:310  StudentType public student_type */\n    tag_7:\n      callvalue\n      dup1\n      iszero\n      tag_42\n      jumpi\n      revert(0x00, 0x00)\n    tag_42:\n      pop\n      tag_43\n      tag_44\n      jump\t// in\n    tag_43:\n      mload(0x40)\n      tag_45\n      swap2\n      swap1\n      tag_46\n      jump\t// in\n    tag_45:\n      mload(0x40)\n      dup1\n      swap2\n      sub\n      swap1\n      return\n        /* \"contract/StudentInfo.sol\":1748:1820  function addFunds() public payable {... */\n    tag_8:\n      tag_47\n      tag_48\n      jump\t// in\n    tag_47:\n      stop\n        /* \"contract/StudentInfo.sol\":232:249  int256 public  id */\n    tag_9:\n      callvalue\n      dup1\n      iszero\n      tag_49\n      jumpi\n      revert(0x00, 0x00)\n    tag_49:\n      pop\n      tag_50\n      tag_51\n      jump\t// in\n    tag_50:\n      mload(0x40)\n      tag_52\n      swap2\n      swap1\n      tag_53\n      jump\t// in\n    tag_52:\n      mload(0x40)\n      dup1\n      swap2\n      sub\n      swap1\n      return\n        /* \"contract/StudentInfo.sol\":479:501  uint256 public balance */\n    tag_10:\n      callvalue\n      dup1\n      iszero\n      tag_54\n      jumpi\n      revert(0x00, 0x00)\n    tag_54:\n      pop\n      tag_55\n      tag_56\n      jump\t// in\n    tag_55:\n      mload(0x40)\n      tag_57\n      swap2\n      swap1\n      tag_58\n      jump\t// in\n    tag_57:\n      mload(0x40)\n      dup1\n      swap2\n      sub\n      swap1\n      return\n        /* \"contract/StudentInfo.sol\":1825:1900  function test( string calldata ta) public {... */\n    tag_11:\n      callvalue\n      dup1\n      iszero\n      tag_59\n      jumpi\n      revert(0x00, 0x00)\n    tag_59:\n      pop\n      tag_60\n      0x04\n      dup1\n      calldatasize\n      sub\n      dup2\n      add\n      swap1\n      tag_61\n      swap2\n      swap1\n      tag_62\n      jump\t// in\n    tag_61:\n      tag_63\n      jump\t// in\n    tag_60:\n      stop\n        /* \"contract/StudentInfo.sol\":561:607  mapping(int256 => Grade) public student_grades */\n    tag_12:\n      callvalue\n      dup1\n      iszero\n      tag_64\n      jumpi\n      revert(0x00, 0x00)\n    tag_64:\n      pop\n      tag_65\n      0x04\n      dup1\n      calldatasize\n      sub\n      dup2\n      add\n      swap1\n      tag_66\n      swap2\n      swap1\n      tag_32\n      jump\t// in\n    tag_66:\n      tag_67\n      jump\t// in\n    tag_65:\n      mload(0x40)\n      tag_68\n      swap4\n      swap3\n      swap2\n      swap1\n      tag_69\n      jump\t// in\n    tag_68:\n      mload(0x40)\n      dup1\n      swap2\n      sub\n      swap1\n      return\n        /* \"contract/StudentInfo.sol\":255:273  string public name */\n    tag_16:\n      0x01\n      dup1\n      sload\n      tag_70\n      swap1\n      tag_71\n      jump\t// in\n    tag_70:\n      dup1\n      0x1f\n      add\n      0x20\n      dup1\n      swap2\n      div\n      mul\n      0x20\n      add\n      mload(0x40)\n      swap1\n      dup2\n      add\n      0x40\n      mstore\n      dup1\n      swap3\n      swap2\n      swap1\n      dup2\n      dup2\n      mstore\n      0x20\n      add\n      dup3\n      dup1\n      sload\n      tag_72\n      swap1\n      tag_71\n      jump\t// in\n    tag_72:\n      dup1\n      iszero\n      tag_73\n      jumpi\n      dup1\n      0x1f\n      lt\n      tag_74\n      jumpi\n      0x0100\n      dup1\n      dup4\n      sload\n      div\n      mul\n      dup4\n      mstore\n      swap2\n      0x20\n      add\n      swap2\n      jump(tag_73)\n    tag_74:\n      dup3\n      add\n      swap2\n      swap1\n      0x00\n      mstore\n      keccak256(0x00, 0x20)\n      swap1\n    tag_75:\n      dup2\n      sload\n      dup2\n      mstore\n      swap1\n      0x01\n      add\n      swap1\n      0x20\n      add\n      dup1\n      dup4\n      gt\n      tag_75\n      jumpi\n      dup3\n      swap1\n      sub\n      0x1f\n      and\n      dup3\n      add\n      swap2\n    tag_73:\n      pop\n      pop\n      pop\n      pop\n      pop\n      dup2\n      jump\t// out\n        /* \"contract/StudentInfo.sol\":1570:1693  function setStudentWallet(int256  _studentId, address _wallet) public {... */\n    tag_23:\n        /* \"contract/StudentInfo.sol\":1679:1686  _wallet */\n      dup1\n        /* \"contract/StudentInfo.sol\":1650:1664  student_wallet */\n      0x03\n        /* \"contract/StudentInfo.sol\":1650:1676  student_wallet[_studentId] */\n      0x00\n        /* \"contract/StudentInfo.sol\":1665:1675  _studentId */\n      dup5\n        /* \"contract/StudentInfo.sol\":1650:1676  student_wallet[_studentId] */\n      dup2\n      mstore\n      0x20\n      add\n      swap1\n      dup2\n      mstore\n      0x20\n      add\n      0x00\n      keccak256\n      0x00\n        /* \"contract/StudentInfo.sol\":1650:1686  student_wallet[_studentId] = _wallet */\n      0x0100\n      exp\n      dup2\n      sload\n      dup2\n      0xffffffffffffffffffffffffffffffffffffffff\n      mul\n      not\n      and\n      swap1\n      dup4\n      0xffffffffffffffffffffffffffffffffffffffff\n      and\n      mul\n      or\n      swap1\n      sstore\n      pop\n        /* \"contract/StudentInfo.sol\":1570:1693  function setStudentWallet(int256  _studentId, address _wallet) public {... */\n      pop\n      pop\n      jump\t// out\n        /* \"contract/StudentInfo.sol\":780:1345  function setGrade(int256  _studentId, uint32[3] memory _grades) public {... */\n    tag_28:\n        /* \"contract/StudentInfo.sol\":956:959  100 */\n      0x64\n        /* \"contract/StudentInfo.sol\":942:949  _grades */\n      dup2\n        /* \"contract/StudentInfo.sol\":950:951  0 */\n      0x00\n        /* \"contract/StudentInfo.sol\":942:952  _grades[0] */\n      0x03\n      dup2\n      lt\n      tag_78\n      jumpi\n      tag_79\n      tag_80\n      jump\t// in\n    tag_79:\n    tag_78:\n      0x20\n      mul\n      add\n      mload\n        /* \"contract/StudentInfo.sol\":942:959  _grades[0] <= 100 */\n      0xffffffff\n      and\n      gt\n      iszero\n        /* \"contract/StudentInfo.sol\":942:980  _grades[0] <= 100 && _grades[1] <= 100 */\n      dup1\n      iszero\n      tag_81\n      jumpi\n      pop\n        /* \"contract/StudentInfo.sol\":977:980  100 */\n      0x64\n        /* \"contract/StudentInfo.sol\":963:970  _grades */\n      dup2\n        /* \"contract/StudentInfo.sol\":971:972  1 */\n      0x01\n        /* \"contract/StudentInfo.sol\":963:973  _grades[1] */\n      0x03\n      dup2\n      lt\n      tag_82\n      jumpi\n      tag_83\n      tag_80\n      jump\t// in\n    tag_83:\n    tag_82:\n      0x20\n      mul\n      add\n      mload\n        /* \"contract/StudentInfo.sol\":963:980  _grades[1] <= 100 */\n      0xffffffff\n      and\n      gt\n      iszero\n        /* \"contract/StudentInfo.sol\":942:980  _grades[0] <= 100 && _grades[1] <= 100 */\n    tag_81:\n        /* \"contract/StudentInfo.sol\":942:1001  _grades[0] <= 100 && _grades[1] <= 100 && _grades[2] <= 100 */\n      dup1\n      iszero\n      tag_84\n      jumpi\n      pop\n        /* \"contract/StudentInfo.sol\":998:1001  100 */\n      0x64\n        /* \"contract/StudentInfo.sol\":984:991  _grades */\n      dup2\n        /* \"contract/StudentInfo.sol\":992:993  2 */\n      0x02\n        /* \"contract/StudentInfo.sol\":984:994  _grades[2] */\n      0x03\n      dup2\n      lt\n      tag_85\n      jumpi\n      tag_86\n      tag_80\n      jump\t// in\n    tag_86:\n    tag_85:\n      0x20\n      mul\n      add\n      mload\n        /* \"contract/StudentInfo.sol\":984:1001  _grades[2] <= 100 */\n      0xffffffff\n      and\n      gt\n      iszero\n        /* \"contract/StudentInfo.sol\":942:1001  _grades[0] <= 100 && _grades[1] <= 100 && _grades[2] <= 100 */\n    tag_84:\n        /* \"contract/StudentInfo.sol\":934:1026  require(_grades[0] <= 100 && _grades[1] <= 100 && _grades[2] <= 100, \"Marks must be <= 100\") */\n      tag_87\n      jumpi\n      mload(0x40)\n      0x08c379a000000000000000000000000000000000000000000000000000000000\n      dup2\n      mstore\n      0x04\n      add\n      tag_88\n      swap1\n      tag_89\n      jump\t// in\n    tag_88:\n      mload(0x40)\n      dup1\n      swap2\n      sub\n      swap1\n      revert\n    tag_87:\n        /* \"contract/StudentInfo.sol\":1113:1223  Grade({... */\n      mload(0x40)\n      dup1\n      0x60\n      add\n      0x40\n      mstore\n      dup1\n        /* \"contract/StudentInfo.sol\":1140:1147  _grades */\n      dup3\n        /* \"contract/StudentInfo.sol\":1148:1149  0 */\n      0x00\n        /* \"contract/StudentInfo.sol\":1140:1150  _grades[0] */\n      0x03\n      dup2\n      lt\n      tag_90\n      jumpi\n      tag_91\n      tag_80\n      jump\t// in\n    tag_91:\n    tag_90:\n      0x20\n      mul\n      add\n      mload\n        /* \"contract/StudentInfo.sol\":1113:1223  Grade({... */\n      0xffffffff\n      and\n      dup2\n      mstore\n      0x20\n      add\n        /* \"contract/StudentInfo.sol\":1171:1178  _grades */\n      dup3\n        /* \"contract/StudentInfo.sol\":1179:1180  1 */\n      0x01\n        /* \"contract/StudentInfo.sol\":1171:1181  _grades[1] */\n      0x03\n      dup2\n      lt\n      tag_92\n      jumpi\n      tag_93\n      tag_80\n      jump\t// in\n    tag_93:\n    tag_92:\n      0x20\n      mul\n      add\n      mload\n        /* \"contract/StudentInfo.sol\":1113:1223  Grade({... */\n      0xffffffff\n      and\n      dup2\n      mstore\n      0x20\n      add\n        /* \"contract/StudentInfo.sol\":1202:1209  _grades */\n      dup3\n        /* \"contract/StudentInfo.sol\":1210:1211  2 */\n      0x02\n        /* \"contract/StudentInfo.sol\":1202:1212  _grades[2] */\n      0x03\n      dup2\n      lt\n      tag_94\n      jumpi\n      tag_95\n      tag_80\n      jump\t// in\n    tag_95:\n    tag_94:\n      0x20\n      mul\n      add\n      mload\n        /* \"contract/StudentInfo.sol\":1113:1223  Grade({... */\n      0xffffffff\n      and\n      dup2\n      mstore\n      pop\n        /* \"contract/StudentInfo.sol\":1084:1098  student_grades */\n      0x05\n        /* \"contract/StudentInfo.sol\":1084:1110  student_grades[_studentId] */\n      0x00\n        /* \"contract/StudentInfo.sol\":1099:1109  _studentId */\n      dup5\n        /* \"contract/StudentInfo.sol\":1084:1110  student_grades[_studentId] */\n      dup2\n      mstore\n      0x20\n      add\n      swap1\n      dup2\n      mstore\n      0x20\n      add\n      0x00\n      keccak256\n        /* \"contract/StudentInfo.sol\":1084:1223  student_grades[_studentId] = Grade({... */\n      0x00\n      dup3\n      add\n      mload\n      dup2\n      0x00\n      add\n      exp(0x0100, 0x00)\n      dup2\n      sload\n      dup2\n      0xffffffff\n      mul\n      not\n      and\n      swap1\n      dup4\n      0xffffffff\n      and\n      mul\n      or\n      swap1\n      sstore\n      pop\n      0x20\n      dup3\n      add\n      mload\n      dup2\n      0x00\n      add\n      exp(0x0100, 0x04)\n      dup2\n      sload\n      dup2\n      0xffffffff\n      mul\n      not\n      and\n      swap1\n      dup4\n      0xffffffff\n      and\n      mul\n      or\n      swap1\n      sstore\n      pop\n      0x40\n      dup3\n      add\n      mload\n      dup2\n      0x00\n      add\n      exp(0x0100, 0x08)\n      dup2\n      sload\n      dup2\n      0xffffffff\n      mul\n      not\n      and\n      swap1\n      dup4\n      0xffffffff\n      and\n      mul\n      or\n      swap1\n      sstore\n      pop\n      swap1\n      pop\n      pop\n        /* \"contract/StudentInfo.sol\":1278:1338  GradeUpdated(_studentId, _grades[0], _grades[1], _grades[2]) */\n      0x15f0028b62fa7401dabd6a17ae086f7743f7b7bc60401477e82994d7b8c6a156\n        /* \"contract/StudentInfo.sol\":1291:1301  _studentId */\n      dup3\n        /* \"contract/StudentInfo.sol\":1303:1310  _grades */\n      dup3\n        /* \"contract/StudentInfo.sol\":1311:1312  0 */\n      0x00\n        /* \"contract/StudentInfo.sol\":1303:1313  _grades[0] */\n      0x03\n      dup2\n      lt\n      tag_96\n      jumpi\n      tag_97\n      tag_80\n      jump\t// in\n    tag_97:\n    tag_96:\n      0x20\n      mul\n      add\n      mload\n        /* \"contract/StudentInfo.sol\":1315:1322  _grades */\n      dup4\n        /* \"contract/StudentInfo.sol\":1323:1324  1 */\n      0x01\n        /* \"contract/StudentInfo.sol\":1315:1325  _grades[1] */\n      0x03\n      dup2\n      lt\n      tag_98\n      jumpi\n      tag_99\n      tag_80\n      jump\t// in\n    tag_99:\n    tag_98:\n      0x20\n      mul\n      add\n      mload\n        /* \"contract/StudentInfo.sol\":1327:1334  _grades */\n      dup5\n        /* \"contract/StudentInfo.sol\":1335:1336  2 */\n      0x02\n        /* \"contract/StudentInfo.sol\":1327:1337  _grades[2] */\n      0x03\n      dup2\n      lt\n      tag_100\n      jumpi\n      tag_101\n      tag_80\n      jump\t// in\n    tag_101:\n    tag_100:\n      0x20\n      mul\n      add\n      mload\n        /* \"contract/StudentInfo.sol\":1278:1338  GradeUpdated(_studentId, _grades[0], _grades[1], _grades[2]) */\n      mload(0x40)\n      tag_102\n      swap5\n      swap4\n      swap3\n      swap2\n      swap1\n      tag_103\n      jump\t// in\n    tag_102:\n      mload(0x40)\n      dup1\n      swap2\n      sub\n      swap1\n      log1\n        /* \"contract/StudentInfo.sol\":780:1345  function setGrade(int256  _studentId, uint32[3] memory _grades) public {... */\n      pop\n      pop\n      jump\t// out\n        /* \"contract/StudentInfo.sol\":1395:1518  function getGrade(int256  _studentId) public view returns (Grade memory) {... */\n    tag_33:\n        /* \"contract/StudentInfo.sol\":1454:1466  Grade memory */\n      tag_104\n      tag_105\n      jump\t// in\n    tag_104:\n        /* \"contract/StudentInfo.sol\":1485:1499  student_grades */\n      0x05\n        /* \"contract/StudentInfo.sol\":1485:1511  student_grades[_studentId] */\n      0x00\n        /* \"contract/StudentInfo.sol\":1500:1510  _studentId */\n      dup4\n        /* \"contract/StudentInfo.sol\":1485:1511  student_grades[_studentId] */\n      dup2\n      mstore\n      0x20\n      add\n      swap1\n      dup2\n      mstore\n      0x20\n      add\n      0x00\n      keccak256\n        /* \"contract/StudentInfo.sol\":1478:1511  return student_grades[_studentId] */\n      mload(0x40)\n      dup1\n      0x60\n      add\n      0x40\n      mstore\n      swap1\n      dup2\n      0x00\n      dup3\n      add\n      0x00\n      swap1\n      sload\n      swap1\n      0x0100\n      exp\n      swap1\n      div\n      0xffffffff\n      and\n      0xffffffff\n      and\n      0xffffffff\n      and\n      dup2\n      mstore\n      0x20\n      add\n      0x00\n      dup3\n      add\n      0x04\n      swap1\n      sload\n      swap1\n      0x0100\n      exp\n      swap1\n      div\n      0xffffffff\n      and\n      0xffffffff\n      and\n      0xffffffff\n      and\n      dup2\n      mstore\n      0x20\n      add\n      0x00\n      dup3\n      add\n      0x08\n      swap1\n      sload\n      swap1\n      0x0100\n      exp\n      swap1\n      div\n      0xffffffff\n      and\n      0xffffffff\n      and\n      0xffffffff\n      and\n      dup2\n      mstore\n      pop\n      pop\n      swap1\n      pop\n        /* \"contract/StudentInfo.sol\":1395:1518  function getGrade(int256  _studentId) public view returns (Grade memory) {... */\n      swap2\n      swap1\n      pop\n      jump\t// out\n        /* \"contract/StudentInfo.sol\":372:420  mapping(int256 => address) public student_wallet */\n    tag_39:\n      mstore(0x20, 0x03)\n      dup1\n      0x00\n      mstore\n      keccak256(0x00, 0x40)\n      0x00\n      swap2\n      pop\n      sload\n      swap1\n      0x0100\n      exp\n      swap1\n      div\n      0xffffffffffffffffffffffffffffffffffffffff\n      and\n      dup2\n      jump\t// out\n        /* \"contract/StudentInfo.sol\":279:310  StudentType public student_type */\n    tag_44:\n      0x02\n      0x00\n      swap1\n      sload\n      swap1\n      0x0100\n      exp\n      swap1\n      div\n      0xff\n      and\n      dup2\n      jump\t// out\n        /* \"contract/StudentInfo.sol\":1748:1820  function addFunds() public payable {... */\n    tag_48:\n        /* \"contract/StudentInfo.sol\":1804:1813  msg.value */\n      callvalue\n        /* \"contract/StudentInfo.sol\":1793:1800  balance */\n      0x04\n      0x00\n        /* \"contract/StudentInfo.sol\":1793:1813  balance += msg.value */\n      dup3\n      dup3\n      sload\n      tag_108\n      swap2\n      swap1\n      tag_109\n      jump\t// in\n    tag_108:\n      swap3\n      pop\n      pop\n      dup2\n      swap1\n      sstore\n      pop\n        /* \"contract/StudentInfo.sol\":1748:1820  function addFunds() public payable {... */\n      jump\t// out\n        /* \"contract/StudentInfo.sol\":232:249  int256 public  id */\n    tag_51:\n      sload(0x00)\n      dup2\n      jump\t// out\n        /* \"contract/StudentInfo.sol\":479:501  uint256 public balance */\n    tag_56:\n      sload(0x04)\n      dup2\n      jump\t// out\n        /* \"contract/StudentInfo.sol\":1825:1900  function test( string calldata ta) public {... */\n    tag_63:\n        /* \"contract/StudentInfo.sol\":1884:1886  ta */\n      dup2\n      dup2\n        /* \"contract/StudentInfo.sol\":1877:1881  name */\n      0x01\n        /* \"contract/StudentInfo.sol\":1877:1886  name = ta */\n      swap2\n      dup3\n      tag_111\n      swap3\n      swap2\n      swap1\n      tag_112\n      jump\t// in\n    tag_111:\n      pop\n        /* \"contract/StudentInfo.sol\":1825:1900  function test( string calldata ta) public {... */\n      pop\n      pop\n      jump\t// out\n        /* \"contract/StudentInfo.sol\":561:607  mapping(int256 => Grade) public student_grades */\n    tag_67:\n      mstore(0x20, 0x05)\n      dup1\n      0x00\n      mstore\n      keccak256(0x00, 0x40)\n      0x00\n      swap2\n      pop\n      swap1\n      pop\n      dup1\n      0x00\n      add\n      0x00\n      swap1\n      sload\n      swap1\n      0x0100\n      exp\n      swap1\n      div\n      0xffffffff\n      and\n      swap1\n      dup1\n      0x00\n      add\n      0x04\n      swap1\n      sload\n      swap1\n      0x0100\n      exp\n      swap1\n      div\n      0xffffffff\n      and\n      swap1\n      dup1\n      0x00\n      add\n      0x08\n      swap1\n      sload\n      swap1\n      0x0100\n      exp\n      swap1\n      div\n      0xffffffff\n      and\n      swap1\n      pop\n      dup4\n      jump\t// out\n    tag_105:\n      mload(0x40)\n      dup1\n      0x60\n      add\n      0x40\n      mstore\n      dup1\n      and(0xffffffff, 0x00)\n      dup2\n      mstore\n      0x20\n      add\n      and(0xffffffff, 0x00)\n      dup2\n      mstore\n      0x20\n      add\n      and(0xffffffff, 0x00)\n      dup2\n      mstore\n      pop\n      swap1\n      jump\t// out\n        /* \"#utility.yul\":7:106   */\n    tag_113:\n        /* \"#utility.yul\":59:65   */\n      0x00\n        /* \"#utility.yul\":93:98   */\n      dup2\n        /* \"#utility.yul\":87:99   */\n      mload\n        /* \"#utility.yul\":77:99   */\n      swap1\n      pop\n        /* \"#utility.yul\":7:106   */\n      swap2\n      swap1\n      pop\n      jump\t// out\n        /* \"#utility.yul\":112:281   */\n    tag_114:\n        /* \"#utility.yul\":196:207   */\n      0x00\n        /* \"#utility.yul\":230:236   */\n      dup3\n        /* \"#utility.yul\":225:228   */\n      dup3\n        /* \"#utility.yul\":218:237   */\n      mstore\n        /* \"#utility.yul\":270:274   */\n      0x20\n        /* \"#utility.yul\":265:268   */\n      dup3\n        /* \"#utility.yul\":261:275   */\n      add\n        /* \"#utility.yul\":246:275   */\n      swap1\n      pop\n        /* \"#utility.yul\":112:281   */\n      swap3\n      swap2\n      pop\n      pop\n      jump\t// out\n        /* \"#utility.yul\":287:426   */\n    tag_115:\n        /* \"#utility.yul\":376:382   */\n      dup3\n        /* \"#utility.yul\":371:374   */\n      dup2\n        /* \"#utility.yul\":366:369   */\n      dup4\n        /* \"#utility.yul\":360:383   */\n      mcopy\n        /* \"#utility.yul\":417:418   */\n      0x00\n        /* \"#utility.yul\":408:414   */\n      dup4\n        /* \"#utility.yul\":403:406   */\n      dup4\n        /* \"#utility.yul\":399:415   */\n      add\n        /* \"#utility.yul\":392:419   */\n      mstore\n        /* \"#utility.yul\":287:426   */\n      pop\n      pop\n      pop\n      jump\t// out\n        /* \"#utility.yul\":432:534   */\n    tag_116:\n        /* \"#utility.yul\":473:479   */\n      0x00\n        /* \"#utility.yul\":524:526   */\n      0x1f\n        /* \"#utility.yul\":520:527   */\n      not\n        /* \"#utility.yul\":515:517   */\n      0x1f\n        /* \"#utility.yul\":508:513   */\n      dup4\n        /* \"#utility.yul\":504:518   */\n      add\n        /* \"#utility.yul\":500:528   */\n      and\n        /* \"#utility.yul\":490:528   */\n      swap1\n      pop\n        /* \"#utility.yul\":432:534   */\n      swap2\n      swap1\n      pop\n      jump\t// out\n        /* \"#utility.yul\":540:917   */\n    tag_117:\n        /* \"#utility.yul\":628:631   */\n      0x00\n        /* \"#utility.yul\":656:695   */\n      tag_179\n        /* \"#utility.yul\":689:694   */\n      dup3\n        /* \"#utility.yul\":656:695   */\n      tag_113\n      jump\t// in\n    tag_179:\n        /* \"#utility.yul\":711:782   */\n      tag_180\n        /* \"#utility.yul\":775:781   */\n      dup2\n        /* \"#utility.yul\":770:773   */\n      dup6\n        /* \"#utility.yul\":711:782   */\n      tag_114\n      jump\t// in\n    tag_180:\n        /* \"#utility.yul\":704:782   */\n      swap4\n      pop\n        /* \"#utility.yul\":791:856   */\n      tag_181\n        /* \"#utility.yul\":849:855   */\n      dup2\n        /* \"#utility.yul\":844:847   */\n      dup6\n        /* \"#utility.yul\":837:841   */\n      0x20\n        /* \"#utility.yul\":830:835   */\n      dup7\n        /* \"#utility.yul\":826:842   */\n      add\n        /* \"#utility.yul\":791:856   */\n      tag_115\n      jump\t// in\n    tag_181:\n        /* \"#utility.yul\":881:910   */\n      tag_182\n        /* \"#utility.yul\":903:909   */\n      dup2\n        /* \"#utility.yul\":881:910   */\n      tag_116\n      jump\t// in\n    tag_182:\n        /* \"#utility.yul\":876:879   */\n      dup5\n        /* \"#utility.yul\":872:911   */\n      add\n        /* \"#utility.yul\":865:911   */\n      swap2\n      pop\n        /* \"#utility.yul\":632:917   */\n      pop\n        /* \"#utility.yul\":540:917   */\n      swap3\n      swap2\n      pop\n      pop\n      jump\t// out\n        /* \"#utility.yul\":923:1236   */\n    tag_18:\n        /* \"#utility.yul\":1036:1040   */\n      0x00\n        /* \"#utility.yul\":1074:1076   */\n      0x20\n        /* \"#utility.yul\":1063:1072   */\n      dup3\n        /* \"#utility.yul\":1059:1077   */\n      add\n        /* \"#utility.yul\":1051:1077   */\n      swap1\n      pop\n        /* \"#utility.yul\":1123:1132   */\n      dup2\n        /* \"#utility.yul\":1117:1121   */\n      dup2\n        /* \"#utility.yul\":1113:1133   */\n      sub\n        /* \"#utility.yul\":1109:1110   */\n      0x00\n        /* \"#utility.yul\":1098:1107   */\n      dup4\n        /* \"#utility.yul\":1094:1111   */\n      add\n        /* \"#utility.yul\":1087:1134   */\n      mstore\n        /* \"#utility.yul\":1151:1229   */\n      tag_184\n        /* \"#utility.yul\":1224:1228   */\n      dup2\n        /* \"#utility.yul\":1215:1221   */\n      dup5\n        /* \"#utility.yul\":1151:1229   */\n      tag_117\n      jump\t// in\n    tag_184:\n        /* \"#utility.yul\":1143:1229   */\n      swap1\n      pop\n        /* \"#utility.yul\":923:1236   */\n      swap3\n      swap2\n      pop\n      pop\n      jump\t// out\n        /* \"#utility.yul\":1242:1317   */\n    tag_118:\n        /* \"#utility.yul\":1275:1281   */\n      0x00\n        /* \"#utility.yul\":1308:1310   */\n      0x40\n        /* \"#utility.yul\":1302:1311   */\n      mload\n        /* \"#utility.yul\":1292:1311   */\n      swap1\n      pop\n        /* \"#utility.yul\":1242:1317   */\n      swap1\n      jump\t// out\n        /* \"#utility.yul\":1323:1440   */\n    tag_119:\n        /* \"#utility.yul\":1432:1433   */\n      0x00\n        /* \"#utility.yul\":1429:1430   */\n      0x00\n        /* \"#utility.yul\":1422:1434   */\n      revert\n        /* \"#utility.yul\":1446:1563   */\n    tag_120:\n        /* \"#utility.yul\":1555:1556   */\n      0x00\n        /* \"#utility.yul\":1552:1553   */\n      0x00\n        /* \"#utility.yul\":1545:1557   */\n      revert\n        /* \"#utility.yul\":1569:1645   */\n    tag_121:\n        /* \"#utility.yul\":1605:1612   */\n      0x00\n        /* \"#utility.yul\":1634:1639   */\n      dup2\n        /* \"#utility.yul\":1623:1639   */\n      swap1\n      pop\n        /* \"#utility.yul\":1569:1645   */\n      swap2\n      swap1\n      pop\n      jump\t// out\n        /* \"#utility.yul\":1651:1771   */\n    tag_122:\n        /* \"#utility.yul\":1723:1746   */\n      tag_190\n        /* \"#utility.yul\":1740:1745   */\n      dup2\n        /* \"#utility.yul\":1723:1746   */\n      tag_121\n      jump\t// in\n    tag_190:\n        /* \"#utility.yul\":1716:1721   */\n      dup2\n        /* \"#utility.yul\":1713:1747   */\n      eq\n        /* \"#utility.yul\":1703:1765   */\n      tag_191\n      jumpi\n        /* \"#utility.yul\":1761:1762   */\n      0x00\n        /* \"#utility.yul\":1758:1759   */\n      0x00\n        /* \"#utility.yul\":1751:1763   */\n      revert\n        /* \"#utility.yul\":1703:1765   */\n    tag_191:\n        /* \"#utility.yul\":1651:1771   */\n      pop\n      jump\t// out\n        /* \"#utility.yul\":1777:1914   */\n    tag_123:\n        /* \"#utility.yul\":1822:1827   */\n      0x00\n        /* \"#utility.yul\":1860:1866   */\n      dup2\n        /* \"#utility.yul\":1847:1867   */\n      calldataload\n        /* \"#utility.yul\":1838:1867   */\n      swap1\n      pop\n        /* \"#utility.yul\":1876:1908   */\n      tag_193\n        /* \"#utility.yul\":1902:1907   */\n      dup2\n        /* \"#utility.yul\":1876:1908   */\n      tag_122\n      jump\t// in\n    tag_193:\n        /* \"#utility.yul\":1777:1914   */\n      swap3\n      swap2\n      pop\n      pop\n      jump\t// out\n        /* \"#utility.yul\":1920:2046   */\n    tag_124:\n        /* \"#utility.yul\":1957:1964   */\n      0x00\n        /* \"#utility.yul\":1997:2039   */\n      0xffffffffffffffffffffffffffffffffffffffff\n        /* \"#utility.yul\":1990:1995   */\n      dup3\n        /* \"#utility.yul\":1986:2040   */\n      and\n        /* \"#utility.yul\":1975:2040   */\n      swap1\n      pop\n        /* \"#utility.yul\":1920:2046   */\n      swap2\n      swap1\n      pop\n      jump\t// out\n        /* \"#utility.yul\":2052:2148   */\n    tag_125:\n        /* \"#utility.yul\":2089:2096   */\n      0x00\n        /* \"#utility.yul\":2118:2142   */\n      tag_196\n        /* \"#utility.yul\":2136:2141   */\n      dup3\n        /* \"#utility.yul\":2118:2142   */\n      tag_124\n      jump\t// in\n    tag_196:\n        /* \"#utility.yul\":2107:2142   */\n      swap1\n      pop\n        /* \"#utility.yul\":2052:2148   */\n      swap2\n      swap1\n      pop\n      jump\t// out\n        /* \"#utility.yul\":2154:2276   */\n    tag_126:\n        /* \"#utility.yul\":2227:2251   */\n      tag_198\n        /* \"#utility.yul\":2245:2250   */\n      dup2\n        /* \"#utility.yul\":2227:2251   */\n      tag_125\n      jump\t// in\n    tag_198:\n        /* \"#utility.yul\":2220:2225   */\n      dup2\n        /* \"#utility.yul\":2217:2252   */\n      eq\n        /* \"#utility.yul\":2207:2270   */\n      tag_199\n      jumpi\n        /* \"#utility.yul\":2266:2267   */\n      0x00\n        /* \"#utility.yul\":2263:2264   */\n      0x00\n        /* \"#utility.yul\":2256:2268   */\n      revert\n        /* \"#utility.yul\":2207:2270   */\n    tag_199:\n        /* \"#utility.yul\":2154:2276   */\n      pop\n      jump\t// out\n        /* \"#utility.yul\":2282:2421   */\n    tag_127:\n        /* \"#utility.yul\":2328:2333   */\n      0x00\n        /* \"#utility.yul\":2366:2372   */\n      dup2\n        /* \"#utility.yul\":2353:2373   */\n      calldataload\n        /* \"#utility.yul\":2344:2373   */\n      swap1\n      pop\n        /* \"#utility.yul\":2382:2415   */\n      tag_201\n        /* \"#utility.yul\":2409:2414   */\n      dup2\n        /* \"#utility.yul\":2382:2415   */\n      tag_126\n      jump\t// in\n    tag_201:\n        /* \"#utility.yul\":2282:2421   */\n      swap3\n      swap2\n      pop\n      pop\n      jump\t// out\n        /* \"#utility.yul\":2427:2899   */\n    tag_22:\n        /* \"#utility.yul\":2494:2500   */\n      0x00\n        /* \"#utility.yul\":2502:2508   */\n      0x00\n        /* \"#utility.yul\":2551:2553   */\n      0x40\n        /* \"#utility.yul\":2539:2548   */\n      dup4\n        /* \"#utility.yul\":2530:2537   */\n      dup6\n        /* \"#utility.yul\":2526:2549   */\n      sub\n        /* \"#utility.yul\":2522:2554   */\n      slt\n        /* \"#utility.yul\":2519:2638   */\n      iszero\n      tag_203\n      jumpi\n        /* \"#utility.yul\":2557:2636   */\n      tag_204\n      tag_119\n      jump\t// in\n    tag_204:\n        /* \"#utility.yul\":2519:2638   */\n    tag_203:\n        /* \"#utility.yul\":2677:2678   */\n      0x00\n        /* \"#utility.yul\":2702:2754   */\n      tag_205\n        /* \"#utility.yul\":2746:2753   */\n      dup6\n        /* \"#utility.yul\":2737:2743   */\n      dup3\n        /* \"#utility.yul\":2726:2735   */\n      dup7\n        /* \"#utility.yul\":2722:2744   */\n      add\n        /* \"#utility.yul\":2702:2754   */\n      tag_123\n      jump\t// in\n    tag_205:\n        /* \"#utility.yul\":2692:2754   */\n      swap3\n      pop\n        /* \"#utility.yul\":2648:2764   */\n      pop\n        /* \"#utility.yul\":2803:2805   */\n      0x20\n        /* \"#utility.yul\":2829:2882   */\n      tag_206\n        /* \"#utility.yul\":2874:2881   */\n      dup6\n        /* \"#utility.yul\":2865:2871   */\n      dup3\n        /* \"#utility.yul\":2854:2863   */\n      dup7\n        /* \"#utility.yul\":2850:2872   */\n      add\n        /* \"#utility.yul\":2829:2882   */\n      tag_127\n      jump\t// in\n    tag_206:\n        /* \"#utility.yul\":2819:2882   */\n      swap2\n      pop\n        /* \"#utility.yul\":2774:2892   */\n      pop\n        /* \"#utility.yul\":2427:2899   */\n      swap3\n      pop\n      swap3\n      swap1\n      pop\n      jump\t// out\n        /* \"#utility.yul\":2905:3022   */\n    tag_128:\n        /* \"#utility.yul\":3014:3015   */\n      0x00\n        /* \"#utility.yul\":3011:3012   */\n      0x00\n        /* \"#utility.yul\":3004:3016   */\n      revert\n        /* \"#utility.yul\":3028:3208   */\n    tag_129:\n        /* \"#utility.yul\":3076:3153   */\n      0x4e487b7100000000000000000000000000000000000000000000000000000000\n        /* \"#utility.yul\":3073:3074   */\n      0x00\n        /* \"#utility.yul\":3066:3154   */\n      mstore\n        /* \"#utility.yul\":3173:3177   */\n      0x41\n        /* \"#utility.yul\":3170:3171   */\n      0x04\n        /* \"#utility.yul\":3163:3178   */\n      mstore\n        /* \"#utility.yul\":3197:3201   */\n      0x24\n        /* \"#utility.yul\":3194:3195   */\n      0x00\n        /* \"#utility.yul\":3187:3202   */\n      revert\n        /* \"#utility.yul\":3214:3495   */\n    tag_130:\n        /* \"#utility.yul\":3297:3324   */\n      tag_210\n        /* \"#utility.yul\":3319:3323   */\n      dup3\n        /* \"#utility.yul\":3297:3324   */\n      tag_116\n      jump\t// in\n    tag_210:\n        /* \"#utility.yul\":3289:3295   */\n      dup2\n        /* \"#utility.yul\":3285:3325   */\n      add\n        /* \"#utility.yul\":3427:3433   */\n      dup2\n        /* \"#utility.yul\":3415:3425   */\n      dup2\n        /* \"#utility.yul\":3412:3434   */\n      lt\n        /* \"#utility.yul\":3391:3409   */\n      0xffffffffffffffff\n        /* \"#utility.yul\":3379:3389   */\n      dup3\n        /* \"#utility.yul\":3376:3410   */\n      gt\n        /* \"#utility.yul\":3373:3435   */\n      or\n        /* \"#utility.yul\":3370:3458   */\n      iszero\n      tag_211\n      jumpi\n        /* \"#utility.yul\":3438:3456   */\n      tag_212\n      tag_129\n      jump\t// in\n    tag_212:\n        /* \"#utility.yul\":3370:3458   */\n    tag_211:\n        /* \"#utility.yul\":3478:3488   */\n      dup1\n        /* \"#utility.yul\":3474:3476   */\n      0x40\n        /* \"#utility.yul\":3467:3489   */\n      mstore\n        /* \"#utility.yul\":3257:3495   */\n      pop\n        /* \"#utility.yul\":3214:3495   */\n      pop\n      pop\n      jump\t// out\n        /* \"#utility.yul\":3501:3630   */\n    tag_131:\n        /* \"#utility.yul\":3535:3541   */\n      0x00\n        /* \"#utility.yul\":3562:3582   */\n      tag_214\n      tag_118\n      jump\t// in\n    tag_214:\n        /* \"#utility.yul\":3552:3582   */\n      swap1\n      pop\n        /* \"#utility.yul\":3591:3624   */\n      tag_215\n        /* \"#utility.yul\":3619:3623   */\n      dup3\n        /* \"#utility.yul\":3611:3617   */\n      dup3\n        /* \"#utility.yul\":3591:3624   */\n      tag_130\n      jump\t// in\n    tag_215:\n        /* \"#utility.yul\":3501:3630   */\n      swap2\n      swap1\n      pop\n      jump\t// out\n        /* \"#utility.yul\":3636:3884   */\n    tag_132:\n        /* \"#utility.yul\":3710:3714   */\n      0x00\n        /* \"#utility.yul\":3800:3818   */\n      0xffffffffffffffff\n        /* \"#utility.yul\":3792:3798   */\n      dup3\n        /* \"#utility.yul\":3789:3819   */\n      gt\n        /* \"#utility.yul\":3786:3842   */\n      iszero\n      tag_217\n      jumpi\n        /* \"#utility.yul\":3822:3840   */\n      tag_218\n      tag_129\n      jump\t// in\n    tag_218:\n        /* \"#utility.yul\":3786:3842   */\n    tag_217:\n        /* \"#utility.yul\":3872:3876   */\n      0x20\n        /* \"#utility.yul\":3864:3870   */\n      dup3\n        /* \"#utility.yul\":3860:3877   */\n      mul\n        /* \"#utility.yul\":3852:3877   */\n      swap1\n      pop\n        /* \"#utility.yul\":3636:3884   */\n      swap2\n      swap1\n      pop\n      jump\t// out\n        /* \"#utility.yul\":3890:4007   */\n    tag_133:\n        /* \"#utility.yul\":3999:4000   */\n      0x00\n        /* \"#utility.yul\":3996:3997   */\n      0x00\n        /* \"#utility.yul\":3989:4001   */\n      revert\n        /* \"#utility.yul\":4013:4106   */\n    tag_134:\n        /* \"#utility.yul\":4049:4056   */\n      0x00\n        /* \"#utility.yul\":4089:4099   */\n      0xffffffff\n        /* \"#utility.yul\":4082:4087   */\n      dup3\n        /* \"#utility.yul\":4078:4100   */\n      and\n        /* \"#utility.yul\":4067:4100   */\n      swap1\n      pop\n        /* \"#utility.yul\":4013:4106   */\n      swap2\n      swap1\n      pop\n      jump\t// out\n        /* \"#utility.yul\":4112:4232   */\n    tag_135:\n        /* \"#utility.yul\":4184:4207   */\n      tag_222\n        /* \"#utility.yul\":4201:4206   */\n      dup2\n        /* \"#utility.yul\":4184:4207   */\n      tag_134\n      jump\t// in\n    tag_222:\n        /* \"#utility.yul\":4177:4182   */\n      dup2\n        /* \"#utility.yul\":4174:4208   */\n      eq\n        /* \"#utility.yul\":4164:4226   */\n      tag_223\n      jumpi\n        /* \"#utility.yul\":4222:4223   */\n      0x00\n        /* \"#utility.yul\":4219:4220   */\n      0x00\n        /* \"#utility.yul\":4212:4224   */\n      revert\n        /* \"#utility.yul\":4164:4226   */\n    tag_223:\n        /* \"#utility.yul\":4112:4232   */\n      pop\n      jump\t// out\n        /* \"#utility.yul\":4238:4375   */\n    tag_136:\n        /* \"#utility.yul\":4283:4288   */\n      0x00\n        /* \"#utility.yul\":4321:4327   */\n      dup2\n        /* \"#utility.yul\":4308:4328   */\n      calldataload\n        /* \"#utility.yul\":4299:4328   */\n      swap1\n      pop\n        /* \"#utility.yul\":4337:4369   */\n      tag_225\n        /* \"#utility.yul\":4363:4368   */\n      dup2\n        /* \"#utility.yul\":4337:4369   */\n      tag_135\n      jump\t// in\n    tag_225:\n        /* \"#utility.yul\":4238:4375   */\n      swap3\n      swap2\n      pop\n      pop\n      jump\t// out\n        /* \"#utility.yul\":4398:5038   */\n    tag_137:\n        /* \"#utility.yul\":4491:4496   */\n      0x00\n        /* \"#utility.yul\":4516:4594   */\n      tag_227\n        /* \"#utility.yul\":4532:4593   */\n      tag_228\n        /* \"#utility.yul\":4586:4592   */\n      dup5\n        /* \"#utility.yul\":4532:4593   */\n      tag_132\n      jump\t// in\n    tag_228:\n        /* \"#utility.yul\":4516:4594   */\n      tag_131\n      jump\t// in\n    tag_227:\n        /* \"#utility.yul\":4507:4594   */\n      swap1\n      pop\n        /* \"#utility.yul\":4614:4619   */\n      dup1\n        /* \"#utility.yul\":4667:4671   */\n      0x20\n        /* \"#utility.yul\":4659:4665   */\n      dup5\n        /* \"#utility.yul\":4655:4672   */\n      mul\n        /* \"#utility.yul\":4647:4653   */\n      dup4\n        /* \"#utility.yul\":4643:4673   */\n      add\n        /* \"#utility.yul\":4696:4699   */\n      dup6\n        /* \"#utility.yul\":4688:4694   */\n      dup2\n        /* \"#utility.yul\":4685:4700   */\n      gt\n        /* \"#utility.yul\":4682:4804   */\n      iszero\n      tag_229\n      jumpi\n        /* \"#utility.yul\":4715:4794   */\n      tag_230\n      tag_133\n      jump\t// in\n    tag_230:\n        /* \"#utility.yul\":4682:4804   */\n    tag_229:\n        /* \"#utility.yul\":4830:4836   */\n      dup4\n        /* \"#utility.yul\":4813:5032   */\n    tag_231:\n        /* \"#utility.yul\":4847:4853   */\n      dup2\n        /* \"#utility.yul\":4842:4845   */\n      dup2\n        /* \"#utility.yul\":4839:4854   */\n      lt\n        /* \"#utility.yul\":4813:5032   */\n      iszero\n      tag_233\n      jumpi\n        /* \"#utility.yul\":4922:4925   */\n      dup1\n        /* \"#utility.yul\":4951:4987   */\n      tag_234\n        /* \"#utility.yul\":4983:4986   */\n      dup9\n        /* \"#utility.yul\":4971:4981   */\n      dup3\n        /* \"#utility.yul\":4951:4987   */\n      tag_136\n      jump\t// in\n    tag_234:\n        /* \"#utility.yul\":4946:4949   */\n      dup5\n        /* \"#utility.yul\":4939:4988   */\n      mstore\n        /* \"#utility.yul\":5017:5021   */\n      0x20\n        /* \"#utility.yul\":5012:5015   */\n      dup5\n        /* \"#utility.yul\":5008:5022   */\n      add\n        /* \"#utility.yul\":5001:5022   */\n      swap4\n      pop\n        /* \"#utility.yul\":4889:5032   */\n      pop\n        /* \"#utility.yul\":4873:4877   */\n      0x20\n        /* \"#utility.yul\":4868:4871   */\n      dup2\n        /* \"#utility.yul\":4864:4878   */\n      add\n        /* \"#utility.yul\":4857:4878   */\n      swap1\n      pop\n        /* \"#utility.yul\":4813:5032   */\n      jump(tag_231)\n    tag_233:\n        /* \"#utility.yul\":4817:4838   */\n      pop\n        /* \"#utility.yul\":4497:5038   */\n      pop\n      pop\n        /* \"#utility.yul\":4398:5038   */\n      swap4\n      swap3\n      pop\n      pop\n      pop\n      jump\t// out\n        /* \"#utility.yul\":5061:5398   */\n    tag_138:\n        /* \"#utility.yul\":5129:5134   */\n      0x00\n        /* \"#utility.yul\":5178:5181   */\n      dup3\n        /* \"#utility.yul\":5171:5175   */\n      0x1f\n        /* \"#utility.yul\":5163:5169   */\n      dup4\n        /* \"#utility.yul\":5159:5176   */\n      add\n        /* \"#utility.yul\":5155:5182   */\n      slt\n        /* \"#utility.yul\":5145:5267   */\n      tag_236\n      jumpi\n        /* \"#utility.yul\":5186:5265   */\n      tag_237\n      tag_128\n      jump\t// in\n    tag_237:\n        /* \"#utility.yul\":5145:5267   */\n    tag_236:\n        /* \"#utility.yul\":5290:5294   */\n      0x03\n        /* \"#utility.yul\":5312:5392   */\n      tag_238\n        /* \"#utility.yul\":5388:5391   */\n      dup5\n        /* \"#utility.yul\":5380:5386   */\n      dup3\n        /* \"#utility.yul\":5372:5378   */\n      dup6\n        /* \"#utility.yul\":5312:5392   */\n      tag_137\n      jump\t// in\n    tag_238:\n        /* \"#utility.yul\":5303:5392   */\n      swap2\n      pop\n        /* \"#utility.yul\":5135:5398   */\n      pop\n        /* \"#utility.yul\":5061:5398   */\n      swap3\n      swap2\n      pop\n      pop\n      jump\t// out\n        /* \"#utility.yul\":5404:5921   */\n    tag_27:\n        /* \"#utility.yul\":5493:5499   */\n      0x00\n        /* \"#utility.yul\":5501:5507   */\n      0x00\n        /* \"#utility.yul\":5550:5553   */\n      0x80\n        /* \"#utility.yul\":5538:5547   */\n      dup4\n        /* \"#utility.yul\":5529:5536   */\n      dup6\n        /* \"#utility.yul\":5525:5548   */\n      sub\n        /* \"#utility.yul\":5521:5554   */\n      slt\n        /* \"#utility.yul\":5518:5638   */\n      iszero\n      tag_240\n      jumpi\n        /* \"#utility.yul\":5557:5636   */\n      tag_241\n      tag_119\n      jump\t// in\n    tag_241:\n        /* \"#utility.yul\":5518:5638   */\n    tag_240:\n        /* \"#utility.yul\":5677:5678   */\n      0x00\n        /* \"#utility.yul\":5702:5754   */\n      tag_242\n        /* \"#utility.yul\":5746:5753   */\n      dup6\n        /* \"#utility.yul\":5737:5743   */\n      dup3\n        /* \"#utility.yul\":5726:5735   */\n      dup7\n        /* \"#utility.yul\":5722:5744   */\n      add\n        /* \"#utility.yul\":5702:5754   */\n      tag_123\n      jump\t// in\n    tag_242:\n        /* \"#utility.yul\":5692:5754   */\n      swap3\n      pop\n        /* \"#utility.yul\":5648:5764   */\n      pop\n        /* \"#utility.yul\":5803:5805   */\n      0x20\n        /* \"#utility.yul\":5829:5904   */\n      tag_243\n        /* \"#utility.yul\":5896:5903   */\n      dup6\n        /* \"#utility.yul\":5887:5893   */\n      dup3\n        /* \"#utility.yul\":5876:5885   */\n      dup7\n        /* \"#utility.yul\":5872:5894   */\n      add\n        /* \"#utility.yul\":5829:5904   */\n      tag_138\n      jump\t// in\n    tag_243:\n        /* \"#utility.yul\":5819:5904   */\n      swap2\n      pop\n        /* \"#utility.yul\":5774:5914   */\n      pop\n        /* \"#utility.yul\":5404:5921   */\n      swap3\n      pop\n      swap3\n      swap1\n      pop\n      jump\t// out\n        /* \"#utility.yul\":5927:6254   */\n    tag_32:\n        /* \"#utility.yul\":5985:5991   */\n      0x00\n        /* \"#utility.yul\":6034:6036   */\n      0x20\n        /* \"#utility.yul\":6022:6031   */\n      dup3\n        /* \"#utility.yul\":6013:6020   */\n      dup5\n        /* \"#utility.yul\":6009:6032   */\n      sub\n        /* \"#utility.yul\":6005:6037   */\n      slt\n        /* \"#utility.yul\":6002:6121   */\n      iszero\n      tag_245\n      jumpi\n        /* \"#utility.yul\":6040:6119   */\n      tag_246\n      tag_119\n      jump\t// in\n    tag_246:\n        /* \"#utility.yul\":6002:6121   */\n    tag_245:\n        /* \"#utility.yul\":6160:6161   */\n      0x00\n        /* \"#utility.yul\":6185:6237   */\n      tag_247\n        /* \"#utility.yul\":6229:6236   */\n      dup5\n        /* \"#utility.yul\":6220:6226   */\n      dup3\n        /* \"#utility.yul\":6209:6218   */\n      dup6\n        /* \"#utility.yul\":6205:6227   */\n      add\n        /* \"#utility.yul\":6185:6237   */\n      tag_123\n      jump\t// in\n    tag_247:\n        /* \"#utility.yul\":6175:6237   */\n      swap2\n      pop\n        /* \"#utility.yul\":6131:6247   */\n      pop\n        /* \"#utility.yul\":5927:6254   */\n      swap3\n      swap2\n      pop\n      pop\n      jump\t// out\n        /* \"#utility.yul\":6260:6365   */\n    tag_139:\n        /* \"#utility.yul\":6335:6358   */\n      tag_249\n        /* \"#utility.yul\":6352:6357   */\n      dup2\n        /* \"#utility.yul\":6335:6358   */\n      tag_134\n      jump\t// in\n    tag_249:\n        /* \"#utility.yul\":6330:6333   */\n      dup3\n        /* \"#utility.yul\":6323:6359   */\n      mstore\n        /* \"#utility.yul\":6260:6365   */\n      pop\n      pop\n      jump\t// out\n        /* \"#utility.yul\":6407:7075   */\n    tag_140:\n        /* \"#utility.yul\":6544:6548   */\n      0x60\n        /* \"#utility.yul\":6539:6542   */\n      dup3\n        /* \"#utility.yul\":6535:6549   */\n      add\n        /* \"#utility.yul\":6632:6636   */\n      0x00\n        /* \"#utility.yul\":6625:6630   */\n      dup3\n        /* \"#utility.yul\":6621:6637   */\n      add\n        /* \"#utility.yul\":6615:6638   */\n      mload\n        /* \"#utility.yul\":6651:6712   */\n      tag_251\n        /* \"#utility.yul\":6706:6710   */\n      0x00\n        /* \"#utility.yul\":6701:6704   */\n      dup6\n        /* \"#utility.yul\":6697:6711   */\n      add\n        /* \"#utility.yul\":6683:6695   */\n      dup3\n        /* \"#utility.yul\":6651:6712   */\n      tag_139\n      jump\t// in\n    tag_251:\n        /* \"#utility.yul\":6559:6722   */\n      pop\n        /* \"#utility.yul\":6805:6809   */\n      0x20\n        /* \"#utility.yul\":6798:6803   */\n      dup3\n        /* \"#utility.yul\":6794:6810   */\n      add\n        /* \"#utility.yul\":6788:6811   */\n      mload\n        /* \"#utility.yul\":6824:6885   */\n      tag_252\n        /* \"#utility.yul\":6879:6883   */\n      0x20\n        /* \"#utility.yul\":6874:6877   */\n      dup6\n        /* \"#utility.yul\":6870:6884   */\n      add\n        /* \"#utility.yul\":6856:6868   */\n      dup3\n        /* \"#utility.yul\":6824:6885   */\n      tag_139\n      jump\t// in\n    tag_252:\n        /* \"#utility.yul\":6732:6895   */\n      pop\n        /* \"#utility.yul\":6978:6982   */\n      0x40\n        /* \"#utility.yul\":6971:6976   */\n      dup3\n        /* \"#utility.yul\":6967:6983   */\n      add\n        /* \"#utility.yul\":6961:6984   */\n      mload\n        /* \"#utility.yul\":6997:7058   */\n      tag_253\n        /* \"#utility.yul\":7052:7056   */\n      0x40\n        /* \"#utility.yul\":7047:7050   */\n      dup6\n        /* \"#utility.yul\":7043:7057   */\n      add\n        /* \"#utility.yul\":7029:7041   */\n      dup3\n        /* \"#utility.yul\":6997:7058   */\n      tag_139\n      jump\t// in\n    tag_253:\n        /* \"#utility.yul\":6905:7068   */\n      pop\n        /* \"#utility.yul\":6513:7075   */\n      pop\n        /* \"#utility.yul\":6407:7075   */\n      pop\n      pop\n      jump\t// out\n        /* \"#utility.yul\":7081:7383   */\n    tag_35:\n        /* \"#utility.yul\":7214:7218   */\n      0x00\n        /* \"#utility.yul\":7252:7254   */\n      0x60\n        /* \"#utility.yul\":7241:7250   */\n      dup3\n        /* \"#utility.yul\":7237:7255   */\n      add\n        /* \"#utility.yul\":7229:7255   */\n      swap1\n      pop\n        /* \"#utility.yul\":7265:7376   */\n      tag_255\n        /* \"#utility.yul\":7373:7374   */\n      0x00\n        /* \"#utility.yul\":7362:7371   */\n      dup4\n        /* \"#utility.yul\":7358:7375   */\n      add\n        /* \"#utility.yul\":7349:7355   */\n      dup5\n        /* \"#utility.yul\":7265:7376   */\n      tag_140\n      jump\t// in\n    tag_255:\n        /* \"#utility.yul\":7081:7383   */\n      swap3\n      swap2\n      pop\n      pop\n      jump\t// out\n        /* \"#utility.yul\":7389:7507   */\n    tag_141:\n        /* \"#utility.yul\":7476:7500   */\n      tag_257\n        /* \"#utility.yul\":7494:7499   */\n      dup2\n        /* \"#utility.yul\":7476:7500   */\n      tag_125\n      jump\t// in\n    tag_257:\n        /* \"#utility.yul\":7471:7474   */\n      dup3\n        /* \"#utility.yul\":7464:7501   */\n      mstore\n        /* \"#utility.yul\":7389:7507   */\n      pop\n      pop\n      jump\t// out\n        /* \"#utility.yul\":7513:7735   */\n    tag_41:\n        /* \"#utility.yul\":7606:7610   */\n      0x00\n        /* \"#utility.yul\":7644:7646   */\n      0x20\n        /* \"#utility.yul\":7633:7642   */\n      dup3\n        /* \"#utility.yul\":7629:7647   */\n      add\n        /* \"#utility.yul\":7621:7647   */\n      swap1\n      pop\n        /* \"#utility.yul\":7657:7728   */\n      tag_259\n        /* \"#utility.yul\":7725:7726   */\n      0x00\n        /* \"#utility.yul\":7714:7723   */\n      dup4\n        /* \"#utility.yul\":7710:7727   */\n      add\n        /* \"#utility.yul\":7701:7707   */\n      dup5\n        /* \"#utility.yul\":7657:7728   */\n      tag_141\n      jump\t// in\n    tag_259:\n        /* \"#utility.yul\":7513:7735   */\n      swap3\n      swap2\n      pop\n      pop\n      jump\t// out\n        /* \"#utility.yul\":7741:7921   */\n    tag_142:\n        /* \"#utility.yul\":7789:7866   */\n      0x4e487b7100000000000000000000000000000000000000000000000000000000\n        /* \"#utility.yul\":7786:7787   */\n      0x00\n        /* \"#utility.yul\":7779:7867   */\n      mstore\n        /* \"#utility.yul\":7886:7890   */\n      0x21\n        /* \"#utility.yul\":7883:7884   */\n      0x04\n        /* \"#utility.yul\":7876:7891   */\n      mstore\n        /* \"#utility.yul\":7910:7914   */\n      0x24\n        /* \"#utility.yul\":7907:7908   */\n      0x00\n        /* \"#utility.yul\":7900:7915   */\n      revert\n        /* \"#utility.yul\":7927:8046   */\n    tag_143:\n        /* \"#utility.yul\":8014:8015   */\n      0x03\n        /* \"#utility.yul\":8007:8012   */\n      dup2\n        /* \"#utility.yul\":8004:8016   */\n      lt\n        /* \"#utility.yul\":7994:8040   */\n      tag_262\n      jumpi\n        /* \"#utility.yul\":8020:8038   */\n      tag_263\n      tag_142\n      jump\t// in\n    tag_263:\n        /* \"#utility.yul\":7994:8040   */\n    tag_262:\n        /* \"#utility.yul\":7927:8046   */\n      pop\n      jump\t// out\n        /* \"#utility.yul\":8052:8191   */\n    tag_144:\n        /* \"#utility.yul\":8103:8110   */\n      0x00\n        /* \"#utility.yul\":8132:8137   */\n      dup2\n        /* \"#utility.yul\":8121:8137   */\n      swap1\n      pop\n        /* \"#utility.yul\":8138:8185   */\n      tag_265\n        /* \"#utility.yul\":8179:8184   */\n      dup3\n        /* \"#utility.yul\":8138:8185   */\n      tag_143\n      jump\t// in\n    tag_265:\n        /* \"#utility.yul\":8052:8191   */\n      swap2\n      swap1\n      pop\n      jump\t// out\n        /* \"#utility.yul\":8197:8336   */\n    tag_145:\n        /* \"#utility.yul\":8259:8268   */\n      0x00\n        /* \"#utility.yul\":8292:8330   */\n      tag_267\n        /* \"#utility.yul\":8324:8329   */\n      dup3\n        /* \"#utility.yul\":8292:8330   */\n      tag_144\n      jump\t// in\n    tag_267:\n        /* \"#utility.yul\":8279:8330   */\n      swap1\n      pop\n        /* \"#utility.yul\":8197:8336   */\n      swap2\n      swap1\n      pop\n      jump\t// out\n        /* \"#utility.yul\":8342:8497   */\n    tag_146:\n        /* \"#utility.yul\":8441:8490   */\n      tag_269\n        /* \"#utility.yul\":8484:8489   */\n      dup2\n        /* \"#utility.yul\":8441:8490   */\n      tag_145\n      jump\t// in\n    tag_269:\n        /* \"#utility.yul\":8436:8439   */\n      dup3\n        /* \"#utility.yul\":8429:8491   */\n      mstore\n        /* \"#utility.yul\":8342:8497   */\n      pop\n      pop\n      jump\t// out\n        /* \"#utility.yul\":8503:8749   */\n    tag_46:\n        /* \"#utility.yul\":8608:8612   */\n      0x00\n        /* \"#utility.yul\":8646:8648   */\n      0x20\n        /* \"#utility.yul\":8635:8644   */\n      dup3\n        /* \"#utility.yul\":8631:8649   */\n      add\n        /* \"#utility.yul\":8623:8649   */\n      swap1\n      pop\n        /* \"#utility.yul\":8659:8742   */\n      tag_271\n        /* \"#utility.yul\":8739:8740   */\n      0x00\n        /* \"#utility.yul\":8728:8737   */\n      dup4\n        /* \"#utility.yul\":8724:8741   */\n      add\n        /* \"#utility.yul\":8715:8721   */\n      dup5\n        /* \"#utility.yul\":8659:8742   */\n      tag_146\n      jump\t// in\n    tag_271:\n        /* \"#utility.yul\":8503:8749   */\n      swap3\n      swap2\n      pop\n      pop\n      jump\t// out\n        /* \"#utility.yul\":8755:8870   */\n    tag_147:\n        /* \"#utility.yul\":8840:8863   */\n      tag_273\n        /* \"#utility.yul\":8857:8862   */\n      dup2\n        /* \"#utility.yul\":8840:8863   */\n      tag_121\n      jump\t// in\n    tag_273:\n        /* \"#utility.yul\":8835:8838   */\n      dup3\n        /* \"#utility.yul\":8828:8864   */\n      mstore\n        /* \"#utility.yul\":8755:8870   */\n      pop\n      pop\n      jump\t// out\n        /* \"#utility.yul\":8876:9094   */\n    tag_53:\n        /* \"#utility.yul\":8967:8971   */\n      0x00\n        /* \"#utility.yul\":9005:9007   */\n      0x20\n        /* \"#utility.yul\":8994:9003   */\n      dup3\n        /* \"#utility.yul\":8990:9008   */\n      add\n        /* \"#utility.yul\":8982:9008   */\n      swap1\n      pop\n        /* \"#utility.yul\":9018:9087   */\n      tag_275\n        /* \"#utility.yul\":9084:9085   */\n      0x00\n        /* \"#utility.yul\":9073:9082   */\n      dup4\n        /* \"#utility.yul\":9069:9086   */\n      add\n        /* \"#utility.yul\":9060:9066   */\n      dup5\n        /* \"#utility.yul\":9018:9087   */\n      tag_147\n      jump\t// in\n    tag_275:\n        /* \"#utility.yul\":8876:9094   */\n      swap3\n      swap2\n      pop\n      pop\n      jump\t// out\n        /* \"#utility.yul\":9100:9177   */\n    tag_148:\n        /* \"#utility.yul\":9137:9144   */\n      0x00\n        /* \"#utility.yul\":9166:9171   */\n      dup2\n        /* \"#utility.yul\":9155:9171   */\n      swap1\n      pop\n        /* \"#utility.yul\":9100:9177   */\n      swap2\n      swap1\n      pop\n      jump\t// out\n        /* \"#utility.yul\":9183:9301   */\n    tag_149:\n        /* \"#utility.yul\":9270:9294   */\n      tag_278\n        /* \"#utility.yul\":9288:9293   */\n      dup2\n        /* \"#utility.yul\":9270:9294   */\n      tag_148\n      jump\t// in\n    tag_278:\n        /* \"#utility.yul\":9265:9268   */\n      dup3\n        /* \"#utility.yul\":9258:9295   */\n      mstore\n        /* \"#utility.yul\":9183:9301   */\n      pop\n      pop\n      jump\t// out\n        /* \"#utility.yul\":9307:9529   */\n    tag_58:\n        /* \"#utility.yul\":9400:9404   */\n      0x00\n        /* \"#utility.yul\":9438:9440   */\n      0x20\n        /* \"#utility.yul\":9427:9436   */\n      dup3\n        /* \"#utility.yul\":9423:9441   */\n      add\n        /* \"#utility.yul\":9415:9441   */\n      swap1\n      pop\n        /* \"#utility.yul\":9451:9522   */\n      tag_280\n        /* \"#utility.yul\":9519:9520   */\n      0x00\n        /* \"#utility.yul\":9508:9517   */\n      dup4\n        /* \"#utility.yul\":9504:9521   */\n      add\n        /* \"#utility.yul\":9495:9501   */\n      dup5\n        /* \"#utility.yul\":9451:9522   */\n      tag_149\n      jump\t// in\n    tag_280:\n        /* \"#utility.yul\":9307:9529   */\n      swap3\n      swap2\n      pop\n      pop\n      jump\t// out\n        /* \"#utility.yul\":9535:9652   */\n    tag_150:\n        /* \"#utility.yul\":9644:9645   */\n      0x00\n        /* \"#utility.yul\":9641:9642   */\n      0x00\n        /* \"#utility.yul\":9634:9646   */\n      revert\n        /* \"#utility.yul\":9672:10225   */\n    tag_151:\n        /* \"#utility.yul\":9730:9738   */\n      0x00\n        /* \"#utility.yul\":9740:9746   */\n      0x00\n        /* \"#utility.yul\":9790:9793   */\n      dup4\n        /* \"#utility.yul\":9783:9787   */\n      0x1f\n        /* \"#utility.yul\":9775:9781   */\n      dup5\n        /* \"#utility.yul\":9771:9788   */\n      add\n        /* \"#utility.yul\":9767:9794   */\n      slt\n        /* \"#utility.yul\":9757:9879   */\n      tag_283\n      jumpi\n        /* \"#utility.yul\":9798:9877   */\n      tag_284\n      tag_128\n      jump\t// in\n    tag_284:\n        /* \"#utility.yul\":9757:9879   */\n    tag_283:\n        /* \"#utility.yul\":9911:9917   */\n      dup3\n        /* \"#utility.yul\":9898:9918   */\n      calldataload\n        /* \"#utility.yul\":9888:9918   */\n      swap1\n      pop\n        /* \"#utility.yul\":9941:9959   */\n      0xffffffffffffffff\n        /* \"#utility.yul\":9933:9939   */\n      dup2\n        /* \"#utility.yul\":9930:9960   */\n      gt\n        /* \"#utility.yul\":9927:10044   */\n      iszero\n      tag_285\n      jumpi\n        /* \"#utility.yul\":9963:10042   */\n      tag_286\n      tag_150\n      jump\t// in\n    tag_286:\n        /* \"#utility.yul\":9927:10044   */\n    tag_285:\n        /* \"#utility.yul\":10077:10081   */\n      0x20\n        /* \"#utility.yul\":10069:10075   */\n      dup4\n        /* \"#utility.yul\":10065:10082   */\n      add\n        /* \"#utility.yul\":10053:10082   */\n      swap2\n      pop\n        /* \"#utility.yul\":10131:10134   */\n      dup4\n        /* \"#utility.yul\":10123:10127   */\n      0x01\n        /* \"#utility.yul\":10115:10121   */\n      dup3\n        /* \"#utility.yul\":10111:10128   */\n      mul\n        /* \"#utility.yul\":10101:10109   */\n      dup4\n        /* \"#utility.yul\":10097:10129   */\n      add\n        /* \"#utility.yul\":10094:10135   */\n      gt\n        /* \"#utility.yul\":10091:10219   */\n      iszero\n      tag_287\n      jumpi\n        /* \"#utility.yul\":10138:10217   */\n      tag_288\n      tag_133\n      jump\t// in\n    tag_288:\n        /* \"#utility.yul\":10091:10219   */\n    tag_287:\n        /* \"#utility.yul\":9672:10225   */\n      swap3\n      pop\n      swap3\n      swap1\n      pop\n      jump\t// out\n        /* \"#utility.yul\":10231:10760   */\n    tag_62:\n        /* \"#utility.yul\":10302:10308   */\n      0x00\n        /* \"#utility.yul\":10310:10316   */\n      0x00\n        /* \"#utility.yul\":10359:10361   */\n      0x20\n        /* \"#utility.yul\":10347:10356   */\n      dup4\n        /* \"#utility.yul\":10338:10345   */\n      dup6\n        /* \"#utility.yul\":10334:10357   */\n      sub\n        /* \"#utility.yul\":10330:10362   */\n      slt\n        /* \"#utility.yul\":10327:10446   */\n      iszero\n      tag_290\n      jumpi\n        /* \"#utility.yul\":10365:10444   */\n      tag_291\n      tag_119\n      jump\t// in\n    tag_291:\n        /* \"#utility.yul\":10327:10446   */\n    tag_290:\n        /* \"#utility.yul\":10513:10514   */\n      0x00\n        /* \"#utility.yul\":10502:10511   */\n      dup4\n        /* \"#utility.yul\":10498:10515   */\n      add\n        /* \"#utility.yul\":10485:10516   */\n      calldataload\n        /* \"#utility.yul\":10543:10561   */\n      0xffffffffffffffff\n        /* \"#utility.yul\":10535:10541   */\n      dup2\n        /* \"#utility.yul\":10532:10562   */\n      gt\n        /* \"#utility.yul\":10529:10646   */\n      iszero\n      tag_292\n      jumpi\n        /* \"#utility.yul\":10565:10644   */\n      tag_293\n      tag_120\n      jump\t// in\n    tag_293:\n        /* \"#utility.yul\":10529:10646   */\n    tag_292:\n        /* \"#utility.yul\":10678:10743   */\n      tag_294\n        /* \"#utility.yul\":10735:10742   */\n      dup6\n        /* \"#utility.yul\":10726:10732   */\n      dup3\n        /* \"#utility.yul\":10715:10724   */\n      dup7\n        /* \"#utility.yul\":10711:10733   */\n      add\n        /* \"#utility.yul\":10678:10743   */\n      tag_151\n      jump\t// in\n    tag_294:\n        /* \"#utility.yul\":10660:10743   */\n      swap3\n      pop\n      swap3\n      pop\n        /* \"#utility.yul\":10456:10753   */\n      pop\n        /* \"#utility.yul\":10231:10760   */\n      swap3\n      pop\n      swap3\n      swap1\n      pop\n      jump\t// out\n        /* \"#utility.yul\":10766:10881   */\n    tag_152:\n        /* \"#utility.yul\":10851:10874   */\n      tag_296\n        /* \"#utility.yul\":10868:10873   */\n      dup2\n        /* \"#utility.yul\":10851:10874   */\n      tag_134\n      jump\t// in\n    tag_296:\n        /* \"#utility.yul\":10846:10849   */\n      dup3\n        /* \"#utility.yul\":10839:10875   */\n      mstore\n        /* \"#utility.yul\":10766:10881   */\n      pop\n      pop\n      jump\t// out\n        /* \"#utility.yul\":10887:11317   */\n    tag_69:\n        /* \"#utility.yul\":11030:11034   */\n      0x00\n        /* \"#utility.yul\":11068:11070   */\n      0x60\n        /* \"#utility.yul\":11057:11066   */\n      dup3\n        /* \"#utility.yul\":11053:11071   */\n      add\n        /* \"#utility.yul\":11045:11071   */\n      swap1\n      pop\n        /* \"#utility.yul\":11081:11150   */\n      tag_298\n        /* \"#utility.yul\":11147:11148   */\n      0x00\n        /* \"#utility.yul\":11136:11145   */\n      dup4\n        /* \"#utility.yul\":11132:11149   */\n      add\n        /* \"#utility.yul\":11123:11129   */\n      dup7\n        /* \"#utility.yul\":11081:11150   */\n      tag_152\n      jump\t// in\n    tag_298:\n        /* \"#utility.yul\":11160:11230   */\n      tag_299\n        /* \"#utility.yul\":11226:11228   */\n      0x20\n        /* \"#utility.yul\":11215:11224   */\n      dup4\n        /* \"#utility.yul\":11211:11229   */\n      add\n        /* \"#utility.yul\":11202:11208   */\n      dup6\n        /* \"#utility.yul\":11160:11230   */\n      tag_152\n      jump\t// in\n    tag_299:\n        /* \"#utility.yul\":11240:11310   */\n      tag_300\n        /* \"#utility.yul\":11306:11308   */\n      0x40\n        /* \"#utility.yul\":11295:11304   */\n      dup4\n        /* \"#utility.yul\":11291:11309   */\n      add\n        /* \"#utility.yul\":11282:11288   */\n      dup5\n        /* \"#utility.yul\":11240:11310   */\n      tag_152\n      jump\t// in\n    tag_300:\n        /* \"#utility.yul\":10887:11317   */\n      swap5\n      swap4\n      pop\n      pop\n      pop\n      pop\n      jump\t// out\n        /* \"#utility.yul\":11323:11503   */\n    tag_153:\n        /* \"#utility.yul\":11371:11448   */\n      0x4e487b7100000000000000000000000000000000000000000000000000000000\n        /* \"#utility.yul\":11368:11369   */\n      0x00\n        /* \"#utility.yul\":11361:11449   */\n      mstore\n        /* \"#utility.yul\":11468:11472   */\n      0x22\n        /* \"#utility.yul\":11465:11466   */\n      0x04\n        /* \"#utility.yul\":11458:11473   */\n      mstore\n        /* \"#utility.yul\":11492:11496   */\n      0x24\n        /* \"#utility.yul\":11489:11490   */\n      0x00\n        /* \"#utility.yul\":11482:11497   */\n      revert\n        /* \"#utility.yul\":11509:11829   */\n    tag_71:\n        /* \"#utility.yul\":11553:11559   */\n      0x00\n        /* \"#utility.yul\":11590:11591   */\n      0x02\n        /* \"#utility.yul\":11584:11588   */\n      dup3\n        /* \"#utility.yul\":11580:11592   */\n      div\n        /* \"#utility.yul\":11570:11592   */\n      swap1\n      pop\n        /* \"#utility.yul\":11637:11638   */\n      0x01\n        /* \"#utility.yul\":11631:11635   */\n      dup3\n        /* \"#utility.yul\":11627:11639   */\n      and\n        /* \"#utility.yul\":11658:11676   */\n      dup1\n        /* \"#utility.yul\":11648:11729   */\n      tag_303\n      jumpi\n        /* \"#utility.yul\":11714:11718   */\n      0x7f\n        /* \"#utility.yul\":11706:11712   */\n      dup3\n        /* \"#utility.yul\":11702:11719   */\n      and\n        /* \"#utility.yul\":11692:11719   */\n      swap2\n      pop\n        /* \"#utility.yul\":11648:11729   */\n    tag_303:\n        /* \"#utility.yul\":11776:11778   */\n      0x20\n        /* \"#utility.yul\":11768:11774   */\n      dup3\n        /* \"#utility.yul\":11765:11779   */\n      lt\n        /* \"#utility.yul\":11745:11763   */\n      dup2\n        /* \"#utility.yul\":11742:11780   */\n      sub\n        /* \"#utility.yul\":11739:11823   */\n      tag_304\n      jumpi\n        /* \"#utility.yul\":11795:11813   */\n      tag_305\n      tag_153\n      jump\t// in\n    tag_305:\n        /* \"#utility.yul\":11739:11823   */\n    tag_304:\n        /* \"#utility.yul\":11560:11829   */\n      pop\n        /* \"#utility.yul\":11509:11829   */\n      swap2\n      swap1\n      pop\n      jump\t// out\n        /* \"#utility.yul\":11835:12015   */\n    tag_80:\n        /* \"#utility.yul\":11883:11960   */\n      0x4e487b7100000000000000000000000000000000000000000000000000000000\n        /* \"#utility.yul\":11880:11881   */\n      0x00\n        /* \"#utility.yul\":11873:11961   */\n      mstore\n        /* \"#utility.yul\":11980:11984   */\n      0x32\n        /* \"#utility.yul\":11977:11978   */\n      0x04\n        /* \"#utility.yul\":11970:11985   */\n      mstore\n        /* \"#utility.yul\":12004:12008   */\n      0x24\n        /* \"#utility.yul\":12001:12002   */\n      0x00\n        /* \"#utility.yul\":11994:12009   */\n      revert\n        /* \"#utility.yul\":12021:12191   */\n    tag_154:\n        /* \"#utility.yul\":12161:12183   */\n      0x4d61726b73206d757374206265203c3d20313030000000000000000000000000\n        /* \"#utility.yul\":12157:12158   */\n      0x00\n        /* \"#utility.yul\":12149:12155   */\n      dup3\n        /* \"#utility.yul\":12145:12159   */\n      add\n        /* \"#utility.yul\":12138:12184   */\n      mstore\n        /* \"#utility.yul\":12021:12191   */\n      pop\n      jump\t// out\n        /* \"#utility.yul\":12197:12563   */\n    tag_155:\n        /* \"#utility.yul\":12339:12342   */\n      0x00\n        /* \"#utility.yul\":12360:12427   */\n      tag_309\n        /* \"#utility.yul\":12424:12426   */\n      0x14\n        /* \"#utility.yul\":12419:12422   */\n      dup4\n        /* \"#utility.yul\":12360:12427   */\n      tag_114\n      jump\t// in\n    tag_309:\n        /* \"#utility.yul\":12353:12427   */\n      swap2\n      pop\n        /* \"#utility.yul\":12436:12529   */\n      tag_310\n        /* \"#utility.yul\":12525:12528   */\n      dup3\n        /* \"#utility.yul\":12436:12529   */\n      tag_154\n      jump\t// in\n    tag_310:\n        /* \"#utility.yul\":12554:12556   */\n      0x20\n        /* \"#utility.yul\":12549:12552   */\n      dup3\n        /* \"#utility.yul\":12545:12557   */\n      add\n        /* \"#utility.yul\":12538:12557   */\n      swap1\n      pop\n        /* \"#utility.yul\":12197:12563   */\n      swap2\n      swap1\n      pop\n      jump\t// out\n        /* \"#utility.yul\":12569:12988   */\n    tag_89:\n        /* \"#utility.yul\":12735:12739   */\n      0x00\n        /* \"#utility.yul\":12773:12775   */\n      0x20\n        /* \"#utility.yul\":12762:12771   */\n      dup3\n        /* \"#utility.yul\":12758:12776   */\n      add\n        /* \"#utility.yul\":12750:12776   */\n      swap1\n      pop\n        /* \"#utility.yul\":12822:12831   */\n      dup2\n        /* \"#utility.yul\":12816:12820   */\n      dup2\n        /* \"#utility.yul\":12812:12832   */\n      sub\n        /* \"#utility.yul\":12808:12809   */\n      0x00\n        /* \"#utility.yul\":12797:12806   */\n      dup4\n        /* \"#utility.yul\":12793:12810   */\n      add\n        /* \"#utility.yul\":12786:12833   */\n      mstore\n        /* \"#utility.yul\":12850:12981   */\n      tag_312\n        /* \"#utility.yul\":12976:12980   */\n      dup2\n        /* \"#utility.yul\":12850:12981   */\n      tag_155\n      jump\t// in\n    tag_312:\n        /* \"#utility.yul\":12842:12981   */\n      swap1\n      pop\n        /* \"#utility.yul\":12569:12988   */\n      swap2\n      swap1\n      pop\n      jump\t// out\n        /* \"#utility.yul\":12994:13531   */\n    tag_103:\n        /* \"#utility.yul\":13163:13167   */\n      0x00\n        /* \"#utility.yul\":13201:13204   */\n      0x80\n        /* \"#utility.yul\":13190:13199   */\n      dup3\n        /* \"#utility.yul\":13186:13205   */\n      add\n        /* \"#utility.yul\":13178:13205   */\n      swap1\n      pop\n        /* \"#utility.yul\":13215:13284   */\n      tag_314\n        /* \"#utility.yul\":13281:13282   */\n      0x00\n        /* \"#utility.yul\":13270:13279   */\n      dup4\n        /* \"#utility.yul\":13266:13283   */\n      add\n        /* \"#utility.yul\":13257:13263   */\n      dup8\n        /* \"#utility.yul\":13215:13284   */\n      tag_147\n      jump\t// in\n    tag_314:\n        /* \"#utility.yul\":13294:13364   */\n      tag_315\n        /* \"#utility.yul\":13360:13362   */\n      0x20\n        /* \"#utility.yul\":13349:13358   */\n      dup4\n        /* \"#utility.yul\":13345:13363   */\n      add\n        /* \"#utility.yul\":13336:13342   */\n      dup7\n        /* \"#utility.yul\":13294:13364   */\n      tag_152\n      jump\t// in\n    tag_315:\n        /* \"#utility.yul\":13374:13444   */\n      tag_316\n        /* \"#utility.yul\":13440:13442   */\n      0x40\n        /* \"#utility.yul\":13429:13438   */\n      dup4\n        /* \"#utility.yul\":13425:13443   */\n      add\n        /* \"#utility.yul\":13416:13422   */\n      dup6\n        /* \"#utility.yul\":13374:13444   */\n      tag_152\n      jump\t// in\n    tag_316:\n        /* \"#utility.yul\":13454:13524   */\n      tag_317\n        /* \"#utility.yul\":13520:13522   */\n      0x60\n        /* \"#utility.yul\":13509:13518   */\n      dup4\n        /* \"#utility.yul\":13505:13523   */\n      add\n        /* \"#utility.yul\":13496:13502   */\n      dup5\n        /* \"#utility.yul\":13454:13524   */\n      tag_152\n      jump\t// in\n    tag_317:\n        /* \"#utility.yul\":12994:13531   */\n      swap6\n      swap5\n      pop\n      pop\n      pop\n      pop\n      pop\n      jump\t// out\n        /* \"#utility.yul\":13537:13717   */\n    tag_156:\n        /* \"#utility.yul\":13585:13662   */\n      0x4e487b7100000000000000000000000000000000000000000000000000000000\n        /* \"#utility.yul\":13582:13583   */\n      0x00\n        /* \"#utility.yul\":13575:13663   */\n      mstore\n        /* \"#utility.yul\":13682:13686   */\n      0x11\n        /* \"#utility.yul\":13679:13680   */\n      0x04\n        /* \"#utility.yul\":13672:13687   */\n      mstore\n        /* \"#utility.yul\":13706:13710   */\n      0x24\n        /* \"#utility.yul\":13703:13704   */\n      0x00\n        /* \"#utility.yul\":13696:13711   */\n      revert\n        /* \"#utility.yul\":13723:13914   */\n    tag_109:\n        /* \"#utility.yul\":13763:13766   */\n      0x00\n        /* \"#utility.yul\":13782:13802   */\n      tag_320\n        /* \"#utility.yul\":13800:13801   */\n      dup3\n        /* \"#utility.yul\":13782:13802   */\n      tag_148\n      jump\t// in\n    tag_320:\n        /* \"#utility.yul\":13777:13802   */\n      swap2\n      pop\n        /* \"#utility.yul\":13816:13836   */\n      tag_321\n        /* \"#utility.yul\":13834:13835   */\n      dup4\n        /* \"#utility.yul\":13816:13836   */\n      tag_148\n      jump\t// in\n    tag_321:\n        /* \"#utility.yul\":13811:13836   */\n      swap3\n      pop\n        /* \"#utility.yul\":13859:13860   */\n      dup3\n        /* \"#utility.yul\":13856:13857   */\n      dup3\n        /* \"#utility.yul\":13852:13861   */\n      add\n        /* \"#utility.yul\":13845:13861   */\n      swap1\n      pop\n        /* \"#utility.yul\":13880:13883   */\n      dup1\n        /* \"#utility.yul\":13877:13878   */\n      dup3\n        /* \"#utility.yul\":13874:13884   */\n      gt\n        /* \"#utility.yul\":13871:13907   */\n      iszero\n      tag_322\n      jumpi\n        /* \"#utility.yul\":13887:13905   */\n      tag_323\n      tag_156\n      jump\t// in\n    tag_323:\n        /* \"#utility.yul\":13871:13907   */\n    tag_322:\n        /* \"#utility.yul\":13723:13914   */\n      swap3\n      swap2\n      pop\n      pop\n      jump\t// out\n        /* \"#utility.yul\":13920:14017   */\n    tag_157:\n        /* \"#utility.yul\":13979:13985   */\n      0x00\n        /* \"#utility.yul\":14007:14010   */\n      dup3\n        /* \"#utility.yul\":13997:14010   */\n      swap1\n      pop\n        /* \"#utility.yul\":13920:14017   */\n      swap3\n      swap2\n      pop\n      pop\n      jump\t// out\n        /* \"#utility.yul\":14023:14164   */\n    tag_158:\n        /* \"#utility.yul\":14072:14076   */\n      0x00\n        /* \"#utility.yul\":14095:14098   */\n      dup2\n        /* \"#utility.yul\":14087:14098   */\n      swap1\n      pop\n        /* \"#utility.yul\":14118:14121   */\n      dup2\n        /* \"#utility.yul\":14115:14116   */\n      0x00\n        /* \"#utility.yul\":14108:14122   */\n      mstore\n        /* \"#utility.yul\":14152:14156   */\n      0x20\n        /* \"#utility.yul\":14149:14150   */\n      0x00\n        /* \"#utility.yul\":14139:14157   */\n      keccak256\n        /* \"#utility.yul\":14131:14157   */\n      swap1\n      pop\n        /* \"#utility.yul\":14023:14164   */\n      swap2\n      swap1\n      pop\n      jump\t// out\n        /* \"#utility.yul\":14170:14263   */\n    tag_159:\n        /* \"#utility.yul\":14207:14213   */\n      0x00\n        /* \"#utility.yul\":14254:14256   */\n      0x20\n        /* \"#utility.yul\":14249:14251   */\n      0x1f\n        /* \"#utility.yul\":14242:14247   */\n      dup4\n        /* \"#utility.yul\":14238:14252   */\n      add\n        /* \"#utility.yul\":14234:14257   */\n      div\n        /* \"#utility.yul\":14224:14257   */\n      swap1\n      pop\n        /* \"#utility.yul\":14170:14263   */\n      swap2\n      swap1\n      pop\n      jump\t// out\n        /* \"#utility.yul\":14269:14376   */\n    tag_160:\n        /* \"#utility.yul\":14313:14321   */\n      0x00\n        /* \"#utility.yul\":14363:14368   */\n      dup3\n        /* \"#utility.yul\":14357:14361   */\n      dup3\n        /* \"#utility.yul\":14353:14369   */\n      shl\n        /* \"#utility.yul\":14332:14369   */\n      swap1\n      pop\n        /* \"#utility.yul\":14269:14376   */\n      swap3\n      swap2\n      pop\n      pop\n      jump\t// out\n        /* \"#utility.yul\":14382:14775   */\n    tag_161:\n        /* \"#utility.yul\":14451:14457   */\n      0x00\n        /* \"#utility.yul\":14501:14502   */\n      0x08\n        /* \"#utility.yul\":14489:14499   */\n      dup4\n        /* \"#utility.yul\":14485:14503   */\n      mul\n        /* \"#utility.yul\":14524:14621   */\n      tag_329\n        /* \"#utility.yul\":14554:14620   */\n      0xffffffffffffffffffffffffffffffffffffffffffffffffffffffffffffffff\n        /* \"#utility.yul\":14543:14552   */\n      dup3\n        /* \"#utility.yul\":14524:14621   */\n      tag_160\n      jump\t// in\n    tag_329:\n        /* \"#utility.yul\":14642:14681   */\n      tag_330\n        /* \"#utility.yul\":14672:14680   */\n      dup7\n        /* \"#utility.yul\":14661:14670   */\n      dup4\n        /* \"#utility.yul\":14642:14681   */\n      tag_160\n      jump\t// in\n    tag_330:\n        /* \"#utility.yul\":14630:14681   */\n      swap6\n      pop\n        /* \"#utility.yul\":14714:14718   */\n      dup1\n        /* \"#utility.yul\":14710:14719   */\n      not\n        /* \"#utility.yul\":14703:14708   */\n      dup5\n        /* \"#utility.yul\":14699:14720   */\n      and\n        /* \"#utility.yul\":14690:14720   */\n      swap4\n      pop\n        /* \"#utility.yul\":14763:14767   */\n      dup1\n        /* \"#utility.yul\":14753:14761   */\n      dup7\n        /* \"#utility.yul\":14749:14768   */\n      and\n        /* \"#utility.yul\":14742:14747   */\n      dup5\n        /* \"#utility.yul\":14739:14769   */\n      or\n        /* \"#utility.yul\":14729:14769   */\n      swap3\n      pop\n        /* \"#utility.yul\":14458:14775   */\n      pop\n      pop\n        /* \"#utility.yul\":14382:14775   */\n      swap4\n      swap3\n      pop\n      pop\n      pop\n      jump\t// out\n        /* \"#utility.yul\":14781:14841   */\n    tag_162:\n        /* \"#utility.yul\":14809:14812   */\n      0x00\n        /* \"#utility.yul\":14830:14835   */\n      dup2\n        /* \"#utility.yul\":14823:14835   */\n      swap1\n      pop\n        /* \"#utility.yul\":14781:14841   */\n      swap2\n      swap1\n      pop\n      jump\t// out\n        /* \"#utility.yul\":14847:14989   */\n    tag_163:\n        /* \"#utility.yul\":14897:14906   */\n      0x00\n        /* \"#utility.yul\":14930:14983   */\n      tag_333\n        /* \"#utility.yul\":14948:14982   */\n      tag_334\n        /* \"#utility.yul\":14957:14981   */\n      tag_335\n        /* \"#utility.yul\":14975:14980   */\n      dup5\n        /* \"#utility.yul\":14957:14981   */\n      tag_148\n      jump\t// in\n    tag_335:\n        /* \"#utility.yul\":14948:14982   */\n      tag_162\n      jump\t// in\n    tag_334:\n        /* \"#utility.yul\":14930:14983   */\n      tag_148\n      jump\t// in\n    tag_333:\n        /* \"#utility.yul\":14917:14983   */\n      swap1\n      pop\n        /* \"#utility.yul\":14847:14989   */\n      swap2\n      swap1\n      pop\n      jump\t// out\n        /* \"#utility.yul\":14995:15070   */\n    tag_164:\n        /* \"#utility.yul\":15038:15041   */\n      0x00\n        /* \"#utility.yul\":15059:15064   */\n      dup2\n        /* \"#utility.yul\":15052:15064   */\n      swap1\n      pop\n        /* \"#utility.yul\":14995:15070   */\n      swap2\n      swap1\n      pop\n      jump\t// out\n        /* \"#utility.yul\":15076:15345   */\n    tag_165:\n        /* \"#utility.yul\":15186:15225   */\n      tag_338\n        /* \"#utility.yul\":15217:15224   */\n      dup4\n        /* \"#utility.yul\":15186:15225   */\n      tag_163\n      jump\t// in\n    tag_338:\n        /* \"#utility.yul\":15247:15338   */\n      tag_339\n        /* \"#utility.yul\":15296:15337   */\n      tag_340\n        /* \"#utility.yul\":15320:15336   */\n      dup3\n        /* \"#utility.yul\":15296:15337   */\n      tag_164\n      jump\t// in\n    tag_340:\n        /* \"#utility.yul\":15288:15294   */\n      dup5\n        /* \"#utility.yul\":15281:15285   */\n      dup5\n        /* \"#utility.yul\":15275:15286   */\n      sload\n        /* \"#utility.yul\":15247:15338   */\n      tag_161\n      jump\t// in\n    tag_339:\n        /* \"#utility.yul\":15241:15245   */\n      dup3\n        /* \"#utility.yul\":15234:15339   */\n      sstore\n        /* \"#utility.yul\":15152:15345   */\n      pop\n        /* \"#utility.yul\":15076:15345   */\n      pop\n      pop\n      pop\n      jump\t// out\n        /* \"#utility.yul\":15351:15424   */\n    tag_166:\n        /* \"#utility.yul\":15396:15399   */\n      0x00\n        /* \"#utility.yul\":15417:15418   */\n      0x00\n        /* \"#utility.yul\":15410:15418   */\n      swap1\n      pop\n        /* \"#utility.yul\":15351:15424   */\n      swap1\n      jump\t// out\n        /* \"#utility.yul\":15430:15619   */\n    tag_167:\n        /* \"#utility.yul\":15507:15539   */\n      tag_343\n      tag_166\n      jump\t// in\n    tag_343:\n        /* \"#utility.yul\":15548:15613   */\n      tag_344\n        /* \"#utility.yul\":15606:15612   */\n      dup2\n        /* \"#utility.yul\":15598:15604   */\n      dup5\n        /* \"#utility.yul\":15592:15596   */\n      dup5\n        /* \"#utility.yul\":15548:15613   */\n      tag_165\n      jump\t// in\n    tag_344:\n        /* \"#utility.yul\":15483:15619   */\n      pop\n        /* \"#utility.yul\":15430:15619   */\n      pop\n      pop\n      jump\t// out\n        /* \"#utility.yul\":15625:15811   */\n    tag_168:\n        /* \"#utility.yul\":15685:15805   */\n    tag_346:\n        /* \"#utility.yul\":15702:15705   */\n      dup2\n        /* \"#utility.yul\":15695:15700   */\n      dup2\n        /* \"#utility.yul\":15692:15706   */\n      lt\n        /* \"#utility.yul\":15685:15805   */\n      iszero\n      tag_348\n      jumpi\n        /* \"#utility.yul\":15756:15795   */\n      tag_349\n        /* \"#utility.yul\":15793:15794   */\n      0x00\n        /* \"#utility.yul\":15786:15791   */\n      dup3\n        /* \"#utility.yul\":15756:15795   */\n      tag_167\n      jump\t// in\n    tag_349:\n        /* \"#utility.yul\":15729:15730   */\n      0x01\n        /* \"#utility.yul\":15722:15727   */\n      dup2\n        /* \"#utility.yul\":15718:15731   */\n      add\n        /* \"#utility.yul\":15709:15731   */\n      swap1\n      pop\n        /* \"#utility.yul\":15685:15805   */\n      jump(tag_346)\n    tag_348:\n        /* \"#utility.yul\":15625:15811   */\n      pop\n      pop\n      jump\t// out\n        /* \"#utility.yul\":15817:16360   */\n    tag_169:\n        /* \"#utility.yul\":15918:15920   */\n      0x1f\n        /* \"#utility.yul\":15913:15916   */\n      dup3\n        /* \"#utility.yul\":15910:15921   */\n      gt\n        /* \"#utility.yul\":15907:16353   */\n      iszero\n      tag_351\n      jumpi\n        /* \"#utility.yul\":15952:15990   */\n      tag_352\n        /* \"#utility.yul\":15984:15989   */\n      dup2\n        /* \"#utility.yul\":15952:15990   */\n      tag_158\n      jump\t// in\n    tag_352:\n        /* \"#utility.yul\":16036:16065   */\n      tag_353\n        /* \"#utility.yul\":16054:16064   */\n      dup5\n        /* \"#utility.yul\":16036:16065   */\n      tag_159\n      jump\t// in\n    tag_353:\n        /* \"#utility.yul\":16026:16034   */\n      dup2\n        /* \"#utility.yul\":16022:16066   */\n      add\n        /* \"#utility.yul\":16219:16221   */\n      0x20\n        /* \"#utility.yul\":16207:16217   */\n      dup6\n        /* \"#utility.yul\":16204:16222   */\n      lt\n        /* \"#utility.yul\":16201:16250   */\n      iszero\n      tag_354\n      jumpi\n        /* \"#utility.yul\":16240:16248   */\n      dup2\n        /* \"#utility.yul\":16225:16248   */\n      swap1\n      pop\n        /* \"#utility.yul\":16201:16250   */\n    tag_354:\n        /* \"#utility.yul\":16263:16343   */\n      tag_355\n        /* \"#utility.yul\":16319:16341   */\n      tag_356\n        /* \"#utility.yul\":16337:16340   */\n      dup6\n        /* \"#utility.yul\":16319:16341   */\n      tag_159\n      jump\t// in\n    tag_356:\n        /* \"#utility.yul\":16309:16317   */\n      dup4\n        /* \"#utility.yul\":16305:16342   */\n      add\n        /* \"#utility.yul\":16292:16303   */\n      dup3\n        /* \"#utility.yul\":16263:16343   */\n      tag_168\n      jump\t// in\n    tag_355:\n        /* \"#utility.yul\":15922:16353   */\n      pop\n      pop\n        /* \"#utility.yul\":15907:16353   */\n    tag_351:\n        /* \"#utility.yul\":15817:16360   */\n      pop\n      pop\n      pop\n      jump\t// out\n        /* \"#utility.yul\":16366:16483   */\n    tag_170:\n        /* \"#utility.yul\":16420:16428   */\n      0x00\n        /* \"#utility.yul\":16470:16475   */\n      dup3\n        /* \"#utility.yul\":16464:16468   */\n      dup3\n        /* \"#utility.yul\":16460:16476   */\n      shr\n        /* \"#utility.yul\":16439:16476   */\n      swap1\n      pop\n        /* \"#utility.yul\":16366:16483   */\n      swap3\n      swap2\n      pop\n      pop\n      jump\t// out\n        /* \"#utility.yul\":16489:16658   */\n    tag_171:\n        /* \"#utility.yul\":16533:16539   */\n      0x00\n        /* \"#utility.yul\":16566:16617   */\n      tag_359\n        /* \"#utility.yul\":16614:16615   */\n      0x00\n        /* \"#utility.yul\":16610:16616   */\n      not\n        /* \"#utility.yul\":16602:16607   */\n      dup5\n        /* \"#utility.yul\":16599:16600   */\n      0x08\n        /* \"#utility.yul\":16595:16608   */\n      mul\n        /* \"#utility.yul\":16566:16617   */\n      tag_170\n      jump\t// in\n    tag_359:\n        /* \"#utility.yul\":16562:16618   */\n      not\n        /* \"#utility.yul\":16647:16651   */\n      dup1\n        /* \"#utility.yul\":16641:16645   */\n      dup4\n        /* \"#utility.yul\":16637:16652   */\n      and\n        /* \"#utility.yul\":16627:16652   */\n      swap2\n      pop\n        /* \"#utility.yul\":16540:16658   */\n      pop\n        /* \"#utility.yul\":16489:16658   */\n      swap3\n      swap2\n      pop\n      pop\n      jump\t// out\n        /* \"#utility.yul\":16663:16958   */\n    tag_172:\n        /* \"#utility.yul\":16739:16743   */\n      0x00\n        /* \"#utility.yul\":16885:16914   */\n      tag_361\n        /* \"#utility.yul\":16910:16913   */\n      dup4\n        /* \"#utility.yul\":16904:16908   */\n      dup4\n        /* \"#utility.yul\":16885:16914   */\n      tag_171\n      jump\t// in\n    tag_361:\n        /* \"#utility.yul\":16877:16914   */\n      swap2\n      pop\n        /* \"#utility.yul\":16947:16950   */\n      dup3\n        /* \"#utility.yul\":16944:16945   */\n      0x02\n        /* \"#utility.yul\":16940:16951   */\n      mul\n        /* \"#utility.yul\":16934:16938   */\n      dup3\n        /* \"#utility.yul\":16931:16952   */\n      or\n        /* \"#utility.yul\":16923:16952   */\n      swap1\n      pop\n        /* \"#utility.yul\":16663:16958   */\n      swap3\n      swap2\n      pop\n      pop\n      jump\t// out\n        /* \"#utility.yul\":16963:18366   */\n    tag_112:\n        /* \"#utility.yul\":17087:17131   */\n      tag_363\n        /* \"#utility.yul\":17127:17130   */\n      dup4\n        /* \"#utility.yul\":17122:17125   */\n      dup4\n        /* \"#utility.yul\":17087:17131   */\n      tag_157\n      jump\t// in\n    tag_363:\n        /* \"#utility.yul\":17196:17214   */\n      0xffffffffffffffff\n        /* \"#utility.yul\":17188:17194   */\n      dup2\n        /* \"#utility.yul\":17185:17215   */\n      gt\n        /* \"#utility.yul\":17182:17238   */\n      iszero\n      tag_364\n      jumpi\n        /* \"#utility.yul\":17218:17236   */\n      tag_365\n      tag_129\n      jump\t// in\n    tag_365:\n        /* \"#utility.yul\":17182:17238   */\n    tag_364:\n        /* \"#utility.yul\":17262:17300   */\n      tag_366\n        /* \"#utility.yul\":17294:17298   */\n      dup3\n        /* \"#utility.yul\":17288:17299   */\n      sload\n        /* \"#utility.yul\":17262:17300   */\n      tag_71\n      jump\t// in\n    tag_366:\n        /* \"#utility.yul\":17347:17414   */\n      tag_367\n        /* \"#utility.yul\":17407:17413   */\n      dup3\n        /* \"#utility.yul\":17399:17405   */\n      dup3\n        /* \"#utility.yul\":17393:17397   */\n      dup6\n        /* \"#utility.yul\":17347:17414   */\n      tag_169\n      jump\t// in\n    tag_367:\n        /* \"#utility.yul\":17441:17442   */\n      0x00\n        /* \"#utility.yul\":17470:17472   */\n      0x1f\n        /* \"#utility.yul\":17462:17468   */\n      dup4\n        /* \"#utility.yul\":17459:17473   */\n      gt\n        /* \"#utility.yul\":17487:17488   */\n      0x01\n        /* \"#utility.yul\":17482:18114   */\n      dup2\n      eq\n      tag_369\n      jumpi\n        /* \"#utility.yul\":18158:18159   */\n      0x00\n        /* \"#utility.yul\":18175:18181   */\n      dup5\n        /* \"#utility.yul\":18172:18256   */\n      iszero\n      tag_370\n      jumpi\n        /* \"#utility.yul\":18231:18240   */\n      dup3\n        /* \"#utility.yul\":18226:18229   */\n      dup8\n        /* \"#utility.yul\":18222:18241   */\n      add\n        /* \"#utility.yul\":18209:18242   */\n      calldataload\n        /* \"#utility.yul\":18200:18242   */\n      swap1\n      pop\n        /* \"#utility.yul\":18172:18256   */\n    tag_370:\n        /* \"#utility.yul\":18282:18349   */\n      tag_371\n        /* \"#utility.yul\":18342:18348   */\n      dup6\n        /* \"#utility.yul\":18335:18340   */\n      dup3\n        /* \"#utility.yul\":18282:18349   */\n      tag_172\n      jump\t// in\n    tag_371:\n        /* \"#utility.yul\":18276:18280   */\n      dup7\n        /* \"#utility.yul\":18269:18350   */\n      sstore\n        /* \"#utility.yul\":18131:18360   */\n      pop\n        /* \"#utility.yul\":17452:18360   */\n      jump(tag_368)\n        /* \"#utility.yul\":17482:18114   */\n    tag_369:\n        /* \"#utility.yul\":17534:17538   */\n      0x1f\n        /* \"#utility.yul\":17530:17539   */\n      not\n        /* \"#utility.yul\":17522:17528   */\n      dup5\n        /* \"#utility.yul\":17518:17540   */\n      and\n        /* \"#utility.yul\":17568:17605   */\n      tag_372\n        /* \"#utility.yul\":17600:17604   */\n      dup7\n        /* \"#utility.yul\":17568:17605   */\n      tag_158\n      jump\t// in\n    tag_372:\n        /* \"#utility.yul\":17627:17628   */\n      0x00\n        /* \"#utility.yul\":17641:17856   */\n    tag_373:\n        /* \"#utility.yul\":17655:17662   */\n      dup3\n        /* \"#utility.yul\":17652:17653   */\n      dup2\n        /* \"#utility.yul\":17649:17663   */\n      lt\n        /* \"#utility.yul\":17641:17856   */\n      iszero\n      tag_375\n      jumpi\n        /* \"#utility.yul\":17741:17750   */\n      dup5\n        /* \"#utility.yul\":17736:17739   */\n      dup10\n        /* \"#utility.yul\":17732:17751   */\n      add\n        /* \"#utility.yul\":17719:17752   */\n      calldataload\n        /* \"#utility.yul\":17711:17717   */\n      dup3\n        /* \"#utility.yul\":17704:17753   */\n      sstore\n        /* \"#utility.yul\":17792:17793   */\n      0x01\n        /* \"#utility.yul\":17784:17790   */\n      dup3\n        /* \"#utility.yul\":17780:17794   */\n      add\n        /* \"#utility.yul\":17770:17794   */\n      swap2\n      pop\n        /* \"#utility.yul\":17839:17841   */\n      0x20\n        /* \"#utility.yul\":17828:17837   */\n      dup6\n        /* \"#utility.yul\":17824:17842   */\n      add\n        /* \"#utility.yul\":17811:17842   */\n      swap5\n      pop\n        /* \"#utility.yul\":17678:17682   */\n      0x20\n        /* \"#utility.yul\":17675:17676   */\n      dup2\n        /* \"#utility.yul\":17671:17683   */\n      add\n        /* \"#utility.yul\":17666:17683   */\n      swap1\n      pop\n        /* \"#utility.yul\":17641:17856   */\n      jump(tag_373)\n    tag_375:\n        /* \"#utility.yul\":17884:17890   */\n      dup7\n        /* \"#utility.yul\":17875:17882   */\n      dup4\n        /* \"#utility.yul\":17872:17891   */\n      lt\n        /* \"#utility.yul\":17869:18055   */\n      iszero\n      tag_376\n      jumpi\n        /* \"#utility.yul\":17949:17958   */\n      dup5\n        /* \"#utility.yul\":17944:17947   */\n      dup10\n        /* \"#utility.yul\":17940:17959   */\n      add\n        /* \"#utility.yul\":17927:17960   */\n      calldataload\n        /* \"#utility.yul\":17992:18040   */\n      tag_377\n        /* \"#utility.yul\":18034:18038   */\n      0x1f\n        /* \"#utility.yul\":18026:18032   */\n      dup10\n        /* \"#utility.yul\":18022:18039   */\n      and\n        /* \"#utility.yul\":18011:18020   */\n      dup3\n        /* \"#utility.yul\":17992:18040   */\n      tag_171\n      jump\t// in\n    tag_377:\n        /* \"#utility.yul\":17984:17990   */\n      dup4\n        /* \"#utility.yul\":17977:18041   */\n      sstore\n        /* \"#utility.yul\":17892:18055   */\n      pop\n        /* \"#utility.yul\":17869:18055   */\n    tag_376:\n        /* \"#utility.yul\":18101:18102   */\n      0x01\n        /* \"#utility.yul\":18097:18098   */\n      0x02\n        /* \"#utility.yul\":18089:18095   */\n      dup9\n        /* \"#utility.yul\":18085:18099   */\n      mul\n        /* \"#utility.yul\":18081:18103   */\n      add\n        /* \"#utility.yul\":18075:18079   */\n      dup9\n        /* \"#utility.yul\":18068:18104   */\n      sstore\n        /* \"#utility.yul\":17489:18114   */\n      pop\n      pop\n      pop\n        /* \"#utility.yul\":17452:18360   */\n    tag_368:\n      pop\n        /* \"#utility.yul\":17062:18366   */\n      pop\n      pop\n      pop\n        /* \"#utility.yul\":16963:18366   */\n      pop\n      pop\n      pop\n      jump\t// out\n\n    auxdata: 0xa2646970667358221220da390bd59a004d4aa25795853bbb26b3af0d7da1de4e8113ff715bb3326f6d8164736f6c634300081e0033\n}\n",
				"bytecode": {
					"linkReferences": {},
					"object": "6080604052348015600e575f5ffd5b506111098061001c5f395ff3fe60806040526004361061009b575f3560e01c806399c7e31b1161006357806399c7e31b14610191578063a26759cb146101bb578063af640d0f146101c5578063b69ef8a8146101ef578063f9fbd55414610219578063fd90c86a146102415761009b565b806306fdde031461009f578063100a5f68146100c95780631fdbb82a146100f1578063654b5def1461011957806371f9469214610155575b5f5ffd5b3480156100aa575f5ffd5b506100b361027f565b6040516100c0919061079e565b60405180910390f35b3480156100d4575f5ffd5b506100ef60048036038101906100ea919061085c565b61030b565b005b3480156100fc575f5ffd5b5061011760048036038101906101129190610a01565b61035e565b005b348015610124575f5ffd5b5061013f600480360381019061013a9190610a3f565b610595565b60405161014c9190610ab9565b60405180910390f35b348015610160575f5ffd5b5061017b60048036038101906101769190610a3f565b61062e565b6040516101889190610ae1565b60405180910390f35b34801561019c575f5ffd5b506101a561065e565b6040516101b29190610b6d565b60405180910390f35b6101c3610670565b005b3480156101d0575f5ffd5b506101d961068a565b6040516101e69190610b95565b60405180910390f35b3480156101fa575f5ffd5b5061020361068f565b6040516102109190610bc6565b60405180910390f35b348015610224575f5ffd5b5061023f600480360381019061023a9190610c38565b610695565b005b34801561024c575f5ffd5b5061026760048036038101906102629190610a3f565b6106ab565b60405161027693929190610c92565b60405180910390f35b6001805461028c90610cf4565b80601f01602080910402602001604051908101604052809291908181526020018280546102b890610cf4565b80156103035780601f106102da57610100808354040283529160200191610303565b820191905f5260205f20905b8154815290600101906020018083116102e657829003601f168201915b505050505081565b8060035f8481526020019081526020015f205f6101000a81548173ffffffffffffffffffffffffffffffffffffffff021916908373ffffffffffffffffffffffffffffffffffffffff1602179055505050565b6064815f6003811061037357610372610d24565b5b602002015163ffffffff16111580156103ab575060648160016003811061039d5761039c610d24565b5b602002015163ffffffff1611155b80156103d657506064816002600381106103c8576103c7610d24565b5b602002015163ffffffff1611155b610415576040517f08c379a000000000000000000000000000000000000000000000000000000000815260040161040c90610d9b565b60405180910390fd5b6040518060600160405280825f6003811061043357610432610d24565b5b602002015163ffffffff1681526020018260016003811061045757610456610d24565b5b602002015163ffffffff1681526020018260026003811061047b5761047a610d24565b5b602002015163ffffffff1681525060055f8481526020019081526020015f205f820151815f015f6101000a81548163ffffffff021916908363ffffffff1602179055506020820151815f0160046101000a81548163ffffffff021916908363ffffffff1602179055506040820151815f0160086101000a81548163ffffffff021916908363ffffffff1602179055509050507f15f0028b62fa7401dabd6a17ae086f7743f7b7bc60401477e82994d7b8c6a15682825f6003811061054257610541610d24565b5b60200201518360016003811061055b5761055a610d24565b5b60200201518460026003811061057457610573610d24565b5b60200201516040516105899493929190610db9565b60405180910390a15050565b61059d6106fe565b60055f8381526020019081526020015f206040518060600160405290815f82015f9054906101000a900463ffffffff1663ffffffff1663ffffffff1681526020015f820160049054906101000a900463ffffffff1663ffffffff1663ffffffff1681526020015f820160089054906101000a900463ffffffff1663ffffffff1663ffffffff16815250509050919050565b6003602052805f5260405f205f915054906101000a900473ffffffffffffffffffffffffffffffffffffffff1681565b60025f9054906101000a900460ff1681565b3460045f8282546106819190610e29565b92505081905550565b5f5481565b60045481565b8181600191826106a6929190611006565b505050565b6005602052805f5260405f205f91509050805f015f9054906101000a900463ffffffff1690805f0160049054906101000a900463ffffffff1690805f0160089054906101000a900463ffffffff16905083565b60405180606001604052805f63ffffffff1681526020015f63ffffffff1681526020015f63ffffffff1681525090565b5f81519050919050565b5f82825260208201905092915050565b8281835e5f83830152505050565b5f601f19601f8301169050919050565b5f6107708261072e565b61077a8185610738565b935061078a818560208601610748565b61079381610756565b840191505092915050565b5f6020820190508181035f8301526107b68184610766565b905092915050565b5f604051905090565b5f5ffd5b5f5ffd5b5f819050919050565b6107e1816107cf565b81146107eb575f5ffd5b50565b5f813590506107fc816107d8565b92915050565b5f73ffffffffffffffffffffffffffffffffffffffff82169050919050565b5f61082b82610802565b9050919050565b61083b81610821565b8114610845575f5ffd5b50565b5f8135905061085681610832565b92915050565b5f5f60408385031215610872576108716107c7565b5b5f61087f858286016107ee565b925050602061089085828601610848565b9150509250929050565b5f5ffd5b7f4e487b71000000000000000000000000000000000000000000000000000000005f52604160045260245ffd5b6108d482610756565b810181811067ffffffffffffffff821117156108f3576108f261089e565b5b80604052505050565b5f6109056107be565b905061091182826108cb565b919050565b5f67ffffffffffffffff8211156109305761092f61089e565b5b602082029050919050565b5f5ffd5b5f63ffffffff82169050919050565b6109578161093f565b8114610961575f5ffd5b50565b5f813590506109728161094e565b92915050565b5f61098a61098584610916565b6108fc565b905080602084028301858111156109a4576109a361093b565b5b835b818110156109cd57806109b98882610964565b8452602084019350506020810190506109a6565b5050509392505050565b5f82601f8301126109eb576109ea61089a565b5b60036109f8848285610978565b91505092915050565b5f5f60808385031215610a1757610a166107c7565b5b5f610a24858286016107ee565b9250506020610a35858286016109d7565b9150509250929050565b5f60208284031215610a5457610a536107c7565b5b5f610a61848285016107ee565b91505092915050565b610a738161093f565b82525050565b606082015f820151610a8d5f850182610a6a565b506020820151610aa06020850182610a6a565b506040820151610ab36040850182610a6a565b50505050565b5f606082019050610acc5f830184610a79565b92915050565b610adb81610821565b82525050565b5f602082019050610af45f830184610ad2565b92915050565b7f4e487b71000000000000000000000000000000000000000000000000000000005f52602160045260245ffd5b60038110610b3857610b37610afa565b5b50565b5f819050610b4882610b27565b919050565b5f610b5782610b3b565b9050919050565b610b6781610b4d565b82525050565b5f602082019050610b805f830184610b5e565b92915050565b610b8f816107cf565b82525050565b5f602082019050610ba85f830184610b86565b92915050565b5f819050919050565b610bc081610bae565b82525050565b5f602082019050610bd95f830184610bb7565b92915050565b5f5ffd5b5f5f83601f840112610bf857610bf761089a565b5b8235905067ffffffffffffffff811115610c1557610c14610bdf565b5b602083019150836001820283011115610c3157610c3061093b565b5b9250929050565b5f5f60208385031215610c4e57610c4d6107c7565b5b5f83013567ffffffffffffffff811115610c6b57610c6a6107cb565b5b610c7785828601610be3565b92509250509250929050565b610c8c8161093f565b82525050565b5f606082019050610ca55f830186610c83565b610cb26020830185610c83565b610cbf6040830184610c83565b949350505050565b7f4e487b71000000000000000000000000000000000000000000000000000000005f52602260045260245ffd5b5f6002820490506001821680610d0b57607f821691505b602082108103610d1e57610d1d610cc7565b5b50919050565b7f4e487b71000000000000000000000000000000000000000000000000000000005f52603260045260245ffd5b7f4d61726b73206d757374206265203c3d203130300000000000000000000000005f82015250565b5f610d85601483610738565b9150610d9082610d51565b602082019050919050565b5f6020820190508181035f830152610db281610d79565b9050919050565b5f608082019050610dcc5f830187610b86565b610dd96020830186610c83565b610de66040830185610c83565b610df36060830184610c83565b95945050505050565b7f4e487b71000000000000000000000000000000000000000000000000000000005f52601160045260245ffd5b5f610e3382610bae565b9150610e3e83610bae565b9250828201905080821115610e5657610e55610dfc565b5b92915050565b5f82905092915050565b5f819050815f5260205f209050919050565b5f6020601f8301049050919050565b5f82821b905092915050565b5f60088302610ec27fffffffffffffffffffffffffffffffffffffffffffffffffffffffffffffffff82610e87565b610ecc8683610e87565b95508019841693508086168417925050509392505050565b5f819050919050565b5f610f07610f02610efd84610bae565b610ee4565b610bae565b9050919050565b5f819050919050565b610f2083610eed565b610f34610f2c82610f0e565b848454610e93565b825550505050565b5f5f905090565b610f4b610f3c565b610f56818484610f17565b505050565b5b81811015610f7957610f6e5f82610f43565b600181019050610f5c565b5050565b601f821115610fbe57610f8f81610e66565b610f9884610e78565b81016020851015610fa7578190505b610fbb610fb385610e78565b830182610f5b565b50505b505050565b5f82821c905092915050565b5f610fde5f1984600802610fc3565b1980831691505092915050565b5f610ff68383610fcf565b9150826002028217905092915050565b6110108383610e5c565b67ffffffffffffffff8111156110295761102861089e565b5b6110338254610cf4565b61103e828285610f7d565b5f601f83116001811461106b575f8415611059578287013590505b6110638582610feb565b8655506110ca565b601f19841661107986610e66565b5f5b828110156110a05784890135825560018201915060208501945060208101905061107b565b868310156110bd57848901356110b9601f891682610fcf565b8355505b6001600288020188555050505b5050505050505056fea2646970667358221220da390bd59a004d4aa25795853bbb26b3af0d7da1de4e8113ff715bb3326f6d8164736f6c634300081e0033",
					"opcodes": "PUSH1 0x80 PUSH1 0x40 MSTORE CALLVALUE DUP1 ISZERO PUSH1 0xE JUMPI PUSH0 PUSH0 REVERT JUMPDEST POP PUSH2 0x1109 DUP1 PUSH2 0x1C PUSH0 CODECOPY PUSH0 RETURN INVALID PUSH1 0x80 PUSH1 0x40 MSTORE PUSH1 0x4 CALLDATASIZE LT PUSH2 0x9B JUMPI PUSH0 CALLDATALOAD PUSH1 0xE0 SHR DUP1 PUSH4 0x99C7E31B GT PUSH2 0x63 JUMPI DUP1 PUSH4 0x99C7E31B EQ PUSH2 0x191 JUMPI DUP1 PUSH4 0xA26759CB EQ PUSH2 0x1BB JUMPI DUP1 PUSH4 0xAF640D0F EQ PUSH2 0x1C5 JUMPI DUP1 PUSH4 0xB69EF8A8 EQ PUSH2 0x1EF JUMPI DUP1 PUSH4 0xF9FBD554 EQ PUSH2 0x219 JUMPI DUP1 PUSH4 0xFD90C86A EQ PUSH2 0x241 JUMPI PUSH2 0x9B JUMP JUMPDEST DUP1 PUSH4 0x6FDDE03 EQ PUSH2 0x9F JUMPI DUP1 PUSH4 0x100A5F68 EQ PUSH2 0xC9 JUMPI DUP1 PUSH4 0x1FDBB82A EQ PUSH2 0xF1 JUMPI DUP1 PUSH4 0x654B5DEF EQ PUSH2 0x119 JUMPI DUP1 PUSH4 0x71F94692 EQ PUSH2 0x155 JUMPI JUMPDEST PUSH0 PUSH0 REVERT JUMPDEST CALLVALUE DUP1 ISZERO PUSH2 0xAA JUMPI PUSH0 PUSH0 REVERT JUMPDEST POP PUSH2 0xB3 PUSH2 0x27F JUMP JUMPDEST PUSH1 0x40 MLOAD PUSH2 0xC0 SWAP2 SWAP1 PUSH2 0x79E JUMP JUMPDEST PUSH1 0x40 MLOAD DUP1 SWAP2 SUB SWAP1 RETURN JUMPDEST CALLVALUE DUP1 ISZERO PUSH2 0xD4 JUMPI PUSH0 PUSH0 REVERT JUMPDEST POP PUSH2 0xEF PUSH1 0x4 DUP1 CALLDATASIZE SUB DUP2 ADD SWAP1 PUSH2 0xEA SWAP2 SWAP1 PUSH2 0x85C JUMP JUMPDEST PUSH2 0x30B JUMP JUMPDEST STOP JUMPDEST CALLVALUE DUP1 ISZERO PUSH2 0xFC JUMPI PUSH0 PUSH0 REVERT JUMPDEST POP PUSH2 0x117 PUSH1 0x4 DUP1 CALLDATASIZE SUB DUP2 ADD SWAP1 PUSH2 0x112 SWAP2 SWAP1 PUSH2 0xA01 JUMP JUMPDEST PUSH2 0x35E JUMP JUMPDEST STOP JUMPDEST CALLVALUE DUP1 ISZERO PUSH2 0x124 JUMPI PUSH0 PUSH0 REVERT JUMPDEST POP PUSH2 0x13F PUSH1 0x4 DUP1 CALLDATASIZE SUB DUP2 ADD SWAP1 PUSH2 0x13A SWAP2 SWAP1 PUSH2 0xA3F JUMP JUMPDEST PUSH2 0x595 JUMP JUMPDEST PUSH1 0x40 MLOAD PUSH2 0x14C SWAP2 SWAP1 PUSH2 0xAB9 JUMP JUMPDEST PUSH1 0x40 MLOAD DUP1 SWAP2 SUB SWAP1 RETURN JUMPDEST CALLVALUE DUP1 ISZERO PUSH2 0x160 JUMPI PUSH0 PUSH0 REVERT JUMPDEST POP PUSH2 0x17B PUSH1 0x4 DUP1 CALLDATASIZE SUB DUP2 ADD SWAP1 PUSH2 0x176 SWAP2 SWAP1 PUSH2 0xA3F JUMP JUMPDEST PUSH2 0x62E JUMP JUMPDEST PUSH1 0x40 MLOAD PUSH2 0x188 SWAP2 SWAP1 PUSH2 0xAE1 JUMP JUMPDEST PUSH1 0x40 MLOAD DUP1 SWAP2 SUB SWAP1 RETURN JUMPDEST CALLVALUE DUP1 ISZERO PUSH2 0x19C JUMPI PUSH0 PUSH0 REVERT JUMPDEST POP PUSH2 0x1A5 PUSH2 0x65E JUMP JUMPDEST PUSH1 0x40 MLOAD PUSH2 0x1B2 SWAP2 SWAP1 PUSH2 0xB6D JUMP JUMPDEST PUSH1 0x40 MLOAD DUP1 SWAP2 SUB SWAP1 RETURN JUMPDEST PUSH2 0x1C3 PUSH2 0x670 JUMP JUMPDEST STOP JUMPDEST CALLVALUE DUP1 ISZERO PUSH2 0x1D0 JUMPI PUSH0 PUSH0 REVERT JUMPDEST POP PUSH2 0x1D9 PUSH2 0x68A JUMP JUMPDEST PUSH1 0x40 MLOAD PUSH2 0x1E6 SWAP2 SWAP1 PUSH2 0xB95 JUMP JUMPDEST PUSH1 0x40 MLOAD DUP1 SWAP2 SUB SWAP1 RETURN JUMPDEST CALLVALUE DUP1 ISZERO PUSH2 0x1FA JUMPI PUSH0 PUSH0 REVERT JUMPDEST POP PUSH2 0x203 PUSH2 0x68F JUMP JUMPDEST PUSH1 0x40 MLOAD PUSH2 0x210 SWAP2 SWAP1 PUSH2 0xBC6 JUMP JUMPDEST PUSH1 0x40 MLOAD DUP1 SWAP2 SUB SWAP1 RETURN JUMPDEST CALLVALUE DUP1 ISZERO PUSH2 0x224 JUMPI PUSH0 PUSH0 REVERT JUMPDEST POP PUSH2 0x23F PUSH1 0x4 DUP1 CALLDATASIZE SUB DUP2 ADD SWAP1 PUSH2 0x23A SWAP2 SWAP1 PUSH2 0xC38 JUMP JUMPDEST PUSH2 0x695 JUMP JUMPDEST STOP JUMPDEST CALLVALUE DUP1 ISZERO PUSH2 0x24C JUMPI PUSH0 PUSH0 REVERT JUMPDEST POP PUSH2 0x267 PUSH1 0x4 DUP1 CALLDATASIZE SUB DUP2 ADD SWAP1 PUSH2 0x262 SWAP2 SWAP1 PUSH2 0xA3F JUMP JUMPDEST PUSH2 0x6AB JUMP JUMPDEST PUSH1 0x40 MLOAD PUSH2 0x276 SWAP4 SWAP3 SWAP2 SWAP1 PUSH2 0xC92 JUMP JUMPDEST PUSH1 0x40 MLOAD DUP1 SWAP2 SUB SWAP1 RETURN JUMPDEST PUSH1 0x1 DUP1 SLOAD PUSH2 0x28C SWAP1 PUSH2 0xCF4 JUMP JUMPDEST DUP1 PUSH1 0x1F ADD PUSH1 0x20 DUP1 SWAP2 DIV MUL PUSH1 0x20 ADD PUSH1 0x40 MLOAD SWAP1 DUP2 ADD PUSH1 0x40 MSTORE DUP1 SWAP3 SWAP2 SWAP1 DUP2 DUP2 MSTORE PUSH1 0x20 ADD DUP3 DUP1 SLOAD PUSH2 0x2B8 SWAP1 PUSH2 0xCF4 JUMP JUMPDEST DUP1 ISZERO PUSH2 0x303 JUMPI DUP1 PUSH1 0x1F LT PUSH2 0x2DA JUMPI PUSH2 0x100 DUP1 DUP4 SLOAD DIV MUL DUP4 MSTORE SWAP2 PUSH1 0x20 ADD SWAP2 PUSH2 0x303 JUMP JUMPDEST DUP3 ADD SWAP2 SWAP1 PUSH0 MSTORE PUSH1 0x20 PUSH0 KECCAK256 SWAP1 JUMPDEST DUP2 SLOAD DUP2 MSTORE SWAP1 PUSH1 0x1 ADD SWAP1 PUSH1 0x20 ADD DUP1 DUP4 GT PUSH2 0x2E6 JUMPI DUP3 SWAP1 SUB PUSH1 0x1F AND DUP3 ADD SWAP2 JUMPDEST POP POP POP POP POP DUP2 JUMP JUMPDEST DUP1 PUSH1 0x3 PUSH0 DUP5 DUP2 MSTORE PUSH1 0x20 ADD SWAP1 DUP2 MSTORE PUSH1 0x20 ADD PUSH0 KECCAK256 PUSH0 PUSH2 0x100 EXP DUP2 SLOAD DUP2 PUSH20 0xFFFFFFFFFFFFFFFFFFFFFFFFFFFFFFFFFFFFFFFF MUL NOT AND SWAP1 DUP4 PUSH20 0xFFFFFFFFFFFFFFFFFFFFFFFFFFFFFFFFFFFFFFFF AND MUL OR SWAP1 SSTORE POP POP POP JUMP JUMPDEST PUSH1 0x64 DUP2 PUSH0 PUSH1 0x3 DUP2 LT PUSH2 0x373 JUMPI PUSH2 0x372 PUSH2 0xD24 JUMP JUMPDEST JUMPDEST PUSH1 0x20 MUL ADD MLOAD PUSH4 0xFFFFFFFF AND GT ISZERO DUP1 ISZERO PUSH2 0x3AB JUMPI POP PUSH1 0x64 DUP2 PUSH1 0x1 PUSH1 0x3 DUP2 LT PUSH2 0x39D JUMPI PUSH2 0x39C PUSH2 0xD24 JUMP JUMPDEST JUMPDEST PUSH1 0x20 MUL ADD MLOAD PUSH4 0xFFFFFFFF AND GT ISZERO JUMPDEST DUP1 ISZERO PUSH2 0x3D6 JUMPI POP PUSH1 0x64 DUP2 PUSH1 0x2 PUSH1 0x3 DUP2 LT PUSH2 0x3C8 JUMPI PUSH2 0x3C7 PUSH2 0xD24 JUMP JUMPDEST JUMPDEST PUSH1 0x20 MUL ADD MLOAD PUSH4 0xFFFFFFFF AND GT ISZERO JUMPDEST PUSH2 0x415 JUMPI PUSH1 0x40 MLOAD PUSH32 0x8C379A000000000000000000000000000000000000000000000000000000000 DUP2 MSTORE PUSH1 0x4 ADD PUSH2 0x40C SWAP1 PUSH2 0xD9B JUMP JUMPDEST PUSH1 0x40 MLOAD DUP1 SWAP2 SUB SWAP1 REVERT JUMPDEST PUSH1 0x40 MLOAD DUP1 PUSH1 0x60 ADD PUSH1 0x40 MSTORE DUP1 DUP3 PUSH0 PUSH1 0x3 DUP2 LT PUSH2 0x433 JUMPI PUSH2 0x432 PUSH2 0xD24 JUMP JUMPDEST JUMPDEST PUSH1 0x20 MUL ADD MLOAD PUSH4 0xFFFFFFFF AND DUP2 MSTORE PUSH1 0x20 ADD DUP3 PUSH1 0x1 PUSH1 0x3 DUP2 LT PUSH2 0x457 JUMPI PUSH2 0x456 PUSH2 0xD24 JUMP JUMPDEST JUMPDEST PUSH1 0x20 MUL ADD MLOAD PUSH4 0xFFFFFFFF AND DUP2 MSTORE PUSH1 0x20 ADD DUP3 PUSH1 0x2 PUSH1 0x3 DUP2 LT PUSH2 0x47B JUMPI PUSH2 0x47A PUSH2 0xD24 JUMP JUMPDEST JUMPDEST PUSH1 0x20 MUL ADD MLOAD PUSH4 0xFFFFFFFF AND DUP2 MSTORE POP PUSH1 0x5 PUSH0 DUP5 DUP2 MSTORE PUSH1 0x20 ADD SWAP1 DUP2 MSTORE PUSH1 0x20 ADD PUSH0 KECCAK256 PUSH0 DUP3 ADD MLOAD DUP2 PUSH0 ADD PUSH0 PUSH2 0x100 EXP DUP2 SLOAD DUP2 PUSH4 0xFFFFFFFF MUL NOT AND SWAP1 DUP4 PUSH4 0xFFFFFFFF AND MUL OR SWAP1 SSTORE POP PUSH1 0x20 DUP3 ADD MLOAD DUP2 PUSH0 ADD PUSH1 0x4 PUSH2 0x100 EXP DUP2 SLOAD DUP2 PUSH4 0xFFFFFFFF MUL NOT AND SWAP1 DUP4 PUSH4 0xFFFFFFFF AND MUL OR SWAP1 SSTORE POP PUSH1 0x40 DUP3 ADD MLOAD DUP2 PUSH0 ADD PUSH1 0x8 PUSH2 0x100 EXP DUP2 SLOAD DUP2 PUSH4 0xFFFFFFFF MUL NOT AND SWAP1 DUP4 PUSH4 0xFFFFFFFF AND MUL OR SWAP1 SSTORE POP SWAP1 POP POP PUSH32 0x15F0028B62FA7401DABD6A17AE086F7743F7B7BC60401477E82994D7B8C6A156 DUP3 DUP3 PUSH0 PUSH1 0x3 DUP2 LT PUSH2 0x542 JUMPI PUSH2 0x541 PUSH2 0xD24 JUMP JUMPDEST JUMPDEST PUSH1 0x20 MUL ADD MLOAD DUP4 PUSH1 0x1 PUSH1 0x3 DUP2 LT PUSH2 0x55B JUMPI PUSH2 0x55A PUSH2 0xD24 JUMP JUMPDEST JUMPDEST PUSH1 0x20 MUL ADD MLOAD DUP5 PUSH1 0x2 PUSH1 0x3 DUP2 LT PUSH2 0x574 JUMPI PUSH2 0x573 PUSH2 0xD24 JUMP JUMPDEST JUMPDEST PUSH1 0x20 MUL ADD MLOAD PUSH1 0x40 MLOAD PUSH2 0x589 SWAP5 SWAP4 SWAP3 SWAP2 SWAP1 PUSH2 0xDB9 JUMP JUMPDEST PUSH1 0x40 MLOAD DUP1 SWAP2 SUB SWAP1 LOG1 POP POP JUMP JUMPDEST PUSH2 0x59D PUSH2 0x6FE JUMP JUMPDEST PUSH1 0x5 PUSH0 DUP4 DUP2 MSTORE PUSH1 0x20 ADD SWAP1 DUP2 MSTORE PUSH1 0x20 ADD PUSH0 KECCAK256 PUSH1 0x40 MLOAD DUP1 PUSH1 0x60 ADD PUSH1 0x40 MSTORE SWAP1 DUP2 PUSH0 DUP3 ADD PUSH0 SWAP1 SLOAD SWAP1 PUSH2 0x100 EXP SWAP1 DIV PUSH4 0xFFFFFFFF AND PUSH4 0xFFFFFFFF AND PUSH4 0xFFFFFFFF AND DUP2 MSTORE PUSH1 0x20 ADD PUSH0 DUP3 ADD PUSH1 0x4 SWAP1 SLOAD SWAP1 PUSH2 0x100 EXP SWAP1 DIV PUSH4 0xFFFFFFFF AND PUSH4 0xFFFFFFFF AND PUSH4 0xFFFFFFFF AND DUP2 MSTORE PUSH1 0x20 ADD PUSH0 DUP3 ADD PUSH1 0x8 SWAP1 SLOAD SWAP1 PUSH2 0x100 EXP SWAP1 DIV PUSH4 0xFFFFFFFF AND PUSH4 0xFFFFFFFF AND PUSH4 0xFFFFFFFF AND DUP2 MSTORE POP POP SWAP1 POP SWAP2 SWAP1 POP JUMP JUMPDEST PUSH1 0x3 PUSH1 0x20 MSTORE DUP1 PUSH0 MSTORE PUSH1 0x40 PUSH0 KECCAK256 PUSH0 SWAP2 POP SLOAD SWAP1 PUSH2 0x100 EXP SWAP1 DIV PUSH20 0xFFFFFFFFFFFFFFFFFFFFFFFFFFFFFFFFFFFFFFFF AND DUP2 JUMP JUMPDEST PUSH1 0x2 PUSH0 SWAP1 SLOAD SWAP1 PUSH2 0x100 EXP SWAP1 DIV PUSH1 0xFF AND DUP2 JUMP JUMPDEST CALLVALUE PUSH1 0x4 PUSH0 DUP3 DUP3 SLOAD PUSH2 0x681 SWAP2 SWAP1 PUSH2 0xE29 JUMP JUMPDEST SWAP3 POP POP DUP2 SWAP1 SSTORE POP JUMP JUMPDEST PUSH0 SLOAD DUP2 JUMP JUMPDEST PUSH1 0x4 SLOAD DUP2 JUMP JUMPDEST DUP2 DUP2 PUSH1 0x1 SWAP2 DUP3 PUSH2 0x6A6 SWAP3 SWAP2 SWAP1 PUSH2 0x1006 JUMP JUMPDEST POP POP POP JUMP JUMPDEST PUSH1 0x5 PUSH1 0x20 MSTORE DUP1 PUSH0 MSTORE PUSH1 0x40 PUSH0 KECCAK256 PUSH0 SWAP2 POP SWAP1 POP DUP1 PUSH0 ADD PUSH0 SWAP1 SLOAD SWAP1 PUSH2 0x100 EXP SWAP1 DIV PUSH4 0xFFFFFFFF AND SWAP1 DUP1 PUSH0 ADD PUSH1 0x4 SWAP1 SLOAD SWAP1 PUSH2 0x100 EXP SWAP1 DIV PUSH4 0xFFFFFFFF AND SWAP1 DUP1 PUSH0 ADD PUSH1 0x8 SWAP1 SLOAD SWAP1 PUSH2 0x100 EXP SWAP1 DIV PUSH4 0xFFFFFFFF AND SWAP1 POP DUP4 JUMP JUMPDEST PUSH1 0x40 MLOAD DUP1 PUSH1 0x60 ADD PUSH1 0x40 MSTORE DUP1 PUSH0 PUSH4 0xFFFFFFFF AND DUP2 MSTORE PUSH1 0x20 ADD PUSH0 PUSH4 0xFFFFFFFF AND DUP2 MSTORE PUSH1 0x20 ADD PUSH0 PUSH4 0xFFFFFFFF AND DUP2 MSTORE POP SWAP1 JUMP JUMPDEST PUSH0 DUP2 MLOAD SWAP1 POP SWAP2 SWAP1 POP JUMP JUMPDEST PUSH0 DUP3 DUP3 MSTORE PUSH1 0x20 DUP3 ADD SWAP1 POP SWAP3 SWAP2 POP POP JUMP JUMPDEST DUP3 DUP2 DUP4 MCOPY PUSH0 DUP4 DUP4 ADD MSTORE POP POP POP JUMP JUMPDEST PUSH0 PUSH1 0x1F NOT PUSH1 0x1F DUP4 ADD AND SWAP1 POP SWAP2 SWAP1 POP JUMP JUMPDEST PUSH0 PUSH2 0x770 DUP3 PUSH2 0x72E JUMP JUMPDEST PUSH2 0x77A DUP2 DUP6 PUSH2 0x738 JUMP JUMPDEST SWAP4 POP PUSH2 0x78A DUP2 DUP6 PUSH1 0x20 DUP7 ADD PUSH2 0x748 JUMP JUMPDEST PUSH2 0x793 DUP2 PUSH2 0x756 JUMP JUMPDEST DUP5 ADD SWAP2 POP POP SWAP3 SWAP2 POP POP JUMP JUMPDEST PUSH0 PUSH1 0x20 DUP3 ADD SWAP1 POP DUP2 DUP2 SUB PUSH0 DUP4 ADD MSTORE PUSH2 0x7B6 DUP2 DUP5 PUSH2 0x766 JUMP JUMPDEST SWAP1 POP SWAP3 SWAP2 POP POP JUMP JUMPDEST PUSH0 PUSH1 0x40 MLOAD SWAP1 POP SWAP1 JUMP JUMPDEST PUSH0 PUSH0 REVERT JUMPDEST PUSH0 PUSH0 REVERT JUMPDEST PUSH0 DUP2 SWAP1 POP SWAP2 SWAP1 POP JUMP JUMPDEST PUSH2 0x7E1 DUP2 PUSH2 0x7CF JUMP JUMPDEST DUP2 EQ PUSH2 0x7EB JUMPI PUSH0 PUSH0 REVERT JUMPDEST POP JUMP JUMPDEST PUSH0 DUP2 CALLDATALOAD SWAP1 POP PUSH2 0x7FC DUP2 PUSH2 0x7D8 JUMP JUMPDEST SWAP3 SWAP2 POP POP JUMP JUMPDEST PUSH0 PUSH20 0xFFFFFFFFFFFFFFFFFFFFFFFFFFFFFFFFFFFFFFFF DUP3 AND SWAP1 POP SWAP2 SWAP1 POP JUMP JUMPDEST PUSH0 PUSH2 0x82B DUP3 PUSH2 0x802 JUMP JUMPDEST SWAP1 POP SWAP2 SWAP1 POP JUMP JUMPDEST PUSH2 0x83B DUP2 PUSH2 0x821 JUMP JUMPDEST DUP2 EQ PUSH2 0x845 JUMPI PUSH0 PUSH0 REVERT JUMPDEST POP JUMP JUMPDEST PUSH0 DUP2 CALLDATALOAD SWAP1 POP PUSH2 0x856 DUP2 PUSH2 0x832 JUMP JUMPDEST SWAP3 SWAP2 POP POP JUMP JUMPDEST PUSH0 PUSH0 PUSH1 0x40 DUP4 DUP6 SUB SLT ISZERO PUSH2 0x872 JUMPI PUSH2 0x871 PUSH2 0x7C7 JUMP JUMPDEST JUMPDEST PUSH0 PUSH2 0x87F DUP6 DUP3 DUP7 ADD PUSH2 0x7EE JUMP JUMPDEST SWAP3 POP POP PUSH1 0x20 PUSH2 0x890 DUP6 DUP3 DUP7 ADD PUSH2 0x848 JUMP JUMPDEST SWAP2 POP POP SWAP3 POP SWAP3 SWAP1 POP JUMP JUMPDEST PUSH0 PUSH0 REVERT JUMPDEST PUSH32 0x4E487B7100000000000000000000000000000000000000000000000000000000 PUSH0 MSTORE PUSH1 0x41 PUSH1 0x4 MSTORE PUSH1 0x24 PUSH0 REVERT JUMPDEST PUSH2 0x8D4 DUP3 PUSH2 0x756 JUMP JUMPDEST DUP2 ADD DUP2 DUP2 LT PUSH8 0xFFFFFFFFFFFFFFFF DUP3 GT OR ISZERO PUSH2 0x8F3 JUMPI PUSH2 0x8F2 PUSH2 0x89E JUMP JUMPDEST JUMPDEST DUP1 PUSH1 0x40 MSTORE POP POP POP JUMP JUMPDEST PUSH0 PUSH2 0x905 PUSH2 0x7BE JUMP JUMPDEST SWAP1 POP PUSH2 0x911 DUP3 DUP3 PUSH2 0x8CB JUMP JUMPDEST SWAP2 SWAP1 POP JUMP JUMPDEST PUSH0 PUSH8 0xFFFFFFFFFFFFFFFF DUP3 GT ISZERO PUSH2 0x930 JUMPI PUSH2 0x92F PUSH2 0x89E JUMP JUMPDEST JUMPDEST PUSH1 0x20 DUP3 MUL SWAP1 POP SWAP2 SWAP1 POP JUMP JUMPDEST PUSH0 PUSH0 REVERT JUMPDEST PUSH0 PUSH4 0xFFFFFFFF DUP3 AND SWAP1 POP SWAP2 SWAP1 POP JUMP JUMPDEST PUSH2 0x957 DUP2 PUSH2 0x93F JUMP JUMPDEST DUP2 EQ PUSH2 0x961 JUMPI PUSH0 PUSH0 REVERT JUMPDEST POP JUMP JUMPDEST PUSH0 DUP2 CALLDATALOAD SWAP1 POP PUSH2 0x972 DUP2 PUSH2 0x94E JUMP JUMPDEST SWAP3 SWAP2 POP POP JUMP JUMPDEST PUSH0 PUSH2 0x98A PUSH2 0x985 DUP5 PUSH2 0x916 JUMP JUMPDEST PUSH2 0x8FC JUMP JUMPDEST SWAP1 POP DUP1 PUSH1 0x20 DUP5 MUL DUP4 ADD DUP6 DUP2 GT ISZERO PUSH2 0x9A4 JUMPI PUSH2 0x9A3 PUSH2 0x93B JUMP JUMPDEST JUMPDEST DUP4 JUMPDEST DUP2 DUP2 LT ISZERO PUSH2 0x9CD JUMPI DUP1 PUSH2 0x9B9 DUP9 DUP3 PUSH2 0x964 JUMP JUMPDEST DUP5 MSTORE PUSH1 0x20 DUP5 ADD SWAP4 POP POP PUSH1 0x20 DUP2 ADD SWAP1 POP PUSH2 0x9A6 JUMP JUMPDEST POP POP POP SWAP4 SWAP3 POP POP POP JUMP JUMPDEST PUSH0 DUP3 PUSH1 0x1F DUP4 ADD SLT PUSH2 0x9EB JUMPI PUSH2 0x9EA PUSH2 0x89A JUMP JUMPDEST JUMPDEST PUSH1 0x3 PUSH2 0x9F8 DUP5 DUP3 DUP6 PUSH2 0x978 JUMP JUMPDEST SWAP2 POP POP SWAP3 SWAP2 POP POP JUMP JUMPDEST PUSH0 PUSH0 PUSH1 0x80 DUP4 DUP6 SUB SLT ISZERO PUSH2 0xA17 JUMPI PUSH2 0xA16 PUSH2 0x7C7 JUMP JUMPDEST JUMPDEST PUSH0 PUSH2 0xA24 DUP6 DUP3 DUP7 ADD PUSH2 0x7EE JUMP JUMPDEST SWAP3 POP POP PUSH1 0x20 PUSH2 0xA35 DUP6 DUP3 DUP7 ADD PUSH2 0x9D7 JUMP JUMPDEST SWAP2 POP POP SWAP3 POP SWAP3 SWAP1 POP JUMP JUMPDEST PUSH0 PUSH1 0x20 DUP3 DUP5 SUB SLT ISZERO PUSH2 0xA54 JUMPI PUSH2 0xA53 PUSH2 0x7C7 JUMP JUMPDEST JUMPDEST PUSH0 PUSH2 0xA61 DUP5 DUP3 DUP6 ADD PUSH2 0x7EE JUMP JUMPDEST SWAP2 POP POP SWAP3 SWAP2 POP POP JUMP JUMPDEST PUSH2 0xA73 DUP2 PUSH2 0x93F JUMP JUMPDEST DUP3 MSTORE POP POP JUMP JUMPDEST PUSH1 0x60 DUP3 ADD PUSH0 DUP3 ADD MLOAD PUSH2 0xA8D PUSH0 DUP6 ADD DUP3 PUSH2 0xA6A JUMP JUMPDEST POP PUSH1 0x20 DUP3 ADD MLOAD PUSH2 0xAA0 PUSH1 0x20 DUP6 ADD DUP3 PUSH2 0xA6A JUMP JUMPDEST POP PUSH1 0x40 DUP3 ADD MLOAD PUSH2 0xAB3 PUSH1 0x40 DUP6 ADD DUP3 PUSH2 0xA6A JUMP JUMPDEST POP POP POP POP JUMP JUMPDEST PUSH0 PUSH1 0x60 DUP3 ADD SWAP1 POP PUSH2 0xACC PUSH0 DUP4 ADD DUP5 PUSH2 0xA79 JUMP JUMPDEST SWAP3 SWAP2 POP POP JUMP JUMPDEST PUSH2 0xADB DUP2 PUSH2 0x821 JUMP JUMPDEST DUP3 MSTORE POP POP JUMP JUMPDEST PUSH0 PUSH1 0x20 DUP3 ADD SWAP1 POP PUSH2 0xAF4 PUSH0 DUP4 ADD DUP5 PUSH2 0xAD2 JUMP JUMPDEST SWAP3 SWAP2 POP POP JUMP JUMPDEST PUSH32 0x4E487B7100000000000000000000000000000000000000000000000000000000 PUSH0 MSTORE PUSH1 0x21 PUSH1 0x4 MSTORE PUSH1 0x24 PUSH0 REVERT JUMPDEST PUSH1 0x3 DUP2 LT PUSH2 0xB38 JUMPI PUSH2 0xB37 PUSH2 0xAFA JUMP JUMPDEST JUMPDEST POP JUMP JUMPDEST PUSH0 DUP2 SWAP1 POP PUSH2 0xB48 DUP3 PUSH2 0xB27 JUMP JUMPDEST SWAP2 SWAP1 POP JUMP JUMPDEST PUSH0 PUSH2 0xB57 DUP3 PUSH2 0xB3B JUMP JUMPDEST SWAP1 POP SWAP2 SWAP1 POP JUMP JUMPDEST PUSH2 0xB67 DUP2 PUSH2 0xB4D JUMP JUMPDEST DUP3 MSTORE POP POP JUMP JUMPDEST PUSH0 PUSH1 0x20 DUP3 ADD SWAP1 POP PUSH2 0xB80 PUSH0 DUP4 ADD DUP5 PUSH2 0xB5E JUMP JUMPDEST SWAP3 SWAP2 POP POP JUMP JUMPDEST PUSH2 0xB8F DUP2 PUSH2 0x7CF JUMP JUMPDEST DUP3 MSTORE POP POP JUMP JUMPDEST PUSH0 PUSH1 0x20 DUP3 ADD SWAP1 POP PUSH2 0xBA8 PUSH0 DUP4 ADD DUP5 PUSH2 0xB86 JUMP JUMPDEST SWAP3 SWAP2 POP POP JUMP JUMPDEST PUSH0 DUP2 SWAP1 POP SWAP2 SWAP1 POP JUMP JUMPDEST PUSH2 0xBC0 DUP2 PUSH2 0xBAE JUMP JUMPDEST DUP3 MSTORE POP POP JUMP JUMPDEST PUSH0 PUSH1 0x20 DUP3 ADD SWAP1 POP PUSH2 0xBD9 PUSH0 DUP4 ADD DUP5 PUSH2 0xBB7 JUMP JUMPDEST SWAP3 SWAP2 POP POP JUMP JUMPDEST PUSH0 PUSH0 REVERT JUMPDEST PUSH0 PUSH0 DUP4 PUSH1 0x1F DUP5 ADD SLT PUSH2 0xBF8 JUMPI PUSH2 0xBF7 PUSH2 0x89A JUMP JUMPDEST JUMPDEST DUP3 CALLDATALOAD SWAP1 POP PUSH8 0xFFFFFFFFFFFFFFFF DUP2 GT ISZERO PUSH2 0xC15 JUMPI PUSH2 0xC14 PUSH2 0xBDF JUMP JUMPDEST JUMPDEST PUSH1 0x20 DUP4 ADD SWAP2 POP DUP4 PUSH1 0x1 DUP3 MUL DUP4 ADD GT ISZERO PUSH2 0xC31 JUMPI PUSH2 0xC30 PUSH2 0x93B JUMP JUMPDEST JUMPDEST SWAP3 POP SWAP3 SWAP1 POP JUMP JUMPDEST PUSH0 PUSH0 PUSH1 0x20 DUP4 DUP6 SUB SLT ISZERO PUSH2 0xC4E JUMPI PUSH2 0xC4D PUSH2 0x7C7 JUMP JUMPDEST JUMPDEST PUSH0 DUP4 ADD CALLDATALOAD PUSH8 0xFFFFFFFFFFFFFFFF DUP2 GT ISZERO PUSH2 0xC6B JUMPI PUSH2 0xC6A PUSH2 0x7CB JUMP JUMPDEST JUMPDEST PUSH2 0xC77 DUP6 DUP3 DUP7 ADD PUSH2 0xBE3 JUMP JUMPDEST SWAP3 POP SWAP3 POP POP SWAP3 POP SWAP3 SWAP1 POP JUMP JUMPDEST PUSH2 0xC8C DUP2 PUSH2 0x93F JUMP JUMPDEST DUP3 MSTORE POP POP JUMP JUMPDEST PUSH0 PUSH1 0x60 DUP3 ADD SWAP1 POP PUSH2 0xCA5 PUSH0 DUP4 ADD DUP7 PUSH2 0xC83 JUMP JUMPDEST PUSH2 0xCB2 PUSH1 0x20 DUP4 ADD DUP6 PUSH2 0xC83 JUMP JUMPDEST PUSH2 0xCBF PUSH1 0x40 DUP4 ADD DUP5 PUSH2 0xC83 JUMP JUMPDEST SWAP5 SWAP4 POP POP POP POP JUMP JUMPDEST PUSH32 0x4E487B7100000000000000000000000000000000000000000000000000000000 PUSH0 MSTORE PUSH1 0x22 PUSH1 0x4 MSTORE PUSH1 0x24 PUSH0 REVERT JUMPDEST PUSH0 PUSH1 0x2 DUP3 DIV SWAP1 POP PUSH1 0x1 DUP3 AND DUP1 PUSH2 0xD0B JUMPI PUSH1 0x7F DUP3 AND SWAP2 POP JUMPDEST PUSH1 0x20 DUP3 LT DUP2 SUB PUSH2 0xD1E JUMPI PUSH2 0xD1D PUSH2 0xCC7 JUMP JUMPDEST JUMPDEST POP SWAP2 SWAP1 POP JUMP JUMPDEST PUSH32 0x4E487B7100000000000000000000000000000000000000000000000000000000 PUSH0 MSTORE PUSH1 0x32 PUSH1 0x4 MSTORE PUSH1 0x24 PUSH0 REVERT JUMPDEST PUSH32 0x4D61726B73206D757374206265203C3D20313030000000000000000000000000 PUSH0 DUP3 ADD MSTORE POP JUMP JUMPDEST PUSH0 PUSH2 0xD85 PUSH1 0x14 DUP4 PUSH2 0x738 JUMP JUMPDEST SWAP2 POP PUSH2 0xD90 DUP3 PUSH2 0xD51 JUMP JUMPDEST PUSH1 0x20 DUP3 ADD SWAP1 POP SWAP2 SWAP1 POP JUMP JUMPDEST PUSH0 PUSH1 0x20 DUP3 ADD SWAP1 POP DUP2 DUP2 SUB PUSH0 DUP4 ADD MSTORE PUSH2 0xDB2 DUP2 PUSH2 0xD79 JUMP JUMPDEST SWAP1 POP SWAP2 SWAP1 POP JUMP JUMPDEST PUSH0 PUSH1 0x80 DUP3 ADD SWAP1 POP PUSH2 0xDCC PUSH0 DUP4 ADD DUP8 PUSH2 0xB86 JUMP JUMPDEST PUSH2 0xDD9 PUSH1 0x20 DUP4 ADD DUP7 PUSH2 0xC83 JUMP JUMPDEST PUSH2 0xDE6 PUSH1 0x40 DUP4 ADD DUP6 PUSH2 0xC83 JUMP JUMPDEST PUSH2 0xDF3 PUSH1 0x60 DUP4 ADD DUP5 PUSH2 0xC83 JUMP JUMPDEST SWAP6 SWAP5 POP POP POP POP POP JUMP JUMPDEST PUSH32 0x4E487B7100000000000000000000000000000000000000000000000000000000 PUSH0 MSTORE PUSH1 0x11 PUSH1 0x4 MSTORE PUSH1 0x24 PUSH0 REVERT JUMPDEST PUSH0 PUSH2 0xE33 DUP3 PUSH2 0xBAE JUMP JUMPDEST SWAP2 POP PUSH2 0xE3E DUP4 PUSH2 0xBAE JUMP JUMPDEST SWAP3 POP DUP3 DUP3 ADD SWAP1 POP DUP1 DUP3 GT ISZERO PUSH2 0xE56 JUMPI PUSH2 0xE55 PUSH2 0xDFC JUMP JUMPDEST JUMPDEST SWAP3 SWAP2 POP POP JUMP JUMPDEST PUSH0 DUP3 SWAP1 POP SWAP3 SWAP2 POP POP JUMP JUMPDEST PUSH0 DUP2 SWAP1 POP DUP2 PUSH0 MSTORE PUSH1 0x20 PUSH0 KECCAK256 SWAP1 POP SWAP2 SWAP1 POP JUMP JUMPDEST PUSH0 PUSH1 0x20 PUSH1 0x1F DUP4 ADD DIV SWAP1 POP SWAP2 SWAP1 POP JUMP JUMPDEST PUSH0 DUP3 DUP3 SHL SWAP1 POP SWAP3 SWAP2 POP POP JUMP JUMPDEST PUSH0 PUSH1 0x8 DUP4 MUL PUSH2 0xEC2 PUSH32 0xFFFFFFFFFFFFFFFFFFFFFFFFFFFFFFFFFFFFFFFFFFFFFFFFFFFFFFFFFFFFFFFF DUP3 PUSH2 0xE87 JUMP JUMPDEST PUSH2 0xECC DUP7 DUP4 PUSH2 0xE87 JUMP JUMPDEST SWAP6 POP DUP1 NOT DUP5 AND SWAP4 POP DUP1 DUP7 AND DUP5 OR SWAP3 POP POP POP SWAP4 SWAP3 POP POP POP JUMP JUMPDEST PUSH0 DUP2 SWAP1 POP SWAP2 SWAP1 POP JUMP JUMPDEST PUSH0 PUSH2 0xF07 PUSH2 0xF02 PUSH2 0xEFD DUP5 PUSH2 0xBAE JUMP JUMPDEST PUSH2 0xEE4 JUMP JUMPDEST PUSH2 0xBAE JUMP JUMPDEST SWAP1 POP SWAP2 SWAP1 POP JUMP JUMPDEST PUSH0 DUP2 SWAP1 POP SWAP2 SWAP1 POP JUMP JUMPDEST PUSH2 0xF20 DUP4 PUSH2 0xEED JUMP JUMPDEST PUSH2 0xF34 PUSH2 0xF2C DUP3 PUSH2 0xF0E JUMP JUMPDEST DUP5 DUP5 SLOAD PUSH2 0xE93 JUMP JUMPDEST DUP3 SSTORE POP POP POP POP JUMP JUMPDEST PUSH0 PUSH0 SWAP1 POP SWAP1 JUMP JUMPDEST PUSH2 0xF4B PUSH2 0xF3C JUMP JUMPDEST PUSH2 0xF56 DUP2 DUP5 DUP5 PUSH2 0xF17 JUMP JUMPDEST POP POP POP JUMP JUMPDEST JUMPDEST DUP2 DUP2 LT ISZERO PUSH2 0xF79 JUMPI PUSH2 0xF6E PUSH0 DUP3 PUSH2 0xF43 JUMP JUMPDEST PUSH1 0x1 DUP2 ADD SWAP1 POP PUSH2 0xF5C JUMP JUMPDEST POP POP JUMP JUMPDEST PUSH1 0x1F DUP3 GT ISZERO PUSH2 0xFBE JUMPI PUSH2 0xF8F DUP2 PUSH2 0xE66 JUMP JUMPDEST PUSH2 0xF98 DUP5 PUSH2 0xE78 JUMP JUMPDEST DUP2 ADD PUSH1 0x20 DUP6 LT ISZERO PUSH2 0xFA7 JUMPI DUP2 SWAP1 POP JUMPDEST PUSH2 0xFBB PUSH2 0xFB3 DUP6 PUSH2 0xE78 JUMP JUMPDEST DUP4 ADD DUP3 PUSH2 0xF5B JUMP JUMPDEST POP POP JUMPDEST POP POP POP JUMP JUMPDEST PUSH0 DUP3 DUP3 SHR SWAP1 POP SWAP3 SWAP2 POP POP JUMP JUMPDEST PUSH0 PUSH2 0xFDE PUSH0 NOT DUP5 PUSH1 0x8 MUL PUSH2 0xFC3 JUMP JUMPDEST NOT DUP1 DUP4 AND SWAP2 POP POP SWAP3 SWAP2 POP POP JUMP JUMPDEST PUSH0 PUSH2 0xFF6 DUP4 DUP4 PUSH2 0xFCF JUMP JUMPDEST SWAP2 POP DUP3 PUSH1 0x2 MUL DUP3 OR SWAP1 POP SWAP3 SWAP2 POP POP JUMP JUMPDEST PUSH2 0x1010 DUP4 DUP4 PUSH2 0xE5C JUMP JUMPDEST PUSH8 0xFFFFFFFFFFFFFFFF DUP2 GT ISZERO PUSH2 0x1029 JUMPI PUSH2 0x1028 PUSH2 0x89E JUMP JUMPDEST JUMPDEST PUSH2 0x1033 DUP3 SLOAD PUSH2 0xCF4 JUMP JUMPDEST PUSH2 0x103E DUP3 DUP3 DUP6 PUSH2 0xF7D JUMP JUMPDEST PUSH0 PUSH1 0x1F DUP4 GT PUSH1 0x1 DUP2 EQ PUSH2 0x106B JUMPI PUSH0 DUP5 ISZERO PUSH2 0x1059 JUMPI DUP3 DUP8 ADD CALLDATALOAD SWAP1 POP JUMPDEST PUSH2 0x1063 DUP6 DUP3 PUSH2 0xFEB JUMP JUMPDEST DUP7 SSTORE POP PUSH2 0x10CA JUMP JUMPDEST PUSH1 0x1F NOT DUP5 AND PUSH2 0x1079 DUP7 PUSH2 0xE66 JUMP JUMPDEST PUSH0 JUMPDEST DUP3 DUP2 LT ISZERO PUSH2 0x10A0 JUMPI DUP5 DUP10 ADD CALLDATALOAD DUP3 SSTORE PUSH1 0x1 DUP3 ADD SWAP2 POP PUSH1 0x20 DUP6 ADD SWAP5 POP PUSH1 0x20 DUP2 ADD SWAP1 POP PUSH2 0x107B JUMP JUMPDEST DUP7 DUP4 LT ISZERO PUSH2 0x10BD JUMPI DUP5 DUP10 ADD CALLDATALOAD PUSH2 0x10B9 PUSH1 0x1F DUP10 AND DUP3 PUSH2 0xFCF JUMP JUMPDEST DUP4 SSTORE POP JUMPDEST PUSH1 0x1 PUSH1 0x2 DUP9 MUL ADD DUP9 SSTORE POP POP POP JUMPDEST POP POP POP POP POP POP POP JUMP INVALID LOG2 PUSH5 0x6970667358 0x22 SLT KECCAK256 0xDA CODECOPY SIGNEXTEND 0xD5 SWAP11 STOP 0x4D BLOBBASEFEE LOG2 JUMPI SWAP6 DUP6 EXTCODESIZE 0xBB 0x26 0xB3 0xAF 0xD PUSH30 0xA1DE4E8113FF715BB3326F6D8164736F6C634300081E0033000000000000 "
				},
				"gasEstimates": {
					"creation": {
						"codeDepositCost": "872200",
						"executionCost": "907",
						"totalCost": "873107"
					},
					"external": {
						"addFunds()": "infinite",
						"balance()": "2491",
						"getGrade(int256)": "infinite",
						"id()": "2468",
						"name()": "infinite",
						"setGrade(int256,uint32[3])": "infinite",
						"setStudentWallet(int256,address)": "24984",
						"student_grades(int256)": "infinite",
						"student_type()": "2554",
						"student_wallet(int256)": "2916",
						"test(string)": "infinite"
					}
				},
				"methodIdentifiers": {
					"addFunds()": "a26759cb",
					"balance()": "b69ef8a8",
					"getGrade(int256)": "654b5def",
					"id()": "af640d0f",
					"name()": "06fdde03",
					"setGrade(int256,uint32[3])": "1fdbb82a",
					"setStudentWallet(int256,address)": "100a5f68",
					"student_grades(int256)": "fd90c86a",
					"student_type()": "99c7e31b",
					"student_wallet(int256)": "71f94692",
					"test(string)": "f9fbd554"
				}
			},
			"storageLayout": {
				"storage": [
					{
						"astId": 14,
						"contract": "contract/StudentInfo.sol:StudentInfo",
						"label": "id",
						"offset": 0,
						"slot": "0",
						"type": "t_int256"
					},
					{
						"astId": 16,
						"contract": "contract/StudentInfo.sol:StudentInfo",
						"label": "name",
						"offset": 0,
						"slot": "1",
						"type": "t_string_storage"
					},
					{
						"astId": 19,
						"contract": "contract/StudentInfo.sol:StudentInfo",
						"label": "student_type",
						"offset": 0,
						"slot": "2",
						"type": "t_enum(StudentType)12"
					},
					{
						"astId": 23,
						"contract": "contract/StudentInfo.sol:StudentInfo",
						"label": "student_wallet",
						"offset": 0,
						"slot": "3",
						"type": "t_mapping(t_int256,t_address)"
					},
					{
						"astId": 25,
						"contract": "contract/StudentInfo.sol:StudentInfo",
						"label": "balance",
						"offset": 0,
						"slot": "4",
						"type": "t_uint256"
					},
					{
						"astId": 30,
						"contract": "contract/StudentInfo.sol:StudentInfo",
						"label": "student_grades",
						"offset": 0,
						"slot": "5",
						"type": "t_mapping(t_int256,t_struct(Grade)8_storage)"
					}
				],
				"types": {
					"t_address": {
						"encoding": "inplace",
						"label": "address",
						"numberOfBytes": "20"
					},
					"t_enum(StudentType)12": {
						"encoding": "inplace",
						"label": "enum StudentType",
						"numberOfBytes": "1"
					},
					"t_int256": {
						"encoding": "inplace",
						"label": "int256",
						"numberOfBytes": "32"
					},
					"t_mapping(t_int256,t_address)": {
						"encoding": "mapping",
						"key": "t_int256",
						"label": "mapping(int256 => address)",
						"numberOfBytes": "32",
						"value": "t_address"
					},
					"t_mapping(t_int256,t_struct(Grade)8_storage)": {
						"encoding": "mapping",
						"key": "t_int256",
						"label": "mapping(int256 => struct Grade)",
						"numberOfBytes": "32",
						"value": "t_struct(Grade)8_storage"
					},
					"t_string_storage": {
						"encoding": "bytes",
						"label": "string",
						"numberOfBytes": "32"
					},
					"t_struct(Grade)8_storage": {
						"encoding": "inplace",
						"label": "struct Grade",
						"members": [
							{
								"astId": 3,
								"contract": "contract/StudentInfo.sol:StudentInfo",
								"label": "mark1",
								"offset": 0,
								"slot": "0",
								"type": "t_uint32"
							},
							{
								"astId": 5,
								"contract": "contract/StudentInfo.sol:StudentInfo",
								"label": "mark2",
								"offset": 4,
								"slot": "0",
								"type": "t_uint32"
							},
							{
								"astId": 7,
								"contract": "contract/StudentInfo.sol:StudentInfo",
								"label": "mark3",
								"offset": 8,
								"slot": "0",
								"type": "t_uint32"
							}
						],
						"numberOfBytes": "32"
					},
					"t_uint256": {
						"encoding": "inplace",
						"label": "uint256",
						"numberOfBytes": "32"
					},
					"t_uint32": {
						"encoding": "inplace",
						"label": "uint32",
						"numberOfBytes": "4"
					}
				}
			},
			"userdoc": {
				"kind": "user",
				"methods": {},
				"version": 1
			}
		}
	}
}