{
	"Student/contract/Caculate.sol": {
		"Caculte": {
			"abi": [
				{
					"inputs": [
						{
							"internalType": "int256",
							"name": "id",
							"type": "int256"
						},
						{
							"internalType": "uint32[3]",
							"name": "grades",
							"type": "uint32[3]"
						},
						{
							"internalType": "address",
							"name": "wallet",
							"type": "address"
						},
						{
							"internalType": "enum StudentType",
							"name": "studentType",
							"type": "uint8"
						}
					],
					"name": "CreateNewStudent",
					"outputs": [],
					"stateMutability": "nonpayable",
					"type": "function"
				},
				{
					"inputs": [
						{
							"internalType": "uint256",
							"name": "index",
							"type": "uint256"
						}
					],
					"name": "ViewStudent",
					"outputs": [
						{
							"internalType": "contract StudentInfo",
							"name": "",
							"type": "address"
						}
					],
					"stateMutability": "view",
					"type": "function"
				},
				{
					"inputs": [
						{
							"internalType": "uint16",
							"name": "index",
							"type": "uint16"
						}
					],
					"name": "ViewStudentWallet",
					"outputs": [
						{
							"internalType": "address",
							"name": "",
							"type": "address"
						}
					],
					"stateMutability": "view",
					"type": "function"
				},
				{
					"inputs": [
						{
							"internalType": "uint16",
							"name": "index",
							"type": "uint16"
						}
					],
					"name": "ViewStudentWallet2",
					"outputs": [
						{
							"internalType": "address",
							"name": "",
							"type": "address"
						}
					],
					"stateMutability": "view",
					"type": "function"
				},
				{
					"inputs": [],
					"name": "ViewStudents",
					"outputs": [
						{
							"internalType": "contract StudentInfo[]",
							"name": "",
							"type": "address[]"
						}
					],
					"stateMutability": "view",
					"type": "function"
				}
			],
			"devdoc": {
				"kind": "dev",
				"methods": {},
				"version": 1
			},
			"evm": {
				"assembly": "    /* \"Student/contract/Caculate.sol\":83:1724  contract Caculte{... */\n  mstore(0x40, 0x80)\n  callvalue\n  dup1\n  iszero\n  tag_1\n  jumpi\n  revert(0x00, 0x00)\ntag_1:\n  pop\n  dataSize(sub_0)\n  dup1\n  dataOffset(sub_0)\n  0x00\n  codecopy\n  0x00\n  return\nstop\n\nsub_0: assembly {\n        /* \"Student/contract/Caculate.sol\":83:1724  contract Caculte{... */\n      mstore(0x40, 0x80)\n      callvalue\n      dup1\n      iszero\n      tag_1\n      jumpi\n      revert(0x00, 0x00)\n    tag_1:\n      pop\n      jumpi(tag_2, lt(calldatasize, 0x04))\n      shr(0xe0, calldataload(0x00))\n      dup1\n      0x066542bd\n      eq\n      tag_3\n      jumpi\n      dup1\n      0x4fab1849\n      eq\n      tag_4\n      jumpi\n      dup1\n      0x65e90ec2\n      eq\n      tag_5\n      jumpi\n      dup1\n      0x93ed2b3b\n      eq\n      tag_6\n      jumpi\n      dup1\n      0xfef0e4d6\n      eq\n      tag_7\n      jumpi\n    tag_2:\n      revert(0x00, 0x00)\n        /* \"Student/contract/Caculate.sol\":907:1092  function ViewStudent( uint index)public view returns (StudentInfo ) {  // This is the... */\n    tag_3:\n      tag_8\n      0x04\n      dup1\n      calldatasize\n      sub\n      dup2\n      add\n      swap1\n      tag_9\n      swap2\n      swap1\n      tag_10\n      jump\t// in\n    tag_9:\n      tag_11\n      jump\t// in\n    tag_8:\n      mload(0x40)\n      tag_12\n      swap2\n      swap1\n      tag_13\n      jump\t// in\n    tag_12:\n      mload(0x40)\n      dup1\n      swap2\n      sub\n      swap1\n      return\n        /* \"Student/contract/Caculate.sol\":1097:1210  function ViewStudents()public view returns (StudentInfo[]memory) {  // This is the... */\n    tag_4:\n      tag_14\n      tag_15\n      jump\t// in\n    tag_14:\n      mload(0x40)\n      tag_16\n      swap2\n      swap1\n      tag_17\n      jump\t// in\n    tag_16:\n      mload(0x40)\n      dup1\n      swap2\n      sub\n      swap1\n      return\n        /* \"Student/contract/Caculate.sol\":1215:1445  function ViewStudentWallet(uint16 index)public view returns (address ) {  // This is the... */\n    tag_5:\n      tag_18\n      0x04\n      dup1\n      calldatasize\n      sub\n      dup2\n      add\n      swap1\n      tag_19\n      swap2\n      swap1\n      tag_20\n      jump\t// in\n    tag_19:\n      tag_21\n      jump\t// in\n    tag_18:\n      mload(0x40)\n      tag_22\n      swap2\n      swap1\n      tag_23\n      jump\t// in\n    tag_22:\n      mload(0x40)\n      dup1\n      swap2\n      sub\n      swap1\n      return\n        /* \"Student/contract/Caculate.sol\":142:515  function CreateNewStudent(int256 id, uint32[3] calldata grades,address wallet, StudentType studentType) public ... */\n    tag_6:\n      tag_24\n      0x04\n      dup1\n      calldatasize\n      sub\n      dup2\n      add\n      swap1\n      tag_25\n      swap2\n      swap1\n      tag_26\n      jump\t// in\n    tag_25:\n      tag_27\n      jump\t// in\n    tag_24:\n      stop\n        /* \"Student/contract/Caculate.sol\":1450:1658  function ViewStudentWallet2(uint16 index)public view returns (address ) {  // This is the... */\n    tag_7:\n      tag_28\n      0x04\n      dup1\n      calldatasize\n      sub\n      dup2\n      add\n      swap1\n      tag_29\n      swap2\n      swap1\n      tag_20\n      jump\t// in\n    tag_29:\n      tag_30\n      jump\t// in\n    tag_28:\n      mload(0x40)\n      tag_31\n      swap2\n      swap1\n      tag_23\n      jump\t// in\n    tag_31:\n      mload(0x40)\n      dup1\n      swap2\n      sub\n      swap1\n      return\n        /* \"Student/contract/Caculate.sol\":907:1092  function ViewStudent( uint index)public view returns (StudentInfo ) {  // This is the... */\n    tag_11:\n        /* \"Student/contract/Caculate.sol\":961:972  StudentInfo */\n      0x00\n        /* \"Student/contract/Caculate.sol\":1001:1020  StudentInfo student */\n      0x00\n        /* \"Student/contract/Caculate.sol\":1044:1052  students */\n      0x00\n        /* \"Student/contract/Caculate.sol\":1053:1058  index */\n      dup4\n        /* \"Student/contract/Caculate.sol\":1044:1059  students[index] */\n      dup2\n      sload\n      dup2\n      lt\n      tag_33\n      jumpi\n      tag_34\n      tag_35\n      jump\t// in\n    tag_34:\n    tag_33:\n      swap1\n      0x00\n      mstore\n      keccak256(0x00, 0x20)\n      add\n      0x00\n      swap1\n      sload\n      swap1\n      0x0100\n      exp\n      swap1\n      div\n      0xffffffffffffffffffffffffffffffffffffffff\n      and\n        /* \"Student/contract/Caculate.sol\":1001:1061  StudentInfo student = StudentInfo(address (students[index])) */\n      swap1\n      pop\n        /* \"Student/contract/Caculate.sol\":1078:1085  student */\n      dup1\n        /* \"Student/contract/Caculate.sol\":1071:1085  return student */\n      swap2\n      pop\n      pop\n        /* \"Student/contract/Caculate.sol\":907:1092  function ViewStudent( uint index)public view returns (StudentInfo ) {  // This is the... */\n      swap2\n      swap1\n      pop\n      jump\t// out\n        /* \"Student/contract/Caculate.sol\":1097:1210  function ViewStudents()public view returns (StudentInfo[]memory) {  // This is the... */\n    tag_15:\n        /* \"Student/contract/Caculate.sol\":1141:1160  StudentInfo[]memory */\n      0x60\n        /* \"Student/contract/Caculate.sol\":1195:1203  students */\n      0x00\n        /* \"Student/contract/Caculate.sol\":1188:1203  return students */\n      dup1\n      sload\n      dup1\n      0x20\n      mul\n      0x20\n      add\n      mload(0x40)\n      swap1\n      dup2\n      add\n      0x40\n      mstore\n      dup1\n      swap3\n      swap2\n      swap1\n      dup2\n      dup2\n      mstore\n      0x20\n      add\n      dup3\n      dup1\n      sload\n      dup1\n      iszero\n      tag_38\n      jumpi\n      0x20\n      mul\n      dup3\n      add\n      swap2\n      swap1\n      0x00\n      mstore\n      keccak256(0x00, 0x20)\n      swap1\n    tag_39:\n      dup2\n      0x00\n      swap1\n      sload\n      swap1\n      0x0100\n      exp\n      swap1\n      div\n      0xffffffffffffffffffffffffffffffffffffffff\n      and\n      0xffffffffffffffffffffffffffffffffffffffff\n      and\n      dup2\n      mstore\n      0x20\n      add\n      swap1\n      0x01\n      add\n      swap1\n      dup1\n      dup4\n      gt\n      tag_39\n      jumpi\n    tag_38:\n      pop\n      pop\n      pop\n      pop\n      pop\n      swap1\n      pop\n        /* \"Student/contract/Caculate.sol\":1097:1210  function ViewStudents()public view returns (StudentInfo[]memory) {  // This is the... */\n      swap1\n      jump\t// out\n        /* \"Student/contract/Caculate.sol\":1215:1445  function ViewStudentWallet(uint16 index)public view returns (address ) {  // This is the... */\n    tag_21:\n        /* \"Student/contract/Caculate.sol\":1276:1283  address */\n      0x00\n        /* \"Student/contract/Caculate.sol\":1313:1332  StudentInfo student */\n      0x00\n        /* \"Student/contract/Caculate.sol\":1356:1364  students */\n      0x00\n        /* \"Student/contract/Caculate.sol\":1365:1370  index */\n      dup4\n        /* \"Student/contract/Caculate.sol\":1356:1371  students[index] */\n      0xffff\n      and\n      dup2\n      sload\n      dup2\n      lt\n      tag_41\n      jumpi\n      tag_42\n      tag_35\n      jump\t// in\n    tag_42:\n    tag_41:\n      swap1\n      0x00\n      mstore\n      keccak256(0x00, 0x20)\n      add\n      0x00\n      swap1\n      sload\n      swap1\n      0x0100\n      exp\n      swap1\n      div\n      0xffffffffffffffffffffffffffffffffffffffff\n      and\n        /* \"Student/contract/Caculate.sol\":1313:1373  StudentInfo student = StudentInfo(address (students[index])) */\n      swap1\n      pop\n        /* \"Student/contract/Caculate.sol\":1390:1397  student */\n      dup1\n        /* \"Student/contract/Caculate.sol\":1390:1414  student.GetStudentWallet */\n      0xffffffffffffffffffffffffffffffffffffffff\n      and\n      0xce5cd34e\n        /* \"Student/contract/Caculate.sol\":1415:1422  student */\n      dup3\n        /* \"Student/contract/Caculate.sol\":1415:1435  student.GetStudentId */\n      0xffffffffffffffffffffffffffffffffffffffff\n      and\n      0x556cc692\n        /* \"Student/contract/Caculate.sol\":1415:1437  student.GetStudentId() */\n      mload(0x40)\n      dup2\n      0xffffffff\n      and\n      0xe0\n      shl\n      dup2\n      mstore\n      0x04\n      add\n      0x20\n      mload(0x40)\n      dup1\n      dup4\n      sub\n      dup2\n      dup7\n      gas\n      staticcall\n      iszero\n      dup1\n      iszero\n      tag_45\n      jumpi\n      returndatacopy(0x00, 0x00, returndatasize)\n      revert(0x00, returndatasize)\n    tag_45:\n      pop\n      pop\n      pop\n      pop\n      mload(0x40)\n      returndatasize\n      not(0x1f)\n      0x1f\n      dup3\n      add\n      and\n      dup3\n      add\n      dup1\n      0x40\n      mstore\n      pop\n      dup2\n      add\n      swap1\n      tag_46\n      swap2\n      swap1\n      tag_47\n      jump\t// in\n    tag_46:\n        /* \"Student/contract/Caculate.sol\":1390:1438  student.GetStudentWallet(student.GetStudentId()) */\n      mload(0x40)\n      dup3\n      0xffffffff\n      and\n      0xe0\n      shl\n      dup2\n      mstore\n      0x04\n      add\n      tag_48\n      swap2\n      swap1\n      tag_49\n      jump\t// in\n    tag_48:\n      0x20\n      mload(0x40)\n      dup1\n      dup4\n      sub\n      dup2\n      dup7\n      gas\n      staticcall\n      iszero\n      dup1\n      iszero\n      tag_51\n      jumpi\n      returndatacopy(0x00, 0x00, returndatasize)\n      revert(0x00, returndatasize)\n    tag_51:\n      pop\n      pop\n      pop\n      pop\n      mload(0x40)\n      returndatasize\n      not(0x1f)\n      0x1f\n      dup3\n      add\n      and\n      dup3\n      add\n      dup1\n      0x40\n      mstore\n      pop\n      dup2\n      add\n      swap1\n      tag_52\n      swap2\n      swap1\n      tag_53\n      jump\t// in\n    tag_52:\n        /* \"Student/contract/Caculate.sol\":1383:1438  return student.GetStudentWallet(student.GetStudentId()) */\n      swap2\n      pop\n      pop\n        /* \"Student/contract/Caculate.sol\":1215:1445  function ViewStudentWallet(uint16 index)public view returns (address ) {  // This is the... */\n      swap2\n      swap1\n      pop\n      jump\t// out\n        /* \"Student/contract/Caculate.sol\":142:515  function CreateNewStudent(int256 id, uint32[3] calldata grades,address wallet, StudentType studentType) public ... */\n    tag_27:\n        /* \"Student/contract/Caculate.sol\":268:287  StudentInfo student */\n      0x00\n        /* \"Student/contract/Caculate.sol\":290:307  new StudentInfo() */\n      mload(0x40)\n      tag_55\n      swap1\n      tag_56\n      jump\t// in\n    tag_55:\n      mload(0x40)\n      dup1\n      swap2\n      sub\n      swap1\n      0x00\n      create\n      dup1\n      iszero\n      dup1\n      iszero\n      tag_57\n      jumpi\n      returndatacopy(0x00, 0x00, returndatasize)\n      revert(0x00, returndatasize)\n    tag_57:\n      pop\n        /* \"Student/contract/Caculate.sol\":268:307  StudentInfo student = new StudentInfo() */\n      swap1\n      pop\n        /* \"Student/contract/Caculate.sol\":317:324  student */\n      dup1\n        /* \"Student/contract/Caculate.sol\":317:337  student.SetStudentId */\n      0xffffffffffffffffffffffffffffffffffffffff\n      and\n      0xbc1d2a9e\n        /* \"Student/contract/Caculate.sol\":338:340  id */\n      dup7\n        /* \"Student/contract/Caculate.sol\":317:341  student.SetStudentId(id) */\n      mload(0x40)\n      dup3\n      0xffffffff\n      and\n      0xe0\n      shl\n      dup2\n      mstore\n      0x04\n      add\n      tag_58\n      swap2\n      swap1\n      tag_49\n      jump\t// in\n    tag_58:\n      0x20\n      mload(0x40)\n      dup1\n      dup4\n      sub\n      dup2\n      0x00\n      dup8\n      gas\n      call\n      iszero\n      dup1\n      iszero\n      tag_60\n      jumpi\n      returndatacopy(0x00, 0x00, returndatasize)\n      revert(0x00, returndatasize)\n    tag_60:\n      pop\n      pop\n      pop\n      pop\n      mload(0x40)\n      returndatasize\n      not(0x1f)\n      0x1f\n      dup3\n      add\n      and\n      dup3\n      add\n      dup1\n      0x40\n      mstore\n      pop\n      dup2\n      add\n      swap1\n      tag_61\n      swap2\n      swap1\n      tag_47\n      jump\t// in\n    tag_61:\n      pop\n        /* \"Student/contract/Caculate.sol\":351:358  student */\n      dup1\n        /* \"Student/contract/Caculate.sol\":351:374  student.SetStudentGrade */\n      0xffffffffffffffffffffffffffffffffffffffff\n      and\n      0x75772ace\n        /* \"Student/contract/Caculate.sol\":375:377  id */\n      dup7\n        /* \"Student/contract/Caculate.sol\":379:385  grades */\n      dup7\n        /* \"Student/contract/Caculate.sol\":351:386  student.SetStudentGrade(id, grades) */\n      mload(0x40)\n      dup4\n      0xffffffff\n      and\n      0xe0\n      shl\n      dup2\n      mstore\n      0x04\n      add\n      tag_62\n      swap3\n      swap2\n      swap1\n      tag_63\n      jump\t// in\n    tag_62:\n      0x00\n      mload(0x40)\n      dup1\n      dup4\n      sub\n      dup2\n      0x00\n      dup8\n      dup1\n      extcodesize\n      iszero\n      dup1\n      iszero\n      tag_64\n      jumpi\n      revert(0x00, 0x00)\n    tag_64:\n      pop\n      gas\n      call\n      iszero\n      dup1\n      iszero\n      tag_66\n      jumpi\n      returndatacopy(0x00, 0x00, returndatasize)\n      revert(0x00, returndatasize)\n    tag_66:\n      pop\n      pop\n      pop\n      pop\n        /* \"Student/contract/Caculate.sol\":396:403  student */\n      dup1\n        /* \"Student/contract/Caculate.sol\":396:420  student.SetStudentWallet */\n      0xffffffffffffffffffffffffffffffffffffffff\n      and\n      0x5e4f4848\n        /* \"Student/contract/Caculate.sol\":421:423  id */\n      dup7\n        /* \"Student/contract/Caculate.sol\":424:430  wallet */\n      dup6\n        /* \"Student/contract/Caculate.sol\":396:431  student.SetStudentWallet(id,wallet) */\n      mload(0x40)\n      dup4\n      0xffffffff\n      and\n      0xe0\n      shl\n      dup2\n      mstore\n      0x04\n      add\n      tag_67\n      swap3\n      swap2\n      swap1\n      tag_68\n      jump\t// in\n    tag_67:\n      0x00\n      mload(0x40)\n      dup1\n      dup4\n      sub\n      dup2\n      0x00\n      dup8\n      dup1\n      extcodesize\n      iszero\n      dup1\n      iszero\n      tag_69\n      jumpi\n      revert(0x00, 0x00)\n    tag_69:\n      pop\n      gas\n      call\n      iszero\n      dup1\n      iszero\n      tag_71\n      jumpi\n      returndatacopy(0x00, 0x00, returndatasize)\n      revert(0x00, returndatasize)\n    tag_71:\n      pop\n      pop\n      pop\n      pop\n        /* \"Student/contract/Caculate.sol\":441:448  student */\n      dup1\n        /* \"Student/contract/Caculate.sol\":441:463  student.SetStudentType */\n      0xffffffffffffffffffffffffffffffffffffffff\n      and\n      0x7d9c50f0\n        /* \"Student/contract/Caculate.sol\":464:475  studentType */\n      dup4\n        /* \"Student/contract/Caculate.sol\":441:476  student.SetStudentType(studentType) */\n      mload(0x40)\n      dup3\n      0xffffffff\n      and\n      0xe0\n      shl\n      dup2\n      mstore\n      0x04\n      add\n      tag_72\n      swap2\n      swap1\n      tag_73\n      jump\t// in\n    tag_72:\n      0x20\n      mload(0x40)\n      dup1\n      dup4\n      sub\n      dup2\n      0x00\n      dup8\n      gas\n      call\n      iszero\n      dup1\n      iszero\n      tag_75\n      jumpi\n      returndatacopy(0x00, 0x00, returndatasize)\n      revert(0x00, returndatasize)\n    tag_75:\n      pop\n      pop\n      pop\n      pop\n      mload(0x40)\n      returndatasize\n      not(0x1f)\n      0x1f\n      dup3\n      add\n      and\n      dup3\n      add\n      dup1\n      0x40\n      mstore\n      pop\n      dup2\n      add\n      swap1\n      tag_76\n      swap2\n      swap1\n      tag_77\n      jump\t// in\n    tag_76:\n      pop\n        /* \"Student/contract/Caculate.sol\":486:494  students */\n      0x00\n        /* \"Student/contract/Caculate.sol\":500:507  student */\n      dup2\n        /* \"Student/contract/Caculate.sol\":486:508  students.push(student) */\n      swap1\n      dup1\n      0x01\n      dup2\n      sload\n      add\n      dup1\n      dup3\n      sstore\n      dup1\n      swap2\n      pop\n      pop\n      0x01\n      swap1\n      sub\n      swap1\n      0x00\n      mstore\n      keccak256(0x00, 0x20)\n      add\n      0x00\n      swap1\n      swap2\n      swap1\n      swap2\n      swap1\n      swap2\n      0x0100\n      exp\n      dup2\n      sload\n      dup2\n      0xffffffffffffffffffffffffffffffffffffffff\n      mul\n      not\n      and\n      swap1\n      dup4\n      0xffffffffffffffffffffffffffffffffffffffff\n      and\n      mul\n      or\n      swap1\n      sstore\n      pop\n        /* \"Student/contract/Caculate.sol\":258:515  {... */\n      pop\n        /* \"Student/contract/Caculate.sol\":142:515  function CreateNewStudent(int256 id, uint32[3] calldata grades,address wallet, StudentType studentType) public ... */\n      pop\n      pop\n      pop\n      pop\n      jump\t// out\n        /* \"Student/contract/Caculate.sol\":1450:1658  function ViewStudentWallet2(uint16 index)public view returns (address ) {  // This is the... */\n    tag_30:\n        /* \"Student/contract/Caculate.sol\":1512:1519  address */\n      0x00\n        /* \"Student/contract/Caculate.sol\":1549:1568  StudentInfo student */\n      0x00\n        /* \"Student/contract/Caculate.sol\":1571:1579  students */\n      0x00\n        /* \"Student/contract/Caculate.sol\":1580:1585  index */\n      dup4\n        /* \"Student/contract/Caculate.sol\":1571:1586  students[index] */\n      0xffff\n      and\n      dup2\n      sload\n      dup2\n      lt\n      tag_80\n      jumpi\n      tag_81\n      tag_35\n      jump\t// in\n    tag_81:\n    tag_80:\n      swap1\n      0x00\n      mstore\n      keccak256(0x00, 0x20)\n      add\n      0x00\n      swap1\n      sload\n      swap1\n      0x0100\n      exp\n      swap1\n      div\n      0xffffffffffffffffffffffffffffffffffffffff\n      and\n        /* \"Student/contract/Caculate.sol\":1549:1586  StudentInfo student = students[index] */\n      swap1\n      pop\n        /* \"Student/contract/Caculate.sol\":1603:1610  student */\n      dup1\n        /* \"Student/contract/Caculate.sol\":1603:1627  student.GetStudentWallet */\n      0xffffffffffffffffffffffffffffffffffffffff\n      and\n      0xce5cd34e\n        /* \"Student/contract/Caculate.sol\":1628:1635  student */\n      dup3\n        /* \"Student/contract/Caculate.sol\":1628:1648  student.GetStudentId */\n      0xffffffffffffffffffffffffffffffffffffffff\n      and\n      0x556cc692\n        /* \"Student/contract/Caculate.sol\":1628:1650  student.GetStudentId() */\n      mload(0x40)\n      dup2\n      0xffffffff\n      and\n      0xe0\n      shl\n      dup2\n      mstore\n      0x04\n      add\n      0x20\n      mload(0x40)\n      dup1\n      dup4\n      sub\n      dup2\n      dup7\n      gas\n      staticcall\n      iszero\n      dup1\n      iszero\n      tag_84\n      jumpi\n      returndatacopy(0x00, 0x00, returndatasize)\n      revert(0x00, returndatasize)\n    tag_84:\n      pop\n      pop\n      pop\n      pop\n      mload(0x40)\n      returndatasize\n      not(0x1f)\n      0x1f\n      dup3\n      add\n      and\n      dup3\n      add\n      dup1\n      0x40\n      mstore\n      pop\n      dup2\n      add\n      swap1\n      tag_85\n      swap2\n      swap1\n      tag_47\n      jump\t// in\n    tag_85:\n        /* \"Student/contract/Caculate.sol\":1603:1651  student.GetStudentWallet(student.GetStudentId()) */\n      mload(0x40)\n      dup3\n      0xffffffff\n      and\n      0xe0\n      shl\n      dup2\n      mstore\n      0x04\n      add\n      tag_86\n      swap2\n      swap1\n      tag_49\n      jump\t// in\n    tag_86:\n      0x20\n      mload(0x40)\n      dup1\n      dup4\n      sub\n      dup2\n      dup7\n      gas\n      staticcall\n      iszero\n      dup1\n      iszero\n      tag_88\n      jumpi\n      returndatacopy(0x00, 0x00, returndatasize)\n      revert(0x00, returndatasize)\n    tag_88:\n      pop\n      pop\n      pop\n      pop\n      mload(0x40)\n      returndatasize\n      not(0x1f)\n      0x1f\n      dup3\n      add\n      and\n      dup3\n      add\n      dup1\n      0x40\n      mstore\n      pop\n      dup2\n      add\n      swap1\n      tag_89\n      swap2\n      swap1\n      tag_53\n      jump\t// in\n    tag_89:\n        /* \"Student/contract/Caculate.sol\":1596:1651  return student.GetStudentWallet(student.GetStudentId()) */\n      swap2\n      pop\n      pop\n        /* \"Student/contract/Caculate.sol\":1450:1658  function ViewStudentWallet2(uint16 index)public view returns (address ) {  // This is the... */\n      swap2\n      swap1\n      pop\n      jump\t// out\n    tag_56:\n      dataSize(sub_0)\n      dup1\n      dataOffset(sub_0)\n      dup4\n      codecopy\n      add\n      swap1\n      jump\t// out\n        /* \"#utility.yul\":88:205   */\n    tag_91:\n        /* \"#utility.yul\":197:198   */\n      0x00\n        /* \"#utility.yul\":194:195   */\n      0x00\n        /* \"#utility.yul\":187:199   */\n      revert\n        /* \"#utility.yul\":334:411   */\n    tag_93:\n        /* \"#utility.yul\":371:378   */\n      0x00\n        /* \"#utility.yul\":400:405   */\n      dup2\n        /* \"#utility.yul\":389:405   */\n      swap1\n      pop\n        /* \"#utility.yul\":334:411   */\n      swap2\n      swap1\n      pop\n      jump\t// out\n        /* \"#utility.yul\":417:539   */\n    tag_94:\n        /* \"#utility.yul\":490:514   */\n      tag_149\n        /* \"#utility.yul\":508:513   */\n      dup2\n        /* \"#utility.yul\":490:514   */\n      tag_93\n      jump\t// in\n    tag_149:\n        /* \"#utility.yul\":483:488   */\n      dup2\n        /* \"#utility.yul\":480:515   */\n      eq\n        /* \"#utility.yul\":470:533   */\n      tag_150\n      jumpi\n        /* \"#utility.yul\":529:530   */\n      0x00\n        /* \"#utility.yul\":526:527   */\n      0x00\n        /* \"#utility.yul\":519:531   */\n      revert\n        /* \"#utility.yul\":470:533   */\n    tag_150:\n        /* \"#utility.yul\":417:539   */\n      pop\n      jump\t// out\n        /* \"#utility.yul\":545:684   */\n    tag_95:\n        /* \"#utility.yul\":591:596   */\n      0x00\n        /* \"#utility.yul\":629:635   */\n      dup2\n        /* \"#utility.yul\":616:636   */\n      calldataload\n        /* \"#utility.yul\":607:636   */\n      swap1\n      pop\n        /* \"#utility.yul\":645:678   */\n      tag_152\n        /* \"#utility.yul\":672:677   */\n      dup2\n        /* \"#utility.yul\":645:678   */\n      tag_94\n      jump\t// in\n    tag_152:\n        /* \"#utility.yul\":545:684   */\n      swap3\n      swap2\n      pop\n      pop\n      jump\t// out\n        /* \"#utility.yul\":690:1019   */\n    tag_10:\n        /* \"#utility.yul\":749:755   */\n      0x00\n        /* \"#utility.yul\":798:800   */\n      0x20\n        /* \"#utility.yul\":786:795   */\n      dup3\n        /* \"#utility.yul\":777:784   */\n      dup5\n        /* \"#utility.yul\":773:796   */\n      sub\n        /* \"#utility.yul\":769:801   */\n      slt\n        /* \"#utility.yul\":766:885   */\n      iszero\n      tag_154\n      jumpi\n        /* \"#utility.yul\":804:883   */\n      tag_155\n      tag_91\n      jump\t// in\n    tag_155:\n        /* \"#utility.yul\":766:885   */\n    tag_154:\n        /* \"#utility.yul\":924:925   */\n      0x00\n        /* \"#utility.yul\":949:1002   */\n      tag_156\n        /* \"#utility.yul\":994:1001   */\n      dup5\n        /* \"#utility.yul\":985:991   */\n      dup3\n        /* \"#utility.yul\":974:983   */\n      dup6\n        /* \"#utility.yul\":970:992   */\n      add\n        /* \"#utility.yul\":949:1002   */\n      tag_95\n      jump\t// in\n    tag_156:\n        /* \"#utility.yul\":939:1002   */\n      swap2\n      pop\n        /* \"#utility.yul\":895:1012   */\n      pop\n        /* \"#utility.yul\":690:1019   */\n      swap3\n      swap2\n      pop\n      pop\n      jump\t// out\n        /* \"#utility.yul\":1025:1151   */\n    tag_96:\n        /* \"#utility.yul\":1062:1069   */\n      0x00\n        /* \"#utility.yul\":1102:1144   */\n      0xffffffffffffffffffffffffffffffffffffffff\n        /* \"#utility.yul\":1095:1100   */\n      dup3\n        /* \"#utility.yul\":1091:1145   */\n      and\n        /* \"#utility.yul\":1080:1145   */\n      swap1\n      pop\n        /* \"#utility.yul\":1025:1151   */\n      swap2\n      swap1\n      pop\n      jump\t// out\n        /* \"#utility.yul\":1157:1217   */\n    tag_97:\n        /* \"#utility.yul\":1185:1188   */\n      0x00\n        /* \"#utility.yul\":1206:1211   */\n      dup2\n        /* \"#utility.yul\":1199:1211   */\n      swap1\n      pop\n        /* \"#utility.yul\":1157:1217   */\n      swap2\n      swap1\n      pop\n      jump\t// out\n        /* \"#utility.yul\":1223:1365   */\n    tag_98:\n        /* \"#utility.yul\":1273:1282   */\n      0x00\n        /* \"#utility.yul\":1306:1359   */\n      tag_160\n        /* \"#utility.yul\":1324:1358   */\n      tag_161\n        /* \"#utility.yul\":1333:1357   */\n      tag_162\n        /* \"#utility.yul\":1351:1356   */\n      dup5\n        /* \"#utility.yul\":1333:1357   */\n      tag_96\n      jump\t// in\n    tag_162:\n        /* \"#utility.yul\":1324:1358   */\n      tag_97\n      jump\t// in\n    tag_161:\n        /* \"#utility.yul\":1306:1359   */\n      tag_96\n      jump\t// in\n    tag_160:\n        /* \"#utility.yul\":1293:1359   */\n      swap1\n      pop\n        /* \"#utility.yul\":1223:1365   */\n      swap2\n      swap1\n      pop\n      jump\t// out\n        /* \"#utility.yul\":1371:1497   */\n    tag_99:\n        /* \"#utility.yul\":1421:1430   */\n      0x00\n        /* \"#utility.yul\":1454:1491   */\n      tag_164\n        /* \"#utility.yul\":1485:1490   */\n      dup3\n        /* \"#utility.yul\":1454:1491   */\n      tag_98\n      jump\t// in\n    tag_164:\n        /* \"#utility.yul\":1441:1491   */\n      swap1\n      pop\n        /* \"#utility.yul\":1371:1497   */\n      swap2\n      swap1\n      pop\n      jump\t// out\n        /* \"#utility.yul\":1503:1648   */\n    tag_100:\n        /* \"#utility.yul\":1572:1581   */\n      0x00\n        /* \"#utility.yul\":1605:1642   */\n      tag_166\n        /* \"#utility.yul\":1636:1641   */\n      dup3\n        /* \"#utility.yul\":1605:1642   */\n      tag_99\n      jump\t// in\n    tag_166:\n        /* \"#utility.yul\":1592:1642   */\n      swap1\n      pop\n        /* \"#utility.yul\":1503:1648   */\n      swap2\n      swap1\n      pop\n      jump\t// out\n        /* \"#utility.yul\":1654:1823   */\n    tag_101:\n        /* \"#utility.yul\":1760:1816   */\n      tag_168\n        /* \"#utility.yul\":1810:1815   */\n      dup2\n        /* \"#utility.yul\":1760:1816   */\n      tag_100\n      jump\t// in\n    tag_168:\n        /* \"#utility.yul\":1755:1758   */\n      dup3\n        /* \"#utility.yul\":1748:1817   */\n      mstore\n        /* \"#utility.yul\":1654:1823   */\n      pop\n      pop\n      jump\t// out\n        /* \"#utility.yul\":1829:2089   */\n    tag_13:\n        /* \"#utility.yul\":1941:1945   */\n      0x00\n        /* \"#utility.yul\":1979:1981   */\n      0x20\n        /* \"#utility.yul\":1968:1977   */\n      dup3\n        /* \"#utility.yul\":1964:1982   */\n      add\n        /* \"#utility.yul\":1956:1982   */\n      swap1\n      pop\n        /* \"#utility.yul\":1992:2082   */\n      tag_170\n        /* \"#utility.yul\":2079:2080   */\n      0x00\n        /* \"#utility.yul\":2068:2077   */\n      dup4\n        /* \"#utility.yul\":2064:2081   */\n      add\n        /* \"#utility.yul\":2055:2061   */\n      dup5\n        /* \"#utility.yul\":1992:2082   */\n      tag_101\n      jump\t// in\n    tag_170:\n        /* \"#utility.yul\":1829:2089   */\n      swap3\n      swap2\n      pop\n      pop\n      jump\t// out\n        /* \"#utility.yul\":2095:2228   */\n    tag_102:\n        /* \"#utility.yul\":2181:2187   */\n      0x00\n        /* \"#utility.yul\":2215:2220   */\n      dup2\n        /* \"#utility.yul\":2209:2221   */\n      mload\n        /* \"#utility.yul\":2199:2221   */\n      swap1\n      pop\n        /* \"#utility.yul\":2095:2228   */\n      swap2\n      swap1\n      pop\n      jump\t// out\n        /* \"#utility.yul\":2234:2418   */\n    tag_103:\n        /* \"#utility.yul\":2333:2344   */\n      0x00\n        /* \"#utility.yul\":2367:2373   */\n      dup3\n        /* \"#utility.yul\":2362:2365   */\n      dup3\n        /* \"#utility.yul\":2355:2374   */\n      mstore\n        /* \"#utility.yul\":2407:2411   */\n      0x20\n        /* \"#utility.yul\":2402:2405   */\n      dup3\n        /* \"#utility.yul\":2398:2412   */\n      add\n        /* \"#utility.yul\":2383:2412   */\n      swap1\n      pop\n        /* \"#utility.yul\":2234:2418   */\n      swap3\n      swap2\n      pop\n      pop\n      jump\t// out\n        /* \"#utility.yul\":2424:2575   */\n    tag_104:\n        /* \"#utility.yul\":2510:2514   */\n      0x00\n        /* \"#utility.yul\":2533:2536   */\n      dup2\n        /* \"#utility.yul\":2525:2536   */\n      swap1\n      pop\n        /* \"#utility.yul\":2563:2567   */\n      0x20\n        /* \"#utility.yul\":2558:2561   */\n      dup3\n        /* \"#utility.yul\":2554:2568   */\n      add\n        /* \"#utility.yul\":2546:2568   */\n      swap1\n      pop\n        /* \"#utility.yul\":2424:2575   */\n      swap2\n      swap1\n      pop\n      jump\t// out\n        /* \"#utility.yul\":2581:2740   */\n    tag_105:\n        /* \"#utility.yul\":2677:2733   */\n      tag_175\n        /* \"#utility.yul\":2727:2732   */\n      dup2\n        /* \"#utility.yul\":2677:2733   */\n      tag_100\n      jump\t// in\n    tag_175:\n        /* \"#utility.yul\":2672:2675   */\n      dup3\n        /* \"#utility.yul\":2665:2734   */\n      mstore\n        /* \"#utility.yul\":2581:2740   */\n      pop\n      pop\n      jump\t// out\n        /* \"#utility.yul\":2746:2963   */\n    tag_106:\n        /* \"#utility.yul\":2834:2844   */\n      0x00\n        /* \"#utility.yul\":2855:2920   */\n      tag_177\n        /* \"#utility.yul\":2916:2919   */\n      dup4\n        /* \"#utility.yul\":2908:2914   */\n      dup4\n        /* \"#utility.yul\":2855:2920   */\n      tag_105\n      jump\t// in\n    tag_177:\n        /* \"#utility.yul\":2952:2956   */\n      0x20\n        /* \"#utility.yul\":2947:2950   */\n      dup4\n        /* \"#utility.yul\":2943:2957   */\n      add\n        /* \"#utility.yul\":2929:2957   */\n      swap1\n      pop\n        /* \"#utility.yul\":2746:2963   */\n      swap3\n      swap2\n      pop\n      pop\n      jump\t// out\n        /* \"#utility.yul\":2969:3101   */\n    tag_107:\n        /* \"#utility.yul\":3058:3062   */\n      0x00\n        /* \"#utility.yul\":3090:3094   */\n      0x20\n        /* \"#utility.yul\":3085:3088   */\n      dup3\n        /* \"#utility.yul\":3081:3095   */\n      add\n        /* \"#utility.yul\":3073:3095   */\n      swap1\n      pop\n        /* \"#utility.yul\":2969:3101   */\n      swap2\n      swap1\n      pop\n      jump\t// out\n        /* \"#utility.yul\":3150:3977   */\n    tag_108:\n        /* \"#utility.yul\":3288:3291   */\n      0x00\n        /* \"#utility.yul\":3317:3390   */\n      tag_180\n        /* \"#utility.yul\":3384:3389   */\n      dup3\n        /* \"#utility.yul\":3317:3390   */\n      tag_102\n      jump\t// in\n    tag_180:\n        /* \"#utility.yul\":3406:3492   */\n      tag_181\n        /* \"#utility.yul\":3485:3491   */\n      dup2\n        /* \"#utility.yul\":3480:3483   */\n      dup6\n        /* \"#utility.yul\":3406:3492   */\n      tag_103\n      jump\t// in\n    tag_181:\n        /* \"#utility.yul\":3399:3492   */\n      swap4\n      pop\n        /* \"#utility.yul\":3516:3591   */\n      tag_182\n        /* \"#utility.yul\":3585:3590   */\n      dup4\n        /* \"#utility.yul\":3516:3591   */\n      tag_104\n      jump\t// in\n    tag_182:\n        /* \"#utility.yul\":3614:3621   */\n      dup1\n        /* \"#utility.yul\":3645:3646   */\n      0x00\n        /* \"#utility.yul\":3630:3952   */\n    tag_183:\n        /* \"#utility.yul\":3655:3661   */\n      dup4\n        /* \"#utility.yul\":3652:3653   */\n      dup2\n        /* \"#utility.yul\":3649:3662   */\n      lt\n        /* \"#utility.yul\":3630:3952   */\n      iszero\n      tag_185\n      jumpi\n        /* \"#utility.yul\":3731:3737   */\n      dup2\n        /* \"#utility.yul\":3725:3738   */\n      mload\n        /* \"#utility.yul\":3758:3840   */\n      tag_186\n        /* \"#utility.yul\":3836:3839   */\n      dup9\n        /* \"#utility.yul\":3821:3834   */\n      dup3\n        /* \"#utility.yul\":3758:3840   */\n      tag_106\n      jump\t// in\n    tag_186:\n        /* \"#utility.yul\":3751:3840   */\n      swap8\n      pop\n        /* \"#utility.yul\":3863:3942   */\n      tag_187\n        /* \"#utility.yul\":3935:3941   */\n      dup4\n        /* \"#utility.yul\":3863:3942   */\n      tag_107\n      jump\t// in\n    tag_187:\n        /* \"#utility.yul\":3853:3942   */\n      swap3\n      pop\n        /* \"#utility.yul\":3690:3952   */\n      pop\n        /* \"#utility.yul\":3677:3678   */\n      0x01\n        /* \"#utility.yul\":3674:3675   */\n      dup2\n        /* \"#utility.yul\":3670:3679   */\n      add\n        /* \"#utility.yul\":3665:3679   */\n      swap1\n      pop\n        /* \"#utility.yul\":3630:3952   */\n      jump(tag_183)\n    tag_185:\n        /* \"#utility.yul\":3634:3648   */\n      pop\n        /* \"#utility.yul\":3968:3971   */\n      dup6\n        /* \"#utility.yul\":3961:3971   */\n      swap4\n      pop\n        /* \"#utility.yul\":3293:3977   */\n      pop\n      pop\n      pop\n        /* \"#utility.yul\":3150:3977   */\n      swap3\n      swap2\n      pop\n      pop\n      jump\t// out\n        /* \"#utility.yul\":3983:4394   */\n    tag_17:\n        /* \"#utility.yul\":4145:4149   */\n      0x00\n        /* \"#utility.yul\":4183:4185   */\n      0x20\n        /* \"#utility.yul\":4172:4181   */\n      dup3\n        /* \"#utility.yul\":4168:4186   */\n      add\n        /* \"#utility.yul\":4160:4186   */\n      swap1\n      pop\n        /* \"#utility.yul\":4232:4241   */\n      dup2\n        /* \"#utility.yul\":4226:4230   */\n      dup2\n        /* \"#utility.yul\":4222:4242   */\n      sub\n        /* \"#utility.yul\":4218:4219   */\n      0x00\n        /* \"#utility.yul\":4207:4216   */\n      dup4\n        /* \"#utility.yul\":4203:4220   */\n      add\n        /* \"#utility.yul\":4196:4243   */\n      mstore\n        /* \"#utility.yul\":4260:4387   */\n      tag_189\n        /* \"#utility.yul\":4382:4386   */\n      dup2\n        /* \"#utility.yul\":4373:4379   */\n      dup5\n        /* \"#utility.yul\":4260:4387   */\n      tag_108\n      jump\t// in\n    tag_189:\n        /* \"#utility.yul\":4252:4387   */\n      swap1\n      pop\n        /* \"#utility.yul\":3983:4394   */\n      swap3\n      swap2\n      pop\n      pop\n      jump\t// out\n        /* \"#utility.yul\":4400:4489   */\n    tag_109:\n        /* \"#utility.yul\":4436:4443   */\n      0x00\n        /* \"#utility.yul\":4476:4482   */\n      0xffff\n        /* \"#utility.yul\":4469:4474   */\n      dup3\n        /* \"#utility.yul\":4465:4483   */\n      and\n        /* \"#utility.yul\":4454:4483   */\n      swap1\n      pop\n        /* \"#utility.yul\":4400:4489   */\n      swap2\n      swap1\n      pop\n      jump\t// out\n        /* \"#utility.yul\":4495:4615   */\n    tag_110:\n        /* \"#utility.yul\":4567:4590   */\n      tag_192\n        /* \"#utility.yul\":4584:4589   */\n      dup2\n        /* \"#utility.yul\":4567:4590   */\n      tag_109\n      jump\t// in\n    tag_192:\n        /* \"#utility.yul\":4560:4565   */\n      dup2\n        /* \"#utility.yul\":4557:4591   */\n      eq\n        /* \"#utility.yul\":4547:4609   */\n      tag_193\n      jumpi\n        /* \"#utility.yul\":4605:4606   */\n      0x00\n        /* \"#utility.yul\":4602:4603   */\n      0x00\n        /* \"#utility.yul\":4595:4607   */\n      revert\n        /* \"#utility.yul\":4547:4609   */\n    tag_193:\n        /* \"#utility.yul\":4495:4615   */\n      pop\n      jump\t// out\n        /* \"#utility.yul\":4621:4758   */\n    tag_111:\n        /* \"#utility.yul\":4666:4671   */\n      0x00\n        /* \"#utility.yul\":4704:4710   */\n      dup2\n        /* \"#utility.yul\":4691:4711   */\n      calldataload\n        /* \"#utility.yul\":4682:4711   */\n      swap1\n      pop\n        /* \"#utility.yul\":4720:4752   */\n      tag_195\n        /* \"#utility.yul\":4746:4751   */\n      dup2\n        /* \"#utility.yul\":4720:4752   */\n      tag_110\n      jump\t// in\n    tag_195:\n        /* \"#utility.yul\":4621:4758   */\n      swap3\n      swap2\n      pop\n      pop\n      jump\t// out\n        /* \"#utility.yul\":4764:5091   */\n    tag_20:\n        /* \"#utility.yul\":4822:4828   */\n      0x00\n        /* \"#utility.yul\":4871:4873   */\n      0x20\n        /* \"#utility.yul\":4859:4868   */\n      dup3\n        /* \"#utility.yul\":4850:4857   */\n      dup5\n        /* \"#utility.yul\":4846:4869   */\n      sub\n        /* \"#utility.yul\":4842:4874   */\n      slt\n        /* \"#utility.yul\":4839:4958   */\n      iszero\n      tag_197\n      jumpi\n        /* \"#utility.yul\":4877:4956   */\n      tag_198\n      tag_91\n      jump\t// in\n    tag_198:\n        /* \"#utility.yul\":4839:4958   */\n    tag_197:\n        /* \"#utility.yul\":4997:4998   */\n      0x00\n        /* \"#utility.yul\":5022:5074   */\n      tag_199\n        /* \"#utility.yul\":5066:5073   */\n      dup5\n        /* \"#utility.yul\":5057:5063   */\n      dup3\n        /* \"#utility.yul\":5046:5055   */\n      dup6\n        /* \"#utility.yul\":5042:5064   */\n      add\n        /* \"#utility.yul\":5022:5074   */\n      tag_111\n      jump\t// in\n    tag_199:\n        /* \"#utility.yul\":5012:5074   */\n      swap2\n      pop\n        /* \"#utility.yul\":4968:5084   */\n      pop\n        /* \"#utility.yul\":4764:5091   */\n      swap3\n      swap2\n      pop\n      pop\n      jump\t// out\n        /* \"#utility.yul\":5097:5193   */\n    tag_112:\n        /* \"#utility.yul\":5134:5141   */\n      0x00\n        /* \"#utility.yul\":5163:5187   */\n      tag_201\n        /* \"#utility.yul\":5181:5186   */\n      dup3\n        /* \"#utility.yul\":5163:5187   */\n      tag_96\n      jump\t// in\n    tag_201:\n        /* \"#utility.yul\":5152:5187   */\n      swap1\n      pop\n        /* \"#utility.yul\":5097:5193   */\n      swap2\n      swap1\n      pop\n      jump\t// out\n        /* \"#utility.yul\":5199:5317   */\n    tag_113:\n        /* \"#utility.yul\":5286:5310   */\n      tag_203\n        /* \"#utility.yul\":5304:5309   */\n      dup2\n        /* \"#utility.yul\":5286:5310   */\n      tag_112\n      jump\t// in\n    tag_203:\n        /* \"#utility.yul\":5281:5284   */\n      dup3\n        /* \"#utility.yul\":5274:5311   */\n      mstore\n        /* \"#utility.yul\":5199:5317   */\n      pop\n      pop\n      jump\t// out\n        /* \"#utility.yul\":5323:5545   */\n    tag_23:\n        /* \"#utility.yul\":5416:5420   */\n      0x00\n        /* \"#utility.yul\":5454:5456   */\n      0x20\n        /* \"#utility.yul\":5443:5452   */\n      dup3\n        /* \"#utility.yul\":5439:5457   */\n      add\n        /* \"#utility.yul\":5431:5457   */\n      swap1\n      pop\n        /* \"#utility.yul\":5467:5538   */\n      tag_205\n        /* \"#utility.yul\":5535:5536   */\n      0x00\n        /* \"#utility.yul\":5524:5533   */\n      dup4\n        /* \"#utility.yul\":5520:5537   */\n      add\n        /* \"#utility.yul\":5511:5517   */\n      dup5\n        /* \"#utility.yul\":5467:5538   */\n      tag_113\n      jump\t// in\n    tag_205:\n        /* \"#utility.yul\":5323:5545   */\n      swap3\n      swap2\n      pop\n      pop\n      jump\t// out\n        /* \"#utility.yul\":5551:5627   */\n    tag_114:\n        /* \"#utility.yul\":5587:5594   */\n      0x00\n        /* \"#utility.yul\":5616:5621   */\n      dup2\n        /* \"#utility.yul\":5605:5621   */\n      swap1\n      pop\n        /* \"#utility.yul\":5551:5627   */\n      swap2\n      swap1\n      pop\n      jump\t// out\n        /* \"#utility.yul\":5633:5753   */\n    tag_115:\n        /* \"#utility.yul\":5705:5728   */\n      tag_208\n        /* \"#utility.yul\":5722:5727   */\n      dup2\n        /* \"#utility.yul\":5705:5728   */\n      tag_114\n      jump\t// in\n    tag_208:\n        /* \"#utility.yul\":5698:5703   */\n      dup2\n        /* \"#utility.yul\":5695:5729   */\n      eq\n        /* \"#utility.yul\":5685:5747   */\n      tag_209\n      jumpi\n        /* \"#utility.yul\":5743:5744   */\n      0x00\n        /* \"#utility.yul\":5740:5741   */\n      0x00\n        /* \"#utility.yul\":5733:5745   */\n      revert\n        /* \"#utility.yul\":5685:5747   */\n    tag_209:\n        /* \"#utility.yul\":5633:5753   */\n      pop\n      jump\t// out\n        /* \"#utility.yul\":5759:5896   */\n    tag_116:\n        /* \"#utility.yul\":5804:5809   */\n      0x00\n        /* \"#utility.yul\":5842:5848   */\n      dup2\n        /* \"#utility.yul\":5829:5849   */\n      calldataload\n        /* \"#utility.yul\":5820:5849   */\n      swap1\n      pop\n        /* \"#utility.yul\":5858:5890   */\n      tag_211\n        /* \"#utility.yul\":5884:5889   */\n      dup2\n        /* \"#utility.yul\":5858:5890   */\n      tag_115\n      jump\t// in\n    tag_211:\n        /* \"#utility.yul\":5759:5896   */\n      swap3\n      swap2\n      pop\n      pop\n      jump\t// out\n        /* \"#utility.yul\":5902:6019   */\n    tag_117:\n        /* \"#utility.yul\":6011:6012   */\n      0x00\n        /* \"#utility.yul\":6008:6009   */\n      0x00\n        /* \"#utility.yul\":6001:6013   */\n      revert\n        /* \"#utility.yul\":6042:6290   */\n    tag_118:\n        /* \"#utility.yul\":6112:6120   */\n      0x00\n        /* \"#utility.yul\":6143:6149   */\n      dup2\n        /* \"#utility.yul\":6131:6149   */\n      swap1\n      pop\n        /* \"#utility.yul\":6196:6199   */\n      dup3\n        /* \"#utility.yul\":6188:6192   */\n      0x20\n        /* \"#utility.yul\":6182:6186   */\n      0x03\n        /* \"#utility.yul\":6178:6193   */\n      mul\n        /* \"#utility.yul\":6168:6176   */\n      dup3\n        /* \"#utility.yul\":6164:6194   */\n      add\n        /* \"#utility.yul\":6161:6200   */\n      gt\n        /* \"#utility.yul\":6158:6284   */\n      iszero\n      tag_214\n      jumpi\n        /* \"#utility.yul\":6203:6282   */\n      tag_215\n      tag_117\n      jump\t// in\n    tag_215:\n        /* \"#utility.yul\":6158:6284   */\n    tag_214:\n        /* \"#utility.yul\":6042:6290   */\n      swap3\n      swap2\n      pop\n      pop\n      jump\t// out\n        /* \"#utility.yul\":6296:6418   */\n    tag_119:\n        /* \"#utility.yul\":6369:6393   */\n      tag_217\n        /* \"#utility.yul\":6387:6392   */\n      dup2\n        /* \"#utility.yul\":6369:6393   */\n      tag_112\n      jump\t// in\n    tag_217:\n        /* \"#utility.yul\":6362:6367   */\n      dup2\n        /* \"#utility.yul\":6359:6394   */\n      eq\n        /* \"#utility.yul\":6349:6412   */\n      tag_218\n      jumpi\n        /* \"#utility.yul\":6408:6409   */\n      0x00\n        /* \"#utility.yul\":6405:6406   */\n      0x00\n        /* \"#utility.yul\":6398:6410   */\n      revert\n        /* \"#utility.yul\":6349:6412   */\n    tag_218:\n        /* \"#utility.yul\":6296:6418   */\n      pop\n      jump\t// out\n        /* \"#utility.yul\":6424:6563   */\n    tag_120:\n        /* \"#utility.yul\":6470:6475   */\n      0x00\n        /* \"#utility.yul\":6508:6514   */\n      dup2\n        /* \"#utility.yul\":6495:6515   */\n      calldataload\n        /* \"#utility.yul\":6486:6515   */\n      swap1\n      pop\n        /* \"#utility.yul\":6524:6557   */\n      tag_220\n        /* \"#utility.yul\":6551:6556   */\n      dup2\n        /* \"#utility.yul\":6524:6557   */\n      tag_119\n      jump\t// in\n    tag_220:\n        /* \"#utility.yul\":6424:6563   */\n      swap3\n      swap2\n      pop\n      pop\n      jump\t// out\n        /* \"#utility.yul\":6569:6683   */\n    tag_121:\n        /* \"#utility.yul\":6657:6658   */\n      0x03\n        /* \"#utility.yul\":6650:6655   */\n      dup2\n        /* \"#utility.yul\":6647:6659   */\n      lt\n        /* \"#utility.yul\":6637:6677   */\n      tag_222\n      jumpi\n        /* \"#utility.yul\":6673:6674   */\n      0x00\n        /* \"#utility.yul\":6670:6671   */\n      0x00\n        /* \"#utility.yul\":6663:6675   */\n      revert\n        /* \"#utility.yul\":6637:6677   */\n    tag_222:\n        /* \"#utility.yul\":6569:6683   */\n      pop\n      jump\t// out\n        /* \"#utility.yul\":6689:6858   */\n    tag_122:\n        /* \"#utility.yul\":6750:6755   */\n      0x00\n        /* \"#utility.yul\":6788:6794   */\n      dup2\n        /* \"#utility.yul\":6775:6795   */\n      calldataload\n        /* \"#utility.yul\":6766:6795   */\n      swap1\n      pop\n        /* \"#utility.yul\":6804:6852   */\n      tag_224\n        /* \"#utility.yul\":6846:6851   */\n      dup2\n        /* \"#utility.yul\":6804:6852   */\n      tag_121\n      jump\t// in\n    tag_224:\n        /* \"#utility.yul\":6689:6858   */\n      swap3\n      swap2\n      pop\n      pop\n      jump\t// out\n        /* \"#utility.yul\":6864:7707   */\n    tag_26:\n        /* \"#utility.yul\":6988:6994   */\n      0x00\n        /* \"#utility.yul\":6996:7002   */\n      0x00\n        /* \"#utility.yul\":7004:7010   */\n      0x00\n        /* \"#utility.yul\":7012:7018   */\n      0x00\n        /* \"#utility.yul\":7061:7064   */\n      0xc0\n        /* \"#utility.yul\":7049:7058   */\n      dup6\n        /* \"#utility.yul\":7040:7047   */\n      dup8\n        /* \"#utility.yul\":7036:7059   */\n      sub\n        /* \"#utility.yul\":7032:7065   */\n      slt\n        /* \"#utility.yul\":7029:7149   */\n      iszero\n      tag_226\n      jumpi\n        /* \"#utility.yul\":7068:7147   */\n      tag_227\n      tag_91\n      jump\t// in\n    tag_227:\n        /* \"#utility.yul\":7029:7149   */\n    tag_226:\n        /* \"#utility.yul\":7188:7189   */\n      0x00\n        /* \"#utility.yul\":7213:7265   */\n      tag_228\n        /* \"#utility.yul\":7257:7264   */\n      dup8\n        /* \"#utility.yul\":7248:7254   */\n      dup3\n        /* \"#utility.yul\":7237:7246   */\n      dup9\n        /* \"#utility.yul\":7233:7255   */\n      add\n        /* \"#utility.yul\":7213:7265   */\n      tag_116\n      jump\t// in\n    tag_228:\n        /* \"#utility.yul\":7203:7265   */\n      swap5\n      pop\n        /* \"#utility.yul\":7159:7275   */\n      pop\n        /* \"#utility.yul\":7314:7316   */\n      0x20\n        /* \"#utility.yul\":7340:7417   */\n      tag_229\n        /* \"#utility.yul\":7409:7416   */\n      dup8\n        /* \"#utility.yul\":7400:7406   */\n      dup3\n        /* \"#utility.yul\":7389:7398   */\n      dup9\n        /* \"#utility.yul\":7385:7407   */\n      add\n        /* \"#utility.yul\":7340:7417   */\n      tag_118\n      jump\t// in\n    tag_229:\n        /* \"#utility.yul\":7330:7417   */\n      swap4\n      pop\n        /* \"#utility.yul\":7285:7427   */\n      pop\n        /* \"#utility.yul\":7466:7469   */\n      0x80\n        /* \"#utility.yul\":7493:7546   */\n      tag_230\n        /* \"#utility.yul\":7538:7545   */\n      dup8\n        /* \"#utility.yul\":7529:7535   */\n      dup3\n        /* \"#utility.yul\":7518:7527   */\n      dup9\n        /* \"#utility.yul\":7514:7536   */\n      add\n        /* \"#utility.yul\":7493:7546   */\n      tag_120\n      jump\t// in\n    tag_230:\n        /* \"#utility.yul\":7483:7546   */\n      swap3\n      pop\n        /* \"#utility.yul\":7437:7556   */\n      pop\n        /* \"#utility.yul\":7595:7598   */\n      0xa0\n        /* \"#utility.yul\":7622:7690   */\n      tag_231\n        /* \"#utility.yul\":7682:7689   */\n      dup8\n        /* \"#utility.yul\":7673:7679   */\n      dup3\n        /* \"#utility.yul\":7662:7671   */\n      dup9\n        /* \"#utility.yul\":7658:7680   */\n      add\n        /* \"#utility.yul\":7622:7690   */\n      tag_122\n      jump\t// in\n    tag_231:\n        /* \"#utility.yul\":7612:7690   */\n      swap2\n      pop\n        /* \"#utility.yul\":7566:7700   */\n      pop\n        /* \"#utility.yul\":6864:7707   */\n      swap3\n      swap6\n      swap2\n      swap5\n      pop\n      swap3\n      pop\n      jump\t// out\n        /* \"#utility.yul\":7713:7893   */\n    tag_35:\n        /* \"#utility.yul\":7761:7838   */\n      0x4e487b7100000000000000000000000000000000000000000000000000000000\n        /* \"#utility.yul\":7758:7759   */\n      0x00\n        /* \"#utility.yul\":7751:7839   */\n      mstore\n        /* \"#utility.yul\":7858:7862   */\n      0x32\n        /* \"#utility.yul\":7855:7856   */\n      0x04\n        /* \"#utility.yul\":7848:7863   */\n      mstore\n        /* \"#utility.yul\":7882:7886   */\n      0x24\n        /* \"#utility.yul\":7879:7880   */\n      0x00\n        /* \"#utility.yul\":7872:7887   */\n      revert\n        /* \"#utility.yul\":7899:8040   */\n    tag_123:\n        /* \"#utility.yul\":7955:7960   */\n      0x00\n        /* \"#utility.yul\":7986:7992   */\n      dup2\n        /* \"#utility.yul\":7980:7993   */\n      mload\n        /* \"#utility.yul\":7971:7993   */\n      swap1\n      pop\n        /* \"#utility.yul\":8002:8034   */\n      tag_234\n        /* \"#utility.yul\":8028:8033   */\n      dup2\n        /* \"#utility.yul\":8002:8034   */\n      tag_115\n      jump\t// in\n    tag_234:\n        /* \"#utility.yul\":7899:8040   */\n      swap3\n      swap2\n      pop\n      pop\n      jump\t// out\n        /* \"#utility.yul\":8046:8395   */\n    tag_47:\n        /* \"#utility.yul\":8115:8121   */\n      0x00\n        /* \"#utility.yul\":8164:8166   */\n      0x20\n        /* \"#utility.yul\":8152:8161   */\n      dup3\n        /* \"#utility.yul\":8143:8150   */\n      dup5\n        /* \"#utility.yul\":8139:8162   */\n      sub\n        /* \"#utility.yul\":8135:8167   */\n      slt\n        /* \"#utility.yul\":8132:8251   */\n      iszero\n      tag_236\n      jumpi\n        /* \"#utility.yul\":8170:8249   */\n      tag_237\n      tag_91\n      jump\t// in\n    tag_237:\n        /* \"#utility.yul\":8132:8251   */\n    tag_236:\n        /* \"#utility.yul\":8290:8291   */\n      0x00\n        /* \"#utility.yul\":8315:8378   */\n      tag_238\n        /* \"#utility.yul\":8370:8377   */\n      dup5\n        /* \"#utility.yul\":8361:8367   */\n      dup3\n        /* \"#utility.yul\":8350:8359   */\n      dup6\n        /* \"#utility.yul\":8346:8368   */\n      add\n        /* \"#utility.yul\":8315:8378   */\n      tag_123\n      jump\t// in\n    tag_238:\n        /* \"#utility.yul\":8305:8378   */\n      swap2\n      pop\n        /* \"#utility.yul\":8261:8388   */\n      pop\n        /* \"#utility.yul\":8046:8395   */\n      swap3\n      swap2\n      pop\n      pop\n      jump\t// out\n        /* \"#utility.yul\":8401:8516   */\n    tag_124:\n        /* \"#utility.yul\":8486:8509   */\n      tag_240\n        /* \"#utility.yul\":8503:8508   */\n      dup2\n        /* \"#utility.yul\":8486:8509   */\n      tag_114\n      jump\t// in\n    tag_240:\n        /* \"#utility.yul\":8481:8484   */\n      dup3\n        /* \"#utility.yul\":8474:8510   */\n      mstore\n        /* \"#utility.yul\":8401:8516   */\n      pop\n      pop\n      jump\t// out\n        /* \"#utility.yul\":8522:8740   */\n    tag_49:\n        /* \"#utility.yul\":8613:8617   */\n      0x00\n        /* \"#utility.yul\":8651:8653   */\n      0x20\n        /* \"#utility.yul\":8640:8649   */\n      dup3\n        /* \"#utility.yul\":8636:8654   */\n      add\n        /* \"#utility.yul\":8628:8654   */\n      swap1\n      pop\n        /* \"#utility.yul\":8664:8733   */\n      tag_242\n        /* \"#utility.yul\":8730:8731   */\n      0x00\n        /* \"#utility.yul\":8719:8728   */\n      dup4\n        /* \"#utility.yul\":8715:8732   */\n      add\n        /* \"#utility.yul\":8706:8712   */\n      dup5\n        /* \"#utility.yul\":8664:8733   */\n      tag_124\n      jump\t// in\n    tag_242:\n        /* \"#utility.yul\":8522:8740   */\n      swap3\n      swap2\n      pop\n      pop\n      jump\t// out\n        /* \"#utility.yul\":8746:8889   */\n    tag_125:\n        /* \"#utility.yul\":8803:8808   */\n      0x00\n        /* \"#utility.yul\":8834:8840   */\n      dup2\n        /* \"#utility.yul\":8828:8841   */\n      mload\n        /* \"#utility.yul\":8819:8841   */\n      swap1\n      pop\n        /* \"#utility.yul\":8850:8883   */\n      tag_244\n        /* \"#utility.yul\":8877:8882   */\n      dup2\n        /* \"#utility.yul\":8850:8883   */\n      tag_119\n      jump\t// in\n    tag_244:\n        /* \"#utility.yul\":8746:8889   */\n      swap3\n      swap2\n      pop\n      pop\n      jump\t// out\n        /* \"#utility.yul\":8895:9246   */\n    tag_53:\n        /* \"#utility.yul\":8965:8971   */\n      0x00\n        /* \"#utility.yul\":9014:9016   */\n      0x20\n        /* \"#utility.yul\":9002:9011   */\n      dup3\n        /* \"#utility.yul\":8993:9000   */\n      dup5\n        /* \"#utility.yul\":8989:9012   */\n      sub\n        /* \"#utility.yul\":8985:9017   */\n      slt\n        /* \"#utility.yul\":8982:9101   */\n      iszero\n      tag_246\n      jumpi\n        /* \"#utility.yul\":9020:9099   */\n      tag_247\n      tag_91\n      jump\t// in\n    tag_247:\n        /* \"#utility.yul\":8982:9101   */\n    tag_246:\n        /* \"#utility.yul\":9140:9141   */\n      0x00\n        /* \"#utility.yul\":9165:9229   */\n      tag_248\n        /* \"#utility.yul\":9221:9228   */\n      dup5\n        /* \"#utility.yul\":9212:9218   */\n      dup3\n        /* \"#utility.yul\":9201:9210   */\n      dup6\n        /* \"#utility.yul\":9197:9219   */\n      add\n        /* \"#utility.yul\":9165:9229   */\n      tag_125\n      jump\t// in\n    tag_248:\n        /* \"#utility.yul\":9155:9229   */\n      swap2\n      pop\n        /* \"#utility.yul\":9111:9239   */\n      pop\n        /* \"#utility.yul\":8895:9246   */\n      swap3\n      swap2\n      pop\n      pop\n      jump\t// out\n        /* \"#utility.yul\":9252:9357   */\n    tag_126:\n        /* \"#utility.yul\":9318:9324   */\n      0x00\n        /* \"#utility.yul\":9346:9350   */\n      0x03\n        /* \"#utility.yul\":9336:9350   */\n      swap1\n      pop\n        /* \"#utility.yul\":9252:9357   */\n      swap2\n      swap1\n      pop\n      jump\t// out\n        /* \"#utility.yul\":9363:9505   */\n    tag_127:\n        /* \"#utility.yul\":9459:9470   */\n      0x00\n        /* \"#utility.yul\":9496:9499   */\n      dup2\n        /* \"#utility.yul\":9481:9499   */\n      swap1\n      pop\n        /* \"#utility.yul\":9363:9505   */\n      swap3\n      swap2\n      pop\n      pop\n      jump\t// out\n        /* \"#utility.yul\":9511:9610   */\n    tag_128:\n        /* \"#utility.yul\":9577:9581   */\n      0x00\n        /* \"#utility.yul\":9600:9603   */\n      dup2\n        /* \"#utility.yul\":9592:9603   */\n      swap1\n      pop\n        /* \"#utility.yul\":9511:9610   */\n      swap2\n      swap1\n      pop\n      jump\t// out\n        /* \"#utility.yul\":9616:9709   */\n    tag_129:\n        /* \"#utility.yul\":9652:9659   */\n      0x00\n        /* \"#utility.yul\":9692:9702   */\n      0xffffffff\n        /* \"#utility.yul\":9685:9690   */\n      dup3\n        /* \"#utility.yul\":9681:9703   */\n      and\n        /* \"#utility.yul\":9670:9703   */\n      swap1\n      pop\n        /* \"#utility.yul\":9616:9709   */\n      swap2\n      swap1\n      pop\n      jump\t// out\n        /* \"#utility.yul\":9715:9820   */\n    tag_130:\n        /* \"#utility.yul\":9790:9813   */\n      tag_254\n        /* \"#utility.yul\":9807:9812   */\n      dup2\n        /* \"#utility.yul\":9790:9813   */\n      tag_129\n      jump\t// in\n    tag_254:\n        /* \"#utility.yul\":9785:9788   */\n      dup3\n        /* \"#utility.yul\":9778:9814   */\n      mstore\n        /* \"#utility.yul\":9715:9820   */\n      pop\n      pop\n      jump\t// out\n        /* \"#utility.yul\":9826:10001   */\n    tag_131:\n        /* \"#utility.yul\":9893:9903   */\n      0x00\n        /* \"#utility.yul\":9914:9958   */\n      tag_256\n        /* \"#utility.yul\":9954:9957   */\n      dup4\n        /* \"#utility.yul\":9946:9952   */\n      dup4\n        /* \"#utility.yul\":9914:9958   */\n      tag_130\n      jump\t// in\n    tag_256:\n        /* \"#utility.yul\":9990:9994   */\n      0x20\n        /* \"#utility.yul\":9985:9988   */\n      dup4\n        /* \"#utility.yul\":9981:9995   */\n      add\n        /* \"#utility.yul\":9967:9995   */\n      swap1\n      pop\n        /* \"#utility.yul\":9826:10001   */\n      swap3\n      swap2\n      pop\n      pop\n      jump\t// out\n        /* \"#utility.yul\":10007:10127   */\n    tag_132:\n        /* \"#utility.yul\":10079:10102   */\n      tag_258\n        /* \"#utility.yul\":10096:10101   */\n      dup2\n        /* \"#utility.yul\":10079:10102   */\n      tag_129\n      jump\t// in\n    tag_258:\n        /* \"#utility.yul\":10072:10077   */\n      dup2\n        /* \"#utility.yul\":10069:10103   */\n      eq\n        /* \"#utility.yul\":10059:10121   */\n      tag_259\n      jumpi\n        /* \"#utility.yul\":10117:10118   */\n      0x00\n        /* \"#utility.yul\":10114:10115   */\n      0x00\n        /* \"#utility.yul\":10107:10119   */\n      revert\n        /* \"#utility.yul\":10059:10121   */\n    tag_259:\n        /* \"#utility.yul\":10007:10127   */\n      pop\n      jump\t// out\n        /* \"#utility.yul\":10133:10270   */\n    tag_133:\n        /* \"#utility.yul\":10178:10183   */\n      0x00\n        /* \"#utility.yul\":10216:10222   */\n      dup2\n        /* \"#utility.yul\":10203:10223   */\n      calldataload\n        /* \"#utility.yul\":10194:10223   */\n      swap1\n      pop\n        /* \"#utility.yul\":10232:10264   */\n      tag_261\n        /* \"#utility.yul\":10258:10263   */\n      dup2\n        /* \"#utility.yul\":10232:10264   */\n      tag_132\n      jump\t// in\n    tag_261:\n        /* \"#utility.yul\":10133:10270   */\n      swap3\n      swap2\n      pop\n      pop\n      jump\t// out\n        /* \"#utility.yul\":10276:10396   */\n    tag_134:\n        /* \"#utility.yul\":10327:10332   */\n      0x00\n        /* \"#utility.yul\":10352:10390   */\n      tag_263\n        /* \"#utility.yul\":10386:10388   */\n      0x20\n        /* \"#utility.yul\":10381:10384   */\n      dup5\n        /* \"#utility.yul\":10377:10389   */\n      add\n        /* \"#utility.yul\":10372:10375   */\n      dup5\n        /* \"#utility.yul\":10352:10390   */\n      tag_133\n      jump\t// in\n    tag_263:\n        /* \"#utility.yul\":10343:10390   */\n      swap1\n      pop\n        /* \"#utility.yul\":10276:10396   */\n      swap3\n      swap2\n      pop\n      pop\n      jump\t// out\n        /* \"#utility.yul\":10402:10514   */\n    tag_135:\n        /* \"#utility.yul\":10471:10475   */\n      0x00\n        /* \"#utility.yul\":10503:10507   */\n      0x20\n        /* \"#utility.yul\":10498:10501   */\n      dup3\n        /* \"#utility.yul\":10494:10508   */\n      add\n        /* \"#utility.yul\":10486:10508   */\n      swap1\n      pop\n        /* \"#utility.yul\":10402:10514   */\n      swap2\n      swap1\n      pop\n      jump\t// out\n        /* \"#utility.yul\":10550:11272   */\n    tag_136:\n        /* \"#utility.yul\":10686:10739   */\n      tag_266\n        /* \"#utility.yul\":10733:10738   */\n      dup2\n        /* \"#utility.yul\":10686:10739   */\n      tag_126\n      jump\t// in\n    tag_266:\n        /* \"#utility.yul\":10755:10838   */\n      tag_267\n        /* \"#utility.yul\":10831:10837   */\n      dup2\n        /* \"#utility.yul\":10826:10829   */\n      dup5\n        /* \"#utility.yul\":10755:10838   */\n      tag_127\n      jump\t// in\n    tag_267:\n        /* \"#utility.yul\":10748:10838   */\n      swap3\n      pop\n        /* \"#utility.yul\":10862:10917   */\n      tag_268\n        /* \"#utility.yul\":10911:10916   */\n      dup3\n        /* \"#utility.yul\":10862:10917   */\n      tag_128\n      jump\t// in\n    tag_268:\n        /* \"#utility.yul\":10940:10947   */\n      dup1\n        /* \"#utility.yul\":10971:10972   */\n      0x00\n        /* \"#utility.yul\":10956:11265   */\n    tag_269:\n        /* \"#utility.yul\":10981:10987   */\n      dup4\n        /* \"#utility.yul\":10978:10979   */\n      dup2\n        /* \"#utility.yul\":10975:10988   */\n      lt\n        /* \"#utility.yul\":10956:11265   */\n      iszero\n      tag_271\n      jumpi\n        /* \"#utility.yul\":11051:11092   */\n      tag_272\n        /* \"#utility.yul\":11085:11091   */\n      dup3\n        /* \"#utility.yul\":11076:11083   */\n      dup5\n        /* \"#utility.yul\":11051:11092   */\n      tag_134\n      jump\t// in\n    tag_272:\n        /* \"#utility.yul\":11112:11173   */\n      tag_273\n        /* \"#utility.yul\":11169:11172   */\n      dup8\n        /* \"#utility.yul\":11154:11167   */\n      dup3\n        /* \"#utility.yul\":11112:11173   */\n      tag_131\n      jump\t// in\n    tag_273:\n        /* \"#utility.yul\":11105:11173   */\n      swap7\n      pop\n        /* \"#utility.yul\":11196:11255   */\n      tag_274\n        /* \"#utility.yul\":11248:11254   */\n      dup4\n        /* \"#utility.yul\":11196:11255   */\n      tag_135\n      jump\t// in\n    tag_274:\n        /* \"#utility.yul\":11186:11255   */\n      swap3\n      pop\n        /* \"#utility.yul\":11016:11265   */\n      pop\n        /* \"#utility.yul\":11003:11004   */\n      0x01\n        /* \"#utility.yul\":11000:11001   */\n      dup2\n        /* \"#utility.yul\":10996:11005   */\n      add\n        /* \"#utility.yul\":10991:11005   */\n      swap1\n      pop\n        /* \"#utility.yul\":10956:11265   */\n      jump(tag_269)\n    tag_271:\n        /* \"#utility.yul\":10960:10974   */\n      pop\n        /* \"#utility.yul\":10662:11272   */\n      pop\n      pop\n      pop\n        /* \"#utility.yul\":10550:11272   */\n      pop\n      pop\n      jump\t// out\n        /* \"#utility.yul\":11278:11699   */\n    tag_63:\n        /* \"#utility.yul\":11443:11447   */\n      0x00\n        /* \"#utility.yul\":11481:11484   */\n      0x80\n        /* \"#utility.yul\":11470:11479   */\n      dup3\n        /* \"#utility.yul\":11466:11485   */\n      add\n        /* \"#utility.yul\":11458:11485   */\n      swap1\n      pop\n        /* \"#utility.yul\":11495:11564   */\n      tag_276\n        /* \"#utility.yul\":11561:11562   */\n      0x00\n        /* \"#utility.yul\":11550:11559   */\n      dup4\n        /* \"#utility.yul\":11546:11563   */\n      add\n        /* \"#utility.yul\":11537:11543   */\n      dup6\n        /* \"#utility.yul\":11495:11564   */\n      tag_124\n      jump\t// in\n    tag_276:\n        /* \"#utility.yul\":11574:11692   */\n      tag_277\n        /* \"#utility.yul\":11688:11690   */\n      0x20\n        /* \"#utility.yul\":11677:11686   */\n      dup4\n        /* \"#utility.yul\":11673:11691   */\n      add\n        /* \"#utility.yul\":11664:11670   */\n      dup5\n        /* \"#utility.yul\":11574:11692   */\n      tag_136\n      jump\t// in\n    tag_277:\n        /* \"#utility.yul\":11278:11699   */\n      swap4\n      swap3\n      pop\n      pop\n      pop\n      jump\t// out\n        /* \"#utility.yul\":11705:12033   */\n    tag_68:\n        /* \"#utility.yul\":11824:11828   */\n      0x00\n        /* \"#utility.yul\":11862:11864   */\n      0x40\n        /* \"#utility.yul\":11851:11860   */\n      dup3\n        /* \"#utility.yul\":11847:11865   */\n      add\n        /* \"#utility.yul\":11839:11865   */\n      swap1\n      pop\n        /* \"#utility.yul\":11875:11944   */\n      tag_279\n        /* \"#utility.yul\":11941:11942   */\n      0x00\n        /* \"#utility.yul\":11930:11939   */\n      dup4\n        /* \"#utility.yul\":11926:11943   */\n      add\n        /* \"#utility.yul\":11917:11923   */\n      dup6\n        /* \"#utility.yul\":11875:11944   */\n      tag_124\n      jump\t// in\n    tag_279:\n        /* \"#utility.yul\":11954:12026   */\n      tag_280\n        /* \"#utility.yul\":12022:12024   */\n      0x20\n        /* \"#utility.yul\":12011:12020   */\n      dup4\n        /* \"#utility.yul\":12007:12025   */\n      add\n        /* \"#utility.yul\":11998:12004   */\n      dup5\n        /* \"#utility.yul\":11954:12026   */\n      tag_113\n      jump\t// in\n    tag_280:\n        /* \"#utility.yul\":11705:12033   */\n      swap4\n      swap3\n      pop\n      pop\n      pop\n      jump\t// out\n        /* \"#utility.yul\":12039:12219   */\n    tag_137:\n        /* \"#utility.yul\":12087:12164   */\n      0x4e487b7100000000000000000000000000000000000000000000000000000000\n        /* \"#utility.yul\":12084:12085   */\n      0x00\n        /* \"#utility.yul\":12077:12165   */\n      mstore\n        /* \"#utility.yul\":12184:12188   */\n      0x21\n        /* \"#utility.yul\":12181:12182   */\n      0x04\n        /* \"#utility.yul\":12174:12189   */\n      mstore\n        /* \"#utility.yul\":12208:12212   */\n      0x24\n        /* \"#utility.yul\":12205:12206   */\n      0x00\n        /* \"#utility.yul\":12198:12213   */\n      revert\n        /* \"#utility.yul\":12225:12345   */\n    tag_138:\n        /* \"#utility.yul\":12313:12314   */\n      0x03\n        /* \"#utility.yul\":12306:12311   */\n      dup2\n        /* \"#utility.yul\":12303:12315   */\n      lt\n        /* \"#utility.yul\":12293:12339   */\n      tag_283\n      jumpi\n        /* \"#utility.yul\":12319:12337   */\n      tag_284\n      tag_137\n      jump\t// in\n    tag_284:\n        /* \"#utility.yul\":12293:12339   */\n    tag_283:\n        /* \"#utility.yul\":12225:12345   */\n      pop\n      jump\t// out\n        /* \"#utility.yul\":12351:12492   */\n    tag_139:\n        /* \"#utility.yul\":12403:12410   */\n      0x00\n        /* \"#utility.yul\":12432:12437   */\n      dup2\n        /* \"#utility.yul\":12421:12437   */\n      swap1\n      pop\n        /* \"#utility.yul\":12438:12486   */\n      tag_286\n        /* \"#utility.yul\":12480:12485   */\n      dup3\n        /* \"#utility.yul\":12438:12486   */\n      tag_138\n      jump\t// in\n    tag_286:\n        /* \"#utility.yul\":12351:12492   */\n      swap2\n      swap1\n      pop\n      jump\t// out\n        /* \"#utility.yul\":12498:12639   */\n    tag_140:\n        /* \"#utility.yul\":12561:12570   */\n      0x00\n        /* \"#utility.yul\":12594:12633   */\n      tag_288\n        /* \"#utility.yul\":12627:12632   */\n      dup3\n        /* \"#utility.yul\":12594:12633   */\n      tag_139\n      jump\t// in\n    tag_288:\n        /* \"#utility.yul\":12581:12633   */\n      swap1\n      pop\n        /* \"#utility.yul\":12498:12639   */\n      swap2\n      swap1\n      pop\n      jump\t// out\n        /* \"#utility.yul\":12645:12802   */\n    tag_141:\n        /* \"#utility.yul\":12745:12795   */\n      tag_290\n        /* \"#utility.yul\":12789:12794   */\n      dup2\n        /* \"#utility.yul\":12745:12795   */\n      tag_140\n      jump\t// in\n    tag_290:\n        /* \"#utility.yul\":12740:12743   */\n      dup3\n        /* \"#utility.yul\":12733:12796   */\n      mstore\n        /* \"#utility.yul\":12645:12802   */\n      pop\n      pop\n      jump\t// out\n        /* \"#utility.yul\":12808:13056   */\n    tag_73:\n        /* \"#utility.yul\":12914:12918   */\n      0x00\n        /* \"#utility.yul\":12952:12954   */\n      0x20\n        /* \"#utility.yul\":12941:12950   */\n      dup3\n        /* \"#utility.yul\":12937:12955   */\n      add\n        /* \"#utility.yul\":12929:12955   */\n      swap1\n      pop\n        /* \"#utility.yul\":12965:13049   */\n      tag_292\n        /* \"#utility.yul\":13046:13047   */\n      0x00\n        /* \"#utility.yul\":13035:13044   */\n      dup4\n        /* \"#utility.yul\":13031:13048   */\n      add\n        /* \"#utility.yul\":13022:13028   */\n      dup5\n        /* \"#utility.yul\":12965:13049   */\n      tag_141\n      jump\t// in\n    tag_292:\n        /* \"#utility.yul\":12808:13056   */\n      swap3\n      swap2\n      pop\n      pop\n      jump\t// out\n        /* \"#utility.yul\":13062:13235   */\n    tag_142:\n        /* \"#utility.yul\":13134:13139   */\n      0x00\n        /* \"#utility.yul\":13165:13171   */\n      dup2\n        /* \"#utility.yul\":13159:13172   */\n      mload\n        /* \"#utility.yul\":13150:13172   */\n      swap1\n      pop\n        /* \"#utility.yul\":13181:13229   */\n      tag_294\n        /* \"#utility.yul\":13223:13228   */\n      dup2\n        /* \"#utility.yul\":13181:13229   */\n      tag_121\n      jump\t// in\n    tag_294:\n        /* \"#utility.yul\":13062:13235   */\n      swap3\n      swap2\n      pop\n      pop\n      jump\t// out\n        /* \"#utility.yul\":13241:13622   */\n    tag_77:\n        /* \"#utility.yul\":13326:13332   */\n      0x00\n        /* \"#utility.yul\":13375:13377   */\n      0x20\n        /* \"#utility.yul\":13363:13372   */\n      dup3\n        /* \"#utility.yul\":13354:13361   */\n      dup5\n        /* \"#utility.yul\":13350:13373   */\n      sub\n        /* \"#utility.yul\":13346:13378   */\n      slt\n        /* \"#utility.yul\":13343:13462   */\n      iszero\n      tag_296\n      jumpi\n        /* \"#utility.yul\":13381:13460   */\n      tag_297\n      tag_91\n      jump\t// in\n    tag_297:\n        /* \"#utility.yul\":13343:13462   */\n    tag_296:\n        /* \"#utility.yul\":13501:13502   */\n      0x00\n        /* \"#utility.yul\":13526:13605   */\n      tag_298\n        /* \"#utility.yul\":13597:13604   */\n      dup5\n        /* \"#utility.yul\":13588:13594   */\n      dup3\n        /* \"#utility.yul\":13577:13586   */\n      dup6\n        /* \"#utility.yul\":13573:13595   */\n      add\n        /* \"#utility.yul\":13526:13605   */\n      tag_142\n      jump\t// in\n    tag_298:\n        /* \"#utility.yul\":13516:13605   */\n      swap2\n      pop\n        /* \"#utility.yul\":13472:13615   */\n      pop\n        /* \"#utility.yul\":13241:13622   */\n      swap3\n      swap2\n      pop\n      pop\n      jump\t// out\n    stop\n\n    sub_0: assembly {\n            /* \"Student/contract/StudentInfo.sol\":200:2336  contract StudentInfo {... */\n          mstore(0x40, 0x80)\n          callvalue\n          dup1\n          iszero\n          tag_1\n          jumpi\n          revert(0x00, 0x00)\n        tag_1:\n          pop\n          dataSize(sub_0)\n          dup1\n          dataOffset(sub_0)\n          0x00\n          codecopy\n          0x00\n          return\n        stop\n\n        sub_0: assembly {\n                /* \"Student/contract/StudentInfo.sol\":200:2336  contract StudentInfo {... */\n              mstore(0x40, 0x80)\n              jumpi(tag_1, lt(calldatasize, 0x04))\n              shr(0xe0, calldataload(0x00))\n              dup1\n              0x7d9c50f0\n              gt\n              tag_10\n              jumpi\n              dup1\n              0x7d9c50f0\n              eq\n              tag_6\n              jumpi\n              dup1\n              0x9cd09483\n              eq\n              tag_7\n              jumpi\n              dup1\n              0xbc1d2a9e\n              eq\n              tag_8\n              jumpi\n              dup1\n              0xce5cd34e\n              eq\n              tag_9\n              jumpi\n              jump(tag_1)\n            tag_10:\n              dup1\n              0x3edd962f\n              eq\n              tag_2\n              jumpi\n              dup1\n              0x556cc692\n              eq\n              tag_3\n              jumpi\n              dup1\n              0x5e4f4848\n              eq\n              tag_4\n              jumpi\n              dup1\n              0x75772ace\n              eq\n              tag_5\n              jumpi\n            tag_1:\n              revert(0x00, 0x00)\n                /* \"Student/contract/StudentInfo.sol\":1387:1517  function GetStudentGrade(int256  _studentId) public view returns (Grade memory) {... */\n            tag_2:\n              callvalue\n              dup1\n              iszero\n              tag_11\n              jumpi\n              revert(0x00, 0x00)\n            tag_11:\n              pop\n              tag_12\n              0x04\n              dup1\n              calldatasize\n              sub\n              dup2\n              add\n              swap1\n              tag_13\n              swap2\n              swap1\n              tag_14\n              jump\t// in\n            tag_13:\n              tag_15\n              jump\t// in\n            tag_12:\n              mload(0x40)\n              tag_16\n              swap2\n              swap1\n              tag_17\n              jump\t// in\n            tag_16:\n              mload(0x40)\n              dup1\n              swap2\n              sub\n              swap1\n              return\n                /* \"Student/contract/StudentInfo.sol\":1833:1921  function GetStudentId() public view returns (int256) {... */\n            tag_3:\n              callvalue\n              dup1\n              iszero\n              tag_18\n              jumpi\n              revert(0x00, 0x00)\n            tag_18:\n              pop\n              tag_19\n              tag_20\n              jump\t// in\n            tag_19:\n              mload(0x40)\n              tag_21\n              swap2\n              swap1\n              tag_22\n              jump\t// in\n            tag_21:\n              mload(0x40)\n              dup1\n              swap2\n              sub\n              swap1\n              return\n                /* \"Student/contract/StudentInfo.sol\":1569:1692  function SetStudentWallet(int256  _studentId, address _wallet) public {... */\n            tag_4:\n              callvalue\n              dup1\n              iszero\n              tag_23\n              jumpi\n              revert(0x00, 0x00)\n            tag_23:\n              pop\n              tag_24\n              0x04\n              dup1\n              calldatasize\n              sub\n              dup2\n              add\n              swap1\n              tag_25\n              swap2\n              swap1\n              tag_26\n              jump\t// in\n            tag_25:\n              tag_27\n              jump\t// in\n            tag_24:\n              stop\n                /* \"Student/contract/StudentInfo.sol\":762:1336  function SetStudentGrade(int256  _studentId, uint32[3] calldata _grades) public {... */\n            tag_5:\n              callvalue\n              dup1\n              iszero\n              tag_28\n              jumpi\n              revert(0x00, 0x00)\n            tag_28:\n              pop\n              tag_29\n              0x04\n              dup1\n              calldatasize\n              sub\n              dup2\n              add\n              swap1\n              tag_30\n              swap2\n              swap1\n              tag_31\n              jump\t// in\n            tag_30:\n              tag_32\n              jump\t// in\n            tag_29:\n              stop\n                /* \"Student/contract/StudentInfo.sol\":2043:2196  function SetStudentType(StudentType  _type) public  returns (StudentType) {... */\n            tag_6:\n              callvalue\n              dup1\n              iszero\n              tag_33\n              jumpi\n              revert(0x00, 0x00)\n            tag_33:\n              pop\n              tag_34\n              0x04\n              dup1\n              calldatasize\n              sub\n              dup2\n              add\n              swap1\n              tag_35\n              swap2\n              swap1\n              tag_36\n              jump\t// in\n            tag_35:\n              tag_37\n              jump\t// in\n            tag_34:\n              mload(0x40)\n              tag_38\n              swap2\n              swap1\n              tag_39\n              jump\t// in\n            tag_38:\n              mload(0x40)\n              dup1\n              swap2\n              sub\n              swap1\n              return\n                /* \"Student/contract/StudentInfo.sol\":2256:2328  function AddFunds() public payable {... */\n            tag_7:\n              tag_40\n              tag_41\n              jump\t// in\n            tag_40:\n              stop\n                /* \"Student/contract/StudentInfo.sol\":1926:2038  function SetStudentId(int256  _id) public returns (int256) {... */\n            tag_8:\n              callvalue\n              dup1\n              iszero\n              tag_42\n              jumpi\n              revert(0x00, 0x00)\n            tag_42:\n              pop\n              tag_43\n              0x04\n              dup1\n              calldatasize\n              sub\n              dup2\n              add\n              swap1\n              tag_44\n              swap2\n              swap1\n              tag_14\n              jump\t// in\n            tag_44:\n              tag_45\n              jump\t// in\n            tag_43:\n              mload(0x40)\n              tag_46\n              swap2\n              swap1\n              tag_22\n              jump\t// in\n            tag_46:\n              mload(0x40)\n              dup1\n              swap2\n              sub\n              swap1\n              return\n                /* \"Student/contract/StudentInfo.sol\":1697:1823  function GetStudentWallet(int256 _studentId) public view returns (address)  {... */\n            tag_9:\n              callvalue\n              dup1\n              iszero\n              tag_47\n              jumpi\n              revert(0x00, 0x00)\n            tag_47:\n              pop\n              tag_48\n              0x04\n              dup1\n              calldatasize\n              sub\n              dup2\n              add\n              swap1\n              tag_49\n              swap2\n              swap1\n              tag_14\n              jump\t// in\n            tag_49:\n              tag_50\n              jump\t// in\n            tag_48:\n              mload(0x40)\n              tag_51\n              swap2\n              swap1\n              tag_52\n              jump\t// in\n            tag_51:\n              mload(0x40)\n              dup1\n              swap2\n              sub\n              swap1\n              return\n                /* \"Student/contract/StudentInfo.sol\":1387:1517  function GetStudentGrade(int256  _studentId) public view returns (Grade memory) {... */\n            tag_15:\n                /* \"Student/contract/StudentInfo.sol\":1453:1465  Grade memory */\n              tag_53\n              tag_54\n              jump\t// in\n            tag_53:\n                /* \"Student/contract/StudentInfo.sol\":1484:1498  student_grades */\n              0x04\n                /* \"Student/contract/StudentInfo.sol\":1484:1510  student_grades[_studentId] */\n              0x00\n                /* \"Student/contract/StudentInfo.sol\":1499:1509  _studentId */\n              dup4\n                /* \"Student/contract/StudentInfo.sol\":1484:1510  student_grades[_studentId] */\n              dup2\n              mstore\n              0x20\n              add\n              swap1\n              dup2\n              mstore\n              0x20\n              add\n              0x00\n              keccak256\n                /* \"Student/contract/StudentInfo.sol\":1477:1510  return student_grades[_studentId] */\n              mload(0x40)\n              dup1\n              0x60\n              add\n              0x40\n              mstore\n              swap1\n              dup2\n              0x00\n              dup3\n              add\n              0x00\n              swap1\n              sload\n              swap1\n              0x0100\n              exp\n              swap1\n              div\n              0xffffffff\n              and\n              0xffffffff\n              and\n              0xffffffff\n              and\n              dup2\n              mstore\n              0x20\n              add\n              0x00\n              dup3\n              add\n              0x04\n              swap1\n              sload\n              swap1\n              0x0100\n              exp\n              swap1\n              div\n              0xffffffff\n              and\n              0xffffffff\n              and\n              0xffffffff\n              and\n              dup2\n              mstore\n              0x20\n              add\n              0x00\n              dup3\n              add\n              0x08\n              swap1\n              sload\n              swap1\n              0x0100\n              exp\n              swap1\n              div\n              0xffffffff\n              and\n              0xffffffff\n              and\n              0xffffffff\n              and\n              dup2\n              mstore\n              pop\n              pop\n              swap1\n              pop\n                /* \"Student/contract/StudentInfo.sol\":1387:1517  function GetStudentGrade(int256  _studentId) public view returns (Grade memory) {... */\n              swap2\n              swap1\n              pop\n              jump\t// out\n                /* \"Student/contract/StudentInfo.sol\":1833:1921  function GetStudentId() public view returns (int256) {... */\n            tag_20:\n                /* \"Student/contract/StudentInfo.sol\":1878:1884  int256 */\n              0x00\n                /* \"Student/contract/StudentInfo.sol\":1903:1905  id */\n              sload(0x00)\n                /* \"Student/contract/StudentInfo.sol\":1896:1905  return id */\n              swap1\n              pop\n                /* \"Student/contract/StudentInfo.sol\":1833:1921  function GetStudentId() public view returns (int256) {... */\n              swap1\n              jump\t// out\n                /* \"Student/contract/StudentInfo.sol\":1569:1692  function SetStudentWallet(int256  _studentId, address _wallet) public {... */\n            tag_27:\n                /* \"Student/contract/StudentInfo.sol\":1678:1685  _wallet */\n              dup1\n                /* \"Student/contract/StudentInfo.sol\":1649:1663  student_wallet */\n              0x02\n                /* \"Student/contract/StudentInfo.sol\":1649:1675  student_wallet[_studentId] */\n              0x00\n                /* \"Student/contract/StudentInfo.sol\":1664:1674  _studentId */\n              dup5\n                /* \"Student/contract/StudentInfo.sol\":1649:1675  student_wallet[_studentId] */\n              dup2\n              mstore\n              0x20\n              add\n              swap1\n              dup2\n              mstore\n              0x20\n              add\n              0x00\n              keccak256\n              0x00\n                /* \"Student/contract/StudentInfo.sol\":1649:1685  student_wallet[_studentId] = _wallet */\n              0x0100\n              exp\n              dup2\n              sload\n              dup2\n              0xffffffffffffffffffffffffffffffffffffffff\n              mul\n              not\n              and\n              swap1\n              dup4\n              0xffffffffffffffffffffffffffffffffffffffff\n              and\n              mul\n              or\n              swap1\n              sstore\n              pop\n                /* \"Student/contract/StudentInfo.sol\":1569:1692  function SetStudentWallet(int256  _studentId, address _wallet) public {... */\n              pop\n              pop\n              jump\t// out\n                /* \"Student/contract/StudentInfo.sol\":762:1336  function SetStudentGrade(int256  _studentId, uint32[3] calldata _grades) public {... */\n            tag_32:\n                /* \"Student/contract/StudentInfo.sol\":947:950  100 */\n              0x64\n                /* \"Student/contract/StudentInfo.sol\":933:940  _grades */\n              dup2\n                /* \"Student/contract/StudentInfo.sol\":941:942  0 */\n              0x00\n                /* \"Student/contract/StudentInfo.sol\":933:943  _grades[0] */\n              0x03\n              dup2\n              lt\n              tag_59\n              jumpi\n              tag_60\n              tag_61\n              jump\t// in\n            tag_60:\n            tag_59:\n              0x20\n              mul\n              add\n              0x20\n              dup2\n              add\n              swap1\n              tag_62\n              swap2\n              swap1\n              tag_63\n              jump\t// in\n            tag_62:\n                /* \"Student/contract/StudentInfo.sol\":933:950  _grades[0] <= 100 */\n              0xffffffff\n              and\n              gt\n              iszero\n                /* \"Student/contract/StudentInfo.sol\":933:971  _grades[0] <= 100 && _grades[1] <= 100 */\n              dup1\n              iszero\n              tag_64\n              jumpi\n              pop\n                /* \"Student/contract/StudentInfo.sol\":968:971  100 */\n              0x64\n                /* \"Student/contract/StudentInfo.sol\":954:961  _grades */\n              dup2\n                /* \"Student/contract/StudentInfo.sol\":962:963  1 */\n              0x01\n                /* \"Student/contract/StudentInfo.sol\":954:964  _grades[1] */\n              0x03\n              dup2\n              lt\n              tag_65\n              jumpi\n              tag_66\n              tag_61\n              jump\t// in\n            tag_66:\n            tag_65:\n              0x20\n              mul\n              add\n              0x20\n              dup2\n              add\n              swap1\n              tag_67\n              swap2\n              swap1\n              tag_63\n              jump\t// in\n            tag_67:\n                /* \"Student/contract/StudentInfo.sol\":954:971  _grades[1] <= 100 */\n              0xffffffff\n              and\n              gt\n              iszero\n                /* \"Student/contract/StudentInfo.sol\":933:971  _grades[0] <= 100 && _grades[1] <= 100 */\n            tag_64:\n                /* \"Student/contract/StudentInfo.sol\":933:992  _grades[0] <= 100 && _grades[1] <= 100 && _grades[2] <= 100 */\n              dup1\n              iszero\n              tag_68\n              jumpi\n              pop\n                /* \"Student/contract/StudentInfo.sol\":989:992  100 */\n              0x64\n                /* \"Student/contract/StudentInfo.sol\":975:982  _grades */\n              dup2\n                /* \"Student/contract/StudentInfo.sol\":983:984  2 */\n              0x02\n                /* \"Student/contract/StudentInfo.sol\":975:985  _grades[2] */\n              0x03\n              dup2\n              lt\n              tag_69\n              jumpi\n              tag_70\n              tag_61\n              jump\t// in\n            tag_70:\n            tag_69:\n              0x20\n              mul\n              add\n              0x20\n              dup2\n              add\n              swap1\n              tag_71\n              swap2\n              swap1\n              tag_63\n              jump\t// in\n            tag_71:\n                /* \"Student/contract/StudentInfo.sol\":975:992  _grades[2] <= 100 */\n              0xffffffff\n              and\n              gt\n              iszero\n                /* \"Student/contract/StudentInfo.sol\":933:992  _grades[0] <= 100 && _grades[1] <= 100 && _grades[2] <= 100 */\n            tag_68:\n                /* \"Student/contract/StudentInfo.sol\":925:1017  require(_grades[0] <= 100 && _grades[1] <= 100 && _grades[2] <= 100, \"Marks must be <= 100\") */\n              tag_72\n              jumpi\n              mload(0x40)\n              0x08c379a000000000000000000000000000000000000000000000000000000000\n              dup2\n              mstore\n              0x04\n              add\n              tag_73\n              swap1\n              tag_74\n              jump\t// in\n            tag_73:\n              mload(0x40)\n              dup1\n              swap2\n              sub\n              swap1\n              revert\n            tag_72:\n                /* \"Student/contract/StudentInfo.sol\":1104:1214  Grade({... */\n              mload(0x40)\n              dup1\n              0x60\n              add\n              0x40\n              mstore\n              dup1\n                /* \"Student/contract/StudentInfo.sol\":1131:1138  _grades */\n              dup3\n                /* \"Student/contract/StudentInfo.sol\":1139:1140  0 */\n              0x00\n                /* \"Student/contract/StudentInfo.sol\":1131:1141  _grades[0] */\n              0x03\n              dup2\n              lt\n              tag_75\n              jumpi\n              tag_76\n              tag_61\n              jump\t// in\n            tag_76:\n            tag_75:\n              0x20\n              mul\n              add\n              0x20\n              dup2\n              add\n              swap1\n              tag_77\n              swap2\n              swap1\n              tag_63\n              jump\t// in\n            tag_77:\n                /* \"Student/contract/StudentInfo.sol\":1104:1214  Grade({... */\n              0xffffffff\n              and\n              dup2\n              mstore\n              0x20\n              add\n                /* \"Student/contract/StudentInfo.sol\":1162:1169  _grades */\n              dup3\n                /* \"Student/contract/StudentInfo.sol\":1170:1171  1 */\n              0x01\n                /* \"Student/contract/StudentInfo.sol\":1162:1172  _grades[1] */\n              0x03\n              dup2\n              lt\n              tag_78\n              jumpi\n              tag_79\n              tag_61\n              jump\t// in\n            tag_79:\n            tag_78:\n              0x20\n              mul\n              add\n              0x20\n              dup2\n              add\n              swap1\n              tag_80\n              swap2\n              swap1\n              tag_63\n              jump\t// in\n            tag_80:\n                /* \"Student/contract/StudentInfo.sol\":1104:1214  Grade({... */\n              0xffffffff\n              and\n              dup2\n              mstore\n              0x20\n              add\n                /* \"Student/contract/StudentInfo.sol\":1193:1200  _grades */\n              dup3\n                /* \"Student/contract/StudentInfo.sol\":1201:1202  2 */\n              0x02\n                /* \"Student/contract/StudentInfo.sol\":1193:1203  _grades[2] */\n              0x03\n              dup2\n              lt\n              tag_81\n              jumpi\n              tag_82\n              tag_61\n              jump\t// in\n            tag_82:\n            tag_81:\n              0x20\n              mul\n              add\n              0x20\n              dup2\n              add\n              swap1\n              tag_83\n              swap2\n              swap1\n              tag_63\n              jump\t// in\n            tag_83:\n                /* \"Student/contract/StudentInfo.sol\":1104:1214  Grade({... */\n              0xffffffff\n              and\n              dup2\n              mstore\n              pop\n                /* \"Student/contract/StudentInfo.sol\":1075:1089  student_grades */\n              0x04\n                /* \"Student/contract/StudentInfo.sol\":1075:1101  student_grades[_studentId] */\n              0x00\n                /* \"Student/contract/StudentInfo.sol\":1090:1100  _studentId */\n              dup5\n                /* \"Student/contract/StudentInfo.sol\":1075:1101  student_grades[_studentId] */\n              dup2\n              mstore\n              0x20\n              add\n              swap1\n              dup2\n              mstore\n              0x20\n              add\n              0x00\n              keccak256\n                /* \"Student/contract/StudentInfo.sol\":1075:1214  student_grades[_studentId] = Grade({... */\n              0x00\n              dup3\n              add\n              mload\n              dup2\n              0x00\n              add\n              exp(0x0100, 0x00)\n              dup2\n              sload\n              dup2\n              0xffffffff\n              mul\n              not\n              and\n              swap1\n              dup4\n              0xffffffff\n              and\n              mul\n              or\n              swap1\n              sstore\n              pop\n              0x20\n              dup3\n              add\n              mload\n              dup2\n              0x00\n              add\n              exp(0x0100, 0x04)\n              dup2\n              sload\n              dup2\n              0xffffffff\n              mul\n              not\n              and\n              swap1\n              dup4\n              0xffffffff\n              and\n              mul\n              or\n              swap1\n              sstore\n              pop\n              0x40\n              dup3\n              add\n              mload\n              dup2\n              0x00\n              add\n              exp(0x0100, 0x08)\n              dup2\n              sload\n              dup2\n              0xffffffff\n              mul\n              not\n              and\n              swap1\n              dup4\n              0xffffffff\n              and\n              mul\n              or\n              swap1\n              sstore\n              pop\n              swap1\n              pop\n              pop\n                /* \"Student/contract/StudentInfo.sol\":1269:1329  GradeUpdated(_studentId, _grades[0], _grades[1], _grades[2]) */\n              0x15f0028b62fa7401dabd6a17ae086f7743f7b7bc60401477e82994d7b8c6a156\n                /* \"Student/contract/StudentInfo.sol\":1282:1292  _studentId */\n              dup3\n                /* \"Student/contract/StudentInfo.sol\":1294:1301  _grades */\n              dup3\n                /* \"Student/contract/StudentInfo.sol\":1302:1303  0 */\n              0x00\n                /* \"Student/contract/StudentInfo.sol\":1294:1304  _grades[0] */\n              0x03\n              dup2\n              lt\n              tag_84\n              jumpi\n              tag_85\n              tag_61\n              jump\t// in\n            tag_85:\n            tag_84:\n              0x20\n              mul\n              add\n              0x20\n              dup2\n              add\n              swap1\n              tag_86\n              swap2\n              swap1\n              tag_63\n              jump\t// in\n            tag_86:\n                /* \"Student/contract/StudentInfo.sol\":1306:1313  _grades */\n              dup4\n                /* \"Student/contract/StudentInfo.sol\":1314:1315  1 */\n              0x01\n                /* \"Student/contract/StudentInfo.sol\":1306:1316  _grades[1] */\n              0x03\n              dup2\n              lt\n              tag_87\n              jumpi\n              tag_88\n              tag_61\n              jump\t// in\n            tag_88:\n            tag_87:\n              0x20\n              mul\n              add\n              0x20\n              dup2\n              add\n              swap1\n              tag_89\n              swap2\n              swap1\n              tag_63\n              jump\t// in\n            tag_89:\n                /* \"Student/contract/StudentInfo.sol\":1318:1325  _grades */\n              dup5\n                /* \"Student/contract/StudentInfo.sol\":1326:1327  2 */\n              0x02\n                /* \"Student/contract/StudentInfo.sol\":1318:1328  _grades[2] */\n              0x03\n              dup2\n              lt\n              tag_90\n              jumpi\n              tag_91\n              tag_61\n              jump\t// in\n            tag_91:\n            tag_90:\n              0x20\n              mul\n              add\n              0x20\n              dup2\n              add\n              swap1\n              tag_92\n              swap2\n              swap1\n              tag_63\n              jump\t// in\n            tag_92:\n                /* \"Student/contract/StudentInfo.sol\":1269:1329  GradeUpdated(_studentId, _grades[0], _grades[1], _grades[2]) */\n              mload(0x40)\n              tag_93\n              swap5\n              swap4\n              swap3\n              swap2\n              swap1\n              tag_94\n              jump\t// in\n            tag_93:\n              mload(0x40)\n              dup1\n              swap2\n              sub\n              swap1\n              log1\n                /* \"Student/contract/StudentInfo.sol\":762:1336  function SetStudentGrade(int256  _studentId, uint32[3] calldata _grades) public {... */\n              pop\n              pop\n              jump\t// out\n                /* \"Student/contract/StudentInfo.sol\":2043:2196  function SetStudentType(StudentType  _type) public  returns (StudentType) {... */\n            tag_37:\n                /* \"Student/contract/StudentInfo.sol\":2104:2115  StudentType */\n              0x00\n                /* \"Student/contract/StudentInfo.sol\":2151:2156  _type */\n              dup2\n                /* \"Student/contract/StudentInfo.sol\":2136:2148  student_type */\n              0x01\n              0x00\n                /* \"Student/contract/StudentInfo.sol\":2136:2156  student_type = _type */\n              0x0100\n              exp\n              dup2\n              sload\n              dup2\n              0xff\n              mul\n              not\n              and\n              swap1\n              dup4\n              0x02\n              dup2\n              gt\n              iszero\n              tag_96\n              jumpi\n              tag_97\n              tag_98\n              jump\t// in\n            tag_97:\n            tag_96:\n              mul\n              or\n              swap1\n              sstore\n              pop\n                /* \"Student/contract/StudentInfo.sol\":2174:2186  student_type */\n              0x01\n              0x00\n              swap1\n              sload\n              swap1\n              0x0100\n              exp\n              swap1\n              div\n              0xff\n              and\n                /* \"Student/contract/StudentInfo.sol\":2167:2186  return student_type */\n              swap1\n              pop\n                /* \"Student/contract/StudentInfo.sol\":2043:2196  function SetStudentType(StudentType  _type) public  returns (StudentType) {... */\n              swap2\n              swap1\n              pop\n              jump\t// out\n                /* \"Student/contract/StudentInfo.sol\":2256:2328  function AddFunds() public payable {... */\n            tag_41:\n                /* \"Student/contract/StudentInfo.sol\":2312:2321  msg.value */\n              callvalue\n                /* \"Student/contract/StudentInfo.sol\":2301:2308  balance */\n              0x03\n              0x00\n                /* \"Student/contract/StudentInfo.sol\":2301:2321  balance += msg.value */\n              dup3\n              dup3\n              sload\n              tag_100\n              swap2\n              swap1\n              tag_101\n              jump\t// in\n            tag_100:\n              swap3\n              pop\n              pop\n              dup2\n              swap1\n              sstore\n              pop\n                /* \"Student/contract/StudentInfo.sol\":2256:2328  function AddFunds() public payable {... */\n              jump\t// out\n                /* \"Student/contract/StudentInfo.sol\":1926:2038  function SetStudentId(int256  _id) public returns (int256) {... */\n            tag_45:\n                /* \"Student/contract/StudentInfo.sol\":1977:1983  int256 */\n              0x00\n                /* \"Student/contract/StudentInfo.sol\":2000:2003  _id */\n              dup2\n                /* \"Student/contract/StudentInfo.sol\":1995:1997  id */\n              0x00\n                /* \"Student/contract/StudentInfo.sol\":1995:2003  id = _id */\n              dup2\n              swap1\n              sstore\n              pop\n                /* \"Student/contract/StudentInfo.sol\":2020:2022  id */\n              sload(0x00)\n                /* \"Student/contract/StudentInfo.sol\":2013:2022  return id */\n              swap1\n              pop\n                /* \"Student/contract/StudentInfo.sol\":1926:2038  function SetStudentId(int256  _id) public returns (int256) {... */\n              swap2\n              swap1\n              pop\n              jump\t// out\n                /* \"Student/contract/StudentInfo.sol\":1697:1823  function GetStudentWallet(int256 _studentId) public view returns (address)  {... */\n            tag_50:\n                /* \"Student/contract/StudentInfo.sol\":1763:1770  address */\n              0x00\n                /* \"Student/contract/StudentInfo.sol\":1790:1804  student_wallet */\n              0x02\n                /* \"Student/contract/StudentInfo.sol\":1790:1816  student_wallet[_studentId] */\n              0x00\n                /* \"Student/contract/StudentInfo.sol\":1805:1815  _studentId */\n              dup4\n                /* \"Student/contract/StudentInfo.sol\":1790:1816  student_wallet[_studentId] */\n              dup2\n              mstore\n              0x20\n              add\n              swap1\n              dup2\n              mstore\n              0x20\n              add\n              0x00\n              keccak256\n              0x00\n              swap1\n              sload\n              swap1\n              0x0100\n              exp\n              swap1\n              div\n              0xffffffffffffffffffffffffffffffffffffffff\n              and\n                /* \"Student/contract/StudentInfo.sol\":1783:1816  return student_wallet[_studentId] */\n              swap1\n              pop\n                /* \"Student/contract/StudentInfo.sol\":1697:1823  function GetStudentWallet(int256 _studentId) public view returns (address)  {... */\n              swap2\n              swap1\n              pop\n              jump\t// out\n            tag_54:\n              mload(0x40)\n              dup1\n              0x60\n              add\n              0x40\n              mstore\n              dup1\n              and(0xffffffff, 0x00)\n              dup2\n              mstore\n              0x20\n              add\n              and(0xffffffff, 0x00)\n              dup2\n              mstore\n              0x20\n              add\n              and(0xffffffff, 0x00)\n              dup2\n              mstore\n              pop\n              swap1\n              jump\t// out\n                /* \"#utility.yul\":88:205   */\n            tag_105:\n                /* \"#utility.yul\":197:198   */\n              0x00\n                /* \"#utility.yul\":194:195   */\n              0x00\n                /* \"#utility.yul\":187:199   */\n              revert\n                /* \"#utility.yul\":334:410   */\n            tag_107:\n                /* \"#utility.yul\":370:377   */\n              0x00\n                /* \"#utility.yul\":399:404   */\n              dup2\n                /* \"#utility.yul\":388:404   */\n              swap1\n              pop\n                /* \"#utility.yul\":334:410   */\n              swap2\n              swap1\n              pop\n              jump\t// out\n                /* \"#utility.yul\":416:536   */\n            tag_108:\n                /* \"#utility.yul\":488:511   */\n              tag_141\n                /* \"#utility.yul\":505:510   */\n              dup2\n                /* \"#utility.yul\":488:511   */\n              tag_107\n              jump\t// in\n            tag_141:\n                /* \"#utility.yul\":481:486   */\n              dup2\n                /* \"#utility.yul\":478:512   */\n              eq\n                /* \"#utility.yul\":468:530   */\n              tag_142\n              jumpi\n                /* \"#utility.yul\":526:527   */\n              0x00\n                /* \"#utility.yul\":523:524   */\n              0x00\n                /* \"#utility.yul\":516:528   */\n              revert\n                /* \"#utility.yul\":468:530   */\n            tag_142:\n                /* \"#utility.yul\":416:536   */\n              pop\n              jump\t// out\n                /* \"#utility.yul\":542:679   */\n            tag_109:\n                /* \"#utility.yul\":587:592   */\n              0x00\n                /* \"#utility.yul\":625:631   */\n              dup2\n                /* \"#utility.yul\":612:632   */\n              calldataload\n                /* \"#utility.yul\":603:632   */\n              swap1\n              pop\n                /* \"#utility.yul\":641:673   */\n              tag_144\n                /* \"#utility.yul\":667:672   */\n              dup2\n                /* \"#utility.yul\":641:673   */\n              tag_108\n              jump\t// in\n            tag_144:\n                /* \"#utility.yul\":542:679   */\n              swap3\n              swap2\n              pop\n              pop\n              jump\t// out\n                /* \"#utility.yul\":685:1012   */\n            tag_14:\n                /* \"#utility.yul\":743:749   */\n              0x00\n                /* \"#utility.yul\":792:794   */\n              0x20\n                /* \"#utility.yul\":780:789   */\n              dup3\n                /* \"#utility.yul\":771:778   */\n              dup5\n                /* \"#utility.yul\":767:790   */\n              sub\n                /* \"#utility.yul\":763:795   */\n              slt\n                /* \"#utility.yul\":760:879   */\n              iszero\n              tag_146\n              jumpi\n                /* \"#utility.yul\":798:877   */\n              tag_147\n              tag_105\n              jump\t// in\n            tag_147:\n                /* \"#utility.yul\":760:879   */\n            tag_146:\n                /* \"#utility.yul\":918:919   */\n              0x00\n                /* \"#utility.yul\":943:995   */\n              tag_148\n                /* \"#utility.yul\":987:994   */\n              dup5\n                /* \"#utility.yul\":978:984   */\n              dup3\n                /* \"#utility.yul\":967:976   */\n              dup6\n                /* \"#utility.yul\":963:985   */\n              add\n                /* \"#utility.yul\":943:995   */\n              tag_109\n              jump\t// in\n            tag_148:\n                /* \"#utility.yul\":933:995   */\n              swap2\n              pop\n                /* \"#utility.yul\":889:1005   */\n              pop\n                /* \"#utility.yul\":685:1012   */\n              swap3\n              swap2\n              pop\n              pop\n              jump\t// out\n                /* \"#utility.yul\":1018:1111   */\n            tag_110:\n                /* \"#utility.yul\":1054:1061   */\n              0x00\n                /* \"#utility.yul\":1094:1104   */\n              0xffffffff\n                /* \"#utility.yul\":1087:1092   */\n              dup3\n                /* \"#utility.yul\":1083:1105   */\n              and\n                /* \"#utility.yul\":1072:1105   */\n              swap1\n              pop\n                /* \"#utility.yul\":1018:1111   */\n              swap2\n              swap1\n              pop\n              jump\t// out\n                /* \"#utility.yul\":1117:1222   */\n            tag_111:\n                /* \"#utility.yul\":1192:1215   */\n              tag_151\n                /* \"#utility.yul\":1209:1214   */\n              dup2\n                /* \"#utility.yul\":1192:1215   */\n              tag_110\n              jump\t// in\n            tag_151:\n                /* \"#utility.yul\":1187:1190   */\n              dup3\n                /* \"#utility.yul\":1180:1216   */\n              mstore\n                /* \"#utility.yul\":1117:1222   */\n              pop\n              pop\n              jump\t// out\n                /* \"#utility.yul\":1264:1936   */\n            tag_112:\n                /* \"#utility.yul\":1405:1409   */\n              0x60\n                /* \"#utility.yul\":1400:1403   */\n              dup3\n                /* \"#utility.yul\":1396:1410   */\n              add\n                /* \"#utility.yul\":1493:1497   */\n              0x00\n                /* \"#utility.yul\":1486:1491   */\n              dup3\n                /* \"#utility.yul\":1482:1498   */\n              add\n                /* \"#utility.yul\":1476:1499   */\n              mload\n                /* \"#utility.yul\":1512:1573   */\n              tag_153\n                /* \"#utility.yul\":1567:1571   */\n              0x00\n                /* \"#utility.yul\":1562:1565   */\n              dup6\n                /* \"#utility.yul\":1558:1572   */\n              add\n                /* \"#utility.yul\":1544:1556   */\n              dup3\n                /* \"#utility.yul\":1512:1573   */\n              tag_111\n              jump\t// in\n            tag_153:\n                /* \"#utility.yul\":1420:1583   */\n              pop\n                /* \"#utility.yul\":1666:1670   */\n              0x20\n                /* \"#utility.yul\":1659:1664   */\n              dup3\n                /* \"#utility.yul\":1655:1671   */\n              add\n                /* \"#utility.yul\":1649:1672   */\n              mload\n                /* \"#utility.yul\":1685:1746   */\n              tag_154\n                /* \"#utility.yul\":1740:1744   */\n              0x20\n                /* \"#utility.yul\":1735:1738   */\n              dup6\n                /* \"#utility.yul\":1731:1745   */\n              add\n                /* \"#utility.yul\":1717:1729   */\n              dup3\n                /* \"#utility.yul\":1685:1746   */\n              tag_111\n              jump\t// in\n            tag_154:\n                /* \"#utility.yul\":1593:1756   */\n              pop\n                /* \"#utility.yul\":1839:1843   */\n              0x40\n                /* \"#utility.yul\":1832:1837   */\n              dup3\n                /* \"#utility.yul\":1828:1844   */\n              add\n                /* \"#utility.yul\":1822:1845   */\n              mload\n                /* \"#utility.yul\":1858:1919   */\n              tag_155\n                /* \"#utility.yul\":1913:1917   */\n              0x40\n                /* \"#utility.yul\":1908:1911   */\n              dup6\n                /* \"#utility.yul\":1904:1918   */\n              add\n                /* \"#utility.yul\":1890:1902   */\n              dup3\n                /* \"#utility.yul\":1858:1919   */\n              tag_111\n              jump\t// in\n            tag_155:\n                /* \"#utility.yul\":1766:1929   */\n              pop\n                /* \"#utility.yul\":1374:1936   */\n              pop\n                /* \"#utility.yul\":1264:1936   */\n              pop\n              pop\n              jump\t// out\n                /* \"#utility.yul\":1942:2252   */\n            tag_17:\n                /* \"#utility.yul\":2079:2083   */\n              0x00\n                /* \"#utility.yul\":2117:2119   */\n              0x60\n                /* \"#utility.yul\":2106:2115   */\n              dup3\n                /* \"#utility.yul\":2102:2120   */\n              add\n                /* \"#utility.yul\":2094:2120   */\n              swap1\n              pop\n                /* \"#utility.yul\":2130:2245   */\n              tag_157\n                /* \"#utility.yul\":2242:2243   */\n              0x00\n                /* \"#utility.yul\":2231:2240   */\n              dup4\n                /* \"#utility.yul\":2227:2244   */\n              add\n                /* \"#utility.yul\":2218:2224   */\n              dup5\n                /* \"#utility.yul\":2130:2245   */\n              tag_112\n              jump\t// in\n            tag_157:\n                /* \"#utility.yul\":1942:2252   */\n              swap3\n              swap2\n              pop\n              pop\n              jump\t// out\n                /* \"#utility.yul\":2258:2373   */\n            tag_113:\n                /* \"#utility.yul\":2343:2366   */\n              tag_159\n                /* \"#utility.yul\":2360:2365   */\n              dup2\n                /* \"#utility.yul\":2343:2366   */\n              tag_107\n              jump\t// in\n            tag_159:\n                /* \"#utility.yul\":2338:2341   */\n              dup3\n                /* \"#utility.yul\":2331:2367   */\n              mstore\n                /* \"#utility.yul\":2258:2373   */\n              pop\n              pop\n              jump\t// out\n                /* \"#utility.yul\":2379:2597   */\n            tag_22:\n                /* \"#utility.yul\":2470:2474   */\n              0x00\n                /* \"#utility.yul\":2508:2510   */\n              0x20\n                /* \"#utility.yul\":2497:2506   */\n              dup3\n                /* \"#utility.yul\":2493:2511   */\n              add\n                /* \"#utility.yul\":2485:2511   */\n              swap1\n              pop\n                /* \"#utility.yul\":2521:2590   */\n              tag_161\n                /* \"#utility.yul\":2587:2588   */\n              0x00\n                /* \"#utility.yul\":2576:2585   */\n              dup4\n                /* \"#utility.yul\":2572:2589   */\n              add\n                /* \"#utility.yul\":2563:2569   */\n              dup5\n                /* \"#utility.yul\":2521:2590   */\n              tag_113\n              jump\t// in\n            tag_161:\n                /* \"#utility.yul\":2379:2597   */\n              swap3\n              swap2\n              pop\n              pop\n              jump\t// out\n                /* \"#utility.yul\":2603:2729   */\n            tag_114:\n                /* \"#utility.yul\":2640:2647   */\n              0x00\n                /* \"#utility.yul\":2680:2722   */\n              0xffffffffffffffffffffffffffffffffffffffff\n                /* \"#utility.yul\":2673:2678   */\n              dup3\n                /* \"#utility.yul\":2669:2723   */\n              and\n                /* \"#utility.yul\":2658:2723   */\n              swap1\n              pop\n                /* \"#utility.yul\":2603:2729   */\n              swap2\n              swap1\n              pop\n              jump\t// out\n                /* \"#utility.yul\":2735:2831   */\n            tag_115:\n                /* \"#utility.yul\":2772:2779   */\n              0x00\n                /* \"#utility.yul\":2801:2825   */\n              tag_164\n                /* \"#utility.yul\":2819:2824   */\n              dup3\n                /* \"#utility.yul\":2801:2825   */\n              tag_114\n              jump\t// in\n            tag_164:\n                /* \"#utility.yul\":2790:2825   */\n              swap1\n              pop\n                /* \"#utility.yul\":2735:2831   */\n              swap2\n              swap1\n              pop\n              jump\t// out\n                /* \"#utility.yul\":2837:2959   */\n            tag_116:\n                /* \"#utility.yul\":2910:2934   */\n              tag_166\n                /* \"#utility.yul\":2928:2933   */\n              dup2\n                /* \"#utility.yul\":2910:2934   */\n              tag_115\n              jump\t// in\n            tag_166:\n                /* \"#utility.yul\":2903:2908   */\n              dup2\n                /* \"#utility.yul\":2900:2935   */\n              eq\n                /* \"#utility.yul\":2890:2953   */\n              tag_167\n              jumpi\n                /* \"#utility.yul\":2949:2950   */\n              0x00\n                /* \"#utility.yul\":2946:2947   */\n              0x00\n                /* \"#utility.yul\":2939:2951   */\n              revert\n                /* \"#utility.yul\":2890:2953   */\n            tag_167:\n                /* \"#utility.yul\":2837:2959   */\n              pop\n              jump\t// out\n                /* \"#utility.yul\":2965:3104   */\n            tag_117:\n                /* \"#utility.yul\":3011:3016   */\n              0x00\n                /* \"#utility.yul\":3049:3055   */\n              dup2\n                /* \"#utility.yul\":3036:3056   */\n              calldataload\n                /* \"#utility.yul\":3027:3056   */\n              swap1\n              pop\n                /* \"#utility.yul\":3065:3098   */\n              tag_169\n                /* \"#utility.yul\":3092:3097   */\n              dup2\n                /* \"#utility.yul\":3065:3098   */\n              tag_116\n              jump\t// in\n            tag_169:\n                /* \"#utility.yul\":2965:3104   */\n              swap3\n              swap2\n              pop\n              pop\n              jump\t// out\n                /* \"#utility.yul\":3110:3582   */\n            tag_26:\n                /* \"#utility.yul\":3177:3183   */\n              0x00\n                /* \"#utility.yul\":3185:3191   */\n              0x00\n                /* \"#utility.yul\":3234:3236   */\n              0x40\n                /* \"#utility.yul\":3222:3231   */\n              dup4\n                /* \"#utility.yul\":3213:3220   */\n              dup6\n                /* \"#utility.yul\":3209:3232   */\n              sub\n                /* \"#utility.yul\":3205:3237   */\n              slt\n                /* \"#utility.yul\":3202:3321   */\n              iszero\n              tag_171\n              jumpi\n                /* \"#utility.yul\":3240:3319   */\n              tag_172\n              tag_105\n              jump\t// in\n            tag_172:\n                /* \"#utility.yul\":3202:3321   */\n            tag_171:\n                /* \"#utility.yul\":3360:3361   */\n              0x00\n                /* \"#utility.yul\":3385:3437   */\n              tag_173\n                /* \"#utility.yul\":3429:3436   */\n              dup6\n                /* \"#utility.yul\":3420:3426   */\n              dup3\n                /* \"#utility.yul\":3409:3418   */\n              dup7\n                /* \"#utility.yul\":3405:3427   */\n              add\n                /* \"#utility.yul\":3385:3437   */\n              tag_109\n              jump\t// in\n            tag_173:\n                /* \"#utility.yul\":3375:3437   */\n              swap3\n              pop\n                /* \"#utility.yul\":3331:3447   */\n              pop\n                /* \"#utility.yul\":3486:3488   */\n              0x20\n                /* \"#utility.yul\":3512:3565   */\n              tag_174\n                /* \"#utility.yul\":3557:3564   */\n              dup6\n                /* \"#utility.yul\":3548:3554   */\n              dup3\n                /* \"#utility.yul\":3537:3546   */\n              dup7\n                /* \"#utility.yul\":3533:3555   */\n              add\n                /* \"#utility.yul\":3512:3565   */\n              tag_117\n              jump\t// in\n            tag_174:\n                /* \"#utility.yul\":3502:3565   */\n              swap2\n              pop\n                /* \"#utility.yul\":3457:3575   */\n              pop\n                /* \"#utility.yul\":3110:3582   */\n              swap3\n              pop\n              swap3\n              swap1\n              pop\n              jump\t// out\n                /* \"#utility.yul\":3588:3705   */\n            tag_118:\n                /* \"#utility.yul\":3697:3698   */\n              0x00\n                /* \"#utility.yul\":3694:3695   */\n              0x00\n                /* \"#utility.yul\":3687:3699   */\n              revert\n                /* \"#utility.yul\":3728:3976   */\n            tag_119:\n                /* \"#utility.yul\":3798:3806   */\n              0x00\n                /* \"#utility.yul\":3829:3835   */\n              dup2\n                /* \"#utility.yul\":3817:3835   */\n              swap1\n              pop\n                /* \"#utility.yul\":3882:3885   */\n              dup3\n                /* \"#utility.yul\":3874:3878   */\n              0x20\n                /* \"#utility.yul\":3868:3872   */\n              0x03\n                /* \"#utility.yul\":3864:3879   */\n              mul\n                /* \"#utility.yul\":3854:3862   */\n              dup3\n                /* \"#utility.yul\":3850:3880   */\n              add\n                /* \"#utility.yul\":3847:3886   */\n              gt\n                /* \"#utility.yul\":3844:3970   */\n              iszero\n              tag_177\n              jumpi\n                /* \"#utility.yul\":3889:3968   */\n              tag_178\n              tag_118\n              jump\t// in\n            tag_178:\n                /* \"#utility.yul\":3844:3970   */\n            tag_177:\n                /* \"#utility.yul\":3728:3976   */\n              swap3\n              swap2\n              pop\n              pop\n              jump\t// out\n                /* \"#utility.yul\":3982:4503   */\n            tag_31:\n                /* \"#utility.yul\":4073:4079   */\n              0x00\n                /* \"#utility.yul\":4081:4087   */\n              0x00\n                /* \"#utility.yul\":4130:4133   */\n              0x80\n                /* \"#utility.yul\":4118:4127   */\n              dup4\n                /* \"#utility.yul\":4109:4116   */\n              dup6\n                /* \"#utility.yul\":4105:4128   */\n              sub\n                /* \"#utility.yul\":4101:4134   */\n              slt\n                /* \"#utility.yul\":4098:4218   */\n              iszero\n              tag_180\n              jumpi\n                /* \"#utility.yul\":4137:4216   */\n              tag_181\n              tag_105\n              jump\t// in\n            tag_181:\n                /* \"#utility.yul\":4098:4218   */\n            tag_180:\n                /* \"#utility.yul\":4257:4258   */\n              0x00\n                /* \"#utility.yul\":4282:4334   */\n              tag_182\n                /* \"#utility.yul\":4326:4333   */\n              dup6\n                /* \"#utility.yul\":4317:4323   */\n              dup3\n                /* \"#utility.yul\":4306:4315   */\n              dup7\n                /* \"#utility.yul\":4302:4324   */\n              add\n                /* \"#utility.yul\":4282:4334   */\n              tag_109\n              jump\t// in\n            tag_182:\n                /* \"#utility.yul\":4272:4334   */\n              swap3\n              pop\n                /* \"#utility.yul\":4228:4344   */\n              pop\n                /* \"#utility.yul\":4383:4385   */\n              0x20\n                /* \"#utility.yul\":4409:4486   */\n              tag_183\n                /* \"#utility.yul\":4478:4485   */\n              dup6\n                /* \"#utility.yul\":4469:4475   */\n              dup3\n                /* \"#utility.yul\":4458:4467   */\n              dup7\n                /* \"#utility.yul\":4454:4476   */\n              add\n                /* \"#utility.yul\":4409:4486   */\n              tag_119\n              jump\t// in\n            tag_183:\n                /* \"#utility.yul\":4399:4486   */\n              swap2\n              pop\n                /* \"#utility.yul\":4354:4496   */\n              pop\n                /* \"#utility.yul\":3982:4503   */\n              swap3\n              pop\n              swap3\n              swap1\n              pop\n              jump\t// out\n                /* \"#utility.yul\":4509:4623   */\n            tag_120:\n                /* \"#utility.yul\":4597:4598   */\n              0x03\n                /* \"#utility.yul\":4590:4595   */\n              dup2\n                /* \"#utility.yul\":4587:4599   */\n              lt\n                /* \"#utility.yul\":4577:4617   */\n              tag_185\n              jumpi\n                /* \"#utility.yul\":4613:4614   */\n              0x00\n                /* \"#utility.yul\":4610:4611   */\n              0x00\n                /* \"#utility.yul\":4603:4615   */\n              revert\n                /* \"#utility.yul\":4577:4617   */\n            tag_185:\n                /* \"#utility.yul\":4509:4623   */\n              pop\n              jump\t// out\n                /* \"#utility.yul\":4629:4798   */\n            tag_121:\n                /* \"#utility.yul\":4690:4695   */\n              0x00\n                /* \"#utility.yul\":4728:4734   */\n              dup2\n                /* \"#utility.yul\":4715:4735   */\n              calldataload\n                /* \"#utility.yul\":4706:4735   */\n              swap1\n              pop\n                /* \"#utility.yul\":4744:4792   */\n              tag_187\n                /* \"#utility.yul\":4786:4791   */\n              dup2\n                /* \"#utility.yul\":4744:4792   */\n              tag_120\n              jump\t// in\n            tag_187:\n                /* \"#utility.yul\":4629:4798   */\n              swap3\n              swap2\n              pop\n              pop\n              jump\t// out\n                /* \"#utility.yul\":4804:5163   */\n            tag_36:\n                /* \"#utility.yul\":4878:4884   */\n              0x00\n                /* \"#utility.yul\":4927:4929   */\n              0x20\n                /* \"#utility.yul\":4915:4924   */\n              dup3\n                /* \"#utility.yul\":4906:4913   */\n              dup5\n                /* \"#utility.yul\":4902:4925   */\n              sub\n                /* \"#utility.yul\":4898:4930   */\n              slt\n                /* \"#utility.yul\":4895:5014   */\n              iszero\n              tag_189\n              jumpi\n                /* \"#utility.yul\":4933:5012   */\n              tag_190\n              tag_105\n              jump\t// in\n            tag_190:\n                /* \"#utility.yul\":4895:5014   */\n            tag_189:\n                /* \"#utility.yul\":5053:5054   */\n              0x00\n                /* \"#utility.yul\":5078:5146   */\n              tag_191\n                /* \"#utility.yul\":5138:5145   */\n              dup5\n                /* \"#utility.yul\":5129:5135   */\n              dup3\n                /* \"#utility.yul\":5118:5127   */\n              dup6\n                /* \"#utility.yul\":5114:5136   */\n              add\n                /* \"#utility.yul\":5078:5146   */\n              tag_121\n              jump\t// in\n            tag_191:\n                /* \"#utility.yul\":5068:5146   */\n              swap2\n              pop\n                /* \"#utility.yul\":5024:5156   */\n              pop\n                /* \"#utility.yul\":4804:5163   */\n              swap3\n              swap2\n              pop\n              pop\n              jump\t// out\n                /* \"#utility.yul\":5169:5349   */\n            tag_98:\n                /* \"#utility.yul\":5217:5294   */\n              0x4e487b7100000000000000000000000000000000000000000000000000000000\n                /* \"#utility.yul\":5214:5215   */\n              0x00\n                /* \"#utility.yul\":5207:5295   */\n              mstore\n                /* \"#utility.yul\":5314:5318   */\n              0x21\n                /* \"#utility.yul\":5311:5312   */\n              0x04\n                /* \"#utility.yul\":5304:5319   */\n              mstore\n                /* \"#utility.yul\":5338:5342   */\n              0x24\n                /* \"#utility.yul\":5335:5336   */\n              0x00\n                /* \"#utility.yul\":5328:5343   */\n              revert\n                /* \"#utility.yul\":5355:5475   */\n            tag_122:\n                /* \"#utility.yul\":5443:5444   */\n              0x03\n                /* \"#utility.yul\":5436:5441   */\n              dup2\n                /* \"#utility.yul\":5433:5445   */\n              lt\n                /* \"#utility.yul\":5423:5469   */\n              tag_194\n              jumpi\n                /* \"#utility.yul\":5449:5467   */\n              tag_195\n              tag_98\n              jump\t// in\n            tag_195:\n                /* \"#utility.yul\":5423:5469   */\n            tag_194:\n                /* \"#utility.yul\":5355:5475   */\n              pop\n              jump\t// out\n                /* \"#utility.yul\":5481:5622   */\n            tag_123:\n                /* \"#utility.yul\":5533:5540   */\n              0x00\n                /* \"#utility.yul\":5562:5567   */\n              dup2\n                /* \"#utility.yul\":5551:5567   */\n              swap1\n              pop\n                /* \"#utility.yul\":5568:5616   */\n              tag_197\n                /* \"#utility.yul\":5610:5615   */\n              dup3\n                /* \"#utility.yul\":5568:5616   */\n              tag_122\n              jump\t// in\n            tag_197:\n                /* \"#utility.yul\":5481:5622   */\n              swap2\n              swap1\n              pop\n              jump\t// out\n                /* \"#utility.yul\":5628:5769   */\n            tag_124:\n                /* \"#utility.yul\":5691:5700   */\n              0x00\n                /* \"#utility.yul\":5724:5763   */\n              tag_199\n                /* \"#utility.yul\":5757:5762   */\n              dup3\n                /* \"#utility.yul\":5724:5763   */\n              tag_123\n              jump\t// in\n            tag_199:\n                /* \"#utility.yul\":5711:5763   */\n              swap1\n              pop\n                /* \"#utility.yul\":5628:5769   */\n              swap2\n              swap1\n              pop\n              jump\t// out\n                /* \"#utility.yul\":5775:5932   */\n            tag_125:\n                /* \"#utility.yul\":5875:5925   */\n              tag_201\n                /* \"#utility.yul\":5919:5924   */\n              dup2\n                /* \"#utility.yul\":5875:5925   */\n              tag_124\n              jump\t// in\n            tag_201:\n                /* \"#utility.yul\":5870:5873   */\n              dup3\n                /* \"#utility.yul\":5863:5926   */\n              mstore\n                /* \"#utility.yul\":5775:5932   */\n              pop\n              pop\n              jump\t// out\n                /* \"#utility.yul\":5938:6186   */\n            tag_39:\n                /* \"#utility.yul\":6044:6048   */\n              0x00\n                /* \"#utility.yul\":6082:6084   */\n              0x20\n                /* \"#utility.yul\":6071:6080   */\n              dup3\n                /* \"#utility.yul\":6067:6085   */\n              add\n                /* \"#utility.yul\":6059:6085   */\n              swap1\n              pop\n                /* \"#utility.yul\":6095:6179   */\n              tag_203\n                /* \"#utility.yul\":6176:6177   */\n              0x00\n                /* \"#utility.yul\":6165:6174   */\n              dup4\n                /* \"#utility.yul\":6161:6178   */\n              add\n                /* \"#utility.yul\":6152:6158   */\n              dup5\n                /* \"#utility.yul\":6095:6179   */\n              tag_125\n              jump\t// in\n            tag_203:\n                /* \"#utility.yul\":5938:6186   */\n              swap3\n              swap2\n              pop\n              pop\n              jump\t// out\n                /* \"#utility.yul\":6192:6310   */\n            tag_126:\n                /* \"#utility.yul\":6279:6303   */\n              tag_205\n                /* \"#utility.yul\":6297:6302   */\n              dup2\n                /* \"#utility.yul\":6279:6303   */\n              tag_115\n              jump\t// in\n            tag_205:\n                /* \"#utility.yul\":6274:6277   */\n              dup3\n                /* \"#utility.yul\":6267:6304   */\n              mstore\n                /* \"#utility.yul\":6192:6310   */\n              pop\n              pop\n              jump\t// out\n                /* \"#utility.yul\":6316:6538   */\n            tag_52:\n                /* \"#utility.yul\":6409:6413   */\n              0x00\n                /* \"#utility.yul\":6447:6449   */\n              0x20\n                /* \"#utility.yul\":6436:6445   */\n              dup3\n                /* \"#utility.yul\":6432:6450   */\n              add\n                /* \"#utility.yul\":6424:6450   */\n              swap1\n              pop\n                /* \"#utility.yul\":6460:6531   */\n              tag_207\n                /* \"#utility.yul\":6528:6529   */\n              0x00\n                /* \"#utility.yul\":6517:6526   */\n              dup4\n                /* \"#utility.yul\":6513:6530   */\n              add\n                /* \"#utility.yul\":6504:6510   */\n              dup5\n                /* \"#utility.yul\":6460:6531   */\n              tag_126\n              jump\t// in\n            tag_207:\n                /* \"#utility.yul\":6316:6538   */\n              swap3\n              swap2\n              pop\n              pop\n              jump\t// out\n                /* \"#utility.yul\":6544:6724   */\n            tag_61:\n                /* \"#utility.yul\":6592:6669   */\n              0x4e487b7100000000000000000000000000000000000000000000000000000000\n                /* \"#utility.yul\":6589:6590   */\n              0x00\n                /* \"#utility.yul\":6582:6670   */\n              mstore\n                /* \"#utility.yul\":6689:6693   */\n              0x32\n                /* \"#utility.yul\":6686:6687   */\n              0x04\n                /* \"#utility.yul\":6679:6694   */\n              mstore\n                /* \"#utility.yul\":6713:6717   */\n              0x24\n                /* \"#utility.yul\":6710:6711   */\n              0x00\n                /* \"#utility.yul\":6703:6718   */\n              revert\n                /* \"#utility.yul\":6730:6850   */\n            tag_127:\n                /* \"#utility.yul\":6802:6825   */\n              tag_210\n                /* \"#utility.yul\":6819:6824   */\n              dup2\n                /* \"#utility.yul\":6802:6825   */\n              tag_110\n              jump\t// in\n            tag_210:\n                /* \"#utility.yul\":6795:6800   */\n              dup2\n                /* \"#utility.yul\":6792:6826   */\n              eq\n                /* \"#utility.yul\":6782:6844   */\n              tag_211\n              jumpi\n                /* \"#utility.yul\":6840:6841   */\n              0x00\n                /* \"#utility.yul\":6837:6838   */\n              0x00\n                /* \"#utility.yul\":6830:6842   */\n              revert\n                /* \"#utility.yul\":6782:6844   */\n            tag_211:\n                /* \"#utility.yul\":6730:6850   */\n              pop\n              jump\t// out\n                /* \"#utility.yul\":6856:6993   */\n            tag_128:\n                /* \"#utility.yul\":6901:6906   */\n              0x00\n                /* \"#utility.yul\":6939:6945   */\n              dup2\n                /* \"#utility.yul\":6926:6946   */\n              calldataload\n                /* \"#utility.yul\":6917:6946   */\n              swap1\n              pop\n                /* \"#utility.yul\":6955:6987   */\n              tag_213\n                /* \"#utility.yul\":6981:6986   */\n              dup2\n                /* \"#utility.yul\":6955:6987   */\n              tag_127\n              jump\t// in\n            tag_213:\n                /* \"#utility.yul\":6856:6993   */\n              swap3\n              swap2\n              pop\n              pop\n              jump\t// out\n                /* \"#utility.yul\":6999:7326   */\n            tag_63:\n                /* \"#utility.yul\":7057:7063   */\n              0x00\n                /* \"#utility.yul\":7106:7108   */\n              0x20\n                /* \"#utility.yul\":7094:7103   */\n              dup3\n                /* \"#utility.yul\":7085:7092   */\n              dup5\n                /* \"#utility.yul\":7081:7104   */\n              sub\n                /* \"#utility.yul\":7077:7109   */\n              slt\n                /* \"#utility.yul\":7074:7193   */\n              iszero\n              tag_215\n              jumpi\n                /* \"#utility.yul\":7112:7191   */\n              tag_216\n              tag_105\n              jump\t// in\n            tag_216:\n                /* \"#utility.yul\":7074:7193   */\n            tag_215:\n                /* \"#utility.yul\":7232:7233   */\n              0x00\n                /* \"#utility.yul\":7257:7309   */\n              tag_217\n                /* \"#utility.yul\":7301:7308   */\n              dup5\n                /* \"#utility.yul\":7292:7298   */\n              dup3\n                /* \"#utility.yul\":7281:7290   */\n              dup6\n                /* \"#utility.yul\":7277:7299   */\n              add\n                /* \"#utility.yul\":7257:7309   */\n              tag_128\n              jump\t// in\n            tag_217:\n                /* \"#utility.yul\":7247:7309   */\n              swap2\n              pop\n                /* \"#utility.yul\":7203:7319   */\n              pop\n                /* \"#utility.yul\":6999:7326   */\n              swap3\n              swap2\n              pop\n              pop\n              jump\t// out\n                /* \"#utility.yul\":7332:7501   */\n            tag_129:\n                /* \"#utility.yul\":7416:7427   */\n              0x00\n                /* \"#utility.yul\":7450:7456   */\n              dup3\n                /* \"#utility.yul\":7445:7448   */\n              dup3\n                /* \"#utility.yul\":7438:7457   */\n              mstore\n                /* \"#utility.yul\":7490:7494   */\n              0x20\n                /* \"#utility.yul\":7485:7488   */\n              dup3\n                /* \"#utility.yul\":7481:7495   */\n              add\n                /* \"#utility.yul\":7466:7495   */\n              swap1\n              pop\n                /* \"#utility.yul\":7332:7501   */\n              swap3\n              swap2\n              pop\n              pop\n              jump\t// out\n                /* \"#utility.yul\":7507:7677   */\n            tag_130:\n                /* \"#utility.yul\":7647:7669   */\n              0x4d61726b73206d757374206265203c3d20313030000000000000000000000000\n                /* \"#utility.yul\":7643:7644   */\n              0x00\n                /* \"#utility.yul\":7635:7641   */\n              dup3\n                /* \"#utility.yul\":7631:7645   */\n              add\n                /* \"#utility.yul\":7624:7670   */\n              mstore\n                /* \"#utility.yul\":7507:7677   */\n              pop\n              jump\t// out\n                /* \"#utility.yul\":7683:8049   */\n            tag_131:\n                /* \"#utility.yul\":7825:7828   */\n              0x00\n                /* \"#utility.yul\":7846:7913   */\n              tag_221\n                /* \"#utility.yul\":7910:7912   */\n              0x14\n                /* \"#utility.yul\":7905:7908   */\n              dup4\n                /* \"#utility.yul\":7846:7913   */\n              tag_129\n              jump\t// in\n            tag_221:\n                /* \"#utility.yul\":7839:7913   */\n              swap2\n              pop\n                /* \"#utility.yul\":7922:8015   */\n              tag_222\n                /* \"#utility.yul\":8011:8014   */\n              dup3\n                /* \"#utility.yul\":7922:8015   */\n              tag_130\n              jump\t// in\n            tag_222:\n                /* \"#utility.yul\":8040:8042   */\n              0x20\n                /* \"#utility.yul\":8035:8038   */\n              dup3\n                /* \"#utility.yul\":8031:8043   */\n              add\n                /* \"#utility.yul\":8024:8043   */\n              swap1\n              pop\n                /* \"#utility.yul\":7683:8049   */\n              swap2\n              swap1\n              pop\n              jump\t// out\n                /* \"#utility.yul\":8055:8474   */\n            tag_74:\n                /* \"#utility.yul\":8221:8225   */\n              0x00\n                /* \"#utility.yul\":8259:8261   */\n              0x20\n                /* \"#utility.yul\":8248:8257   */\n              dup3\n                /* \"#utility.yul\":8244:8262   */\n              add\n                /* \"#utility.yul\":8236:8262   */\n              swap1\n              pop\n                /* \"#utility.yul\":8308:8317   */\n              dup2\n                /* \"#utility.yul\":8302:8306   */\n              dup2\n                /* \"#utility.yul\":8298:8318   */\n              sub\n                /* \"#utility.yul\":8294:8295   */\n              0x00\n                /* \"#utility.yul\":8283:8292   */\n              dup4\n                /* \"#utility.yul\":8279:8296   */\n              add\n                /* \"#utility.yul\":8272:8319   */\n              mstore\n                /* \"#utility.yul\":8336:8467   */\n              tag_224\n                /* \"#utility.yul\":8462:8466   */\n              dup2\n                /* \"#utility.yul\":8336:8467   */\n              tag_131\n              jump\t// in\n            tag_224:\n                /* \"#utility.yul\":8328:8467   */\n              swap1\n              pop\n                /* \"#utility.yul\":8055:8474   */\n              swap2\n              swap1\n              pop\n              jump\t// out\n                /* \"#utility.yul\":8480:8595   */\n            tag_132:\n                /* \"#utility.yul\":8565:8588   */\n              tag_226\n                /* \"#utility.yul\":8582:8587   */\n              dup2\n                /* \"#utility.yul\":8565:8588   */\n              tag_110\n              jump\t// in\n            tag_226:\n                /* \"#utility.yul\":8560:8563   */\n              dup3\n                /* \"#utility.yul\":8553:8589   */\n              mstore\n                /* \"#utility.yul\":8480:8595   */\n              pop\n              pop\n              jump\t// out\n                /* \"#utility.yul\":8601:9138   */\n            tag_94:\n                /* \"#utility.yul\":8770:8774   */\n              0x00\n                /* \"#utility.yul\":8808:8811   */\n              0x80\n                /* \"#utility.yul\":8797:8806   */\n              dup3\n                /* \"#utility.yul\":8793:8812   */\n              add\n                /* \"#utility.yul\":8785:8812   */\n              swap1\n              pop\n                /* \"#utility.yul\":8822:8891   */\n              tag_228\n                /* \"#utility.yul\":8888:8889   */\n              0x00\n                /* \"#utility.yul\":8877:8886   */\n              dup4\n                /* \"#utility.yul\":8873:8890   */\n              add\n                /* \"#utility.yul\":8864:8870   */\n              dup8\n                /* \"#utility.yul\":8822:8891   */\n              tag_113\n              jump\t// in\n            tag_228:\n                /* \"#utility.yul\":8901:8971   */\n              tag_229\n                /* \"#utility.yul\":8967:8969   */\n              0x20\n                /* \"#utility.yul\":8956:8965   */\n              dup4\n                /* \"#utility.yul\":8952:8970   */\n              add\n                /* \"#utility.yul\":8943:8949   */\n              dup7\n                /* \"#utility.yul\":8901:8971   */\n              tag_132\n              jump\t// in\n            tag_229:\n                /* \"#utility.yul\":8981:9051   */\n              tag_230\n                /* \"#utility.yul\":9047:9049   */\n              0x40\n                /* \"#utility.yul\":9036:9045   */\n              dup4\n                /* \"#utility.yul\":9032:9050   */\n              add\n                /* \"#utility.yul\":9023:9029   */\n              dup6\n                /* \"#utility.yul\":8981:9051   */\n              tag_132\n              jump\t// in\n            tag_230:\n                /* \"#utility.yul\":9061:9131   */\n              tag_231\n                /* \"#utility.yul\":9127:9129   */\n              0x60\n                /* \"#utility.yul\":9116:9125   */\n              dup4\n                /* \"#utility.yul\":9112:9130   */\n              add\n                /* \"#utility.yul\":9103:9109   */\n              dup5\n                /* \"#utility.yul\":9061:9131   */\n              tag_132\n              jump\t// in\n            tag_231:\n                /* \"#utility.yul\":8601:9138   */\n              swap6\n              swap5\n              pop\n              pop\n              pop\n              pop\n              pop\n              jump\t// out\n                /* \"#utility.yul\":9144:9221   */\n            tag_133:\n                /* \"#utility.yul\":9181:9188   */\n              0x00\n                /* \"#utility.yul\":9210:9215   */\n              dup2\n                /* \"#utility.yul\":9199:9215   */\n              swap1\n              pop\n                /* \"#utility.yul\":9144:9221   */\n              swap2\n              swap1\n              pop\n              jump\t// out\n                /* \"#utility.yul\":9227:9407   */\n            tag_134:\n                /* \"#utility.yul\":9275:9352   */\n              0x4e487b7100000000000000000000000000000000000000000000000000000000\n                /* \"#utility.yul\":9272:9273   */\n              0x00\n                /* \"#utility.yul\":9265:9353   */\n              mstore\n                /* \"#utility.yul\":9372:9376   */\n              0x11\n                /* \"#utility.yul\":9369:9370   */\n              0x04\n                /* \"#utility.yul\":9362:9377   */\n              mstore\n                /* \"#utility.yul\":9396:9400   */\n              0x24\n                /* \"#utility.yul\":9393:9394   */\n              0x00\n                /* \"#utility.yul\":9386:9401   */\n              revert\n                /* \"#utility.yul\":9413:9604   */\n            tag_101:\n                /* \"#utility.yul\":9453:9456   */\n              0x00\n                /* \"#utility.yul\":9472:9492   */\n              tag_235\n                /* \"#utility.yul\":9490:9491   */\n              dup3\n                /* \"#utility.yul\":9472:9492   */\n              tag_133\n              jump\t// in\n            tag_235:\n                /* \"#utility.yul\":9467:9492   */\n              swap2\n              pop\n                /* \"#utility.yul\":9506:9526   */\n              tag_236\n                /* \"#utility.yul\":9524:9525   */\n              dup4\n                /* \"#utility.yul\":9506:9526   */\n              tag_133\n              jump\t// in\n            tag_236:\n                /* \"#utility.yul\":9501:9526   */\n              swap3\n              pop\n                /* \"#utility.yul\":9549:9550   */\n              dup3\n                /* \"#utility.yul\":9546:9547   */\n              dup3\n                /* \"#utility.yul\":9542:9551   */\n              add\n                /* \"#utility.yul\":9535:9551   */\n              swap1\n              pop\n                /* \"#utility.yul\":9570:9573   */\n              dup1\n                /* \"#utility.yul\":9567:9568   */\n              dup3\n                /* \"#utility.yul\":9564:9574   */\n              gt\n                /* \"#utility.yul\":9561:9597   */\n              iszero\n              tag_237\n              jumpi\n                /* \"#utility.yul\":9577:9595   */\n              tag_238\n              tag_134\n              jump\t// in\n            tag_238:\n                /* \"#utility.yul\":9561:9597   */\n            tag_237:\n                /* \"#utility.yul\":9413:9604   */\n              swap3\n              swap2\n              pop\n              pop\n              jump\t// out\n\n            auxdata: 0xa2646970667358221220e639f510eca548d9a66469afff594f051c0a8dbae876edbdbf0817629da104a164736f6c634300081e0033\n        }\n    }\n\n    auxdata: 0xa26469706673582212200e4f2d140ad6a9c3f50a780c8b0820d75c81d72f63b8e1bca99dda67c2268ed264736f6c634300081e0033\n}\n",
				"bytecode": {
					"linkReferences": {},
					"object": "6080604052348015600e575f5ffd5b506118b48061001c5f395ff3fe608060405234801561000f575f5ffd5b5060043610610055575f3560e01c8063066542bd146100595780634fab18491461008957806365e90ec2146100a757806393ed2b3b146100d7578063fef0e4d6146100f3575b5f5ffd5b610073600480360381019061006e91906106ea565b610123565b604051610080919061078f565b60405180910390f35b61009161016b565b60405161009e919061085f565b60405180910390f35b6100c160048036038101906100bc91906108b6565b6101f5565b6040516100ce9190610901565b60405180910390f35b6100f160048036038101906100ec91906109bf565b610324565b005b61010d600480360381019061010891906108b6565b610577565b60405161011a9190610901565b60405180910390f35b5f5f5f838154811061013857610137610a23565b5b905f5260205f20015f9054906101000a900473ffffffffffffffffffffffffffffffffffffffff16905080915050919050565b60605f8054806020026020016040519081016040528092919081815260200182805480156101eb57602002820191905f5260205f20905b815f9054906101000a900473ffffffffffffffffffffffffffffffffffffffff1673ffffffffffffffffffffffffffffffffffffffff16815260200190600101908083116101a2575b5050505050905090565b5f5f5f8361ffff168154811061020e5761020d610a23565b5b905f5260205f20015f9054906101000a900473ffffffffffffffffffffffffffffffffffffffff1690508073ffffffffffffffffffffffffffffffffffffffff1663ce5cd34e8273ffffffffffffffffffffffffffffffffffffffff1663556cc6926040518163ffffffff1660e01b8152600401602060405180830381865afa15801561029d573d5f5f3e3d5ffd5b505050506040513d601f19601f820116820180604052508101906102c19190610a64565b6040518263ffffffff1660e01b81526004016102dd9190610a9e565b602060405180830381865afa1580156102f8573d5f5f3e3d5ffd5b505050506040513d601f19601f8201168201806040525081019061031c9190610acb565b915050919050565b5f604051610331906106a6565b604051809103905ff08015801561034a573d5f5f3e3d5ffd5b5090508073ffffffffffffffffffffffffffffffffffffffff1663bc1d2a9e866040518263ffffffff1660e01b81526004016103869190610a9e565b6020604051808303815f875af11580156103a2573d5f5f3e3d5ffd5b505050506040513d601f19601f820116820180604052508101906103c69190610a64565b508073ffffffffffffffffffffffffffffffffffffffff166375772ace86866040518363ffffffff1660e01b8152600401610402929190610bf2565b5f604051808303815f87803b158015610419575f5ffd5b505af115801561042b573d5f5f3e3d5ffd5b505050508073ffffffffffffffffffffffffffffffffffffffff16635e4f484886856040518363ffffffff1660e01b815260040161046a929190610c19565b5f604051808303815f87803b158015610481575f5ffd5b505af1158015610493573d5f5f3e3d5ffd5b505050508073ffffffffffffffffffffffffffffffffffffffff16637d9c50f0836040518263ffffffff1660e01b81526004016104d09190610cb3565b6020604051808303815f875af11580156104ec573d5f5f3e3d5ffd5b505050506040513d601f19601f820116820180604052508101906105109190610ce0565b505f81908060018154018082558091505060019003905f5260205f20015f9091909190916101000a81548173ffffffffffffffffffffffffffffffffffffffff021916908373ffffffffffffffffffffffffffffffffffffffff1602179055505050505050565b5f5f5f8361ffff16815481106105905761058f610a23565b5b905f5260205f20015f9054906101000a900473ffffffffffffffffffffffffffffffffffffffff1690508073ffffffffffffffffffffffffffffffffffffffff1663ce5cd34e8273ffffffffffffffffffffffffffffffffffffffff1663556cc6926040518163ffffffff1660e01b8152600401602060405180830381865afa15801561061f573d5f5f3e3d5ffd5b505050506040513d601f19601f820116820180604052508101906106439190610a64565b6040518263ffffffff1660e01b815260040161065f9190610a9e565b602060405180830381865afa15801561067a573d5f5f3e3d5ffd5b505050506040513d601f19601f8201168201806040525081019061069e9190610acb565b915050919050565b610b7380610d0c83390190565b5f5ffd5b5f819050919050565b6106c9816106b7565b81146106d3575f5ffd5b50565b5f813590506106e4816106c0565b92915050565b5f602082840312156106ff576106fe6106b3565b5b5f61070c848285016106d6565b91505092915050565b5f73ffffffffffffffffffffffffffffffffffffffff82169050919050565b5f819050919050565b5f61075761075261074d84610715565b610734565b610715565b9050919050565b5f6107688261073d565b9050919050565b5f6107798261075e565b9050919050565b6107898161076f565b82525050565b5f6020820190506107a25f830184610780565b92915050565b5f81519050919050565b5f82825260208201905092915050565b5f819050602082019050919050565b6107da8161076f565b82525050565b5f6107eb83836107d1565b60208301905092915050565b5f602082019050919050565b5f61080d826107a8565b61081781856107b2565b9350610822836107c2565b805f5b8381101561085257815161083988826107e0565b9750610844836107f7565b925050600181019050610825565b5085935050505092915050565b5f6020820190508181035f8301526108778184610803565b905092915050565b5f61ffff82169050919050565b6108958161087f565b811461089f575f5ffd5b50565b5f813590506108b08161088c565b92915050565b5f602082840312156108cb576108ca6106b3565b5b5f6108d8848285016108a2565b91505092915050565b5f6108eb82610715565b9050919050565b6108fb816108e1565b82525050565b5f6020820190506109145f8301846108f2565b92915050565b5f819050919050565b61092c8161091a565b8114610936575f5ffd5b50565b5f8135905061094781610923565b92915050565b5f5ffd5b5f8190508260206003028201111561096c5761096b61094d565b5b92915050565b61097b816108e1565b8114610985575f5ffd5b50565b5f8135905061099681610972565b92915050565b600381106109a8575f5ffd5b50565b5f813590506109b98161099c565b92915050565b5f5f5f5f60c085870312156109d7576109d66106b3565b5b5f6109e487828801610939565b94505060206109f587828801610951565b9350506080610a0687828801610988565b92505060a0610a17878288016109ab565b91505092959194509250565b7f4e487b71000000000000000000000000000000000000000000000000000000005f52603260045260245ffd5b5f81519050610a5e81610923565b92915050565b5f60208284031215610a7957610a786106b3565b5b5f610a8684828501610a50565b91505092915050565b610a988161091a565b82525050565b5f602082019050610ab15f830184610a8f565b92915050565b5f81519050610ac581610972565b92915050565b5f60208284031215610ae057610adf6106b3565b5b5f610aed84828501610ab7565b91505092915050565b5f60039050919050565b5f81905092915050565b5f819050919050565b5f63ffffffff82169050919050565b610b2b81610b13565b82525050565b5f610b3c8383610b22565b60208301905092915050565b610b5181610b13565b8114610b5b575f5ffd5b50565b5f81359050610b6c81610b48565b92915050565b5f610b806020840184610b5e565b905092915050565b5f602082019050919050565b610b9d81610af6565b610ba78184610b00565b9250610bb282610b0a565b805f5b83811015610bea57610bc78284610b72565b610bd18782610b31565b9650610bdc83610b88565b925050600181019050610bb5565b505050505050565b5f608082019050610c055f830185610a8f565b610c126020830184610b94565b9392505050565b5f604082019050610c2c5f830185610a8f565b610c3960208301846108f2565b9392505050565b7f4e487b71000000000000000000000000000000000000000000000000000000005f52602160045260245ffd5b60038110610c7e57610c7d610c40565b5b50565b5f819050610c8e82610c6d565b919050565b5f610c9d82610c81565b9050919050565b610cad81610c93565b82525050565b5f602082019050610cc65f830184610ca4565b92915050565b5f81519050610cda8161099c565b92915050565b5f60208284031215610cf557610cf46106b3565b5b5f610d0284828501610ccc565b9150509291505056fe6080604052348015600e575f5ffd5b50610b578061001c5f395ff3fe60806040526004361061007a575f3560e01c80637d9c50f01161004d5780637d9c50f0146101345780639cd0948314610170578063bc1d2a9e1461017a578063ce5cd34e146101b65761007a565b80633edd962f1461007e578063556cc692146100ba5780635e4f4848146100e457806375772ace1461010c575b5f5ffd5b348015610089575f5ffd5b506100a4600480360381019061009f91906106a5565b6101f2565b6040516100b1919061072e565b60405180910390f35b3480156100c5575f5ffd5b506100ce61028b565b6040516100db9190610756565b60405180910390f35b3480156100ef575f5ffd5b5061010a600480360381019061010591906107c9565b610293565b005b348015610117575f5ffd5b50610132600480360381019061012d919061082c565b6102e6565b005b34801561013f575f5ffd5b5061015a6004803603810190610155919061088d565b61059b565b604051610167919061092b565b60405180910390f35b6101786105db565b005b348015610185575f5ffd5b506101a0600480360381019061019b91906106a5565b6105f5565b6040516101ad9190610756565b60405180910390f35b3480156101c1575f5ffd5b506101dc60048036038101906101d791906106a5565b610605565b6040516101e99190610953565b60405180910390f35b6101fa61063e565b60045f8381526020019081526020015f206040518060600160405290815f82015f9054906101000a900463ffffffff1663ffffffff1663ffffffff1681526020015f820160049054906101000a900463ffffffff1663ffffffff1663ffffffff1681526020015f820160089054906101000a900463ffffffff1663ffffffff1663ffffffff16815250509050919050565b5f5f54905090565b8060025f8481526020019081526020015f205f6101000a81548173ffffffffffffffffffffffffffffffffffffffff021916908373ffffffffffffffffffffffffffffffffffffffff1602179055505050565b6064815f600381106102fb576102fa61096c565b5b60200201602081019061030e91906109c3565b63ffffffff161115801561034f57506064816001600381106103335761033261096c565b5b60200201602081019061034691906109c3565b63ffffffff1611155b8015610388575060648160026003811061036c5761036b61096c565b5b60200201602081019061037f91906109c3565b63ffffffff1611155b6103c7576040517f08c379a00000000000000000000000000000000000000000000000000000000081526004016103be90610a48565b60405180910390fd5b6040518060600160405280825f600381106103e5576103e461096c565b5b6020020160208101906103f891906109c3565b63ffffffff168152602001826001600381106104175761041661096c565b5b60200201602081019061042a91906109c3565b63ffffffff168152602001826002600381106104495761044861096c565b5b60200201602081019061045c91906109c3565b63ffffffff1681525060045f8481526020019081526020015f205f820151815f015f6101000a81548163ffffffff021916908363ffffffff1602179055506020820151815f0160046101000a81548163ffffffff021916908363ffffffff1602179055506040820151815f0160086101000a81548163ffffffff021916908363ffffffff1602179055509050507f15f0028b62fa7401dabd6a17ae086f7743f7b7bc60401477e82994d7b8c6a15682825f6003811061051e5761051d61096c565b5b60200201602081019061053191906109c3565b836001600381106105455761054461096c565b5b60200201602081019061055891906109c3565b8460026003811061056c5761056b61096c565b5b60200201602081019061057f91906109c3565b60405161058f9493929190610a75565b60405180910390a15050565b5f8160015f6101000a81548160ff021916908360028111156105c0576105bf6108b8565b5b021790555060015f9054906101000a900460ff169050919050565b3460035f8282546105ec9190610aee565b92505081905550565b5f815f819055505f549050919050565b5f60025f8381526020019081526020015f205f9054906101000a900473ffffffffffffffffffffffffffffffffffffffff169050919050565b60405180606001604052805f63ffffffff1681526020015f63ffffffff1681526020015f63ffffffff1681525090565b5f5ffd5b5f819050919050565b61068481610672565b811461068e575f5ffd5b50565b5f8135905061069f8161067b565b92915050565b5f602082840312156106ba576106b961066e565b5b5f6106c784828501610691565b91505092915050565b5f63ffffffff82169050919050565b6106e8816106d0565b82525050565b606082015f8201516107025f8501826106df565b50602082015161071560208501826106df565b50604082015161072860408501826106df565b50505050565b5f6060820190506107415f8301846106ee565b92915050565b61075081610672565b82525050565b5f6020820190506107695f830184610747565b92915050565b5f73ffffffffffffffffffffffffffffffffffffffff82169050919050565b5f6107988261076f565b9050919050565b6107a88161078e565b81146107b2575f5ffd5b50565b5f813590506107c38161079f565b92915050565b5f5f604083850312156107df576107de61066e565b5b5f6107ec85828601610691565b92505060206107fd858286016107b5565b9150509250929050565b5f5ffd5b5f8190508260206003028201111561082657610825610807565b5b92915050565b5f5f608083850312156108425761084161066e565b5b5f61084f85828601610691565b92505060206108608582860161080b565b9150509250929050565b60038110610876575f5ffd5b50565b5f813590506108878161086a565b92915050565b5f602082840312156108a2576108a161066e565b5b5f6108af84828501610879565b91505092915050565b7f4e487b71000000000000000000000000000000000000000000000000000000005f52602160045260245ffd5b600381106108f6576108f56108b8565b5b50565b5f819050610906826108e5565b919050565b5f610915826108f9565b9050919050565b6109258161090b565b82525050565b5f60208201905061093e5f83018461091c565b92915050565b61094d8161078e565b82525050565b5f6020820190506109665f830184610944565b92915050565b7f4e487b71000000000000000000000000000000000000000000000000000000005f52603260045260245ffd5b6109a2816106d0565b81146109ac575f5ffd5b50565b5f813590506109bd81610999565b92915050565b5f602082840312156109d8576109d761066e565b5b5f6109e5848285016109af565b91505092915050565b5f82825260208201905092915050565b7f4d61726b73206d757374206265203c3d203130300000000000000000000000005f82015250565b5f610a326014836109ee565b9150610a3d826109fe565b602082019050919050565b5f6020820190508181035f830152610a5f81610a26565b9050919050565b610a6f816106d0565b82525050565b5f608082019050610a885f830187610747565b610a956020830186610a66565b610aa26040830185610a66565b610aaf6060830184610a66565b95945050505050565b5f819050919050565b7f4e487b71000000000000000000000000000000000000000000000000000000005f52601160045260245ffd5b5f610af882610ab8565b9150610b0383610ab8565b9250828201905080821115610b1b57610b1a610ac1565b5b9291505056fea2646970667358221220e639f510eca548d9a66469afff594f051c0a8dbae876edbdbf0817629da104a164736f6c634300081e0033a26469706673582212200e4f2d140ad6a9c3f50a780c8b0820d75c81d72f63b8e1bca99dda67c2268ed264736f6c634300081e0033",
					"opcodes": "PUSH1 0x80 PUSH1 0x40 MSTORE CALLVALUE DUP1 ISZERO PUSH1 0xE JUMPI PUSH0 PUSH0 REVERT JUMPDEST POP PUSH2 0x18B4 DUP1 PUSH2 0x1C PUSH0 CODECOPY PUSH0 RETURN INVALID PUSH1 0x80 PUSH1 0x40 MSTORE CALLVALUE DUP1 ISZERO PUSH2 0xF JUMPI PUSH0 PUSH0 REVERT JUMPDEST POP PUSH1 0x4 CALLDATASIZE LT PUSH2 0x55 JUMPI PUSH0 CALLDATALOAD PUSH1 0xE0 SHR DUP1 PUSH4 0x66542BD EQ PUSH2 0x59 JUMPI DUP1 PUSH4 0x4FAB1849 EQ PUSH2 0x89 JUMPI DUP1 PUSH4 0x65E90EC2 EQ PUSH2 0xA7 JUMPI DUP1 PUSH4 0x93ED2B3B EQ PUSH2 0xD7 JUMPI DUP1 PUSH4 0xFEF0E4D6 EQ PUSH2 0xF3 JUMPI JUMPDEST PUSH0 PUSH0 REVERT JUMPDEST PUSH2 0x73 PUSH1 0x4 DUP1 CALLDATASIZE SUB DUP2 ADD SWAP1 PUSH2 0x6E SWAP2 SWAP1 PUSH2 0x6EA JUMP JUMPDEST PUSH2 0x123 JUMP JUMPDEST PUSH1 0x40 MLOAD PUSH2 0x80 SWAP2 SWAP1 PUSH2 0x78F JUMP JUMPDEST PUSH1 0x40 MLOAD DUP1 SWAP2 SUB SWAP1 RETURN JUMPDEST PUSH2 0x91 PUSH2 0x16B JUMP JUMPDEST PUSH1 0x40 MLOAD PUSH2 0x9E SWAP2 SWAP1 PUSH2 0x85F JUMP JUMPDEST PUSH1 0x40 MLOAD DUP1 SWAP2 SUB SWAP1 RETURN JUMPDEST PUSH2 0xC1 PUSH1 0x4 DUP1 CALLDATASIZE SUB DUP2 ADD SWAP1 PUSH2 0xBC SWAP2 SWAP1 PUSH2 0x8B6 JUMP JUMPDEST PUSH2 0x1F5 JUMP JUMPDEST PUSH1 0x40 MLOAD PUSH2 0xCE SWAP2 SWAP1 PUSH2 0x901 JUMP JUMPDEST PUSH1 0x40 MLOAD DUP1 SWAP2 SUB SWAP1 RETURN JUMPDEST PUSH2 0xF1 PUSH1 0x4 DUP1 CALLDATASIZE SUB DUP2 ADD SWAP1 PUSH2 0xEC SWAP2 SWAP1 PUSH2 0x9BF JUMP JUMPDEST PUSH2 0x324 JUMP JUMPDEST STOP JUMPDEST PUSH2 0x10D PUSH1 0x4 DUP1 CALLDATASIZE SUB DUP2 ADD SWAP1 PUSH2 0x108 SWAP2 SWAP1 PUSH2 0x8B6 JUMP JUMPDEST PUSH2 0x577 JUMP JUMPDEST PUSH1 0x40 MLOAD PUSH2 0x11A SWAP2 SWAP1 PUSH2 0x901 JUMP JUMPDEST PUSH1 0x40 MLOAD DUP1 SWAP2 SUB SWAP1 RETURN JUMPDEST PUSH0 PUSH0 PUSH0 DUP4 DUP2 SLOAD DUP2 LT PUSH2 0x138 JUMPI PUSH2 0x137 PUSH2 0xA23 JUMP JUMPDEST JUMPDEST SWAP1 PUSH0 MSTORE PUSH1 0x20 PUSH0 KECCAK256 ADD PUSH0 SWAP1 SLOAD SWAP1 PUSH2 0x100 EXP SWAP1 DIV PUSH20 0xFFFFFFFFFFFFFFFFFFFFFFFFFFFFFFFFFFFFFFFF AND SWAP1 POP DUP1 SWAP2 POP POP SWAP2 SWAP1 POP JUMP JUMPDEST PUSH1 0x60 PUSH0 DUP1 SLOAD DUP1 PUSH1 0x20 MUL PUSH1 0x20 ADD PUSH1 0x40 MLOAD SWAP1 DUP2 ADD PUSH1 0x40 MSTORE DUP1 SWAP3 SWAP2 SWAP1 DUP2 DUP2 MSTORE PUSH1 0x20 ADD DUP3 DUP1 SLOAD DUP1 ISZERO PUSH2 0x1EB JUMPI PUSH1 0x20 MUL DUP3 ADD SWAP2 SWAP1 PUSH0 MSTORE PUSH1 0x20 PUSH0 KECCAK256 SWAP1 JUMPDEST DUP2 PUSH0 SWAP1 SLOAD SWAP1 PUSH2 0x100 EXP SWAP1 DIV PUSH20 0xFFFFFFFFFFFFFFFFFFFFFFFFFFFFFFFFFFFFFFFF AND PUSH20 0xFFFFFFFFFFFFFFFFFFFFFFFFFFFFFFFFFFFFFFFF AND DUP2 MSTORE PUSH1 0x20 ADD SWAP1 PUSH1 0x1 ADD SWAP1 DUP1 DUP4 GT PUSH2 0x1A2 JUMPI JUMPDEST POP POP POP POP POP SWAP1 POP SWAP1 JUMP JUMPDEST PUSH0 PUSH0 PUSH0 DUP4 PUSH2 0xFFFF AND DUP2 SLOAD DUP2 LT PUSH2 0x20E JUMPI PUSH2 0x20D PUSH2 0xA23 JUMP JUMPDEST JUMPDEST SWAP1 PUSH0 MSTORE PUSH1 0x20 PUSH0 KECCAK256 ADD PUSH0 SWAP1 SLOAD SWAP1 PUSH2 0x100 EXP SWAP1 DIV PUSH20 0xFFFFFFFFFFFFFFFFFFFFFFFFFFFFFFFFFFFFFFFF AND SWAP1 POP DUP1 PUSH20 0xFFFFFFFFFFFFFFFFFFFFFFFFFFFFFFFFFFFFFFFF AND PUSH4 0xCE5CD34E DUP3 PUSH20 0xFFFFFFFFFFFFFFFFFFFFFFFFFFFFFFFFFFFFFFFF AND PUSH4 0x556CC692 PUSH1 0x40 MLOAD DUP2 PUSH4 0xFFFFFFFF AND PUSH1 0xE0 SHL DUP2 MSTORE PUSH1 0x4 ADD PUSH1 0x20 PUSH1 0x40 MLOAD DUP1 DUP4 SUB DUP2 DUP7 GAS STATICCALL ISZERO DUP1 ISZERO PUSH2 0x29D JUMPI RETURNDATASIZE PUSH0 PUSH0 RETURNDATACOPY RETURNDATASIZE PUSH0 REVERT JUMPDEST POP POP POP POP PUSH1 0x40 MLOAD RETURNDATASIZE PUSH1 0x1F NOT PUSH1 0x1F DUP3 ADD AND DUP3 ADD DUP1 PUSH1 0x40 MSTORE POP DUP2 ADD SWAP1 PUSH2 0x2C1 SWAP2 SWAP1 PUSH2 0xA64 JUMP JUMPDEST PUSH1 0x40 MLOAD DUP3 PUSH4 0xFFFFFFFF AND PUSH1 0xE0 SHL DUP2 MSTORE PUSH1 0x4 ADD PUSH2 0x2DD SWAP2 SWAP1 PUSH2 0xA9E JUMP JUMPDEST PUSH1 0x20 PUSH1 0x40 MLOAD DUP1 DUP4 SUB DUP2 DUP7 GAS STATICCALL ISZERO DUP1 ISZERO PUSH2 0x2F8 JUMPI RETURNDATASIZE PUSH0 PUSH0 RETURNDATACOPY RETURNDATASIZE PUSH0 REVERT JUMPDEST POP POP POP POP PUSH1 0x40 MLOAD RETURNDATASIZE PUSH1 0x1F NOT PUSH1 0x1F DUP3 ADD AND DUP3 ADD DUP1 PUSH1 0x40 MSTORE POP DUP2 ADD SWAP1 PUSH2 0x31C SWAP2 SWAP1 PUSH2 0xACB JUMP JUMPDEST SWAP2 POP POP SWAP2 SWAP1 POP JUMP JUMPDEST PUSH0 PUSH1 0x40 MLOAD PUSH2 0x331 SWAP1 PUSH2 0x6A6 JUMP JUMPDEST PUSH1 0x40 MLOAD DUP1 SWAP2 SUB SWAP1 PUSH0 CREATE DUP1 ISZERO DUP1 ISZERO PUSH2 0x34A JUMPI RETURNDATASIZE PUSH0 PUSH0 RETURNDATACOPY RETURNDATASIZE PUSH0 REVERT JUMPDEST POP SWAP1 POP DUP1 PUSH20 0xFFFFFFFFFFFFFFFFFFFFFFFFFFFFFFFFFFFFFFFF AND PUSH4 0xBC1D2A9E DUP7 PUSH1 0x40 MLOAD DUP3 PUSH4 0xFFFFFFFF AND PUSH1 0xE0 SHL DUP2 MSTORE PUSH1 0x4 ADD PUSH2 0x386 SWAP2 SWAP1 PUSH2 0xA9E JUMP JUMPDEST PUSH1 0x20 PUSH1 0x40 MLOAD DUP1 DUP4 SUB DUP2 PUSH0 DUP8 GAS CALL ISZERO DUP1 ISZERO PUSH2 0x3A2 JUMPI RETURNDATASIZE PUSH0 PUSH0 RETURNDATACOPY RETURNDATASIZE PUSH0 REVERT JUMPDEST POP POP POP POP PUSH1 0x40 MLOAD RETURNDATASIZE PUSH1 0x1F NOT PUSH1 0x1F DUP3 ADD AND DUP3 ADD DUP1 PUSH1 0x40 MSTORE POP DUP2 ADD SWAP1 PUSH2 0x3C6 SWAP2 SWAP1 PUSH2 0xA64 JUMP JUMPDEST POP DUP1 PUSH20 0xFFFFFFFFFFFFFFFFFFFFFFFFFFFFFFFFFFFFFFFF AND PUSH4 0x75772ACE DUP7 DUP7 PUSH1 0x40 MLOAD DUP4 PUSH4 0xFFFFFFFF AND PUSH1 0xE0 SHL DUP2 MSTORE PUSH1 0x4 ADD PUSH2 0x402 SWAP3 SWAP2 SWAP1 PUSH2 0xBF2 JUMP JUMPDEST PUSH0 PUSH1 0x40 MLOAD DUP1 DUP4 SUB DUP2 PUSH0 DUP8 DUP1 EXTCODESIZE ISZERO DUP1 ISZERO PUSH2 0x419 JUMPI PUSH0 PUSH0 REVERT JUMPDEST POP GAS CALL ISZERO DUP1 ISZERO PUSH2 0x42B JUMPI RETURNDATASIZE PUSH0 PUSH0 RETURNDATACOPY RETURNDATASIZE PUSH0 REVERT JUMPDEST POP POP POP POP DUP1 PUSH20 0xFFFFFFFFFFFFFFFFFFFFFFFFFFFFFFFFFFFFFFFF AND PUSH4 0x5E4F4848 DUP7 DUP6 PUSH1 0x40 MLOAD DUP4 PUSH4 0xFFFFFFFF AND PUSH1 0xE0 SHL DUP2 MSTORE PUSH1 0x4 ADD PUSH2 0x46A SWAP3 SWAP2 SWAP1 PUSH2 0xC19 JUMP JUMPDEST PUSH0 PUSH1 0x40 MLOAD DUP1 DUP4 SUB DUP2 PUSH0 DUP8 DUP1 EXTCODESIZE ISZERO DUP1 ISZERO PUSH2 0x481 JUMPI PUSH0 PUSH0 REVERT JUMPDEST POP GAS CALL ISZERO DUP1 ISZERO PUSH2 0x493 JUMPI RETURNDATASIZE PUSH0 PUSH0 RETURNDATACOPY RETURNDATASIZE PUSH0 REVERT JUMPDEST POP POP POP POP DUP1 PUSH20 0xFFFFFFFFFFFFFFFFFFFFFFFFFFFFFFFFFFFFFFFF AND PUSH4 0x7D9C50F0 DUP4 PUSH1 0x40 MLOAD DUP3 PUSH4 0xFFFFFFFF AND PUSH1 0xE0 SHL DUP2 MSTORE PUSH1 0x4 ADD PUSH2 0x4D0 SWAP2 SWAP1 PUSH2 0xCB3 JUMP JUMPDEST PUSH1 0x20 PUSH1 0x40 MLOAD DUP1 DUP4 SUB DUP2 PUSH0 DUP8 GAS CALL ISZERO DUP1 ISZERO PUSH2 0x4EC JUMPI RETURNDATASIZE PUSH0 PUSH0 RETURNDATACOPY RETURNDATASIZE PUSH0 REVERT JUMPDEST POP POP POP POP PUSH1 0x40 MLOAD RETURNDATASIZE PUSH1 0x1F NOT PUSH1 0x1F DUP3 ADD AND DUP3 ADD DUP1 PUSH1 0x40 MSTORE POP DUP2 ADD SWAP1 PUSH2 0x510 SWAP2 SWAP1 PUSH2 0xCE0 JUMP JUMPDEST POP PUSH0 DUP2 SWAP1 DUP1 PUSH1 0x1 DUP2 SLOAD ADD DUP1 DUP3 SSTORE DUP1 SWAP2 POP POP PUSH1 0x1 SWAP1 SUB SWAP1 PUSH0 MSTORE PUSH1 0x20 PUSH0 KECCAK256 ADD PUSH0 SWAP1 SWAP2 SWAP1 SWAP2 SWAP1 SWAP2 PUSH2 0x100 EXP DUP2 SLOAD DUP2 PUSH20 0xFFFFFFFFFFFFFFFFFFFFFFFFFFFFFFFFFFFFFFFF MUL NOT AND SWAP1 DUP4 PUSH20 0xFFFFFFFFFFFFFFFFFFFFFFFFFFFFFFFFFFFFFFFF AND MUL OR SWAP1 SSTORE POP POP POP POP POP POP JUMP JUMPDEST PUSH0 PUSH0 PUSH0 DUP4 PUSH2 0xFFFF AND DUP2 SLOAD DUP2 LT PUSH2 0x590 JUMPI PUSH2 0x58F PUSH2 0xA23 JUMP JUMPDEST JUMPDEST SWAP1 PUSH0 MSTORE PUSH1 0x20 PUSH0 KECCAK256 ADD PUSH0 SWAP1 SLOAD SWAP1 PUSH2 0x100 EXP SWAP1 DIV PUSH20 0xFFFFFFFFFFFFFFFFFFFFFFFFFFFFFFFFFFFFFFFF AND SWAP1 POP DUP1 PUSH20 0xFFFFFFFFFFFFFFFFFFFFFFFFFFFFFFFFFFFFFFFF AND PUSH4 0xCE5CD34E DUP3 PUSH20 0xFFFFFFFFFFFFFFFFFFFFFFFFFFFFFFFFFFFFFFFF AND PUSH4 0x556CC692 PUSH1 0x40 MLOAD DUP2 PUSH4 0xFFFFFFFF AND PUSH1 0xE0 SHL DUP2 MSTORE PUSH1 0x4 ADD PUSH1 0x20 PUSH1 0x40 MLOAD DUP1 DUP4 SUB DUP2 DUP7 GAS STATICCALL ISZERO DUP1 ISZERO PUSH2 0x61F JUMPI RETURNDATASIZE PUSH0 PUSH0 RETURNDATACOPY RETURNDATASIZE PUSH0 REVERT JUMPDEST POP POP POP POP PUSH1 0x40 MLOAD RETURNDATASIZE PUSH1 0x1F NOT PUSH1 0x1F DUP3 ADD AND DUP3 ADD DUP1 PUSH1 0x40 MSTORE POP DUP2 ADD SWAP1 PUSH2 0x643 SWAP2 SWAP1 PUSH2 0xA64 JUMP JUMPDEST PUSH1 0x40 MLOAD DUP3 PUSH4 0xFFFFFFFF AND PUSH1 0xE0 SHL DUP2 MSTORE PUSH1 0x4 ADD PUSH2 0x65F SWAP2 SWAP1 PUSH2 0xA9E JUMP JUMPDEST PUSH1 0x20 PUSH1 0x40 MLOAD DUP1 DUP4 SUB DUP2 DUP7 GAS STATICCALL ISZERO DUP1 ISZERO PUSH2 0x67A JUMPI RETURNDATASIZE PUSH0 PUSH0 RETURNDATACOPY RETURNDATASIZE PUSH0 REVERT JUMPDEST POP POP POP POP PUSH1 0x40 MLOAD RETURNDATASIZE PUSH1 0x1F NOT PUSH1 0x1F DUP3 ADD AND DUP3 ADD DUP1 PUSH1 0x40 MSTORE POP DUP2 ADD SWAP1 PUSH2 0x69E SWAP2 SWAP1 PUSH2 0xACB JUMP JUMPDEST SWAP2 POP POP SWAP2 SWAP1 POP JUMP JUMPDEST PUSH2 0xB73 DUP1 PUSH2 0xD0C DUP4 CODECOPY ADD SWAP1 JUMP JUMPDEST PUSH0 PUSH0 REVERT JUMPDEST PUSH0 DUP2 SWAP1 POP SWAP2 SWAP1 POP JUMP JUMPDEST PUSH2 0x6C9 DUP2 PUSH2 0x6B7 JUMP JUMPDEST DUP2 EQ PUSH2 0x6D3 JUMPI PUSH0 PUSH0 REVERT JUMPDEST POP JUMP JUMPDEST PUSH0 DUP2 CALLDATALOAD SWAP1 POP PUSH2 0x6E4 DUP2 PUSH2 0x6C0 JUMP JUMPDEST SWAP3 SWAP2 POP POP JUMP JUMPDEST PUSH0 PUSH1 0x20 DUP3 DUP5 SUB SLT ISZERO PUSH2 0x6FF JUMPI PUSH2 0x6FE PUSH2 0x6B3 JUMP JUMPDEST JUMPDEST PUSH0 PUSH2 0x70C DUP5 DUP3 DUP6 ADD PUSH2 0x6D6 JUMP JUMPDEST SWAP2 POP POP SWAP3 SWAP2 POP POP JUMP JUMPDEST PUSH0 PUSH20 0xFFFFFFFFFFFFFFFFFFFFFFFFFFFFFFFFFFFFFFFF DUP3 AND SWAP1 POP SWAP2 SWAP1 POP JUMP JUMPDEST PUSH0 DUP2 SWAP1 POP SWAP2 SWAP1 POP JUMP JUMPDEST PUSH0 PUSH2 0x757 PUSH2 0x752 PUSH2 0x74D DUP5 PUSH2 0x715 JUMP JUMPDEST PUSH2 0x734 JUMP JUMPDEST PUSH2 0x715 JUMP JUMPDEST SWAP1 POP SWAP2 SWAP1 POP JUMP JUMPDEST PUSH0 PUSH2 0x768 DUP3 PUSH2 0x73D JUMP JUMPDEST SWAP1 POP SWAP2 SWAP1 POP JUMP JUMPDEST PUSH0 PUSH2 0x779 DUP3 PUSH2 0x75E JUMP JUMPDEST SWAP1 POP SWAP2 SWAP1 POP JUMP JUMPDEST PUSH2 0x789 DUP2 PUSH2 0x76F JUMP JUMPDEST DUP3 MSTORE POP POP JUMP JUMPDEST PUSH0 PUSH1 0x20 DUP3 ADD SWAP1 POP PUSH2 0x7A2 PUSH0 DUP4 ADD DUP5 PUSH2 0x780 JUMP JUMPDEST SWAP3 SWAP2 POP POP JUMP JUMPDEST PUSH0 DUP2 MLOAD SWAP1 POP SWAP2 SWAP1 POP JUMP JUMPDEST PUSH0 DUP3 DUP3 MSTORE PUSH1 0x20 DUP3 ADD SWAP1 POP SWAP3 SWAP2 POP POP JUMP JUMPDEST PUSH0 DUP2 SWAP1 POP PUSH1 0x20 DUP3 ADD SWAP1 POP SWAP2 SWAP1 POP JUMP JUMPDEST PUSH2 0x7DA DUP2 PUSH2 0x76F JUMP JUMPDEST DUP3 MSTORE POP POP JUMP JUMPDEST PUSH0 PUSH2 0x7EB DUP4 DUP4 PUSH2 0x7D1 JUMP JUMPDEST PUSH1 0x20 DUP4 ADD SWAP1 POP SWAP3 SWAP2 POP POP JUMP JUMPDEST PUSH0 PUSH1 0x20 DUP3 ADD SWAP1 POP SWAP2 SWAP1 POP JUMP JUMPDEST PUSH0 PUSH2 0x80D DUP3 PUSH2 0x7A8 JUMP JUMPDEST PUSH2 0x817 DUP2 DUP6 PUSH2 0x7B2 JUMP JUMPDEST SWAP4 POP PUSH2 0x822 DUP4 PUSH2 0x7C2 JUMP JUMPDEST DUP1 PUSH0 JUMPDEST DUP4 DUP2 LT ISZERO PUSH2 0x852 JUMPI DUP2 MLOAD PUSH2 0x839 DUP9 DUP3 PUSH2 0x7E0 JUMP JUMPDEST SWAP8 POP PUSH2 0x844 DUP4 PUSH2 0x7F7 JUMP JUMPDEST SWAP3 POP POP PUSH1 0x1 DUP2 ADD SWAP1 POP PUSH2 0x825 JUMP JUMPDEST POP DUP6 SWAP4 POP POP POP POP SWAP3 SWAP2 POP POP JUMP JUMPDEST PUSH0 PUSH1 0x20 DUP3 ADD SWAP1 POP DUP2 DUP2 SUB PUSH0 DUP4 ADD MSTORE PUSH2 0x877 DUP2 DUP5 PUSH2 0x803 JUMP JUMPDEST SWAP1 POP SWAP3 SWAP2 POP POP JUMP JUMPDEST PUSH0 PUSH2 0xFFFF DUP3 AND SWAP1 POP SWAP2 SWAP1 POP JUMP JUMPDEST PUSH2 0x895 DUP2 PUSH2 0x87F JUMP JUMPDEST DUP2 EQ PUSH2 0x89F JUMPI PUSH0 PUSH0 REVERT JUMPDEST POP JUMP JUMPDEST PUSH0 DUP2 CALLDATALOAD SWAP1 POP PUSH2 0x8B0 DUP2 PUSH2 0x88C JUMP JUMPDEST SWAP3 SWAP2 POP POP JUMP JUMPDEST PUSH0 PUSH1 0x20 DUP3 DUP5 SUB SLT ISZERO PUSH2 0x8CB JUMPI PUSH2 0x8CA PUSH2 0x6B3 JUMP JUMPDEST JUMPDEST PUSH0 PUSH2 0x8D8 DUP5 DUP3 DUP6 ADD PUSH2 0x8A2 JUMP JUMPDEST SWAP2 POP POP SWAP3 SWAP2 POP POP JUMP JUMPDEST PUSH0 PUSH2 0x8EB DUP3 PUSH2 0x715 JUMP JUMPDEST SWAP1 POP SWAP2 SWAP1 POP JUMP JUMPDEST PUSH2 0x8FB DUP2 PUSH2 0x8E1 JUMP JUMPDEST DUP3 MSTORE POP POP JUMP JUMPDEST PUSH0 PUSH1 0x20 DUP3 ADD SWAP1 POP PUSH2 0x914 PUSH0 DUP4 ADD DUP5 PUSH2 0x8F2 JUMP JUMPDEST SWAP3 SWAP2 POP POP JUMP JUMPDEST PUSH0 DUP2 SWAP1 POP SWAP2 SWAP1 POP JUMP JUMPDEST PUSH2 0x92C DUP2 PUSH2 0x91A JUMP JUMPDEST DUP2 EQ PUSH2 0x936 JUMPI PUSH0 PUSH0 REVERT JUMPDEST POP JUMP JUMPDEST PUSH0 DUP2 CALLDATALOAD SWAP1 POP PUSH2 0x947 DUP2 PUSH2 0x923 JUMP JUMPDEST SWAP3 SWAP2 POP POP JUMP JUMPDEST PUSH0 PUSH0 REVERT JUMPDEST PUSH0 DUP2 SWAP1 POP DUP3 PUSH1 0x20 PUSH1 0x3 MUL DUP3 ADD GT ISZERO PUSH2 0x96C JUMPI PUSH2 0x96B PUSH2 0x94D JUMP JUMPDEST JUMPDEST SWAP3 SWAP2 POP POP JUMP JUMPDEST PUSH2 0x97B DUP2 PUSH2 0x8E1 JUMP JUMPDEST DUP2 EQ PUSH2 0x985 JUMPI PUSH0 PUSH0 REVERT JUMPDEST POP JUMP JUMPDEST PUSH0 DUP2 CALLDATALOAD SWAP1 POP PUSH2 0x996 DUP2 PUSH2 0x972 JUMP JUMPDEST SWAP3 SWAP2 POP POP JUMP JUMPDEST PUSH1 0x3 DUP2 LT PUSH2 0x9A8 JUMPI PUSH0 PUSH0 REVERT JUMPDEST POP JUMP JUMPDEST PUSH0 DUP2 CALLDATALOAD SWAP1 POP PUSH2 0x9B9 DUP2 PUSH2 0x99C JUMP JUMPDEST SWAP3 SWAP2 POP POP JUMP JUMPDEST PUSH0 PUSH0 PUSH0 PUSH0 PUSH1 0xC0 DUP6 DUP8 SUB SLT ISZERO PUSH2 0x9D7 JUMPI PUSH2 0x9D6 PUSH2 0x6B3 JUMP JUMPDEST JUMPDEST PUSH0 PUSH2 0x9E4 DUP8 DUP3 DUP9 ADD PUSH2 0x939 JUMP JUMPDEST SWAP5 POP POP PUSH1 0x20 PUSH2 0x9F5 DUP8 DUP3 DUP9 ADD PUSH2 0x951 JUMP JUMPDEST SWAP4 POP POP PUSH1 0x80 PUSH2 0xA06 DUP8 DUP3 DUP9 ADD PUSH2 0x988 JUMP JUMPDEST SWAP3 POP POP PUSH1 0xA0 PUSH2 0xA17 DUP8 DUP3 DUP9 ADD PUSH2 0x9AB JUMP JUMPDEST SWAP2 POP POP SWAP3 SWAP6 SWAP2 SWAP5 POP SWAP3 POP JUMP JUMPDEST PUSH32 0x4E487B7100000000000000000000000000000000000000000000000000000000 PUSH0 MSTORE PUSH1 0x32 PUSH1 0x4 MSTORE PUSH1 0x24 PUSH0 REVERT JUMPDEST PUSH0 DUP2 MLOAD SWAP1 POP PUSH2 0xA5E DUP2 PUSH2 0x923 JUMP JUMPDEST SWAP3 SWAP2 POP POP JUMP JUMPDEST PUSH0 PUSH1 0x20 DUP3 DUP5 SUB SLT ISZERO PUSH2 0xA79 JUMPI PUSH2 0xA78 PUSH2 0x6B3 JUMP JUMPDEST JUMPDEST PUSH0 PUSH2 0xA86 DUP5 DUP3 DUP6 ADD PUSH2 0xA50 JUMP JUMPDEST SWAP2 POP POP SWAP3 SWAP2 POP POP JUMP JUMPDEST PUSH2 0xA98 DUP2 PUSH2 0x91A JUMP JUMPDEST DUP3 MSTORE POP POP JUMP JUMPDEST PUSH0 PUSH1 0x20 DUP3 ADD SWAP1 POP PUSH2 0xAB1 PUSH0 DUP4 ADD DUP5 PUSH2 0xA8F JUMP JUMPDEST SWAP3 SWAP2 POP POP JUMP JUMPDEST PUSH0 DUP2 MLOAD SWAP1 POP PUSH2 0xAC5 DUP2 PUSH2 0x972 JUMP JUMPDEST SWAP3 SWAP2 POP POP JUMP JUMPDEST PUSH0 PUSH1 0x20 DUP3 DUP5 SUB SLT ISZERO PUSH2 0xAE0 JUMPI PUSH2 0xADF PUSH2 0x6B3 JUMP JUMPDEST JUMPDEST PUSH0 PUSH2 0xAED DUP5 DUP3 DUP6 ADD PUSH2 0xAB7 JUMP JUMPDEST SWAP2 POP POP SWAP3 SWAP2 POP POP JUMP JUMPDEST PUSH0 PUSH1 0x3 SWAP1 POP SWAP2 SWAP1 POP JUMP JUMPDEST PUSH0 DUP2 SWAP1 POP SWAP3 SWAP2 POP POP JUMP JUMPDEST PUSH0 DUP2 SWAP1 POP SWAP2 SWAP1 POP JUMP JUMPDEST PUSH0 PUSH4 0xFFFFFFFF DUP3 AND SWAP1 POP SWAP2 SWAP1 POP JUMP JUMPDEST PUSH2 0xB2B DUP2 PUSH2 0xB13 JUMP JUMPDEST DUP3 MSTORE POP POP JUMP JUMPDEST PUSH0 PUSH2 0xB3C DUP4 DUP4 PUSH2 0xB22 JUMP JUMPDEST PUSH1 0x20 DUP4 ADD SWAP1 POP SWAP3 SWAP2 POP POP JUMP JUMPDEST PUSH2 0xB51 DUP2 PUSH2 0xB13 JUMP JUMPDEST DUP2 EQ PUSH2 0xB5B JUMPI PUSH0 PUSH0 REVERT JUMPDEST POP JUMP JUMPDEST PUSH0 DUP2 CALLDATALOAD SWAP1 POP PUSH2 0xB6C DUP2 PUSH2 0xB48 JUMP JUMPDEST SWAP3 SWAP2 POP POP JUMP JUMPDEST PUSH0 PUSH2 0xB80 PUSH1 0x20 DUP5 ADD DUP5 PUSH2 0xB5E JUMP JUMPDEST SWAP1 POP SWAP3 SWAP2 POP POP JUMP JUMPDEST PUSH0 PUSH1 0x20 DUP3 ADD SWAP1 POP SWAP2 SWAP1 POP JUMP JUMPDEST PUSH2 0xB9D DUP2 PUSH2 0xAF6 JUMP JUMPDEST PUSH2 0xBA7 DUP2 DUP5 PUSH2 0xB00 JUMP JUMPDEST SWAP3 POP PUSH2 0xBB2 DUP3 PUSH2 0xB0A JUMP JUMPDEST DUP1 PUSH0 JUMPDEST DUP4 DUP2 LT ISZERO PUSH2 0xBEA JUMPI PUSH2 0xBC7 DUP3 DUP5 PUSH2 0xB72 JUMP JUMPDEST PUSH2 0xBD1 DUP8 DUP3 PUSH2 0xB31 JUMP JUMPDEST SWAP7 POP PUSH2 0xBDC DUP4 PUSH2 0xB88 JUMP JUMPDEST SWAP3 POP POP PUSH1 0x1 DUP2 ADD SWAP1 POP PUSH2 0xBB5 JUMP JUMPDEST POP POP POP POP POP POP JUMP JUMPDEST PUSH0 PUSH1 0x80 DUP3 ADD SWAP1 POP PUSH2 0xC05 PUSH0 DUP4 ADD DUP6 PUSH2 0xA8F JUMP JUMPDEST PUSH2 0xC12 PUSH1 0x20 DUP4 ADD DUP5 PUSH2 0xB94 JUMP JUMPDEST SWAP4 SWAP3 POP POP POP JUMP JUMPDEST PUSH0 PUSH1 0x40 DUP3 ADD SWAP1 POP PUSH2 0xC2C PUSH0 DUP4 ADD DUP6 PUSH2 0xA8F JUMP JUMPDEST PUSH2 0xC39 PUSH1 0x20 DUP4 ADD DUP5 PUSH2 0x8F2 JUMP JUMPDEST SWAP4 SWAP3 POP POP POP JUMP JUMPDEST PUSH32 0x4E487B7100000000000000000000000000000000000000000000000000000000 PUSH0 MSTORE PUSH1 0x21 PUSH1 0x4 MSTORE PUSH1 0x24 PUSH0 REVERT JUMPDEST PUSH1 0x3 DUP2 LT PUSH2 0xC7E JUMPI PUSH2 0xC7D PUSH2 0xC40 JUMP JUMPDEST JUMPDEST POP JUMP JUMPDEST PUSH0 DUP2 SWAP1 POP PUSH2 0xC8E DUP3 PUSH2 0xC6D JUMP JUMPDEST SWAP2 SWAP1 POP JUMP JUMPDEST PUSH0 PUSH2 0xC9D DUP3 PUSH2 0xC81 JUMP JUMPDEST SWAP1 POP SWAP2 SWAP1 POP JUMP JUMPDEST PUSH2 0xCAD DUP2 PUSH2 0xC93 JUMP JUMPDEST DUP3 MSTORE POP POP JUMP JUMPDEST PUSH0 PUSH1 0x20 DUP3 ADD SWAP1 POP PUSH2 0xCC6 PUSH0 DUP4 ADD DUP5 PUSH2 0xCA4 JUMP JUMPDEST SWAP3 SWAP2 POP POP JUMP JUMPDEST PUSH0 DUP2 MLOAD SWAP1 POP PUSH2 0xCDA DUP2 PUSH2 0x99C JUMP JUMPDEST SWAP3 SWAP2 POP POP JUMP JUMPDEST PUSH0 PUSH1 0x20 DUP3 DUP5 SUB SLT ISZERO PUSH2 0xCF5 JUMPI PUSH2 0xCF4 PUSH2 0x6B3 JUMP JUMPDEST JUMPDEST PUSH0 PUSH2 0xD02 DUP5 DUP3 DUP6 ADD PUSH2 0xCCC JUMP JUMPDEST SWAP2 POP POP SWAP3 SWAP2 POP POP JUMP INVALID PUSH1 0x80 PUSH1 0x40 MSTORE CALLVALUE DUP1 ISZERO PUSH1 0xE JUMPI PUSH0 PUSH0 REVERT JUMPDEST POP PUSH2 0xB57 DUP1 PUSH2 0x1C PUSH0 CODECOPY PUSH0 RETURN INVALID PUSH1 0x80 PUSH1 0x40 MSTORE PUSH1 0x4 CALLDATASIZE LT PUSH2 0x7A JUMPI PUSH0 CALLDATALOAD PUSH1 0xE0 SHR DUP1 PUSH4 0x7D9C50F0 GT PUSH2 0x4D JUMPI DUP1 PUSH4 0x7D9C50F0 EQ PUSH2 0x134 JUMPI DUP1 PUSH4 0x9CD09483 EQ PUSH2 0x170 JUMPI DUP1 PUSH4 0xBC1D2A9E EQ PUSH2 0x17A JUMPI DUP1 PUSH4 0xCE5CD34E EQ PUSH2 0x1B6 JUMPI PUSH2 0x7A JUMP JUMPDEST DUP1 PUSH4 0x3EDD962F EQ PUSH2 0x7E JUMPI DUP1 PUSH4 0x556CC692 EQ PUSH2 0xBA JUMPI DUP1 PUSH4 0x5E4F4848 EQ PUSH2 0xE4 JUMPI DUP1 PUSH4 0x75772ACE EQ PUSH2 0x10C JUMPI JUMPDEST PUSH0 PUSH0 REVERT JUMPDEST CALLVALUE DUP1 ISZERO PUSH2 0x89 JUMPI PUSH0 PUSH0 REVERT JUMPDEST POP PUSH2 0xA4 PUSH1 0x4 DUP1 CALLDATASIZE SUB DUP2 ADD SWAP1 PUSH2 0x9F SWAP2 SWAP1 PUSH2 0x6A5 JUMP JUMPDEST PUSH2 0x1F2 JUMP JUMPDEST PUSH1 0x40 MLOAD PUSH2 0xB1 SWAP2 SWAP1 PUSH2 0x72E JUMP JUMPDEST PUSH1 0x40 MLOAD DUP1 SWAP2 SUB SWAP1 RETURN JUMPDEST CALLVALUE DUP1 ISZERO PUSH2 0xC5 JUMPI PUSH0 PUSH0 REVERT JUMPDEST POP PUSH2 0xCE PUSH2 0x28B JUMP JUMPDEST PUSH1 0x40 MLOAD PUSH2 0xDB SWAP2 SWAP1 PUSH2 0x756 JUMP JUMPDEST PUSH1 0x40 MLOAD DUP1 SWAP2 SUB SWAP1 RETURN JUMPDEST CALLVALUE DUP1 ISZERO PUSH2 0xEF JUMPI PUSH0 PUSH0 REVERT JUMPDEST POP PUSH2 0x10A PUSH1 0x4 DUP1 CALLDATASIZE SUB DUP2 ADD SWAP1 PUSH2 0x105 SWAP2 SWAP1 PUSH2 0x7C9 JUMP JUMPDEST PUSH2 0x293 JUMP JUMPDEST STOP JUMPDEST CALLVALUE DUP1 ISZERO PUSH2 0x117 JUMPI PUSH0 PUSH0 REVERT JUMPDEST POP PUSH2 0x132 PUSH1 0x4 DUP1 CALLDATASIZE SUB DUP2 ADD SWAP1 PUSH2 0x12D SWAP2 SWAP1 PUSH2 0x82C JUMP JUMPDEST PUSH2 0x2E6 JUMP JUMPDEST STOP JUMPDEST CALLVALUE DUP1 ISZERO PUSH2 0x13F JUMPI PUSH0 PUSH0 REVERT JUMPDEST POP PUSH2 0x15A PUSH1 0x4 DUP1 CALLDATASIZE SUB DUP2 ADD SWAP1 PUSH2 0x155 SWAP2 SWAP1 PUSH2 0x88D JUMP JUMPDEST PUSH2 0x59B JUMP JUMPDEST PUSH1 0x40 MLOAD PUSH2 0x167 SWAP2 SWAP1 PUSH2 0x92B JUMP JUMPDEST PUSH1 0x40 MLOAD DUP1 SWAP2 SUB SWAP1 RETURN JUMPDEST PUSH2 0x178 PUSH2 0x5DB JUMP JUMPDEST STOP JUMPDEST CALLVALUE DUP1 ISZERO PUSH2 0x185 JUMPI PUSH0 PUSH0 REVERT JUMPDEST POP PUSH2 0x1A0 PUSH1 0x4 DUP1 CALLDATASIZE SUB DUP2 ADD SWAP1 PUSH2 0x19B SWAP2 SWAP1 PUSH2 0x6A5 JUMP JUMPDEST PUSH2 0x5F5 JUMP JUMPDEST PUSH1 0x40 MLOAD PUSH2 0x1AD SWAP2 SWAP1 PUSH2 0x756 JUMP JUMPDEST PUSH1 0x40 MLOAD DUP1 SWAP2 SUB SWAP1 RETURN JUMPDEST CALLVALUE DUP1 ISZERO PUSH2 0x1C1 JUMPI PUSH0 PUSH0 REVERT JUMPDEST POP PUSH2 0x1DC PUSH1 0x4 DUP1 CALLDATASIZE SUB DUP2 ADD SWAP1 PUSH2 0x1D7 SWAP2 SWAP1 PUSH2 0x6A5 JUMP JUMPDEST PUSH2 0x605 JUMP JUMPDEST PUSH1 0x40 MLOAD PUSH2 0x1E9 SWAP2 SWAP1 PUSH2 0x953 JUMP JUMPDEST PUSH1 0x40 MLOAD DUP1 SWAP2 SUB SWAP1 RETURN JUMPDEST PUSH2 0x1FA PUSH2 0x63E JUMP JUMPDEST PUSH1 0x4 PUSH0 DUP4 DUP2 MSTORE PUSH1 0x20 ADD SWAP1 DUP2 MSTORE PUSH1 0x20 ADD PUSH0 KECCAK256 PUSH1 0x40 MLOAD DUP1 PUSH1 0x60 ADD PUSH1 0x40 MSTORE SWAP1 DUP2 PUSH0 DUP3 ADD PUSH0 SWAP1 SLOAD SWAP1 PUSH2 0x100 EXP SWAP1 DIV PUSH4 0xFFFFFFFF AND PUSH4 0xFFFFFFFF AND PUSH4 0xFFFFFFFF AND DUP2 MSTORE PUSH1 0x20 ADD PUSH0 DUP3 ADD PUSH1 0x4 SWAP1 SLOAD SWAP1 PUSH2 0x100 EXP SWAP1 DIV PUSH4 0xFFFFFFFF AND PUSH4 0xFFFFFFFF AND PUSH4 0xFFFFFFFF AND DUP2 MSTORE PUSH1 0x20 ADD PUSH0 DUP3 ADD PUSH1 0x8 SWAP1 SLOAD SWAP1 PUSH2 0x100 EXP SWAP1 DIV PUSH4 0xFFFFFFFF AND PUSH4 0xFFFFFFFF AND PUSH4 0xFFFFFFFF AND DUP2 MSTORE POP POP SWAP1 POP SWAP2 SWAP1 POP JUMP JUMPDEST PUSH0 PUSH0 SLOAD SWAP1 POP SWAP1 JUMP JUMPDEST DUP1 PUSH1 0x2 PUSH0 DUP5 DUP2 MSTORE PUSH1 0x20 ADD SWAP1 DUP2 MSTORE PUSH1 0x20 ADD PUSH0 KECCAK256 PUSH0 PUSH2 0x100 EXP DUP2 SLOAD DUP2 PUSH20 0xFFFFFFFFFFFFFFFFFFFFFFFFFFFFFFFFFFFFFFFF MUL NOT AND SWAP1 DUP4 PUSH20 0xFFFFFFFFFFFFFFFFFFFFFFFFFFFFFFFFFFFFFFFF AND MUL OR SWAP1 SSTORE POP POP POP JUMP JUMPDEST PUSH1 0x64 DUP2 PUSH0 PUSH1 0x3 DUP2 LT PUSH2 0x2FB JUMPI PUSH2 0x2FA PUSH2 0x96C JUMP JUMPDEST JUMPDEST PUSH1 0x20 MUL ADD PUSH1 0x20 DUP2 ADD SWAP1 PUSH2 0x30E SWAP2 SWAP1 PUSH2 0x9C3 JUMP JUMPDEST PUSH4 0xFFFFFFFF AND GT ISZERO DUP1 ISZERO PUSH2 0x34F JUMPI POP PUSH1 0x64 DUP2 PUSH1 0x1 PUSH1 0x3 DUP2 LT PUSH2 0x333 JUMPI PUSH2 0x332 PUSH2 0x96C JUMP JUMPDEST JUMPDEST PUSH1 0x20 MUL ADD PUSH1 0x20 DUP2 ADD SWAP1 PUSH2 0x346 SWAP2 SWAP1 PUSH2 0x9C3 JUMP JUMPDEST PUSH4 0xFFFFFFFF AND GT ISZERO JUMPDEST DUP1 ISZERO PUSH2 0x388 JUMPI POP PUSH1 0x64 DUP2 PUSH1 0x2 PUSH1 0x3 DUP2 LT PUSH2 0x36C JUMPI PUSH2 0x36B PUSH2 0x96C JUMP JUMPDEST JUMPDEST PUSH1 0x20 MUL ADD PUSH1 0x20 DUP2 ADD SWAP1 PUSH2 0x37F SWAP2 SWAP1 PUSH2 0x9C3 JUMP JUMPDEST PUSH4 0xFFFFFFFF AND GT ISZERO JUMPDEST PUSH2 0x3C7 JUMPI PUSH1 0x40 MLOAD PUSH32 0x8C379A000000000000000000000000000000000000000000000000000000000 DUP2 MSTORE PUSH1 0x4 ADD PUSH2 0x3BE SWAP1 PUSH2 0xA48 JUMP JUMPDEST PUSH1 0x40 MLOAD DUP1 SWAP2 SUB SWAP1 REVERT JUMPDEST PUSH1 0x40 MLOAD DUP1 PUSH1 0x60 ADD PUSH1 0x40 MSTORE DUP1 DUP3 PUSH0 PUSH1 0x3 DUP2 LT PUSH2 0x3E5 JUMPI PUSH2 0x3E4 PUSH2 0x96C JUMP JUMPDEST JUMPDEST PUSH1 0x20 MUL ADD PUSH1 0x20 DUP2 ADD SWAP1 PUSH2 0x3F8 SWAP2 SWAP1 PUSH2 0x9C3 JUMP JUMPDEST PUSH4 0xFFFFFFFF AND DUP2 MSTORE PUSH1 0x20 ADD DUP3 PUSH1 0x1 PUSH1 0x3 DUP2 LT PUSH2 0x417 JUMPI PUSH2 0x416 PUSH2 0x96C JUMP JUMPDEST JUMPDEST PUSH1 0x20 MUL ADD PUSH1 0x20 DUP2 ADD SWAP1 PUSH2 0x42A SWAP2 SWAP1 PUSH2 0x9C3 JUMP JUMPDEST PUSH4 0xFFFFFFFF AND DUP2 MSTORE PUSH1 0x20 ADD DUP3 PUSH1 0x2 PUSH1 0x3 DUP2 LT PUSH2 0x449 JUMPI PUSH2 0x448 PUSH2 0x96C JUMP JUMPDEST JUMPDEST PUSH1 0x20 MUL ADD PUSH1 0x20 DUP2 ADD SWAP1 PUSH2 0x45C SWAP2 SWAP1 PUSH2 0x9C3 JUMP JUMPDEST PUSH4 0xFFFFFFFF AND DUP2 MSTORE POP PUSH1 0x4 PUSH0 DUP5 DUP2 MSTORE PUSH1 0x20 ADD SWAP1 DUP2 MSTORE PUSH1 0x20 ADD PUSH0 KECCAK256 PUSH0 DUP3 ADD MLOAD DUP2 PUSH0 ADD PUSH0 PUSH2 0x100 EXP DUP2 SLOAD DUP2 PUSH4 0xFFFFFFFF MUL NOT AND SWAP1 DUP4 PUSH4 0xFFFFFFFF AND MUL OR SWAP1 SSTORE POP PUSH1 0x20 DUP3 ADD MLOAD DUP2 PUSH0 ADD PUSH1 0x4 PUSH2 0x100 EXP DUP2 SLOAD DUP2 PUSH4 0xFFFFFFFF MUL NOT AND SWAP1 DUP4 PUSH4 0xFFFFFFFF AND MUL OR SWAP1 SSTORE POP PUSH1 0x40 DUP3 ADD MLOAD DUP2 PUSH0 ADD PUSH1 0x8 PUSH2 0x100 EXP DUP2 SLOAD DUP2 PUSH4 0xFFFFFFFF MUL NOT AND SWAP1 DUP4 PUSH4 0xFFFFFFFF AND MUL OR SWAP1 SSTORE POP SWAP1 POP POP PUSH32 0x15F0028B62FA7401DABD6A17AE086F7743F7B7BC60401477E82994D7B8C6A156 DUP3 DUP3 PUSH0 PUSH1 0x3 DUP2 LT PUSH2 0x51E JUMPI PUSH2 0x51D PUSH2 0x96C JUMP JUMPDEST JUMPDEST PUSH1 0x20 MUL ADD PUSH1 0x20 DUP2 ADD SWAP1 PUSH2 0x531 SWAP2 SWAP1 PUSH2 0x9C3 JUMP JUMPDEST DUP4 PUSH1 0x1 PUSH1 0x3 DUP2 LT PUSH2 0x545 JUMPI PUSH2 0x544 PUSH2 0x96C JUMP JUMPDEST JUMPDEST PUSH1 0x20 MUL ADD PUSH1 0x20 DUP2 ADD SWAP1 PUSH2 0x558 SWAP2 SWAP1 PUSH2 0x9C3 JUMP JUMPDEST DUP5 PUSH1 0x2 PUSH1 0x3 DUP2 LT PUSH2 0x56C JUMPI PUSH2 0x56B PUSH2 0x96C JUMP JUMPDEST JUMPDEST PUSH1 0x20 MUL ADD PUSH1 0x20 DUP2 ADD SWAP1 PUSH2 0x57F SWAP2 SWAP1 PUSH2 0x9C3 JUMP JUMPDEST PUSH1 0x40 MLOAD PUSH2 0x58F SWAP5 SWAP4 SWAP3 SWAP2 SWAP1 PUSH2 0xA75 JUMP JUMPDEST PUSH1 0x40 MLOAD DUP1 SWAP2 SUB SWAP1 LOG1 POP POP JUMP JUMPDEST PUSH0 DUP2 PUSH1 0x1 PUSH0 PUSH2 0x100 EXP DUP2 SLOAD DUP2 PUSH1 0xFF MUL NOT AND SWAP1 DUP4 PUSH1 0x2 DUP2 GT ISZERO PUSH2 0x5C0 JUMPI PUSH2 0x5BF PUSH2 0x8B8 JUMP JUMPDEST JUMPDEST MUL OR SWAP1 SSTORE POP PUSH1 0x1 PUSH0 SWAP1 SLOAD SWAP1 PUSH2 0x100 EXP SWAP1 DIV PUSH1 0xFF AND SWAP1 POP SWAP2 SWAP1 POP JUMP JUMPDEST CALLVALUE PUSH1 0x3 PUSH0 DUP3 DUP3 SLOAD PUSH2 0x5EC SWAP2 SWAP1 PUSH2 0xAEE JUMP JUMPDEST SWAP3 POP POP DUP2 SWAP1 SSTORE POP JUMP JUMPDEST PUSH0 DUP2 PUSH0 DUP2 SWAP1 SSTORE POP PUSH0 SLOAD SWAP1 POP SWAP2 SWAP1 POP JUMP JUMPDEST PUSH0 PUSH1 0x2 PUSH0 DUP4 DUP2 MSTORE PUSH1 0x20 ADD SWAP1 DUP2 MSTORE PUSH1 0x20 ADD PUSH0 KECCAK256 PUSH0 SWAP1 SLOAD SWAP1 PUSH2 0x100 EXP SWAP1 DIV PUSH20 0xFFFFFFFFFFFFFFFFFFFFFFFFFFFFFFFFFFFFFFFF AND SWAP1 POP SWAP2 SWAP1 POP JUMP JUMPDEST PUSH1 0x40 MLOAD DUP1 PUSH1 0x60 ADD PUSH1 0x40 MSTORE DUP1 PUSH0 PUSH4 0xFFFFFFFF AND DUP2 MSTORE PUSH1 0x20 ADD PUSH0 PUSH4 0xFFFFFFFF AND DUP2 MSTORE PUSH1 0x20 ADD PUSH0 PUSH4 0xFFFFFFFF AND DUP2 MSTORE POP SWAP1 JUMP JUMPDEST PUSH0 PUSH0 REVERT JUMPDEST PUSH0 DUP2 SWAP1 POP SWAP2 SWAP1 POP JUMP JUMPDEST PUSH2 0x684 DUP2 PUSH2 0x672 JUMP JUMPDEST DUP2 EQ PUSH2 0x68E JUMPI PUSH0 PUSH0 REVERT JUMPDEST POP JUMP JUMPDEST PUSH0 DUP2 CALLDATALOAD SWAP1 POP PUSH2 0x69F DUP2 PUSH2 0x67B JUMP JUMPDEST SWAP3 SWAP2 POP POP JUMP JUMPDEST PUSH0 PUSH1 0x20 DUP3 DUP5 SUB SLT ISZERO PUSH2 0x6BA JUMPI PUSH2 0x6B9 PUSH2 0x66E JUMP JUMPDEST JUMPDEST PUSH0 PUSH2 0x6C7 DUP5 DUP3 DUP6 ADD PUSH2 0x691 JUMP JUMPDEST SWAP2 POP POP SWAP3 SWAP2 POP POP JUMP JUMPDEST PUSH0 PUSH4 0xFFFFFFFF DUP3 AND SWAP1 POP SWAP2 SWAP1 POP JUMP JUMPDEST PUSH2 0x6E8 DUP2 PUSH2 0x6D0 JUMP JUMPDEST DUP3 MSTORE POP POP JUMP JUMPDEST PUSH1 0x60 DUP3 ADD PUSH0 DUP3 ADD MLOAD PUSH2 0x702 PUSH0 DUP6 ADD DUP3 PUSH2 0x6DF JUMP JUMPDEST POP PUSH1 0x20 DUP3 ADD MLOAD PUSH2 0x715 PUSH1 0x20 DUP6 ADD DUP3 PUSH2 0x6DF JUMP JUMPDEST POP PUSH1 0x40 DUP3 ADD MLOAD PUSH2 0x728 PUSH1 0x40 DUP6 ADD DUP3 PUSH2 0x6DF JUMP JUMPDEST POP POP POP POP JUMP JUMPDEST PUSH0 PUSH1 0x60 DUP3 ADD SWAP1 POP PUSH2 0x741 PUSH0 DUP4 ADD DUP5 PUSH2 0x6EE JUMP JUMPDEST SWAP3 SWAP2 POP POP JUMP JUMPDEST PUSH2 0x750 DUP2 PUSH2 0x672 JUMP JUMPDEST DUP3 MSTORE POP POP JUMP JUMPDEST PUSH0 PUSH1 0x20 DUP3 ADD SWAP1 POP PUSH2 0x769 PUSH0 DUP4 ADD DUP5 PUSH2 0x747 JUMP JUMPDEST SWAP3 SWAP2 POP POP JUMP JUMPDEST PUSH0 PUSH20 0xFFFFFFFFFFFFFFFFFFFFFFFFFFFFFFFFFFFFFFFF DUP3 AND SWAP1 POP SWAP2 SWAP1 POP JUMP JUMPDEST PUSH0 PUSH2 0x798 DUP3 PUSH2 0x76F JUMP JUMPDEST SWAP1 POP SWAP2 SWAP1 POP JUMP JUMPDEST PUSH2 0x7A8 DUP2 PUSH2 0x78E JUMP JUMPDEST DUP2 EQ PUSH2 0x7B2 JUMPI PUSH0 PUSH0 REVERT JUMPDEST POP JUMP JUMPDEST PUSH0 DUP2 CALLDATALOAD SWAP1 POP PUSH2 0x7C3 DUP2 PUSH2 0x79F JUMP JUMPDEST SWAP3 SWAP2 POP POP JUMP JUMPDEST PUSH0 PUSH0 PUSH1 0x40 DUP4 DUP6 SUB SLT ISZERO PUSH2 0x7DF JUMPI PUSH2 0x7DE PUSH2 0x66E JUMP JUMPDEST JUMPDEST PUSH0 PUSH2 0x7EC DUP6 DUP3 DUP7 ADD PUSH2 0x691 JUMP JUMPDEST SWAP3 POP POP PUSH1 0x20 PUSH2 0x7FD DUP6 DUP3 DUP7 ADD PUSH2 0x7B5 JUMP JUMPDEST SWAP2 POP POP SWAP3 POP SWAP3 SWAP1 POP JUMP JUMPDEST PUSH0 PUSH0 REVERT JUMPDEST PUSH0 DUP2 SWAP1 POP DUP3 PUSH1 0x20 PUSH1 0x3 MUL DUP3 ADD GT ISZERO PUSH2 0x826 JUMPI PUSH2 0x825 PUSH2 0x807 JUMP JUMPDEST JUMPDEST SWAP3 SWAP2 POP POP JUMP JUMPDEST PUSH0 PUSH0 PUSH1 0x80 DUP4 DUP6 SUB SLT ISZERO PUSH2 0x842 JUMPI PUSH2 0x841 PUSH2 0x66E JUMP JUMPDEST JUMPDEST PUSH0 PUSH2 0x84F DUP6 DUP3 DUP7 ADD PUSH2 0x691 JUMP JUMPDEST SWAP3 POP POP PUSH1 0x20 PUSH2 0x860 DUP6 DUP3 DUP7 ADD PUSH2 0x80B JUMP JUMPDEST SWAP2 POP POP SWAP3 POP SWAP3 SWAP1 POP JUMP JUMPDEST PUSH1 0x3 DUP2 LT PUSH2 0x876 JUMPI PUSH0 PUSH0 REVERT JUMPDEST POP JUMP JUMPDEST PUSH0 DUP2 CALLDATALOAD SWAP1 POP PUSH2 0x887 DUP2 PUSH2 0x86A JUMP JUMPDEST SWAP3 SWAP2 POP POP JUMP JUMPDEST PUSH0 PUSH1 0x20 DUP3 DUP5 SUB SLT ISZERO PUSH2 0x8A2 JUMPI PUSH2 0x8A1 PUSH2 0x66E JUMP JUMPDEST JUMPDEST PUSH0 PUSH2 0x8AF DUP5 DUP3 DUP6 ADD PUSH2 0x879 JUMP JUMPDEST SWAP2 POP POP SWAP3 SWAP2 POP POP JUMP JUMPDEST PUSH32 0x4E487B7100000000000000000000000000000000000000000000000000000000 PUSH0 MSTORE PUSH1 0x21 PUSH1 0x4 MSTORE PUSH1 0x24 PUSH0 REVERT JUMPDEST PUSH1 0x3 DUP2 LT PUSH2 0x8F6 JUMPI PUSH2 0x8F5 PUSH2 0x8B8 JUMP JUMPDEST JUMPDEST POP JUMP JUMPDEST PUSH0 DUP2 SWAP1 POP PUSH2 0x906 DUP3 PUSH2 0x8E5 JUMP JUMPDEST SWAP2 SWAP1 POP JUMP JUMPDEST PUSH0 PUSH2 0x915 DUP3 PUSH2 0x8F9 JUMP JUMPDEST SWAP1 POP SWAP2 SWAP1 POP JUMP JUMPDEST PUSH2 0x925 DUP2 PUSH2 0x90B JUMP JUMPDEST DUP3 MSTORE POP POP JUMP JUMPDEST PUSH0 PUSH1 0x20 DUP3 ADD SWAP1 POP PUSH2 0x93E PUSH0 DUP4 ADD DUP5 PUSH2 0x91C JUMP JUMPDEST SWAP3 SWAP2 POP POP JUMP JUMPDEST PUSH2 0x94D DUP2 PUSH2 0x78E JUMP JUMPDEST DUP3 MSTORE POP POP JUMP JUMPDEST PUSH0 PUSH1 0x20 DUP3 ADD SWAP1 POP PUSH2 0x966 PUSH0 DUP4 ADD DUP5 PUSH2 0x944 JUMP JUMPDEST SWAP3 SWAP2 POP POP JUMP JUMPDEST PUSH32 0x4E487B7100000000000000000000000000000000000000000000000000000000 PUSH0 MSTORE PUSH1 0x32 PUSH1 0x4 MSTORE PUSH1 0x24 PUSH0 REVERT JUMPDEST PUSH2 0x9A2 DUP2 PUSH2 0x6D0 JUMP JUMPDEST DUP2 EQ PUSH2 0x9AC JUMPI PUSH0 PUSH0 REVERT JUMPDEST POP JUMP JUMPDEST PUSH0 DUP2 CALLDATALOAD SWAP1 POP PUSH2 0x9BD DUP2 PUSH2 0x999 JUMP JUMPDEST SWAP3 SWAP2 POP POP JUMP JUMPDEST PUSH0 PUSH1 0x20 DUP3 DUP5 SUB SLT ISZERO PUSH2 0x9D8 JUMPI PUSH2 0x9D7 PUSH2 0x66E JUMP JUMPDEST JUMPDEST PUSH0 PUSH2 0x9E5 DUP5 DUP3 DUP6 ADD PUSH2 0x9AF JUMP JUMPDEST SWAP2 POP POP SWAP3 SWAP2 POP POP JUMP JUMPDEST PUSH0 DUP3 DUP3 MSTORE PUSH1 0x20 DUP3 ADD SWAP1 POP SWAP3 SWAP2 POP POP JUMP JUMPDEST PUSH32 0x4D61726B73206D757374206265203C3D20313030000000000000000000000000 PUSH0 DUP3 ADD MSTORE POP JUMP JUMPDEST PUSH0 PUSH2 0xA32 PUSH1 0x14 DUP4 PUSH2 0x9EE JUMP JUMPDEST SWAP2 POP PUSH2 0xA3D DUP3 PUSH2 0x9FE JUMP JUMPDEST PUSH1 0x20 DUP3 ADD SWAP1 POP SWAP2 SWAP1 POP JUMP JUMPDEST PUSH0 PUSH1 0x20 DUP3 ADD SWAP1 POP DUP2 DUP2 SUB PUSH0 DUP4 ADD MSTORE PUSH2 0xA5F DUP2 PUSH2 0xA26 JUMP JUMPDEST SWAP1 POP SWAP2 SWAP1 POP JUMP JUMPDEST PUSH2 0xA6F DUP2 PUSH2 0x6D0 JUMP JUMPDEST DUP3 MSTORE POP POP JUMP JUMPDEST PUSH0 PUSH1 0x80 DUP3 ADD SWAP1 POP PUSH2 0xA88 PUSH0 DUP4 ADD DUP8 PUSH2 0x747 JUMP JUMPDEST PUSH2 0xA95 PUSH1 0x20 DUP4 ADD DUP7 PUSH2 0xA66 JUMP JUMPDEST PUSH2 0xAA2 PUSH1 0x40 DUP4 ADD DUP6 PUSH2 0xA66 JUMP JUMPDEST PUSH2 0xAAF PUSH1 0x60 DUP4 ADD DUP5 PUSH2 0xA66 JUMP JUMPDEST SWAP6 SWAP5 POP POP POP POP POP JUMP JUMPDEST PUSH0 DUP2 SWAP1 POP SWAP2 SWAP1 POP JUMP JUMPDEST PUSH32 0x4E487B7100000000000000000000000000000000000000000000000000000000 PUSH0 MSTORE PUSH1 0x11 PUSH1 0x4 MSTORE PUSH1 0x24 PUSH0 REVERT JUMPDEST PUSH0 PUSH2 0xAF8 DUP3 PUSH2 0xAB8 JUMP JUMPDEST SWAP2 POP PUSH2 0xB03 DUP4 PUSH2 0xAB8 JUMP JUMPDEST SWAP3 POP DUP3 DUP3 ADD SWAP1 POP DUP1 DUP3 GT ISZERO PUSH2 0xB1B JUMPI PUSH2 0xB1A PUSH2 0xAC1 JUMP JUMPDEST JUMPDEST SWAP3 SWAP2 POP POP JUMP INVALID LOG2 PUSH5 0x6970667358 0x22 SLT KECCAK256 DUPN 0x39 CREATE2 LT EOFCREATE 0xA5 BASEFEE 0xD9 0xA6 PUSH5 0x69AFFF594F SDIV SHR EXP DUP14 0xBA 0xE8 PUSH23 0xEDBDBF0817629DA104A164736F6C634300081E0033A264 PUSH10 0x706673582212200E4F2D EQ EXP 0xD6 0xA9 0xC3 CREATE2 EXP PUSH25 0xC8B0820D75C81D72F63B8E1BCA99DDA67C2268ED264736F6C PUSH4 0x4300081E STOP CALLER "
				},
				"gasEstimates": {
					"creation": {
						"codeDepositCost": "1264800",
						"executionCost": "1313",
						"totalCost": "1266113"
					},
					"external": {
						"CreateNewStudent(int256,uint32[3],address,uint8)": "infinite",
						"ViewStudent(uint256)": "infinite",
						"ViewStudentWallet(uint16)": "infinite",
						"ViewStudentWallet2(uint16)": "infinite",
						"ViewStudents()": "infinite"
					},
					"internal": {
						"CaculateGrade(contract StudentInfo)": "infinite"
					}
				},
				"methodIdentifiers": {
					"CreateNewStudent(int256,uint32[3],address,uint8)": "93ed2b3b",
					"ViewStudent(uint256)": "066542bd",
					"ViewStudentWallet(uint16)": "65e90ec2",
					"ViewStudentWallet2(uint16)": "fef0e4d6",
					"ViewStudents()": "4fab1849"
				}
			},
			"storageLayout": {
				"storage": [
					{
						"astId": 6,
						"contract": "Student/contract/Caculate.sol:Caculte",
						"label": "students",
						"offset": 0,
						"slot": "0",
						"type": "t_array(t_contract(StudentInfo)376)dyn_storage"
					}
				],
				"types": {
					"t_array(t_contract(StudentInfo)376)dyn_storage": {
						"base": "t_contract(StudentInfo)376",
						"encoding": "dynamic_array",
						"label": "contract StudentInfo[]",
						"numberOfBytes": "32"
					},
					"t_contract(StudentInfo)376": {
						"encoding": "inplace",
						"label": "contract StudentInfo",
						"numberOfBytes": "20"
					}
				}
			},
			"userdoc": {
				"kind": "user",
				"methods": {},
				"version": 1
			}
		}
	}
}