{
	"contract/student.sol": {
		"StudentInfo": {
			"abi": [
				{
					"inputs": [],
					"name": "balance",
					"outputs": [
						{
							"internalType": "uint256",
							"name": "",
							"type": "uint256"
						}
					],
					"stateMutability": "view",
					"type": "function"
				},
				{
					"inputs": [],
					"name": "grades",
					"outputs": [
						{
							"internalType": "uint32",
							"name": "mark1",
							"type": "uint32"
						},
						{
							"internalType": "uint32",
							"name": "mark2",
							"type": "uint32"
						},
						{
							"internalType": "uint32",
							"name": "mark3",
							"type": "uint32"
						}
					],
					"stateMutability": "view",
					"type": "function"
				},
				{
					"inputs": [
						{
							"internalType": "string",
							"name": "",
							"type": "string"
						}
					],
					"name": "student_wallet",
					"outputs": [
						{
							"internalType": "address",
							"name": "",
							"type": "address"
						}
					],
					"stateMutability": "view",
					"type": "function"
				}
			],
			"devdoc": {
				"kind": "dev",
				"methods": {},
				"version": 1
			},
			"evm": {
				"assembly": "    /* \"contract/student.sol\":55:187  contract StudentInfo... */\n  mstore(0x40, 0x80)\n  callvalue\n  dup1\n  iszero\n  tag_1\n  jumpi\n  revert(0x00, 0x00)\ntag_1:\n  pop\n  dataSize(sub_0)\n  dup1\n  dataOffset(sub_0)\n  0x00\n  codecopy\n  0x00\n  return\nstop\n\nsub_0: assembly {\n        /* \"contract/student.sol\":55:187  contract StudentInfo... */\n      mstore(0x40, 0x80)\n      callvalue\n      dup1\n      iszero\n      tag_1\n      jumpi\n      revert(0x00, 0x00)\n    tag_1:\n      pop\n      jumpi(tag_2, lt(calldatasize, 0x04))\n      shr(0xe0, calldataload(0x00))\n      dup1\n      0x2278ae6f\n      eq\n      tag_3\n      jumpi\n      dup1\n      0xb69ef8a8\n      eq\n      tag_4\n      jumpi\n      dup1\n      0xf1a839bf\n      eq\n      tag_5\n      jumpi\n    tag_2:\n      revert(0x00, 0x00)\n        /* \"contract/student.sol\":165:184  Grade public grades */\n    tag_3:\n      tag_6\n      tag_7\n      jump\t// in\n    tag_6:\n      mload(0x40)\n      tag_8\n      swap4\n      swap3\n      swap2\n      swap1\n      tag_9\n      jump\t// in\n    tag_8:\n      mload(0x40)\n      dup1\n      swap2\n      sub\n      swap1\n      return\n        /* \"contract/student.sol\":137:159  uint256 public balance */\n    tag_4:\n      tag_10\n      tag_11\n      jump\t// in\n    tag_10:\n      mload(0x40)\n      tag_12\n      swap2\n      swap1\n      tag_13\n      jump\t// in\n    tag_12:\n      mload(0x40)\n      dup1\n      swap2\n      sub\n      swap1\n      return\n        /* \"contract/student.sol\":82:131  mapping (string => address) public student_wallet */\n    tag_5:\n      tag_14\n      0x04\n      dup1\n      calldatasize\n      sub\n      dup2\n      add\n      swap1\n      tag_15\n      swap2\n      swap1\n      tag_16\n      jump\t// in\n    tag_15:\n      tag_17\n      jump\t// in\n    tag_14:\n      mload(0x40)\n      tag_18\n      swap2\n      swap1\n      tag_19\n      jump\t// in\n    tag_18:\n      mload(0x40)\n      dup1\n      swap2\n      sub\n      swap1\n      return\n        /* \"contract/student.sol\":165:184  Grade public grades */\n    tag_7:\n      0x02\n      dup1\n      0x00\n      add\n      0x00\n      swap1\n      sload\n      swap1\n      0x0100\n      exp\n      swap1\n      div\n      0xffffffff\n      and\n      swap1\n      dup1\n      0x00\n      add\n      0x04\n      swap1\n      sload\n      swap1\n      0x0100\n      exp\n      swap1\n      div\n      0xffffffff\n      and\n      swap1\n      dup1\n      0x00\n      add\n      0x08\n      swap1\n      sload\n      swap1\n      0x0100\n      exp\n      swap1\n      div\n      0xffffffff\n      and\n      swap1\n      pop\n      dup4\n      jump\t// out\n        /* \"contract/student.sol\":137:159  uint256 public balance */\n    tag_11:\n      sload(0x01)\n      dup2\n      jump\t// out\n        /* \"contract/student.sol\":82:131  mapping (string => address) public student_wallet */\n    tag_17:\n      0x00\n      dup2\n      dup1\n      mload\n      0x20\n      dup2\n      add\n      dup3\n      add\n      dup1\n      mload\n      dup5\n      dup3\n      mstore\n      0x20\n      dup4\n      add\n      0x20\n      dup6\n      add\n      keccak256\n      dup2\n      dup4\n      mstore\n      dup1\n      swap6\n      pop\n      pop\n      pop\n      pop\n      pop\n      pop\n      0x00\n      swap2\n      pop\n      sload\n      swap1\n      0x0100\n      exp\n      swap1\n      div\n      0xffffffffffffffffffffffffffffffffffffffff\n      and\n      dup2\n      jump\t// out\n        /* \"#utility.yul\":7:100   */\n    tag_20:\n        /* \"#utility.yul\":43:50   */\n      0x00\n        /* \"#utility.yul\":83:93   */\n      0xffffffff\n        /* \"#utility.yul\":76:81   */\n      dup3\n        /* \"#utility.yul\":72:94   */\n      and\n        /* \"#utility.yul\":61:94   */\n      swap1\n      pop\n        /* \"#utility.yul\":7:100   */\n      swap2\n      swap1\n      pop\n      jump\t// out\n        /* \"#utility.yul\":106:221   */\n    tag_21:\n        /* \"#utility.yul\":191:214   */\n      tag_43\n        /* \"#utility.yul\":208:213   */\n      dup2\n        /* \"#utility.yul\":191:214   */\n      tag_20\n      jump\t// in\n    tag_43:\n        /* \"#utility.yul\":186:189   */\n      dup3\n        /* \"#utility.yul\":179:215   */\n      mstore\n        /* \"#utility.yul\":106:221   */\n      pop\n      pop\n      jump\t// out\n        /* \"#utility.yul\":227:657   */\n    tag_9:\n        /* \"#utility.yul\":370:374   */\n      0x00\n        /* \"#utility.yul\":408:410   */\n      0x60\n        /* \"#utility.yul\":397:406   */\n      dup3\n        /* \"#utility.yul\":393:411   */\n      add\n        /* \"#utility.yul\":385:411   */\n      swap1\n      pop\n        /* \"#utility.yul\":421:490   */\n      tag_45\n        /* \"#utility.yul\":487:488   */\n      0x00\n        /* \"#utility.yul\":476:485   */\n      dup4\n        /* \"#utility.yul\":472:489   */\n      add\n        /* \"#utility.yul\":463:469   */\n      dup7\n        /* \"#utility.yul\":421:490   */\n      tag_21\n      jump\t// in\n    tag_45:\n        /* \"#utility.yul\":500:570   */\n      tag_46\n        /* \"#utility.yul\":566:568   */\n      0x20\n        /* \"#utility.yul\":555:564   */\n      dup4\n        /* \"#utility.yul\":551:569   */\n      add\n        /* \"#utility.yul\":542:548   */\n      dup6\n        /* \"#utility.yul\":500:570   */\n      tag_21\n      jump\t// in\n    tag_46:\n        /* \"#utility.yul\":580:650   */\n      tag_47\n        /* \"#utility.yul\":646:648   */\n      0x40\n        /* \"#utility.yul\":635:644   */\n      dup4\n        /* \"#utility.yul\":631:649   */\n      add\n        /* \"#utility.yul\":622:628   */\n      dup5\n        /* \"#utility.yul\":580:650   */\n      tag_21\n      jump\t// in\n    tag_47:\n        /* \"#utility.yul\":227:657   */\n      swap5\n      swap4\n      pop\n      pop\n      pop\n      pop\n      jump\t// out\n        /* \"#utility.yul\":663:740   */\n    tag_22:\n        /* \"#utility.yul\":700:707   */\n      0x00\n        /* \"#utility.yul\":729:734   */\n      dup2\n        /* \"#utility.yul\":718:734   */\n      swap1\n      pop\n        /* \"#utility.yul\":663:740   */\n      swap2\n      swap1\n      pop\n      jump\t// out\n        /* \"#utility.yul\":746:864   */\n    tag_23:\n        /* \"#utility.yul\":833:857   */\n      tag_50\n        /* \"#utility.yul\":851:856   */\n      dup2\n        /* \"#utility.yul\":833:857   */\n      tag_22\n      jump\t// in\n    tag_50:\n        /* \"#utility.yul\":828:831   */\n      dup3\n        /* \"#utility.yul\":821:858   */\n      mstore\n        /* \"#utility.yul\":746:864   */\n      pop\n      pop\n      jump\t// out\n        /* \"#utility.yul\":870:1092   */\n    tag_13:\n        /* \"#utility.yul\":963:967   */\n      0x00\n        /* \"#utility.yul\":1001:1003   */\n      0x20\n        /* \"#utility.yul\":990:999   */\n      dup3\n        /* \"#utility.yul\":986:1004   */\n      add\n        /* \"#utility.yul\":978:1004   */\n      swap1\n      pop\n        /* \"#utility.yul\":1014:1085   */\n      tag_52\n        /* \"#utility.yul\":1082:1083   */\n      0x00\n        /* \"#utility.yul\":1071:1080   */\n      dup4\n        /* \"#utility.yul\":1067:1084   */\n      add\n        /* \"#utility.yul\":1058:1064   */\n      dup5\n        /* \"#utility.yul\":1014:1085   */\n      tag_23\n      jump\t// in\n    tag_52:\n        /* \"#utility.yul\":870:1092   */\n      swap3\n      swap2\n      pop\n      pop\n      jump\t// out\n        /* \"#utility.yul\":1098:1173   */\n    tag_24:\n        /* \"#utility.yul\":1131:1137   */\n      0x00\n        /* \"#utility.yul\":1164:1166   */\n      0x40\n        /* \"#utility.yul\":1158:1167   */\n      mload\n        /* \"#utility.yul\":1148:1167   */\n      swap1\n      pop\n        /* \"#utility.yul\":1098:1173   */\n      swap1\n      jump\t// out\n        /* \"#utility.yul\":1179:1296   */\n    tag_25:\n        /* \"#utility.yul\":1288:1289   */\n      0x00\n        /* \"#utility.yul\":1285:1286   */\n      0x00\n        /* \"#utility.yul\":1278:1290   */\n      revert\n        /* \"#utility.yul\":1302:1419   */\n    tag_26:\n        /* \"#utility.yul\":1411:1412   */\n      0x00\n        /* \"#utility.yul\":1408:1409   */\n      0x00\n        /* \"#utility.yul\":1401:1413   */\n      revert\n        /* \"#utility.yul\":1425:1542   */\n    tag_27:\n        /* \"#utility.yul\":1534:1535   */\n      0x00\n        /* \"#utility.yul\":1531:1532   */\n      0x00\n        /* \"#utility.yul\":1524:1536   */\n      revert\n        /* \"#utility.yul\":1548:1665   */\n    tag_28:\n        /* \"#utility.yul\":1657:1658   */\n      0x00\n        /* \"#utility.yul\":1654:1655   */\n      0x00\n        /* \"#utility.yul\":1647:1659   */\n      revert\n        /* \"#utility.yul\":1671:1773   */\n    tag_29:\n        /* \"#utility.yul\":1712:1718   */\n      0x00\n        /* \"#utility.yul\":1763:1765   */\n      0x1f\n        /* \"#utility.yul\":1759:1766   */\n      not\n        /* \"#utility.yul\":1754:1756   */\n      0x1f\n        /* \"#utility.yul\":1747:1752   */\n      dup4\n        /* \"#utility.yul\":1743:1757   */\n      add\n        /* \"#utility.yul\":1739:1767   */\n      and\n        /* \"#utility.yul\":1729:1767   */\n      swap1\n      pop\n        /* \"#utility.yul\":1671:1773   */\n      swap2\n      swap1\n      pop\n      jump\t// out\n        /* \"#utility.yul\":1779:1959   */\n    tag_30:\n        /* \"#utility.yul\":1827:1904   */\n      0x4e487b7100000000000000000000000000000000000000000000000000000000\n        /* \"#utility.yul\":1824:1825   */\n      0x00\n        /* \"#utility.yul\":1817:1905   */\n      mstore\n        /* \"#utility.yul\":1924:1928   */\n      0x41\n        /* \"#utility.yul\":1921:1922   */\n      0x04\n        /* \"#utility.yul\":1914:1929   */\n      mstore\n        /* \"#utility.yul\":1948:1952   */\n      0x24\n        /* \"#utility.yul\":1945:1946   */\n      0x00\n        /* \"#utility.yul\":1938:1953   */\n      revert\n        /* \"#utility.yul\":1965:2246   */\n    tag_31:\n        /* \"#utility.yul\":2048:2075   */\n      tag_61\n        /* \"#utility.yul\":2070:2074   */\n      dup3\n        /* \"#utility.yul\":2048:2075   */\n      tag_29\n      jump\t// in\n    tag_61:\n        /* \"#utility.yul\":2040:2046   */\n      dup2\n        /* \"#utility.yul\":2036:2076   */\n      add\n        /* \"#utility.yul\":2178:2184   */\n      dup2\n        /* \"#utility.yul\":2166:2176   */\n      dup2\n        /* \"#utility.yul\":2163:2185   */\n      lt\n        /* \"#utility.yul\":2142:2160   */\n      0xffffffffffffffff\n        /* \"#utility.yul\":2130:2140   */\n      dup3\n        /* \"#utility.yul\":2127:2161   */\n      gt\n        /* \"#utility.yul\":2124:2186   */\n      or\n        /* \"#utility.yul\":2121:2209   */\n      iszero\n      tag_62\n      jumpi\n        /* \"#utility.yul\":2189:2207   */\n      tag_63\n      tag_30\n      jump\t// in\n    tag_63:\n        /* \"#utility.yul\":2121:2209   */\n    tag_62:\n        /* \"#utility.yul\":2229:2239   */\n      dup1\n        /* \"#utility.yul\":2225:2227   */\n      0x40\n        /* \"#utility.yul\":2218:2240   */\n      mstore\n        /* \"#utility.yul\":2008:2246   */\n      pop\n        /* \"#utility.yul\":1965:2246   */\n      pop\n      pop\n      jump\t// out\n        /* \"#utility.yul\":2252:2381   */\n    tag_32:\n        /* \"#utility.yul\":2286:2292   */\n      0x00\n        /* \"#utility.yul\":2313:2333   */\n      tag_65\n      tag_24\n      jump\t// in\n    tag_65:\n        /* \"#utility.yul\":2303:2333   */\n      swap1\n      pop\n        /* \"#utility.yul\":2342:2375   */\n      tag_66\n        /* \"#utility.yul\":2370:2374   */\n      dup3\n        /* \"#utility.yul\":2362:2368   */\n      dup3\n        /* \"#utility.yul\":2342:2375   */\n      tag_31\n      jump\t// in\n    tag_66:\n        /* \"#utility.yul\":2252:2381   */\n      swap2\n      swap1\n      pop\n      jump\t// out\n        /* \"#utility.yul\":2387:2695   */\n    tag_33:\n        /* \"#utility.yul\":2449:2453   */\n      0x00\n        /* \"#utility.yul\":2539:2557   */\n      0xffffffffffffffff\n        /* \"#utility.yul\":2531:2537   */\n      dup3\n        /* \"#utility.yul\":2528:2558   */\n      gt\n        /* \"#utility.yul\":2525:2581   */\n      iszero\n      tag_68\n      jumpi\n        /* \"#utility.yul\":2561:2579   */\n      tag_69\n      tag_30\n      jump\t// in\n    tag_69:\n        /* \"#utility.yul\":2525:2581   */\n    tag_68:\n        /* \"#utility.yul\":2599:2628   */\n      tag_70\n        /* \"#utility.yul\":2621:2627   */\n      dup3\n        /* \"#utility.yul\":2599:2628   */\n      tag_29\n      jump\t// in\n    tag_70:\n        /* \"#utility.yul\":2591:2628   */\n      swap1\n      pop\n        /* \"#utility.yul\":2683:2687   */\n      0x20\n        /* \"#utility.yul\":2677:2681   */\n      dup2\n        /* \"#utility.yul\":2673:2688   */\n      add\n        /* \"#utility.yul\":2665:2688   */\n      swap1\n      pop\n        /* \"#utility.yul\":2387:2695   */\n      swap2\n      swap1\n      pop\n      jump\t// out\n        /* \"#utility.yul\":2701:2849   */\n    tag_34:\n        /* \"#utility.yul\":2799:2805   */\n      dup3\n        /* \"#utility.yul\":2794:2797   */\n      dup2\n        /* \"#utility.yul\":2789:2792   */\n      dup4\n        /* \"#utility.yul\":2776:2806   */\n      calldatacopy\n        /* \"#utility.yul\":2840:2841   */\n      0x00\n        /* \"#utility.yul\":2831:2837   */\n      dup4\n        /* \"#utility.yul\":2826:2829   */\n      dup4\n        /* \"#utility.yul\":2822:2838   */\n      add\n        /* \"#utility.yul\":2815:2842   */\n      mstore\n        /* \"#utility.yul\":2701:2849   */\n      pop\n      pop\n      pop\n      jump\t// out\n        /* \"#utility.yul\":2855:3280   */\n    tag_35:\n        /* \"#utility.yul\":2933:2938   */\n      0x00\n        /* \"#utility.yul\":2958:3024   */\n      tag_73\n        /* \"#utility.yul\":2974:3023   */\n      tag_74\n        /* \"#utility.yul\":3016:3022   */\n      dup5\n        /* \"#utility.yul\":2974:3023   */\n      tag_33\n      jump\t// in\n    tag_74:\n        /* \"#utility.yul\":2958:3024   */\n      tag_32\n      jump\t// in\n    tag_73:\n        /* \"#utility.yul\":2949:3024   */\n      swap1\n      pop\n        /* \"#utility.yul\":3047:3053   */\n      dup3\n        /* \"#utility.yul\":3040:3045   */\n      dup2\n        /* \"#utility.yul\":3033:3054   */\n      mstore\n        /* \"#utility.yul\":3085:3089   */\n      0x20\n        /* \"#utility.yul\":3078:3083   */\n      dup2\n        /* \"#utility.yul\":3074:3090   */\n      add\n        /* \"#utility.yul\":3123:3126   */\n      dup5\n        /* \"#utility.yul\":3114:3120   */\n      dup5\n        /* \"#utility.yul\":3109:3112   */\n      dup5\n        /* \"#utility.yul\":3105:3121   */\n      add\n        /* \"#utility.yul\":3102:3127   */\n      gt\n        /* \"#utility.yul\":3099:3211   */\n      iszero\n      tag_75\n      jumpi\n        /* \"#utility.yul\":3130:3209   */\n      tag_76\n      tag_28\n      jump\t// in\n    tag_76:\n        /* \"#utility.yul\":3099:3211   */\n    tag_75:\n        /* \"#utility.yul\":3220:3274   */\n      tag_77\n        /* \"#utility.yul\":3267:3273   */\n      dup5\n        /* \"#utility.yul\":3262:3265   */\n      dup3\n        /* \"#utility.yul\":3257:3260   */\n      dup6\n        /* \"#utility.yul\":3220:3274   */\n      tag_34\n      jump\t// in\n    tag_77:\n        /* \"#utility.yul\":2939:3280   */\n      pop\n        /* \"#utility.yul\":2855:3280   */\n      swap4\n      swap3\n      pop\n      pop\n      pop\n      jump\t// out\n        /* \"#utility.yul\":3300:3640   */\n    tag_36:\n        /* \"#utility.yul\":3356:3361   */\n      0x00\n        /* \"#utility.yul\":3405:3408   */\n      dup3\n        /* \"#utility.yul\":3398:3402   */\n      0x1f\n        /* \"#utility.yul\":3390:3396   */\n      dup4\n        /* \"#utility.yul\":3386:3403   */\n      add\n        /* \"#utility.yul\":3382:3409   */\n      slt\n        /* \"#utility.yul\":3372:3494   */\n      tag_79\n      jumpi\n        /* \"#utility.yul\":3413:3492   */\n      tag_80\n      tag_27\n      jump\t// in\n    tag_80:\n        /* \"#utility.yul\":3372:3494   */\n    tag_79:\n        /* \"#utility.yul\":3530:3536   */\n      dup2\n        /* \"#utility.yul\":3517:3537   */\n      calldataload\n        /* \"#utility.yul\":3555:3634   */\n      tag_81\n        /* \"#utility.yul\":3630:3633   */\n      dup5\n        /* \"#utility.yul\":3622:3628   */\n      dup3\n        /* \"#utility.yul\":3615:3619   */\n      0x20\n        /* \"#utility.yul\":3607:3613   */\n      dup7\n        /* \"#utility.yul\":3603:3620   */\n      add\n        /* \"#utility.yul\":3555:3634   */\n      tag_35\n      jump\t// in\n    tag_81:\n        /* \"#utility.yul\":3546:3634   */\n      swap2\n      pop\n        /* \"#utility.yul\":3362:3640   */\n      pop\n        /* \"#utility.yul\":3300:3640   */\n      swap3\n      swap2\n      pop\n      pop\n      jump\t// out\n        /* \"#utility.yul\":3646:4155   */\n    tag_16:\n        /* \"#utility.yul\":3715:3721   */\n      0x00\n        /* \"#utility.yul\":3764:3766   */\n      0x20\n        /* \"#utility.yul\":3752:3761   */\n      dup3\n        /* \"#utility.yul\":3743:3750   */\n      dup5\n        /* \"#utility.yul\":3739:3762   */\n      sub\n        /* \"#utility.yul\":3735:3767   */\n      slt\n        /* \"#utility.yul\":3732:3851   */\n      iszero\n      tag_83\n      jumpi\n        /* \"#utility.yul\":3770:3849   */\n      tag_84\n      tag_25\n      jump\t// in\n    tag_84:\n        /* \"#utility.yul\":3732:3851   */\n    tag_83:\n        /* \"#utility.yul\":3918:3919   */\n      0x00\n        /* \"#utility.yul\":3907:3916   */\n      dup3\n        /* \"#utility.yul\":3903:3920   */\n      add\n        /* \"#utility.yul\":3890:3921   */\n      calldataload\n        /* \"#utility.yul\":3948:3966   */\n      0xffffffffffffffff\n        /* \"#utility.yul\":3940:3946   */\n      dup2\n        /* \"#utility.yul\":3937:3967   */\n      gt\n        /* \"#utility.yul\":3934:4051   */\n      iszero\n      tag_85\n      jumpi\n        /* \"#utility.yul\":3970:4049   */\n      tag_86\n      tag_26\n      jump\t// in\n    tag_86:\n        /* \"#utility.yul\":3934:4051   */\n    tag_85:\n        /* \"#utility.yul\":4075:4138   */\n      tag_87\n        /* \"#utility.yul\":4130:4137   */\n      dup5\n        /* \"#utility.yul\":4121:4127   */\n      dup3\n        /* \"#utility.yul\":4110:4119   */\n      dup6\n        /* \"#utility.yul\":4106:4128   */\n      add\n        /* \"#utility.yul\":4075:4138   */\n      tag_36\n      jump\t// in\n    tag_87:\n        /* \"#utility.yul\":4065:4138   */\n      swap2\n      pop\n        /* \"#utility.yul\":3861:4148   */\n      pop\n        /* \"#utility.yul\":3646:4155   */\n      swap3\n      swap2\n      pop\n      pop\n      jump\t// out\n        /* \"#utility.yul\":4161:4287   */\n    tag_37:\n        /* \"#utility.yul\":4198:4205   */\n      0x00\n        /* \"#utility.yul\":4238:4280   */\n      0xffffffffffffffffffffffffffffffffffffffff\n        /* \"#utility.yul\":4231:4236   */\n      dup3\n        /* \"#utility.yul\":4227:4281   */\n      and\n        /* \"#utility.yul\":4216:4281   */\n      swap1\n      pop\n        /* \"#utility.yul\":4161:4287   */\n      swap2\n      swap1\n      pop\n      jump\t// out\n        /* \"#utility.yul\":4293:4389   */\n    tag_38:\n        /* \"#utility.yul\":4330:4337   */\n      0x00\n        /* \"#utility.yul\":4359:4383   */\n      tag_90\n        /* \"#utility.yul\":4377:4382   */\n      dup3\n        /* \"#utility.yul\":4359:4383   */\n      tag_37\n      jump\t// in\n    tag_90:\n        /* \"#utility.yul\":4348:4383   */\n      swap1\n      pop\n        /* \"#utility.yul\":4293:4389   */\n      swap2\n      swap1\n      pop\n      jump\t// out\n        /* \"#utility.yul\":4395:4513   */\n    tag_39:\n        /* \"#utility.yul\":4482:4506   */\n      tag_92\n        /* \"#utility.yul\":4500:4505   */\n      dup2\n        /* \"#utility.yul\":4482:4506   */\n      tag_38\n      jump\t// in\n    tag_92:\n        /* \"#utility.yul\":4477:4480   */\n      dup3\n        /* \"#utility.yul\":4470:4507   */\n      mstore\n        /* \"#utility.yul\":4395:4513   */\n      pop\n      pop\n      jump\t// out\n        /* \"#utility.yul\":4519:4741   */\n    tag_19:\n        /* \"#utility.yul\":4612:4616   */\n      0x00\n        /* \"#utility.yul\":4650:4652   */\n      0x20\n        /* \"#utility.yul\":4639:4648   */\n      dup3\n        /* \"#utility.yul\":4635:4653   */\n      add\n        /* \"#utility.yul\":4627:4653   */\n      swap1\n      pop\n        /* \"#utility.yul\":4663:4734   */\n      tag_94\n        /* \"#utility.yul\":4731:4732   */\n      0x00\n        /* \"#utility.yul\":4720:4729   */\n      dup4\n        /* \"#utility.yul\":4716:4733   */\n      add\n        /* \"#utility.yul\":4707:4713   */\n      dup5\n        /* \"#utility.yul\":4663:4734   */\n      tag_39\n      jump\t// in\n    tag_94:\n        /* \"#utility.yul\":4519:4741   */\n      swap3\n      swap2\n      pop\n      pop\n      jump\t// out\n\n    auxdata: 0xa2646970667358221220420fb637fd453898cb5089a7a8b2d3971defa9bbbfde34d807f2f5cc1e37da2e64736f6c634300081e0033\n}\n",
				"bytecode": {
					"linkReferences": {},
					"object": "6080604052348015600e575f5ffd5b506103e88061001c5f395ff3fe608060405234801561000f575f5ffd5b506004361061003f575f3560e01c80632278ae6f14610043578063b69ef8a814610063578063f1a839bf14610081575b5f5ffd5b61004b6100b1565b60405161005a93929190610160565b60405180910390f35b61006b6100f5565b60405161007891906101ad565b60405180910390f35b61009b60048036038101906100969190610313565b6100fb565b6040516100a89190610399565b60405180910390f35b6002805f015f9054906101000a900463ffffffff1690805f0160049054906101000a900463ffffffff1690805f0160089054906101000a900463ffffffff16905083565b60015481565b5f818051602081018201805184825260208301602085012081835280955050505050505f915054906101000a900473ffffffffffffffffffffffffffffffffffffffff1681565b5f63ffffffff82169050919050565b61015a81610142565b82525050565b5f6060820190506101735f830186610151565b6101806020830185610151565b61018d6040830184610151565b949350505050565b5f819050919050565b6101a781610195565b82525050565b5f6020820190506101c05f83018461019e565b92915050565b5f604051905090565b5f5ffd5b5f5ffd5b5f5ffd5b5f5ffd5b5f601f19601f8301169050919050565b7f4e487b71000000000000000000000000000000000000000000000000000000005f52604160045260245ffd5b610225826101df565b810181811067ffffffffffffffff82111715610244576102436101ef565b5b80604052505050565b5f6102566101c6565b9050610262828261021c565b919050565b5f67ffffffffffffffff821115610281576102806101ef565b5b61028a826101df565b9050602081019050919050565b828183375f83830152505050565b5f6102b76102b284610267565b61024d565b9050828152602081018484840111156102d3576102d26101db565b5b6102de848285610297565b509392505050565b5f82601f8301126102fa576102f96101d7565b5b813561030a8482602086016102a5565b91505092915050565b5f60208284031215610328576103276101cf565b5b5f82013567ffffffffffffffff811115610345576103446101d3565b5b610351848285016102e6565b91505092915050565b5f73ffffffffffffffffffffffffffffffffffffffff82169050919050565b5f6103838261035a565b9050919050565b61039381610379565b82525050565b5f6020820190506103ac5f83018461038a565b9291505056fea2646970667358221220420fb637fd453898cb5089a7a8b2d3971defa9bbbfde34d807f2f5cc1e37da2e64736f6c634300081e0033",
					"opcodes": "PUSH1 0x80 PUSH1 0x40 MSTORE CALLVALUE DUP1 ISZERO PUSH1 0xE JUMPI PUSH0 PUSH0 REVERT JUMPDEST POP PUSH2 0x3E8 DUP1 PUSH2 0x1C PUSH0 CODECOPY PUSH0 RETURN INVALID PUSH1 0x80 PUSH1 0x40 MSTORE CALLVALUE DUP1 ISZERO PUSH2 0xF JUMPI PUSH0 PUSH0 REVERT JUMPDEST POP PUSH1 0x4 CALLDATASIZE LT PUSH2 0x3F JUMPI PUSH0 CALLDATALOAD PUSH1 0xE0 SHR DUP1 PUSH4 0x2278AE6F EQ PUSH2 0x43 JUMPI DUP1 PUSH4 0xB69EF8A8 EQ PUSH2 0x63 JUMPI DUP1 PUSH4 0xF1A839BF EQ PUSH2 0x81 JUMPI JUMPDEST PUSH0 PUSH0 REVERT JUMPDEST PUSH2 0x4B PUSH2 0xB1 JUMP JUMPDEST PUSH1 0x40 MLOAD PUSH2 0x5A SWAP4 SWAP3 SWAP2 SWAP1 PUSH2 0x160 JUMP JUMPDEST PUSH1 0x40 MLOAD DUP1 SWAP2 SUB SWAP1 RETURN JUMPDEST PUSH2 0x6B PUSH2 0xF5 JUMP JUMPDEST PUSH1 0x40 MLOAD PUSH2 0x78 SWAP2 SWAP1 PUSH2 0x1AD JUMP JUMPDEST PUSH1 0x40 MLOAD DUP1 SWAP2 SUB SWAP1 RETURN JUMPDEST PUSH2 0x9B PUSH1 0x4 DUP1 CALLDATASIZE SUB DUP2 ADD SWAP1 PUSH2 0x96 SWAP2 SWAP1 PUSH2 0x313 JUMP JUMPDEST PUSH2 0xFB JUMP JUMPDEST PUSH1 0x40 MLOAD PUSH2 0xA8 SWAP2 SWAP1 PUSH2 0x399 JUMP JUMPDEST PUSH1 0x40 MLOAD DUP1 SWAP2 SUB SWAP1 RETURN JUMPDEST PUSH1 0x2 DUP1 PUSH0 ADD PUSH0 SWAP1 SLOAD SWAP1 PUSH2 0x100 EXP SWAP1 DIV PUSH4 0xFFFFFFFF AND SWAP1 DUP1 PUSH0 ADD PUSH1 0x4 SWAP1 SLOAD SWAP1 PUSH2 0x100 EXP SWAP1 DIV PUSH4 0xFFFFFFFF AND SWAP1 DUP1 PUSH0 ADD PUSH1 0x8 SWAP1 SLOAD SWAP1 PUSH2 0x100 EXP SWAP1 DIV PUSH4 0xFFFFFFFF AND SWAP1 POP DUP4 JUMP JUMPDEST PUSH1 0x1 SLOAD DUP2 JUMP JUMPDEST PUSH0 DUP2 DUP1 MLOAD PUSH1 0x20 DUP2 ADD DUP3 ADD DUP1 MLOAD DUP5 DUP3 MSTORE PUSH1 0x20 DUP4 ADD PUSH1 0x20 DUP6 ADD KECCAK256 DUP2 DUP4 MSTORE DUP1 SWAP6 POP POP POP POP POP POP PUSH0 SWAP2 POP SLOAD SWAP1 PUSH2 0x100 EXP SWAP1 DIV PUSH20 0xFFFFFFFFFFFFFFFFFFFFFFFFFFFFFFFFFFFFFFFF AND DUP2 JUMP JUMPDEST PUSH0 PUSH4 0xFFFFFFFF DUP3 AND SWAP1 POP SWAP2 SWAP1 POP JUMP JUMPDEST PUSH2 0x15A DUP2 PUSH2 0x142 JUMP JUMPDEST DUP3 MSTORE POP POP JUMP JUMPDEST PUSH0 PUSH1 0x60 DUP3 ADD SWAP1 POP PUSH2 0x173 PUSH0 DUP4 ADD DUP7 PUSH2 0x151 JUMP JUMPDEST PUSH2 0x180 PUSH1 0x20 DUP4 ADD DUP6 PUSH2 0x151 JUMP JUMPDEST PUSH2 0x18D PUSH1 0x40 DUP4 ADD DUP5 PUSH2 0x151 JUMP JUMPDEST SWAP5 SWAP4 POP POP POP POP JUMP JUMPDEST PUSH0 DUP2 SWAP1 POP SWAP2 SWAP1 POP JUMP JUMPDEST PUSH2 0x1A7 DUP2 PUSH2 0x195 JUMP JUMPDEST DUP3 MSTORE POP POP JUMP JUMPDEST PUSH0 PUSH1 0x20 DUP3 ADD SWAP1 POP PUSH2 0x1C0 PUSH0 DUP4 ADD DUP5 PUSH2 0x19E JUMP JUMPDEST SWAP3 SWAP2 POP POP JUMP JUMPDEST PUSH0 PUSH1 0x40 MLOAD SWAP1 POP SWAP1 JUMP JUMPDEST PUSH0 PUSH0 REVERT JUMPDEST PUSH0 PUSH0 REVERT JUMPDEST PUSH0 PUSH0 REVERT JUMPDEST PUSH0 PUSH0 REVERT JUMPDEST PUSH0 PUSH1 0x1F NOT PUSH1 0x1F DUP4 ADD AND SWAP1 POP SWAP2 SWAP1 POP JUMP JUMPDEST PUSH32 0x4E487B7100000000000000000000000000000000000000000000000000000000 PUSH0 MSTORE PUSH1 0x41 PUSH1 0x4 MSTORE PUSH1 0x24 PUSH0 REVERT JUMPDEST PUSH2 0x225 DUP3 PUSH2 0x1DF JUMP JUMPDEST DUP2 ADD DUP2 DUP2 LT PUSH8 0xFFFFFFFFFFFFFFFF DUP3 GT OR ISZERO PUSH2 0x244 JUMPI PUSH2 0x243 PUSH2 0x1EF JUMP JUMPDEST JUMPDEST DUP1 PUSH1 0x40 MSTORE POP POP POP JUMP JUMPDEST PUSH0 PUSH2 0x256 PUSH2 0x1C6 JUMP JUMPDEST SWAP1 POP PUSH2 0x262 DUP3 DUP3 PUSH2 0x21C JUMP JUMPDEST SWAP2 SWAP1 POP JUMP JUMPDEST PUSH0 PUSH8 0xFFFFFFFFFFFFFFFF DUP3 GT ISZERO PUSH2 0x281 JUMPI PUSH2 0x280 PUSH2 0x1EF JUMP JUMPDEST JUMPDEST PUSH2 0x28A DUP3 PUSH2 0x1DF JUMP JUMPDEST SWAP1 POP PUSH1 0x20 DUP2 ADD SWAP1 POP SWAP2 SWAP1 POP JUMP JUMPDEST DUP3 DUP2 DUP4 CALLDATACOPY PUSH0 DUP4 DUP4 ADD MSTORE POP POP POP JUMP JUMPDEST PUSH0 PUSH2 0x2B7 PUSH2 0x2B2 DUP5 PUSH2 0x267 JUMP JUMPDEST PUSH2 0x24D JUMP JUMPDEST SWAP1 POP DUP3 DUP2 MSTORE PUSH1 0x20 DUP2 ADD DUP5 DUP5 DUP5 ADD GT ISZERO PUSH2 0x2D3 JUMPI PUSH2 0x2D2 PUSH2 0x1DB JUMP JUMPDEST JUMPDEST PUSH2 0x2DE DUP5 DUP3 DUP6 PUSH2 0x297 JUMP JUMPDEST POP SWAP4 SWAP3 POP POP POP JUMP JUMPDEST PUSH0 DUP3 PUSH1 0x1F DUP4 ADD SLT PUSH2 0x2FA JUMPI PUSH2 0x2F9 PUSH2 0x1D7 JUMP JUMPDEST JUMPDEST DUP2 CALLDATALOAD PUSH2 0x30A DUP5 DUP3 PUSH1 0x20 DUP7 ADD PUSH2 0x2A5 JUMP JUMPDEST SWAP2 POP POP SWAP3 SWAP2 POP POP JUMP JUMPDEST PUSH0 PUSH1 0x20 DUP3 DUP5 SUB SLT ISZERO PUSH2 0x328 JUMPI PUSH2 0x327 PUSH2 0x1CF JUMP JUMPDEST JUMPDEST PUSH0 DUP3 ADD CALLDATALOAD PUSH8 0xFFFFFFFFFFFFFFFF DUP2 GT ISZERO PUSH2 0x345 JUMPI PUSH2 0x344 PUSH2 0x1D3 JUMP JUMPDEST JUMPDEST PUSH2 0x351 DUP5 DUP3 DUP6 ADD PUSH2 0x2E6 JUMP JUMPDEST SWAP2 POP POP SWAP3 SWAP2 POP POP JUMP JUMPDEST PUSH0 PUSH20 0xFFFFFFFFFFFFFFFFFFFFFFFFFFFFFFFFFFFFFFFF DUP3 AND SWAP1 POP SWAP2 SWAP1 POP JUMP JUMPDEST PUSH0 PUSH2 0x383 DUP3 PUSH2 0x35A JUMP JUMPDEST SWAP1 POP SWAP2 SWAP1 POP JUMP JUMPDEST PUSH2 0x393 DUP2 PUSH2 0x379 JUMP JUMPDEST DUP3 MSTORE POP POP JUMP JUMPDEST PUSH0 PUSH1 0x20 DUP3 ADD SWAP1 POP PUSH2 0x3AC PUSH0 DUP4 ADD DUP5 PUSH2 0x38A JUMP JUMPDEST SWAP3 SWAP2 POP POP JUMP INVALID LOG2 PUSH5 0x6970667358 0x22 SLT KECCAK256 TIMESTAMP 0xF 0xB6 CALLDATACOPY REVERT GASLIMIT CODESIZE SWAP9 0xCB POP DUP10 0xA7 0xA8 0xB2 0xD3 SWAP8 SAR 0xEF 0xA9 0xBB 0xBF 0xDE CALLVALUE 0xD8 SMOD CALLCODE CREATE2 0xCC 0x1E CALLDATACOPY 0xDA 0x2E PUSH5 0x736F6C6343 STOP ADDMOD 0x1E STOP CALLER "
				},
				"gasEstimates": {
					"creation": {
						"codeDepositCost": "200000",
						"executionCost": "243",
						"totalCost": "200243"
					},
					"external": {
						"balance()": "2425",
						"grades()": "infinite",
						"student_wallet(string)": "infinite"
					}
				},
				"methodIdentifiers": {
					"balance()": "b69ef8a8",
					"grades()": "2278ae6f",
					"student_wallet(string)": "f1a839bf"
				}
			},
			"storageLayout": {
				"storage": [
					{
						"astId": 5,
						"contract": "contract/student.sol:StudentInfo",
						"label": "student_wallet",
						"offset": 0,
						"slot": "0",
						"type": "t_mapping(t_string_memory_ptr,t_address)"
					},
					{
						"astId": 7,
						"contract": "contract/student.sol:StudentInfo",
						"label": "balance",
						"offset": 0,
						"slot": "1",
						"type": "t_uint256"
					},
					{
						"astId": 10,
						"contract": "contract/student.sol:StudentInfo",
						"label": "grades",
						"offset": 0,
						"slot": "2",
						"type": "t_struct(Grade)18_storage"
					}
				],
				"types": {
					"t_address": {
						"encoding": "inplace",
						"label": "address",
						"numberOfBytes": "20"
					},
					"t_mapping(t_string_memory_ptr,t_address)": {
						"encoding": "mapping",
						"key": "t_string_memory_ptr",
						"label": "mapping(string => address)",
						"numberOfBytes": "32",
						"value": "t_address"
					},
					"t_string_memory_ptr": {
						"encoding": "bytes",
						"label": "string",
						"numberOfBytes": "32"
					},
					"t_struct(Grade)18_storage": {
						"encoding": "inplace",
						"label": "struct Grade",
						"members": [
							{
								"astId": 13,
								"contract": "contract/student.sol:StudentInfo",
								"label": "mark1",
								"offset": 0,
								"slot": "0",
								"type": "t_uint32"
							},
							{
								"astId": 15,
								"contract": "contract/student.sol:StudentInfo",
								"label": "mark2",
								"offset": 4,
								"slot": "0",
								"type": "t_uint32"
							},
							{
								"astId": 17,
								"contract": "contract/student.sol:StudentInfo",
								"label": "mark3",
								"offset": 8,
								"slot": "0",
								"type": "t_uint32"
							}
						],
						"numberOfBytes": "32"
					},
					"t_uint256": {
						"encoding": "inplace",
						"label": "uint256",
						"numberOfBytes": "32"
					},
					"t_uint32": {
						"encoding": "inplace",
						"label": "uint32",
						"numberOfBytes": "4"
					}
				}
			},
			"userdoc": {
				"kind": "user",
				"methods": {},
				"version": 1
			}
		}
	}
}