{
	"Student/contract/StudentInfo.sol": {
		"StudentInfo": {
			"abi": [
				{
					"anonymous": false,
					"inputs": [
						{
							"indexed": false,
							"internalType": "int256",
							"name": "studentId",
							"type": "int256"
						},
						{
							"indexed": false,
							"internalType": "uint32",
							"name": "mark1",
							"type": "uint32"
						},
						{
							"indexed": false,
							"internalType": "uint32",
							"name": "mark2",
							"type": "uint32"
						},
						{
							"indexed": false,
							"internalType": "uint32",
							"name": "mark3",
							"type": "uint32"
						}
					],
					"name": "GradeUpdated",
					"type": "event"
				},
				{
					"inputs": [],
					"name": "AddFunds",
					"outputs": [],
					"stateMutability": "payable",
					"type": "function"
				},
				{
					"inputs": [
						{
							"internalType": "int256",
							"name": "_studentId",
							"type": "int256"
						}
					],
					"name": "GetStudentGrade",
					"outputs": [
						{
							"components": [
								{
									"internalType": "uint32",
									"name": "mark1",
									"type": "uint32"
								},
								{
									"internalType": "uint32",
									"name": "mark2",
									"type": "uint32"
								},
								{
									"internalType": "uint32",
									"name": "mark3",
									"type": "uint32"
								}
							],
							"internalType": "struct Grade",
							"name": "",
							"type": "tuple"
						}
					],
					"stateMutability": "view",
					"type": "function"
				},
				{
					"inputs": [],
					"name": "GetStudentId",
					"outputs": [
						{
							"internalType": "int256",
							"name": "",
							"type": "int256"
						}
					],
					"stateMutability": "view",
					"type": "function"
				},
				{
					"inputs": [
						{
							"internalType": "int256",
							"name": "_studentId",
							"type": "int256"
						}
					],
					"name": "GetStudentWallet",
					"outputs": [
						{
							"internalType": "address",
							"name": "",
							"type": "address"
						}
					],
					"stateMutability": "view",
					"type": "function"
				},
				{
					"inputs": [
						{
							"internalType": "int256",
							"name": "_studentId",
							"type": "int256"
						},
						{
							"internalType": "uint32[3]",
							"name": "_grades",
							"type": "uint32[3]"
						}
					],
					"name": "SetStudentGrade",
					"outputs": [],
					"stateMutability": "nonpayable",
					"type": "function"
				},
				{
					"inputs": [
						{
							"internalType": "int256",
							"name": "_id",
							"type": "int256"
						}
					],
					"name": "SetStudentId",
					"outputs": [
						{
							"internalType": "int256",
							"name": "",
							"type": "int256"
						}
					],
					"stateMutability": "nonpayable",
					"type": "function"
				},
				{
					"inputs": [
						{
							"internalType": "enum StudentType",
							"name": "_type",
							"type": "uint8"
						}
					],
					"name": "SetStudentType",
					"outputs": [
						{
							"internalType": "enum StudentType",
							"name": "",
							"type": "uint8"
						}
					],
					"stateMutability": "nonpayable",
					"type": "function"
				},
				{
					"inputs": [
						{
							"internalType": "int256",
							"name": "_studentId",
							"type": "int256"
						},
						{
							"internalType": "address",
							"name": "_wallet",
							"type": "address"
						}
					],
					"name": "SetStudentWallet",
					"outputs": [],
					"stateMutability": "nonpayable",
					"type": "function"
				}
			],
			"devdoc": {
				"kind": "dev",
				"methods": {},
				"version": 1
			},
			"evm": {
				"assembly": "    /* \"Student/contract/StudentInfo.sol\":200:2336  contract StudentInfo {... */\n  mstore(0x40, 0x80)\n  callvalue\n  dup1\n  iszero\n  tag_1\n  jumpi\n  revert(0x00, 0x00)\ntag_1:\n  pop\n  dataSize(sub_0)\n  dup1\n  dataOffset(sub_0)\n  0x00\n  codecopy\n  0x00\n  return\nstop\n\nsub_0: assembly {\n        /* \"Student/contract/StudentInfo.sol\":200:2336  contract StudentInfo {... */\n      mstore(0x40, 0x80)\n      jumpi(tag_1, lt(calldatasize, 0x04))\n      shr(0xe0, calldataload(0x00))\n      dup1\n      0x7d9c50f0\n      gt\n      tag_10\n      jumpi\n      dup1\n      0x7d9c50f0\n      eq\n      tag_6\n      jumpi\n      dup1\n      0x9cd09483\n      eq\n      tag_7\n      jumpi\n      dup1\n      0xbc1d2a9e\n      eq\n      tag_8\n      jumpi\n      dup1\n      0xce5cd34e\n      eq\n      tag_9\n      jumpi\n      jump(tag_1)\n    tag_10:\n      dup1\n      0x3edd962f\n      eq\n      tag_2\n      jumpi\n      dup1\n      0x556cc692\n      eq\n      tag_3\n      jumpi\n      dup1\n      0x5e4f4848\n      eq\n      tag_4\n      jumpi\n      dup1\n      0x75772ace\n      eq\n      tag_5\n      jumpi\n    tag_1:\n      revert(0x00, 0x00)\n        /* \"Student/contract/StudentInfo.sol\":1387:1517  function GetStudentGrade(int256  _studentId) public view returns (Grade memory) {... */\n    tag_2:\n      callvalue\n      dup1\n      iszero\n      tag_11\n      jumpi\n      revert(0x00, 0x00)\n    tag_11:\n      pop\n      tag_12\n      0x04\n      dup1\n      calldatasize\n      sub\n      dup2\n      add\n      swap1\n      tag_13\n      swap2\n      swap1\n      tag_14\n      jump\t// in\n    tag_13:\n      tag_15\n      jump\t// in\n    tag_12:\n      mload(0x40)\n      tag_16\n      swap2\n      swap1\n      tag_17\n      jump\t// in\n    tag_16:\n      mload(0x40)\n      dup1\n      swap2\n      sub\n      swap1\n      return\n        /* \"Student/contract/StudentInfo.sol\":1833:1921  function GetStudentId() public view returns (int256) {... */\n    tag_3:\n      callvalue\n      dup1\n      iszero\n      tag_18\n      jumpi\n      revert(0x00, 0x00)\n    tag_18:\n      pop\n      tag_19\n      tag_20\n      jump\t// in\n    tag_19:\n      mload(0x40)\n      tag_21\n      swap2\n      swap1\n      tag_22\n      jump\t// in\n    tag_21:\n      mload(0x40)\n      dup1\n      swap2\n      sub\n      swap1\n      return\n        /* \"Student/contract/StudentInfo.sol\":1569:1692  function SetStudentWallet(int256  _studentId, address _wallet) public {... */\n    tag_4:\n      callvalue\n      dup1\n      iszero\n      tag_23\n      jumpi\n      revert(0x00, 0x00)\n    tag_23:\n      pop\n      tag_24\n      0x04\n      dup1\n      calldatasize\n      sub\n      dup2\n      add\n      swap1\n      tag_25\n      swap2\n      swap1\n      tag_26\n      jump\t// in\n    tag_25:\n      tag_27\n      jump\t// in\n    tag_24:\n      stop\n        /* \"Student/contract/StudentInfo.sol\":762:1336  function SetStudentGrade(int256  _studentId, uint32[3] calldata _grades) public {... */\n    tag_5:\n      callvalue\n      dup1\n      iszero\n      tag_28\n      jumpi\n      revert(0x00, 0x00)\n    tag_28:\n      pop\n      tag_29\n      0x04\n      dup1\n      calldatasize\n      sub\n      dup2\n      add\n      swap1\n      tag_30\n      swap2\n      swap1\n      tag_31\n      jump\t// in\n    tag_30:\n      tag_32\n      jump\t// in\n    tag_29:\n      stop\n        /* \"Student/contract/StudentInfo.sol\":2043:2196  function SetStudentType(StudentType  _type) public  returns (StudentType) {... */\n    tag_6:\n      callvalue\n      dup1\n      iszero\n      tag_33\n      jumpi\n      revert(0x00, 0x00)\n    tag_33:\n      pop\n      tag_34\n      0x04\n      dup1\n      calldatasize\n      sub\n      dup2\n      add\n      swap1\n      tag_35\n      swap2\n      swap1\n      tag_36\n      jump\t// in\n    tag_35:\n      tag_37\n      jump\t// in\n    tag_34:\n      mload(0x40)\n      tag_38\n      swap2\n      swap1\n      tag_39\n      jump\t// in\n    tag_38:\n      mload(0x40)\n      dup1\n      swap2\n      sub\n      swap1\n      return\n        /* \"Student/contract/StudentInfo.sol\":2256:2328  function AddFunds() public payable {... */\n    tag_7:\n      tag_40\n      tag_41\n      jump\t// in\n    tag_40:\n      stop\n        /* \"Student/contract/StudentInfo.sol\":1926:2038  function SetStudentId(int256  _id) public returns (int256) {... */\n    tag_8:\n      callvalue\n      dup1\n      iszero\n      tag_42\n      jumpi\n      revert(0x00, 0x00)\n    tag_42:\n      pop\n      tag_43\n      0x04\n      dup1\n      calldatasize\n      sub\n      dup2\n      add\n      swap1\n      tag_44\n      swap2\n      swap1\n      tag_14\n      jump\t// in\n    tag_44:\n      tag_45\n      jump\t// in\n    tag_43:\n      mload(0x40)\n      tag_46\n      swap2\n      swap1\n      tag_22\n      jump\t// in\n    tag_46:\n      mload(0x40)\n      dup1\n      swap2\n      sub\n      swap1\n      return\n        /* \"Student/contract/StudentInfo.sol\":1697:1823  function GetStudentWallet(int256 _studentId) public view returns (address)  {... */\n    tag_9:\n      callvalue\n      dup1\n      iszero\n      tag_47\n      jumpi\n      revert(0x00, 0x00)\n    tag_47:\n      pop\n      tag_48\n      0x04\n      dup1\n      calldatasize\n      sub\n      dup2\n      add\n      swap1\n      tag_49\n      swap2\n      swap1\n      tag_14\n      jump\t// in\n    tag_49:\n      tag_50\n      jump\t// in\n    tag_48:\n      mload(0x40)\n      tag_51\n      swap2\n      swap1\n      tag_52\n      jump\t// in\n    tag_51:\n      mload(0x40)\n      dup1\n      swap2\n      sub\n      swap1\n      return\n        /* \"Student/contract/StudentInfo.sol\":1387:1517  function GetStudentGrade(int256  _studentId) public view returns (Grade memory) {... */\n    tag_15:\n        /* \"Student/contract/StudentInfo.sol\":1453:1465  Grade memory */\n      tag_53\n      tag_54\n      jump\t// in\n    tag_53:\n        /* \"Student/contract/StudentInfo.sol\":1484:1498  student_grades */\n      0x04\n        /* \"Student/contract/StudentInfo.sol\":1484:1510  student_grades[_studentId] */\n      0x00\n        /* \"Student/contract/StudentInfo.sol\":1499:1509  _studentId */\n      dup4\n        /* \"Student/contract/StudentInfo.sol\":1484:1510  student_grades[_studentId] */\n      dup2\n      mstore\n      0x20\n      add\n      swap1\n      dup2\n      mstore\n      0x20\n      add\n      0x00\n      keccak256\n        /* \"Student/contract/StudentInfo.sol\":1477:1510  return student_grades[_studentId] */\n      mload(0x40)\n      dup1\n      0x60\n      add\n      0x40\n      mstore\n      swap1\n      dup2\n      0x00\n      dup3\n      add\n      0x00\n      swap1\n      sload\n      swap1\n      0x0100\n      exp\n      swap1\n      div\n      0xffffffff\n      and\n      0xffffffff\n      and\n      0xffffffff\n      and\n      dup2\n      mstore\n      0x20\n      add\n      0x00\n      dup3\n      add\n      0x04\n      swap1\n      sload\n      swap1\n      0x0100\n      exp\n      swap1\n      div\n      0xffffffff\n      and\n      0xffffffff\n      and\n      0xffffffff\n      and\n      dup2\n      mstore\n      0x20\n      add\n      0x00\n      dup3\n      add\n      0x08\n      swap1\n      sload\n      swap1\n      0x0100\n      exp\n      swap1\n      div\n      0xffffffff\n      and\n      0xffffffff\n      and\n      0xffffffff\n      and\n      dup2\n      mstore\n      pop\n      pop\n      swap1\n      pop\n        /* \"Student/contract/StudentInfo.sol\":1387:1517  function GetStudentGrade(int256  _studentId) public view returns (Grade memory) {... */\n      swap2\n      swap1\n      pop\n      jump\t// out\n        /* \"Student/contract/StudentInfo.sol\":1833:1921  function GetStudentId() public view returns (int256) {... */\n    tag_20:\n        /* \"Student/contract/StudentInfo.sol\":1878:1884  int256 */\n      0x00\n        /* \"Student/contract/StudentInfo.sol\":1903:1905  id */\n      sload(0x00)\n        /* \"Student/contract/StudentInfo.sol\":1896:1905  return id */\n      swap1\n      pop\n        /* \"Student/contract/StudentInfo.sol\":1833:1921  function GetStudentId() public view returns (int256) {... */\n      swap1\n      jump\t// out\n        /* \"Student/contract/StudentInfo.sol\":1569:1692  function SetStudentWallet(int256  _studentId, address _wallet) public {... */\n    tag_27:\n        /* \"Student/contract/StudentInfo.sol\":1678:1685  _wallet */\n      dup1\n        /* \"Student/contract/StudentInfo.sol\":1649:1663  student_wallet */\n      0x02\n        /* \"Student/contract/StudentInfo.sol\":1649:1675  student_wallet[_studentId] */\n      0x00\n        /* \"Student/contract/StudentInfo.sol\":1664:1674  _studentId */\n      dup5\n        /* \"Student/contract/StudentInfo.sol\":1649:1675  student_wallet[_studentId] */\n      dup2\n      mstore\n      0x20\n      add\n      swap1\n      dup2\n      mstore\n      0x20\n      add\n      0x00\n      keccak256\n      0x00\n        /* \"Student/contract/StudentInfo.sol\":1649:1685  student_wallet[_studentId] = _wallet */\n      0x0100\n      exp\n      dup2\n      sload\n      dup2\n      0xffffffffffffffffffffffffffffffffffffffff\n      mul\n      not\n      and\n      swap1\n      dup4\n      0xffffffffffffffffffffffffffffffffffffffff\n      and\n      mul\n      or\n      swap1\n      sstore\n      pop\n        /* \"Student/contract/StudentInfo.sol\":1569:1692  function SetStudentWallet(int256  _studentId, address _wallet) public {... */\n      pop\n      pop\n      jump\t// out\n        /* \"Student/contract/StudentInfo.sol\":762:1336  function SetStudentGrade(int256  _studentId, uint32[3] calldata _grades) public {... */\n    tag_32:\n        /* \"Student/contract/StudentInfo.sol\":947:950  100 */\n      0x64\n        /* \"Student/contract/StudentInfo.sol\":933:940  _grades */\n      dup2\n        /* \"Student/contract/StudentInfo.sol\":941:942  0 */\n      0x00\n        /* \"Student/contract/StudentInfo.sol\":933:943  _grades[0] */\n      0x03\n      dup2\n      lt\n      tag_59\n      jumpi\n      tag_60\n      tag_61\n      jump\t// in\n    tag_60:\n    tag_59:\n      0x20\n      mul\n      add\n      0x20\n      dup2\n      add\n      swap1\n      tag_62\n      swap2\n      swap1\n      tag_63\n      jump\t// in\n    tag_62:\n        /* \"Student/contract/StudentInfo.sol\":933:950  _grades[0] <= 100 */\n      0xffffffff\n      and\n      gt\n      iszero\n        /* \"Student/contract/StudentInfo.sol\":933:971  _grades[0] <= 100 && _grades[1] <= 100 */\n      dup1\n      iszero\n      tag_64\n      jumpi\n      pop\n        /* \"Student/contract/StudentInfo.sol\":968:971  100 */\n      0x64\n        /* \"Student/contract/StudentInfo.sol\":954:961  _grades */\n      dup2\n        /* \"Student/contract/StudentInfo.sol\":962:963  1 */\n      0x01\n        /* \"Student/contract/StudentInfo.sol\":954:964  _grades[1] */\n      0x03\n      dup2\n      lt\n      tag_65\n      jumpi\n      tag_66\n      tag_61\n      jump\t// in\n    tag_66:\n    tag_65:\n      0x20\n      mul\n      add\n      0x20\n      dup2\n      add\n      swap1\n      tag_67\n      swap2\n      swap1\n      tag_63\n      jump\t// in\n    tag_67:\n        /* \"Student/contract/StudentInfo.sol\":954:971  _grades[1] <= 100 */\n      0xffffffff\n      and\n      gt\n      iszero\n        /* \"Student/contract/StudentInfo.sol\":933:971  _grades[0] <= 100 && _grades[1] <= 100 */\n    tag_64:\n        /* \"Student/contract/StudentInfo.sol\":933:992  _grades[0] <= 100 && _grades[1] <= 100 && _grades[2] <= 100 */\n      dup1\n      iszero\n      tag_68\n      jumpi\n      pop\n        /* \"Student/contract/StudentInfo.sol\":989:992  100 */\n      0x64\n        /* \"Student/contract/StudentInfo.sol\":975:982  _grades */\n      dup2\n        /* \"Student/contract/StudentInfo.sol\":983:984  2 */\n      0x02\n        /* \"Student/contract/StudentInfo.sol\":975:985  _grades[2] */\n      0x03\n      dup2\n      lt\n      tag_69\n      jumpi\n      tag_70\n      tag_61\n      jump\t// in\n    tag_70:\n    tag_69:\n      0x20\n      mul\n      add\n      0x20\n      dup2\n      add\n      swap1\n      tag_71\n      swap2\n      swap1\n      tag_63\n      jump\t// in\n    tag_71:\n        /* \"Student/contract/StudentInfo.sol\":975:992  _grades[2] <= 100 */\n      0xffffffff\n      and\n      gt\n      iszero\n        /* \"Student/contract/StudentInfo.sol\":933:992  _grades[0] <= 100 && _grades[1] <= 100 && _grades[2] <= 100 */\n    tag_68:\n        /* \"Student/contract/StudentInfo.sol\":925:1017  require(_grades[0] <= 100 && _grades[1] <= 100 && _grades[2] <= 100, \"Marks must be <= 100\") */\n      tag_72\n      jumpi\n      mload(0x40)\n      0x08c379a000000000000000000000000000000000000000000000000000000000\n      dup2\n      mstore\n      0x04\n      add\n      tag_73\n      swap1\n      tag_74\n      jump\t// in\n    tag_73:\n      mload(0x40)\n      dup1\n      swap2\n      sub\n      swap1\n      revert\n    tag_72:\n        /* \"Student/contract/StudentInfo.sol\":1104:1214  Grade({... */\n      mload(0x40)\n      dup1\n      0x60\n      add\n      0x40\n      mstore\n      dup1\n        /* \"Student/contract/StudentInfo.sol\":1131:1138  _grades */\n      dup3\n        /* \"Student/contract/StudentInfo.sol\":1139:1140  0 */\n      0x00\n        /* \"Student/contract/StudentInfo.sol\":1131:1141  _grades[0] */\n      0x03\n      dup2\n      lt\n      tag_75\n      jumpi\n      tag_76\n      tag_61\n      jump\t// in\n    tag_76:\n    tag_75:\n      0x20\n      mul\n      add\n      0x20\n      dup2\n      add\n      swap1\n      tag_77\n      swap2\n      swap1\n      tag_63\n      jump\t// in\n    tag_77:\n        /* \"Student/contract/StudentInfo.sol\":1104:1214  Grade({... */\n      0xffffffff\n      and\n      dup2\n      mstore\n      0x20\n      add\n        /* \"Student/contract/StudentInfo.sol\":1162:1169  _grades */\n      dup3\n        /* \"Student/contract/StudentInfo.sol\":1170:1171  1 */\n      0x01\n        /* \"Student/contract/StudentInfo.sol\":1162:1172  _grades[1] */\n      0x03\n      dup2\n      lt\n      tag_78\n      jumpi\n      tag_79\n      tag_61\n      jump\t// in\n    tag_79:\n    tag_78:\n      0x20\n      mul\n      add\n      0x20\n      dup2\n      add\n      swap1\n      tag_80\n      swap2\n      swap1\n      tag_63\n      jump\t// in\n    tag_80:\n        /* \"Student/contract/StudentInfo.sol\":1104:1214  Grade({... */\n      0xffffffff\n      and\n      dup2\n      mstore\n      0x20\n      add\n        /* \"Student/contract/StudentInfo.sol\":1193:1200  _grades */\n      dup3\n        /* \"Student/contract/StudentInfo.sol\":1201:1202  2 */\n      0x02\n        /* \"Student/contract/StudentInfo.sol\":1193:1203  _grades[2] */\n      0x03\n      dup2\n      lt\n      tag_81\n      jumpi\n      tag_82\n      tag_61\n      jump\t// in\n    tag_82:\n    tag_81:\n      0x20\n      mul\n      add\n      0x20\n      dup2\n      add\n      swap1\n      tag_83\n      swap2\n      swap1\n      tag_63\n      jump\t// in\n    tag_83:\n        /* \"Student/contract/StudentInfo.sol\":1104:1214  Grade({... */\n      0xffffffff\n      and\n      dup2\n      mstore\n      pop\n        /* \"Student/contract/StudentInfo.sol\":1075:1089  student_grades */\n      0x04\n        /* \"Student/contract/StudentInfo.sol\":1075:1101  student_grades[_studentId] */\n      0x00\n        /* \"Student/contract/StudentInfo.sol\":1090:1100  _studentId */\n      dup5\n        /* \"Student/contract/StudentInfo.sol\":1075:1101  student_grades[_studentId] */\n      dup2\n      mstore\n      0x20\n      add\n      swap1\n      dup2\n      mstore\n      0x20\n      add\n      0x00\n      keccak256\n        /* \"Student/contract/StudentInfo.sol\":1075:1214  student_grades[_studentId] = Grade({... */\n      0x00\n      dup3\n      add\n      mload\n      dup2\n      0x00\n      add\n      exp(0x0100, 0x00)\n      dup2\n      sload\n      dup2\n      0xffffffff\n      mul\n      not\n      and\n      swap1\n      dup4\n      0xffffffff\n      and\n      mul\n      or\n      swap1\n      sstore\n      pop\n      0x20\n      dup3\n      add\n      mload\n      dup2\n      0x00\n      add\n      exp(0x0100, 0x04)\n      dup2\n      sload\n      dup2\n      0xffffffff\n      mul\n      not\n      and\n      swap1\n      dup4\n      0xffffffff\n      and\n      mul\n      or\n      swap1\n      sstore\n      pop\n      0x40\n      dup3\n      add\n      mload\n      dup2\n      0x00\n      add\n      exp(0x0100, 0x08)\n      dup2\n      sload\n      dup2\n      0xffffffff\n      mul\n      not\n      and\n      swap1\n      dup4\n      0xffffffff\n      and\n      mul\n      or\n      swap1\n      sstore\n      pop\n      swap1\n      pop\n      pop\n        /* \"Student/contract/StudentInfo.sol\":1269:1329  GradeUpdated(_studentId, _grades[0], _grades[1], _grades[2]) */\n      0x15f0028b62fa7401dabd6a17ae086f7743f7b7bc60401477e82994d7b8c6a156\n        /* \"Student/contract/StudentInfo.sol\":1282:1292  _studentId */\n      dup3\n        /* \"Student/contract/StudentInfo.sol\":1294:1301  _grades */\n      dup3\n        /* \"Student/contract/StudentInfo.sol\":1302:1303  0 */\n      0x00\n        /* \"Student/contract/StudentInfo.sol\":1294:1304  _grades[0] */\n      0x03\n      dup2\n      lt\n      tag_84\n      jumpi\n      tag_85\n      tag_61\n      jump\t// in\n    tag_85:\n    tag_84:\n      0x20\n      mul\n      add\n      0x20\n      dup2\n      add\n      swap1\n      tag_86\n      swap2\n      swap1\n      tag_63\n      jump\t// in\n    tag_86:\n        /* \"Student/contract/StudentInfo.sol\":1306:1313  _grades */\n      dup4\n        /* \"Student/contract/StudentInfo.sol\":1314:1315  1 */\n      0x01\n        /* \"Student/contract/StudentInfo.sol\":1306:1316  _grades[1] */\n      0x03\n      dup2\n      lt\n      tag_87\n      jumpi\n      tag_88\n      tag_61\n      jump\t// in\n    tag_88:\n    tag_87:\n      0x20\n      mul\n      add\n      0x20\n      dup2\n      add\n      swap1\n      tag_89\n      swap2\n      swap1\n      tag_63\n      jump\t// in\n    tag_89:\n        /* \"Student/contract/StudentInfo.sol\":1318:1325  _grades */\n      dup5\n        /* \"Student/contract/StudentInfo.sol\":1326:1327  2 */\n      0x02\n        /* \"Student/contract/StudentInfo.sol\":1318:1328  _grades[2] */\n      0x03\n      dup2\n      lt\n      tag_90\n      jumpi\n      tag_91\n      tag_61\n      jump\t// in\n    tag_91:\n    tag_90:\n      0x20\n      mul\n      add\n      0x20\n      dup2\n      add\n      swap1\n      tag_92\n      swap2\n      swap1\n      tag_63\n      jump\t// in\n    tag_92:\n        /* \"Student/contract/StudentInfo.sol\":1269:1329  GradeUpdated(_studentId, _grades[0], _grades[1], _grades[2]) */\n      mload(0x40)\n      tag_93\n      swap5\n      swap4\n      swap3\n      swap2\n      swap1\n      tag_94\n      jump\t// in\n    tag_93:\n      mload(0x40)\n      dup1\n      swap2\n      sub\n      swap1\n      log1\n        /* \"Student/contract/StudentInfo.sol\":762:1336  function SetStudentGrade(int256  _studentId, uint32[3] calldata _grades) public {... */\n      pop\n      pop\n      jump\t// out\n        /* \"Student/contract/StudentInfo.sol\":2043:2196  function SetStudentType(StudentType  _type) public  returns (StudentType) {... */\n    tag_37:\n        /* \"Student/contract/StudentInfo.sol\":2104:2115  StudentType */\n      0x00\n        /* \"Student/contract/StudentInfo.sol\":2151:2156  _type */\n      dup2\n        /* \"Student/contract/StudentInfo.sol\":2136:2148  student_type */\n      0x01\n      0x00\n        /* \"Student/contract/StudentInfo.sol\":2136:2156  student_type = _type */\n      0x0100\n      exp\n      dup2\n      sload\n      dup2\n      0xff\n      mul\n      not\n      and\n      swap1\n      dup4\n      0x02\n      dup2\n      gt\n      iszero\n      tag_96\n      jumpi\n      tag_97\n      tag_98\n      jump\t// in\n    tag_97:\n    tag_96:\n      mul\n      or\n      swap1\n      sstore\n      pop\n        /* \"Student/contract/StudentInfo.sol\":2174:2186  student_type */\n      0x01\n      0x00\n      swap1\n      sload\n      swap1\n      0x0100\n      exp\n      swap1\n      div\n      0xff\n      and\n        /* \"Student/contract/StudentInfo.sol\":2167:2186  return student_type */\n      swap1\n      pop\n        /* \"Student/contract/StudentInfo.sol\":2043:2196  function SetStudentType(StudentType  _type) public  returns (StudentType) {... */\n      swap2\n      swap1\n      pop\n      jump\t// out\n        /* \"Student/contract/StudentInfo.sol\":2256:2328  function AddFunds() public payable {... */\n    tag_41:\n        /* \"Student/contract/StudentInfo.sol\":2312:2321  msg.value */\n      callvalue\n        /* \"Student/contract/StudentInfo.sol\":2301:2308  balance */\n      0x03\n      0x00\n        /* \"Student/contract/StudentInfo.sol\":2301:2321  balance += msg.value */\n      dup3\n      dup3\n      sload\n      tag_100\n      swap2\n      swap1\n      tag_101\n      jump\t// in\n    tag_100:\n      swap3\n      pop\n      pop\n      dup2\n      swap1\n      sstore\n      pop\n        /* \"Student/contract/StudentInfo.sol\":2256:2328  function AddFunds() public payable {... */\n      jump\t// out\n        /* \"Student/contract/StudentInfo.sol\":1926:2038  function SetStudentId(int256  _id) public returns (int256) {... */\n    tag_45:\n        /* \"Student/contract/StudentInfo.sol\":1977:1983  int256 */\n      0x00\n        /* \"Student/contract/StudentInfo.sol\":2000:2003  _id */\n      dup2\n        /* \"Student/contract/StudentInfo.sol\":1995:1997  id */\n      0x00\n        /* \"Student/contract/StudentInfo.sol\":1995:2003  id = _id */\n      dup2\n      swap1\n      sstore\n      pop\n        /* \"Student/contract/StudentInfo.sol\":2020:2022  id */\n      sload(0x00)\n        /* \"Student/contract/StudentInfo.sol\":2013:2022  return id */\n      swap1\n      pop\n        /* \"Student/contract/StudentInfo.sol\":1926:2038  function SetStudentId(int256  _id) public returns (int256) {... */\n      swap2\n      swap1\n      pop\n      jump\t// out\n        /* \"Student/contract/StudentInfo.sol\":1697:1823  function GetStudentWallet(int256 _studentId) public view returns (address)  {... */\n    tag_50:\n        /* \"Student/contract/StudentInfo.sol\":1763:1770  address */\n      0x00\n        /* \"Student/contract/StudentInfo.sol\":1790:1804  student_wallet */\n      0x02\n        /* \"Student/contract/StudentInfo.sol\":1790:1816  student_wallet[_studentId] */\n      0x00\n        /* \"Student/contract/StudentInfo.sol\":1805:1815  _studentId */\n      dup4\n        /* \"Student/contract/StudentInfo.sol\":1790:1816  student_wallet[_studentId] */\n      dup2\n      mstore\n      0x20\n      add\n      swap1\n      dup2\n      mstore\n      0x20\n      add\n      0x00\n      keccak256\n      0x00\n      swap1\n      sload\n      swap1\n      0x0100\n      exp\n      swap1\n      div\n      0xffffffffffffffffffffffffffffffffffffffff\n      and\n        /* \"Student/contract/StudentInfo.sol\":1783:1816  return student_wallet[_studentId] */\n      swap1\n      pop\n        /* \"Student/contract/StudentInfo.sol\":1697:1823  function GetStudentWallet(int256 _studentId) public view returns (address)  {... */\n      swap2\n      swap1\n      pop\n      jump\t// out\n    tag_54:\n      mload(0x40)\n      dup1\n      0x60\n      add\n      0x40\n      mstore\n      dup1\n      and(0xffffffff, 0x00)\n      dup2\n      mstore\n      0x20\n      add\n      and(0xffffffff, 0x00)\n      dup2\n      mstore\n      0x20\n      add\n      and(0xffffffff, 0x00)\n      dup2\n      mstore\n      pop\n      swap1\n      jump\t// out\n        /* \"#utility.yul\":88:205   */\n    tag_105:\n        /* \"#utility.yul\":197:198   */\n      0x00\n        /* \"#utility.yul\":194:195   */\n      0x00\n        /* \"#utility.yul\":187:199   */\n      revert\n        /* \"#utility.yul\":334:410   */\n    tag_107:\n        /* \"#utility.yul\":370:377   */\n      0x00\n        /* \"#utility.yul\":399:404   */\n      dup2\n        /* \"#utility.yul\":388:404   */\n      swap1\n      pop\n        /* \"#utility.yul\":334:410   */\n      swap2\n      swap1\n      pop\n      jump\t// out\n        /* \"#utility.yul\":416:536   */\n    tag_108:\n        /* \"#utility.yul\":488:511   */\n      tag_141\n        /* \"#utility.yul\":505:510   */\n      dup2\n        /* \"#utility.yul\":488:511   */\n      tag_107\n      jump\t// in\n    tag_141:\n        /* \"#utility.yul\":481:486   */\n      dup2\n        /* \"#utility.yul\":478:512   */\n      eq\n        /* \"#utility.yul\":468:530   */\n      tag_142\n      jumpi\n        /* \"#utility.yul\":526:527   */\n      0x00\n        /* \"#utility.yul\":523:524   */\n      0x00\n        /* \"#utility.yul\":516:528   */\n      revert\n        /* \"#utility.yul\":468:530   */\n    tag_142:\n        /* \"#utility.yul\":416:536   */\n      pop\n      jump\t// out\n        /* \"#utility.yul\":542:679   */\n    tag_109:\n        /* \"#utility.yul\":587:592   */\n      0x00\n        /* \"#utility.yul\":625:631   */\n      dup2\n        /* \"#utility.yul\":612:632   */\n      calldataload\n        /* \"#utility.yul\":603:632   */\n      swap1\n      pop\n        /* \"#utility.yul\":641:673   */\n      tag_144\n        /* \"#utility.yul\":667:672   */\n      dup2\n        /* \"#utility.yul\":641:673   */\n      tag_108\n      jump\t// in\n    tag_144:\n        /* \"#utility.yul\":542:679   */\n      swap3\n      swap2\n      pop\n      pop\n      jump\t// out\n        /* \"#utility.yul\":685:1012   */\n    tag_14:\n        /* \"#utility.yul\":743:749   */\n      0x00\n        /* \"#utility.yul\":792:794   */\n      0x20\n        /* \"#utility.yul\":780:789   */\n      dup3\n        /* \"#utility.yul\":771:778   */\n      dup5\n        /* \"#utility.yul\":767:790   */\n      sub\n        /* \"#utility.yul\":763:795   */\n      slt\n        /* \"#utility.yul\":760:879   */\n      iszero\n      tag_146\n      jumpi\n        /* \"#utility.yul\":798:877   */\n      tag_147\n      tag_105\n      jump\t// in\n    tag_147:\n        /* \"#utility.yul\":760:879   */\n    tag_146:\n        /* \"#utility.yul\":918:919   */\n      0x00\n        /* \"#utility.yul\":943:995   */\n      tag_148\n        /* \"#utility.yul\":987:994   */\n      dup5\n        /* \"#utility.yul\":978:984   */\n      dup3\n        /* \"#utility.yul\":967:976   */\n      dup6\n        /* \"#utility.yul\":963:985   */\n      add\n        /* \"#utility.yul\":943:995   */\n      tag_109\n      jump\t// in\n    tag_148:\n        /* \"#utility.yul\":933:995   */\n      swap2\n      pop\n        /* \"#utility.yul\":889:1005   */\n      pop\n        /* \"#utility.yul\":685:1012   */\n      swap3\n      swap2\n      pop\n      pop\n      jump\t// out\n        /* \"#utility.yul\":1018:1111   */\n    tag_110:\n        /* \"#utility.yul\":1054:1061   */\n      0x00\n        /* \"#utility.yul\":1094:1104   */\n      0xffffffff\n        /* \"#utility.yul\":1087:1092   */\n      dup3\n        /* \"#utility.yul\":1083:1105   */\n      and\n        /* \"#utility.yul\":1072:1105   */\n      swap1\n      pop\n        /* \"#utility.yul\":1018:1111   */\n      swap2\n      swap1\n      pop\n      jump\t// out\n        /* \"#utility.yul\":1117:1222   */\n    tag_111:\n        /* \"#utility.yul\":1192:1215   */\n      tag_151\n        /* \"#utility.yul\":1209:1214   */\n      dup2\n        /* \"#utility.yul\":1192:1215   */\n      tag_110\n      jump\t// in\n    tag_151:\n        /* \"#utility.yul\":1187:1190   */\n      dup3\n        /* \"#utility.yul\":1180:1216   */\n      mstore\n        /* \"#utility.yul\":1117:1222   */\n      pop\n      pop\n      jump\t// out\n        /* \"#utility.yul\":1264:1932   */\n    tag_112:\n        /* \"#utility.yul\":1401:1405   */\n      0x60\n        /* \"#utility.yul\":1396:1399   */\n      dup3\n        /* \"#utility.yul\":1392:1406   */\n      add\n        /* \"#utility.yul\":1489:1493   */\n      0x00\n        /* \"#utility.yul\":1482:1487   */\n      dup3\n        /* \"#utility.yul\":1478:1494   */\n      add\n        /* \"#utility.yul\":1472:1495   */\n      mload\n        /* \"#utility.yul\":1508:1569   */\n      tag_153\n        /* \"#utility.yul\":1563:1567   */\n      0x00\n        /* \"#utility.yul\":1558:1561   */\n      dup6\n        /* \"#utility.yul\":1554:1568   */\n      add\n        /* \"#utility.yul\":1540:1552   */\n      dup3\n        /* \"#utility.yul\":1508:1569   */\n      tag_111\n      jump\t// in\n    tag_153:\n        /* \"#utility.yul\":1416:1579   */\n      pop\n        /* \"#utility.yul\":1662:1666   */\n      0x20\n        /* \"#utility.yul\":1655:1660   */\n      dup3\n        /* \"#utility.yul\":1651:1667   */\n      add\n        /* \"#utility.yul\":1645:1668   */\n      mload\n        /* \"#utility.yul\":1681:1742   */\n      tag_154\n        /* \"#utility.yul\":1736:1740   */\n      0x20\n        /* \"#utility.yul\":1731:1734   */\n      dup6\n        /* \"#utility.yul\":1727:1741   */\n      add\n        /* \"#utility.yul\":1713:1725   */\n      dup3\n        /* \"#utility.yul\":1681:1742   */\n      tag_111\n      jump\t// in\n    tag_154:\n        /* \"#utility.yul\":1589:1752   */\n      pop\n        /* \"#utility.yul\":1835:1839   */\n      0x40\n        /* \"#utility.yul\":1828:1833   */\n      dup3\n        /* \"#utility.yul\":1824:1840   */\n      add\n        /* \"#utility.yul\":1818:1841   */\n      mload\n        /* \"#utility.yul\":1854:1915   */\n      tag_155\n        /* \"#utility.yul\":1909:1913   */\n      0x40\n        /* \"#utility.yul\":1904:1907   */\n      dup6\n        /* \"#utility.yul\":1900:1914   */\n      add\n        /* \"#utility.yul\":1886:1898   */\n      dup3\n        /* \"#utility.yul\":1854:1915   */\n      tag_111\n      jump\t// in\n    tag_155:\n        /* \"#utility.yul\":1762:1925   */\n      pop\n        /* \"#utility.yul\":1370:1932   */\n      pop\n        /* \"#utility.yul\":1264:1932   */\n      pop\n      pop\n      jump\t// out\n        /* \"#utility.yul\":1938:2240   */\n    tag_17:\n        /* \"#utility.yul\":2071:2075   */\n      0x00\n        /* \"#utility.yul\":2109:2111   */\n      0x60\n        /* \"#utility.yul\":2098:2107   */\n      dup3\n        /* \"#utility.yul\":2094:2112   */\n      add\n        /* \"#utility.yul\":2086:2112   */\n      swap1\n      pop\n        /* \"#utility.yul\":2122:2233   */\n      tag_157\n        /* \"#utility.yul\":2230:2231   */\n      0x00\n        /* \"#utility.yul\":2219:2228   */\n      dup4\n        /* \"#utility.yul\":2215:2232   */\n      add\n        /* \"#utility.yul\":2206:2212   */\n      dup5\n        /* \"#utility.yul\":2122:2233   */\n      tag_112\n      jump\t// in\n    tag_157:\n        /* \"#utility.yul\":1938:2240   */\n      swap3\n      swap2\n      pop\n      pop\n      jump\t// out\n        /* \"#utility.yul\":2246:2361   */\n    tag_113:\n        /* \"#utility.yul\":2331:2354   */\n      tag_159\n        /* \"#utility.yul\":2348:2353   */\n      dup2\n        /* \"#utility.yul\":2331:2354   */\n      tag_107\n      jump\t// in\n    tag_159:\n        /* \"#utility.yul\":2326:2329   */\n      dup3\n        /* \"#utility.yul\":2319:2355   */\n      mstore\n        /* \"#utility.yul\":2246:2361   */\n      pop\n      pop\n      jump\t// out\n        /* \"#utility.yul\":2367:2585   */\n    tag_22:\n        /* \"#utility.yul\":2458:2462   */\n      0x00\n        /* \"#utility.yul\":2496:2498   */\n      0x20\n        /* \"#utility.yul\":2485:2494   */\n      dup3\n        /* \"#utility.yul\":2481:2499   */\n      add\n        /* \"#utility.yul\":2473:2499   */\n      swap1\n      pop\n        /* \"#utility.yul\":2509:2578   */\n      tag_161\n        /* \"#utility.yul\":2575:2576   */\n      0x00\n        /* \"#utility.yul\":2564:2573   */\n      dup4\n        /* \"#utility.yul\":2560:2577   */\n      add\n        /* \"#utility.yul\":2551:2557   */\n      dup5\n        /* \"#utility.yul\":2509:2578   */\n      tag_113\n      jump\t// in\n    tag_161:\n        /* \"#utility.yul\":2367:2585   */\n      swap3\n      swap2\n      pop\n      pop\n      jump\t// out\n        /* \"#utility.yul\":2591:2717   */\n    tag_114:\n        /* \"#utility.yul\":2628:2635   */\n      0x00\n        /* \"#utility.yul\":2668:2710   */\n      0xffffffffffffffffffffffffffffffffffffffff\n        /* \"#utility.yul\":2661:2666   */\n      dup3\n        /* \"#utility.yul\":2657:2711   */\n      and\n        /* \"#utility.yul\":2646:2711   */\n      swap1\n      pop\n        /* \"#utility.yul\":2591:2717   */\n      swap2\n      swap1\n      pop\n      jump\t// out\n        /* \"#utility.yul\":2723:2819   */\n    tag_115:\n        /* \"#utility.yul\":2760:2767   */\n      0x00\n        /* \"#utility.yul\":2789:2813   */\n      tag_164\n        /* \"#utility.yul\":2807:2812   */\n      dup3\n        /* \"#utility.yul\":2789:2813   */\n      tag_114\n      jump\t// in\n    tag_164:\n        /* \"#utility.yul\":2778:2813   */\n      swap1\n      pop\n        /* \"#utility.yul\":2723:2819   */\n      swap2\n      swap1\n      pop\n      jump\t// out\n        /* \"#utility.yul\":2825:2947   */\n    tag_116:\n        /* \"#utility.yul\":2898:2922   */\n      tag_166\n        /* \"#utility.yul\":2916:2921   */\n      dup2\n        /* \"#utility.yul\":2898:2922   */\n      tag_115\n      jump\t// in\n    tag_166:\n        /* \"#utility.yul\":2891:2896   */\n      dup2\n        /* \"#utility.yul\":2888:2923   */\n      eq\n        /* \"#utility.yul\":2878:2941   */\n      tag_167\n      jumpi\n        /* \"#utility.yul\":2937:2938   */\n      0x00\n        /* \"#utility.yul\":2934:2935   */\n      0x00\n        /* \"#utility.yul\":2927:2939   */\n      revert\n        /* \"#utility.yul\":2878:2941   */\n    tag_167:\n        /* \"#utility.yul\":2825:2947   */\n      pop\n      jump\t// out\n        /* \"#utility.yul\":2953:3092   */\n    tag_117:\n        /* \"#utility.yul\":2999:3004   */\n      0x00\n        /* \"#utility.yul\":3037:3043   */\n      dup2\n        /* \"#utility.yul\":3024:3044   */\n      calldataload\n        /* \"#utility.yul\":3015:3044   */\n      swap1\n      pop\n        /* \"#utility.yul\":3053:3086   */\n      tag_169\n        /* \"#utility.yul\":3080:3085   */\n      dup2\n        /* \"#utility.yul\":3053:3086   */\n      tag_116\n      jump\t// in\n    tag_169:\n        /* \"#utility.yul\":2953:3092   */\n      swap3\n      swap2\n      pop\n      pop\n      jump\t// out\n        /* \"#utility.yul\":3098:3570   */\n    tag_26:\n        /* \"#utility.yul\":3165:3171   */\n      0x00\n        /* \"#utility.yul\":3173:3179   */\n      0x00\n        /* \"#utility.yul\":3222:3224   */\n      0x40\n        /* \"#utility.yul\":3210:3219   */\n      dup4\n        /* \"#utility.yul\":3201:3208   */\n      dup6\n        /* \"#utility.yul\":3197:3220   */\n      sub\n        /* \"#utility.yul\":3193:3225   */\n      slt\n        /* \"#utility.yul\":3190:3309   */\n      iszero\n      tag_171\n      jumpi\n        /* \"#utility.yul\":3228:3307   */\n      tag_172\n      tag_105\n      jump\t// in\n    tag_172:\n        /* \"#utility.yul\":3190:3309   */\n    tag_171:\n        /* \"#utility.yul\":3348:3349   */\n      0x00\n        /* \"#utility.yul\":3373:3425   */\n      tag_173\n        /* \"#utility.yul\":3417:3424   */\n      dup6\n        /* \"#utility.yul\":3408:3414   */\n      dup3\n        /* \"#utility.yul\":3397:3406   */\n      dup7\n        /* \"#utility.yul\":3393:3415   */\n      add\n        /* \"#utility.yul\":3373:3425   */\n      tag_109\n      jump\t// in\n    tag_173:\n        /* \"#utility.yul\":3363:3425   */\n      swap3\n      pop\n        /* \"#utility.yul\":3319:3435   */\n      pop\n        /* \"#utility.yul\":3474:3476   */\n      0x20\n        /* \"#utility.yul\":3500:3553   */\n      tag_174\n        /* \"#utility.yul\":3545:3552   */\n      dup6\n        /* \"#utility.yul\":3536:3542   */\n      dup3\n        /* \"#utility.yul\":3525:3534   */\n      dup7\n        /* \"#utility.yul\":3521:3543   */\n      add\n        /* \"#utility.yul\":3500:3553   */\n      tag_117\n      jump\t// in\n    tag_174:\n        /* \"#utility.yul\":3490:3553   */\n      swap2\n      pop\n        /* \"#utility.yul\":3445:3563   */\n      pop\n        /* \"#utility.yul\":3098:3570   */\n      swap3\n      pop\n      swap3\n      swap1\n      pop\n      jump\t// out\n        /* \"#utility.yul\":3576:3693   */\n    tag_118:\n        /* \"#utility.yul\":3685:3686   */\n      0x00\n        /* \"#utility.yul\":3682:3683   */\n      0x00\n        /* \"#utility.yul\":3675:3687   */\n      revert\n        /* \"#utility.yul\":3716:3964   */\n    tag_119:\n        /* \"#utility.yul\":3786:3794   */\n      0x00\n        /* \"#utility.yul\":3817:3823   */\n      dup2\n        /* \"#utility.yul\":3805:3823   */\n      swap1\n      pop\n        /* \"#utility.yul\":3870:3873   */\n      dup3\n        /* \"#utility.yul\":3862:3866   */\n      0x20\n        /* \"#utility.yul\":3856:3860   */\n      0x03\n        /* \"#utility.yul\":3852:3867   */\n      mul\n        /* \"#utility.yul\":3842:3850   */\n      dup3\n        /* \"#utility.yul\":3838:3868   */\n      add\n        /* \"#utility.yul\":3835:3874   */\n      gt\n        /* \"#utility.yul\":3832:3958   */\n      iszero\n      tag_177\n      jumpi\n        /* \"#utility.yul\":3877:3956   */\n      tag_178\n      tag_118\n      jump\t// in\n    tag_178:\n        /* \"#utility.yul\":3832:3958   */\n    tag_177:\n        /* \"#utility.yul\":3716:3964   */\n      swap3\n      swap2\n      pop\n      pop\n      jump\t// out\n        /* \"#utility.yul\":3970:4491   */\n    tag_31:\n        /* \"#utility.yul\":4061:4067   */\n      0x00\n        /* \"#utility.yul\":4069:4075   */\n      0x00\n        /* \"#utility.yul\":4118:4121   */\n      0x80\n        /* \"#utility.yul\":4106:4115   */\n      dup4\n        /* \"#utility.yul\":4097:4104   */\n      dup6\n        /* \"#utility.yul\":4093:4116   */\n      sub\n        /* \"#utility.yul\":4089:4122   */\n      slt\n        /* \"#utility.yul\":4086:4206   */\n      iszero\n      tag_180\n      jumpi\n        /* \"#utility.yul\":4125:4204   */\n      tag_181\n      tag_105\n      jump\t// in\n    tag_181:\n        /* \"#utility.yul\":4086:4206   */\n    tag_180:\n        /* \"#utility.yul\":4245:4246   */\n      0x00\n        /* \"#utility.yul\":4270:4322   */\n      tag_182\n        /* \"#utility.yul\":4314:4321   */\n      dup6\n        /* \"#utility.yul\":4305:4311   */\n      dup3\n        /* \"#utility.yul\":4294:4303   */\n      dup7\n        /* \"#utility.yul\":4290:4312   */\n      add\n        /* \"#utility.yul\":4270:4322   */\n      tag_109\n      jump\t// in\n    tag_182:\n        /* \"#utility.yul\":4260:4322   */\n      swap3\n      pop\n        /* \"#utility.yul\":4216:4332   */\n      pop\n        /* \"#utility.yul\":4371:4373   */\n      0x20\n        /* \"#utility.yul\":4397:4474   */\n      tag_183\n        /* \"#utility.yul\":4466:4473   */\n      dup6\n        /* \"#utility.yul\":4457:4463   */\n      dup3\n        /* \"#utility.yul\":4446:4455   */\n      dup7\n        /* \"#utility.yul\":4442:4464   */\n      add\n        /* \"#utility.yul\":4397:4474   */\n      tag_119\n      jump\t// in\n    tag_183:\n        /* \"#utility.yul\":4387:4474   */\n      swap2\n      pop\n        /* \"#utility.yul\":4342:4484   */\n      pop\n        /* \"#utility.yul\":3970:4491   */\n      swap3\n      pop\n      swap3\n      swap1\n      pop\n      jump\t// out\n        /* \"#utility.yul\":4497:4610   */\n    tag_120:\n        /* \"#utility.yul\":4584:4585   */\n      0x03\n        /* \"#utility.yul\":4577:4582   */\n      dup2\n        /* \"#utility.yul\":4574:4586   */\n      lt\n        /* \"#utility.yul\":4564:4604   */\n      tag_185\n      jumpi\n        /* \"#utility.yul\":4600:4601   */\n      0x00\n        /* \"#utility.yul\":4597:4598   */\n      0x00\n        /* \"#utility.yul\":4590:4602   */\n      revert\n        /* \"#utility.yul\":4564:4604   */\n    tag_185:\n        /* \"#utility.yul\":4497:4610   */\n      pop\n      jump\t// out\n        /* \"#utility.yul\":4616:4783   */\n    tag_121:\n        /* \"#utility.yul\":4676:4681   */\n      0x00\n        /* \"#utility.yul\":4714:4720   */\n      dup2\n        /* \"#utility.yul\":4701:4721   */\n      calldataload\n        /* \"#utility.yul\":4692:4721   */\n      swap1\n      pop\n        /* \"#utility.yul\":4730:4777   */\n      tag_187\n        /* \"#utility.yul\":4771:4776   */\n      dup2\n        /* \"#utility.yul\":4730:4777   */\n      tag_120\n      jump\t// in\n    tag_187:\n        /* \"#utility.yul\":4616:4783   */\n      swap3\n      swap2\n      pop\n      pop\n      jump\t// out\n        /* \"#utility.yul\":4789:5146   */\n    tag_36:\n        /* \"#utility.yul\":4862:4868   */\n      0x00\n        /* \"#utility.yul\":4911:4913   */\n      0x20\n        /* \"#utility.yul\":4899:4908   */\n      dup3\n        /* \"#utility.yul\":4890:4897   */\n      dup5\n        /* \"#utility.yul\":4886:4909   */\n      sub\n        /* \"#utility.yul\":4882:4914   */\n      slt\n        /* \"#utility.yul\":4879:4998   */\n      iszero\n      tag_189\n      jumpi\n        /* \"#utility.yul\":4917:4996   */\n      tag_190\n      tag_105\n      jump\t// in\n    tag_190:\n        /* \"#utility.yul\":4879:4998   */\n    tag_189:\n        /* \"#utility.yul\":5037:5038   */\n      0x00\n        /* \"#utility.yul\":5062:5129   */\n      tag_191\n        /* \"#utility.yul\":5121:5128   */\n      dup5\n        /* \"#utility.yul\":5112:5118   */\n      dup3\n        /* \"#utility.yul\":5101:5110   */\n      dup6\n        /* \"#utility.yul\":5097:5119   */\n      add\n        /* \"#utility.yul\":5062:5129   */\n      tag_121\n      jump\t// in\n    tag_191:\n        /* \"#utility.yul\":5052:5129   */\n      swap2\n      pop\n        /* \"#utility.yul\":5008:5139   */\n      pop\n        /* \"#utility.yul\":4789:5146   */\n      swap3\n      swap2\n      pop\n      pop\n      jump\t// out\n        /* \"#utility.yul\":5152:5332   */\n    tag_98:\n        /* \"#utility.yul\":5200:5277   */\n      0x4e487b7100000000000000000000000000000000000000000000000000000000\n        /* \"#utility.yul\":5197:5198   */\n      0x00\n        /* \"#utility.yul\":5190:5278   */\n      mstore\n        /* \"#utility.yul\":5297:5301   */\n      0x21\n        /* \"#utility.yul\":5294:5295   */\n      0x04\n        /* \"#utility.yul\":5287:5302   */\n      mstore\n        /* \"#utility.yul\":5321:5325   */\n      0x24\n        /* \"#utility.yul\":5318:5319   */\n      0x00\n        /* \"#utility.yul\":5311:5326   */\n      revert\n        /* \"#utility.yul\":5338:5457   */\n    tag_122:\n        /* \"#utility.yul\":5425:5426   */\n      0x03\n        /* \"#utility.yul\":5418:5423   */\n      dup2\n        /* \"#utility.yul\":5415:5427   */\n      lt\n        /* \"#utility.yul\":5405:5451   */\n      tag_194\n      jumpi\n        /* \"#utility.yul\":5431:5449   */\n      tag_195\n      tag_98\n      jump\t// in\n    tag_195:\n        /* \"#utility.yul\":5405:5451   */\n    tag_194:\n        /* \"#utility.yul\":5338:5457   */\n      pop\n      jump\t// out\n        /* \"#utility.yul\":5463:5602   */\n    tag_123:\n        /* \"#utility.yul\":5514:5521   */\n      0x00\n        /* \"#utility.yul\":5543:5548   */\n      dup2\n        /* \"#utility.yul\":5532:5548   */\n      swap1\n      pop\n        /* \"#utility.yul\":5549:5596   */\n      tag_197\n        /* \"#utility.yul\":5590:5595   */\n      dup3\n        /* \"#utility.yul\":5549:5596   */\n      tag_122\n      jump\t// in\n    tag_197:\n        /* \"#utility.yul\":5463:5602   */\n      swap2\n      swap1\n      pop\n      jump\t// out\n        /* \"#utility.yul\":5608:5747   */\n    tag_124:\n        /* \"#utility.yul\":5670:5679   */\n      0x00\n        /* \"#utility.yul\":5703:5741   */\n      tag_199\n        /* \"#utility.yul\":5735:5740   */\n      dup3\n        /* \"#utility.yul\":5703:5741   */\n      tag_123\n      jump\t// in\n    tag_199:\n        /* \"#utility.yul\":5690:5741   */\n      swap1\n      pop\n        /* \"#utility.yul\":5608:5747   */\n      swap2\n      swap1\n      pop\n      jump\t// out\n        /* \"#utility.yul\":5753:5908   */\n    tag_125:\n        /* \"#utility.yul\":5852:5901   */\n      tag_201\n        /* \"#utility.yul\":5895:5900   */\n      dup2\n        /* \"#utility.yul\":5852:5901   */\n      tag_124\n      jump\t// in\n    tag_201:\n        /* \"#utility.yul\":5847:5850   */\n      dup3\n        /* \"#utility.yul\":5840:5902   */\n      mstore\n        /* \"#utility.yul\":5753:5908   */\n      pop\n      pop\n      jump\t// out\n        /* \"#utility.yul\":5914:6160   */\n    tag_39:\n        /* \"#utility.yul\":6019:6023   */\n      0x00\n        /* \"#utility.yul\":6057:6059   */\n      0x20\n        /* \"#utility.yul\":6046:6055   */\n      dup3\n        /* \"#utility.yul\":6042:6060   */\n      add\n        /* \"#utility.yul\":6034:6060   */\n      swap1\n      pop\n        /* \"#utility.yul\":6070:6153   */\n      tag_203\n        /* \"#utility.yul\":6150:6151   */\n      0x00\n        /* \"#utility.yul\":6139:6148   */\n      dup4\n        /* \"#utility.yul\":6135:6152   */\n      add\n        /* \"#utility.yul\":6126:6132   */\n      dup5\n        /* \"#utility.yul\":6070:6153   */\n      tag_125\n      jump\t// in\n    tag_203:\n        /* \"#utility.yul\":5914:6160   */\n      swap3\n      swap2\n      pop\n      pop\n      jump\t// out\n        /* \"#utility.yul\":6166:6284   */\n    tag_126:\n        /* \"#utility.yul\":6253:6277   */\n      tag_205\n        /* \"#utility.yul\":6271:6276   */\n      dup2\n        /* \"#utility.yul\":6253:6277   */\n      tag_115\n      jump\t// in\n    tag_205:\n        /* \"#utility.yul\":6248:6251   */\n      dup3\n        /* \"#utility.yul\":6241:6278   */\n      mstore\n        /* \"#utility.yul\":6166:6284   */\n      pop\n      pop\n      jump\t// out\n        /* \"#utility.yul\":6290:6512   */\n    tag_52:\n        /* \"#utility.yul\":6383:6387   */\n      0x00\n        /* \"#utility.yul\":6421:6423   */\n      0x20\n        /* \"#utility.yul\":6410:6419   */\n      dup3\n        /* \"#utility.yul\":6406:6424   */\n      add\n        /* \"#utility.yul\":6398:6424   */\n      swap1\n      pop\n        /* \"#utility.yul\":6434:6505   */\n      tag_207\n        /* \"#utility.yul\":6502:6503   */\n      0x00\n        /* \"#utility.yul\":6491:6500   */\n      dup4\n        /* \"#utility.yul\":6487:6504   */\n      add\n        /* \"#utility.yul\":6478:6484   */\n      dup5\n        /* \"#utility.yul\":6434:6505   */\n      tag_126\n      jump\t// in\n    tag_207:\n        /* \"#utility.yul\":6290:6512   */\n      swap3\n      swap2\n      pop\n      pop\n      jump\t// out\n        /* \"#utility.yul\":6518:6698   */\n    tag_61:\n        /* \"#utility.yul\":6566:6643   */\n      0x4e487b7100000000000000000000000000000000000000000000000000000000\n        /* \"#utility.yul\":6563:6564   */\n      0x00\n        /* \"#utility.yul\":6556:6644   */\n      mstore\n        /* \"#utility.yul\":6663:6667   */\n      0x32\n        /* \"#utility.yul\":6660:6661   */\n      0x04\n        /* \"#utility.yul\":6653:6668   */\n      mstore\n        /* \"#utility.yul\":6687:6691   */\n      0x24\n        /* \"#utility.yul\":6684:6685   */\n      0x00\n        /* \"#utility.yul\":6677:6692   */\n      revert\n        /* \"#utility.yul\":6704:6824   */\n    tag_127:\n        /* \"#utility.yul\":6776:6799   */\n      tag_210\n        /* \"#utility.yul\":6793:6798   */\n      dup2\n        /* \"#utility.yul\":6776:6799   */\n      tag_110\n      jump\t// in\n    tag_210:\n        /* \"#utility.yul\":6769:6774   */\n      dup2\n        /* \"#utility.yul\":6766:6800   */\n      eq\n        /* \"#utility.yul\":6756:6818   */\n      tag_211\n      jumpi\n        /* \"#utility.yul\":6814:6815   */\n      0x00\n        /* \"#utility.yul\":6811:6812   */\n      0x00\n        /* \"#utility.yul\":6804:6816   */\n      revert\n        /* \"#utility.yul\":6756:6818   */\n    tag_211:\n        /* \"#utility.yul\":6704:6824   */\n      pop\n      jump\t// out\n        /* \"#utility.yul\":6830:6967   */\n    tag_128:\n        /* \"#utility.yul\":6875:6880   */\n      0x00\n        /* \"#utility.yul\":6913:6919   */\n      dup2\n        /* \"#utility.yul\":6900:6920   */\n      calldataload\n        /* \"#utility.yul\":6891:6920   */\n      swap1\n      pop\n        /* \"#utility.yul\":6929:6961   */\n      tag_213\n        /* \"#utility.yul\":6955:6960   */\n      dup2\n        /* \"#utility.yul\":6929:6961   */\n      tag_127\n      jump\t// in\n    tag_213:\n        /* \"#utility.yul\":6830:6967   */\n      swap3\n      swap2\n      pop\n      pop\n      jump\t// out\n        /* \"#utility.yul\":6973:7300   */\n    tag_63:\n        /* \"#utility.yul\":7031:7037   */\n      0x00\n        /* \"#utility.yul\":7080:7082   */\n      0x20\n        /* \"#utility.yul\":7068:7077   */\n      dup3\n        /* \"#utility.yul\":7059:7066   */\n      dup5\n        /* \"#utility.yul\":7055:7078   */\n      sub\n        /* \"#utility.yul\":7051:7083   */\n      slt\n        /* \"#utility.yul\":7048:7167   */\n      iszero\n      tag_215\n      jumpi\n        /* \"#utility.yul\":7086:7165   */\n      tag_216\n      tag_105\n      jump\t// in\n    tag_216:\n        /* \"#utility.yul\":7048:7167   */\n    tag_215:\n        /* \"#utility.yul\":7206:7207   */\n      0x00\n        /* \"#utility.yul\":7231:7283   */\n      tag_217\n        /* \"#utility.yul\":7275:7282   */\n      dup5\n        /* \"#utility.yul\":7266:7272   */\n      dup3\n        /* \"#utility.yul\":7255:7264   */\n      dup6\n        /* \"#utility.yul\":7251:7273   */\n      add\n        /* \"#utility.yul\":7231:7283   */\n      tag_128\n      jump\t// in\n    tag_217:\n        /* \"#utility.yul\":7221:7283   */\n      swap2\n      pop\n        /* \"#utility.yul\":7177:7293   */\n      pop\n        /* \"#utility.yul\":6973:7300   */\n      swap3\n      swap2\n      pop\n      pop\n      jump\t// out\n        /* \"#utility.yul\":7306:7475   */\n    tag_129:\n        /* \"#utility.yul\":7390:7401   */\n      0x00\n        /* \"#utility.yul\":7424:7430   */\n      dup3\n        /* \"#utility.yul\":7419:7422   */\n      dup3\n        /* \"#utility.yul\":7412:7431   */\n      mstore\n        /* \"#utility.yul\":7464:7468   */\n      0x20\n        /* \"#utility.yul\":7459:7462   */\n      dup3\n        /* \"#utility.yul\":7455:7469   */\n      add\n        /* \"#utility.yul\":7440:7469   */\n      swap1\n      pop\n        /* \"#utility.yul\":7306:7475   */\n      swap3\n      swap2\n      pop\n      pop\n      jump\t// out\n        /* \"#utility.yul\":7481:7651   */\n    tag_130:\n        /* \"#utility.yul\":7621:7643   */\n      0x4d61726b73206d757374206265203c3d20313030000000000000000000000000\n        /* \"#utility.yul\":7617:7618   */\n      0x00\n        /* \"#utility.yul\":7609:7615   */\n      dup3\n        /* \"#utility.yul\":7605:7619   */\n      add\n        /* \"#utility.yul\":7598:7644   */\n      mstore\n        /* \"#utility.yul\":7481:7651   */\n      pop\n      jump\t// out\n        /* \"#utility.yul\":7657:8023   */\n    tag_131:\n        /* \"#utility.yul\":7799:7802   */\n      0x00\n        /* \"#utility.yul\":7820:7887   */\n      tag_221\n        /* \"#utility.yul\":7884:7886   */\n      0x14\n        /* \"#utility.yul\":7879:7882   */\n      dup4\n        /* \"#utility.yul\":7820:7887   */\n      tag_129\n      jump\t// in\n    tag_221:\n        /* \"#utility.yul\":7813:7887   */\n      swap2\n      pop\n        /* \"#utility.yul\":7896:7989   */\n      tag_222\n        /* \"#utility.yul\":7985:7988   */\n      dup3\n        /* \"#utility.yul\":7896:7989   */\n      tag_130\n      jump\t// in\n    tag_222:\n        /* \"#utility.yul\":8014:8016   */\n      0x20\n        /* \"#utility.yul\":8009:8012   */\n      dup3\n        /* \"#utility.yul\":8005:8017   */\n      add\n        /* \"#utility.yul\":7998:8017   */\n      swap1\n      pop\n        /* \"#utility.yul\":7657:8023   */\n      swap2\n      swap1\n      pop\n      jump\t// out\n        /* \"#utility.yul\":8029:8448   */\n    tag_74:\n        /* \"#utility.yul\":8195:8199   */\n      0x00\n        /* \"#utility.yul\":8233:8235   */\n      0x20\n        /* \"#utility.yul\":8222:8231   */\n      dup3\n        /* \"#utility.yul\":8218:8236   */\n      add\n        /* \"#utility.yul\":8210:8236   */\n      swap1\n      pop\n        /* \"#utility.yul\":8282:8291   */\n      dup2\n        /* \"#utility.yul\":8276:8280   */\n      dup2\n        /* \"#utility.yul\":8272:8292   */\n      sub\n        /* \"#utility.yul\":8268:8269   */\n      0x00\n        /* \"#utility.yul\":8257:8266   */\n      dup4\n        /* \"#utility.yul\":8253:8270   */\n      add\n        /* \"#utility.yul\":8246:8293   */\n      mstore\n        /* \"#utility.yul\":8310:8441   */\n      tag_224\n        /* \"#utility.yul\":8436:8440   */\n      dup2\n        /* \"#utility.yul\":8310:8441   */\n      tag_131\n      jump\t// in\n    tag_224:\n        /* \"#utility.yul\":8302:8441   */\n      swap1\n      pop\n        /* \"#utility.yul\":8029:8448   */\n      swap2\n      swap1\n      pop\n      jump\t// out\n        /* \"#utility.yul\":8454:8569   */\n    tag_132:\n        /* \"#utility.yul\":8539:8562   */\n      tag_226\n        /* \"#utility.yul\":8556:8561   */\n      dup2\n        /* \"#utility.yul\":8539:8562   */\n      tag_110\n      jump\t// in\n    tag_226:\n        /* \"#utility.yul\":8534:8537   */\n      dup3\n        /* \"#utility.yul\":8527:8563   */\n      mstore\n        /* \"#utility.yul\":8454:8569   */\n      pop\n      pop\n      jump\t// out\n        /* \"#utility.yul\":8575:9112   */\n    tag_94:\n        /* \"#utility.yul\":8744:8748   */\n      0x00\n        /* \"#utility.yul\":8782:8785   */\n      0x80\n        /* \"#utility.yul\":8771:8780   */\n      dup3\n        /* \"#utility.yul\":8767:8786   */\n      add\n        /* \"#utility.yul\":8759:8786   */\n      swap1\n      pop\n        /* \"#utility.yul\":8796:8865   */\n      tag_228\n        /* \"#utility.yul\":8862:8863   */\n      0x00\n        /* \"#utility.yul\":8851:8860   */\n      dup4\n        /* \"#utility.yul\":8847:8864   */\n      add\n        /* \"#utility.yul\":8838:8844   */\n      dup8\n        /* \"#utility.yul\":8796:8865   */\n      tag_113\n      jump\t// in\n    tag_228:\n        /* \"#utility.yul\":8875:8945   */\n      tag_229\n        /* \"#utility.yul\":8941:8943   */\n      0x20\n        /* \"#utility.yul\":8930:8939   */\n      dup4\n        /* \"#utility.yul\":8926:8944   */\n      add\n        /* \"#utility.yul\":8917:8923   */\n      dup7\n        /* \"#utility.yul\":8875:8945   */\n      tag_132\n      jump\t// in\n    tag_229:\n        /* \"#utility.yul\":8955:9025   */\n      tag_230\n        /* \"#utility.yul\":9021:9023   */\n      0x40\n        /* \"#utility.yul\":9010:9019   */\n      dup4\n        /* \"#utility.yul\":9006:9024   */\n      add\n        /* \"#utility.yul\":8997:9003   */\n      dup6\n        /* \"#utility.yul\":8955:9025   */\n      tag_132\n      jump\t// in\n    tag_230:\n        /* \"#utility.yul\":9035:9105   */\n      tag_231\n        /* \"#utility.yul\":9101:9103   */\n      0x60\n        /* \"#utility.yul\":9090:9099   */\n      dup4\n        /* \"#utility.yul\":9086:9104   */\n      add\n        /* \"#utility.yul\":9077:9083   */\n      dup5\n        /* \"#utility.yul\":9035:9105   */\n      tag_132\n      jump\t// in\n    tag_231:\n        /* \"#utility.yul\":8575:9112   */\n      swap6\n      swap5\n      pop\n      pop\n      pop\n      pop\n      pop\n      jump\t// out\n        /* \"#utility.yul\":9118:9195   */\n    tag_133:\n        /* \"#utility.yul\":9155:9162   */\n      0x00\n        /* \"#utility.yul\":9184:9189   */\n      dup2\n        /* \"#utility.yul\":9173:9189   */\n      swap1\n      pop\n        /* \"#utility.yul\":9118:9195   */\n      swap2\n      swap1\n      pop\n      jump\t// out\n        /* \"#utility.yul\":9201:9381   */\n    tag_134:\n        /* \"#utility.yul\":9249:9326   */\n      0x4e487b7100000000000000000000000000000000000000000000000000000000\n        /* \"#utility.yul\":9246:9247   */\n      0x00\n        /* \"#utility.yul\":9239:9327   */\n      mstore\n        /* \"#utility.yul\":9346:9350   */\n      0x11\n        /* \"#utility.yul\":9343:9344   */\n      0x04\n        /* \"#utility.yul\":9336:9351   */\n      mstore\n        /* \"#utility.yul\":9370:9374   */\n      0x24\n        /* \"#utility.yul\":9367:9368   */\n      0x00\n        /* \"#utility.yul\":9360:9375   */\n      revert\n        /* \"#utility.yul\":9387:9578   */\n    tag_101:\n        /* \"#utility.yul\":9427:9430   */\n      0x00\n        /* \"#utility.yul\":9446:9466   */\n      tag_235\n        /* \"#utility.yul\":9464:9465   */\n      dup3\n        /* \"#utility.yul\":9446:9466   */\n      tag_133\n      jump\t// in\n    tag_235:\n        /* \"#utility.yul\":9441:9466   */\n      swap2\n      pop\n        /* \"#utility.yul\":9480:9500   */\n      tag_236\n        /* \"#utility.yul\":9498:9499   */\n      dup4\n        /* \"#utility.yul\":9480:9500   */\n      tag_133\n      jump\t// in\n    tag_236:\n        /* \"#utility.yul\":9475:9500   */\n      swap3\n      pop\n        /* \"#utility.yul\":9523:9524   */\n      dup3\n        /* \"#utility.yul\":9520:9521   */\n      dup3\n        /* \"#utility.yul\":9516:9525   */\n      add\n        /* \"#utility.yul\":9509:9525   */\n      swap1\n      pop\n        /* \"#utility.yul\":9544:9547   */\n      dup1\n        /* \"#utility.yul\":9541:9542   */\n      dup3\n        /* \"#utility.yul\":9538:9548   */\n      gt\n        /* \"#utility.yul\":9535:9571   */\n      iszero\n      tag_237\n      jumpi\n        /* \"#utility.yul\":9551:9569   */\n      tag_238\n      tag_134\n      jump\t// in\n    tag_238:\n        /* \"#utility.yul\":9535:9571   */\n    tag_237:\n        /* \"#utility.yul\":9387:9578   */\n      swap3\n      swap2\n      pop\n      pop\n      jump\t// out\n\n    auxdata: 0xa2646970667358221220e639f510eca548d9a66469afff594f051c0a8dbae876edbdbf0817629da104a164736f6c634300081e0033\n}\n",
				"bytecode": {
					"linkReferences": {},
					"object": "6080604052348015600e575f5ffd5b50610b578061001c5f395ff3fe60806040526004361061007a575f3560e01c80637d9c50f01161004d5780637d9c50f0146101345780639cd0948314610170578063bc1d2a9e1461017a578063ce5cd34e146101b65761007a565b80633edd962f1461007e578063556cc692146100ba5780635e4f4848146100e457806375772ace1461010c575b5f5ffd5b348015610089575f5ffd5b506100a4600480360381019061009f91906106a5565b6101f2565b6040516100b1919061072e565b60405180910390f35b3480156100c5575f5ffd5b506100ce61028b565b6040516100db9190610756565b60405180910390f35b3480156100ef575f5ffd5b5061010a600480360381019061010591906107c9565b610293565b005b348015610117575f5ffd5b50610132600480360381019061012d919061082c565b6102e6565b005b34801561013f575f5ffd5b5061015a6004803603810190610155919061088d565b61059b565b604051610167919061092b565b60405180910390f35b6101786105db565b005b348015610185575f5ffd5b506101a0600480360381019061019b91906106a5565b6105f5565b6040516101ad9190610756565b60405180910390f35b3480156101c1575f5ffd5b506101dc60048036038101906101d791906106a5565b610605565b6040516101e99190610953565b60405180910390f35b6101fa61063e565b60045f8381526020019081526020015f206040518060600160405290815f82015f9054906101000a900463ffffffff1663ffffffff1663ffffffff1681526020015f820160049054906101000a900463ffffffff1663ffffffff1663ffffffff1681526020015f820160089054906101000a900463ffffffff1663ffffffff1663ffffffff16815250509050919050565b5f5f54905090565b8060025f8481526020019081526020015f205f6101000a81548173ffffffffffffffffffffffffffffffffffffffff021916908373ffffffffffffffffffffffffffffffffffffffff1602179055505050565b6064815f600381106102fb576102fa61096c565b5b60200201602081019061030e91906109c3565b63ffffffff161115801561034f57506064816001600381106103335761033261096c565b5b60200201602081019061034691906109c3565b63ffffffff1611155b8015610388575060648160026003811061036c5761036b61096c565b5b60200201602081019061037f91906109c3565b63ffffffff1611155b6103c7576040517f08c379a00000000000000000000000000000000000000000000000000000000081526004016103be90610a48565b60405180910390fd5b6040518060600160405280825f600381106103e5576103e461096c565b5b6020020160208101906103f891906109c3565b63ffffffff168152602001826001600381106104175761041661096c565b5b60200201602081019061042a91906109c3565b63ffffffff168152602001826002600381106104495761044861096c565b5b60200201602081019061045c91906109c3565b63ffffffff1681525060045f8481526020019081526020015f205f820151815f015f6101000a81548163ffffffff021916908363ffffffff1602179055506020820151815f0160046101000a81548163ffffffff021916908363ffffffff1602179055506040820151815f0160086101000a81548163ffffffff021916908363ffffffff1602179055509050507f15f0028b62fa7401dabd6a17ae086f7743f7b7bc60401477e82994d7b8c6a15682825f6003811061051e5761051d61096c565b5b60200201602081019061053191906109c3565b836001600381106105455761054461096c565b5b60200201602081019061055891906109c3565b8460026003811061056c5761056b61096c565b5b60200201602081019061057f91906109c3565b60405161058f9493929190610a75565b60405180910390a15050565b5f8160015f6101000a81548160ff021916908360028111156105c0576105bf6108b8565b5b021790555060015f9054906101000a900460ff169050919050565b3460035f8282546105ec9190610aee565b92505081905550565b5f815f819055505f549050919050565b5f60025f8381526020019081526020015f205f9054906101000a900473ffffffffffffffffffffffffffffffffffffffff169050919050565b60405180606001604052805f63ffffffff1681526020015f63ffffffff1681526020015f63ffffffff1681525090565b5f5ffd5b5f819050919050565b61068481610672565b811461068e575f5ffd5b50565b5f8135905061069f8161067b565b92915050565b5f602082840312156106ba576106b961066e565b5b5f6106c784828501610691565b91505092915050565b5f63ffffffff82169050919050565b6106e8816106d0565b82525050565b606082015f8201516107025f8501826106df565b50602082015161071560208501826106df565b50604082015161072860408501826106df565b50505050565b5f6060820190506107415f8301846106ee565b92915050565b61075081610672565b82525050565b5f6020820190506107695f830184610747565b92915050565b5f73ffffffffffffffffffffffffffffffffffffffff82169050919050565b5f6107988261076f565b9050919050565b6107a88161078e565b81146107b2575f5ffd5b50565b5f813590506107c38161079f565b92915050565b5f5f604083850312156107df576107de61066e565b5b5f6107ec85828601610691565b92505060206107fd858286016107b5565b9150509250929050565b5f5ffd5b5f8190508260206003028201111561082657610825610807565b5b92915050565b5f5f608083850312156108425761084161066e565b5b5f61084f85828601610691565b92505060206108608582860161080b565b9150509250929050565b60038110610876575f5ffd5b50565b5f813590506108878161086a565b92915050565b5f602082840312156108a2576108a161066e565b5b5f6108af84828501610879565b91505092915050565b7f4e487b71000000000000000000000000000000000000000000000000000000005f52602160045260245ffd5b600381106108f6576108f56108b8565b5b50565b5f819050610906826108e5565b919050565b5f610915826108f9565b9050919050565b6109258161090b565b82525050565b5f60208201905061093e5f83018461091c565b92915050565b61094d8161078e565b82525050565b5f6020820190506109665f830184610944565b92915050565b7f4e487b71000000000000000000000000000000000000000000000000000000005f52603260045260245ffd5b6109a2816106d0565b81146109ac575f5ffd5b50565b5f813590506109bd81610999565b92915050565b5f602082840312156109d8576109d761066e565b5b5f6109e5848285016109af565b91505092915050565b5f82825260208201905092915050565b7f4d61726b73206d757374206265203c3d203130300000000000000000000000005f82015250565b5f610a326014836109ee565b9150610a3d826109fe565b602082019050919050565b5f6020820190508181035f830152610a5f81610a26565b9050919050565b610a6f816106d0565b82525050565b5f608082019050610a885f830187610747565b610a956020830186610a66565b610aa26040830185610a66565b610aaf6060830184610a66565b95945050505050565b5f819050919050565b7f4e487b71000000000000000000000000000000000000000000000000000000005f52601160045260245ffd5b5f610af882610ab8565b9150610b0383610ab8565b9250828201905080821115610b1b57610b1a610ac1565b5b9291505056fea2646970667358221220e639f510eca548d9a66469afff594f051c0a8dbae876edbdbf0817629da104a164736f6c634300081e0033",
					"opcodes": "PUSH1 0x80 PUSH1 0x40 MSTORE CALLVALUE DUP1 ISZERO PUSH1 0xE JUMPI PUSH0 PUSH0 REVERT JUMPDEST POP PUSH2 0xB57 DUP1 PUSH2 0x1C PUSH0 CODECOPY PUSH0 RETURN INVALID PUSH1 0x80 PUSH1 0x40 MSTORE PUSH1 0x4 CALLDATASIZE LT PUSH2 0x7A JUMPI PUSH0 CALLDATALOAD PUSH1 0xE0 SHR DUP1 PUSH4 0x7D9C50F0 GT PUSH2 0x4D JUMPI DUP1 PUSH4 0x7D9C50F0 EQ PUSH2 0x134 JUMPI DUP1 PUSH4 0x9CD09483 EQ PUSH2 0x170 JUMPI DUP1 PUSH4 0xBC1D2A9E EQ PUSH2 0x17A JUMPI DUP1 PUSH4 0xCE5CD34E EQ PUSH2 0x1B6 JUMPI PUSH2 0x7A JUMP JUMPDEST DUP1 PUSH4 0x3EDD962F EQ PUSH2 0x7E JUMPI DUP1 PUSH4 0x556CC692 EQ PUSH2 0xBA JUMPI DUP1 PUSH4 0x5E4F4848 EQ PUSH2 0xE4 JUMPI DUP1 PUSH4 0x75772ACE EQ PUSH2 0x10C JUMPI JUMPDEST PUSH0 PUSH0 REVERT JUMPDEST CALLVALUE DUP1 ISZERO PUSH2 0x89 JUMPI PUSH0 PUSH0 REVERT JUMPDEST POP PUSH2 0xA4 PUSH1 0x4 DUP1 CALLDATASIZE SUB DUP2 ADD SWAP1 PUSH2 0x9F SWAP2 SWAP1 PUSH2 0x6A5 JUMP JUMPDEST PUSH2 0x1F2 JUMP JUMPDEST PUSH1 0x40 MLOAD PUSH2 0xB1 SWAP2 SWAP1 PUSH2 0x72E JUMP JUMPDEST PUSH1 0x40 MLOAD DUP1 SWAP2 SUB SWAP1 RETURN JUMPDEST CALLVALUE DUP1 ISZERO PUSH2 0xC5 JUMPI PUSH0 PUSH0 REVERT JUMPDEST POP PUSH2 0xCE PUSH2 0x28B JUMP JUMPDEST PUSH1 0x40 MLOAD PUSH2 0xDB SWAP2 SWAP1 PUSH2 0x756 JUMP JUMPDEST PUSH1 0x40 MLOAD DUP1 SWAP2 SUB SWAP1 RETURN JUMPDEST CALLVALUE DUP1 ISZERO PUSH2 0xEF JUMPI PUSH0 PUSH0 REVERT JUMPDEST POP PUSH2 0x10A PUSH1 0x4 DUP1 CALLDATASIZE SUB DUP2 ADD SWAP1 PUSH2 0x105 SWAP2 SWAP1 PUSH2 0x7C9 JUMP JUMPDEST PUSH2 0x293 JUMP JUMPDEST STOP JUMPDEST CALLVALUE DUP1 ISZERO PUSH2 0x117 JUMPI PUSH0 PUSH0 REVERT JUMPDEST POP PUSH2 0x132 PUSH1 0x4 DUP1 CALLDATASIZE SUB DUP2 ADD SWAP1 PUSH2 0x12D SWAP2 SWAP1 PUSH2 0x82C JUMP JUMPDEST PUSH2 0x2E6 JUMP JUMPDEST STOP JUMPDEST CALLVALUE DUP1 ISZERO PUSH2 0x13F JUMPI PUSH0 PUSH0 REVERT JUMPDEST POP PUSH2 0x15A PUSH1 0x4 DUP1 CALLDATASIZE SUB DUP2 ADD SWAP1 PUSH2 0x155 SWAP2 SWAP1 PUSH2 0x88D JUMP JUMPDEST PUSH2 0x59B JUMP JUMPDEST PUSH1 0x40 MLOAD PUSH2 0x167 SWAP2 SWAP1 PUSH2 0x92B JUMP JUMPDEST PUSH1 0x40 MLOAD DUP1 SWAP2 SUB SWAP1 RETURN JUMPDEST PUSH2 0x178 PUSH2 0x5DB JUMP JUMPDEST STOP JUMPDEST CALLVALUE DUP1 ISZERO PUSH2 0x185 JUMPI PUSH0 PUSH0 REVERT JUMPDEST POP PUSH2 0x1A0 PUSH1 0x4 DUP1 CALLDATASIZE SUB DUP2 ADD SWAP1 PUSH2 0x19B SWAP2 SWAP1 PUSH2 0x6A5 JUMP JUMPDEST PUSH2 0x5F5 JUMP JUMPDEST PUSH1 0x40 MLOAD PUSH2 0x1AD SWAP2 SWAP1 PUSH2 0x756 JUMP JUMPDEST PUSH1 0x40 MLOAD DUP1 SWAP2 SUB SWAP1 RETURN JUMPDEST CALLVALUE DUP1 ISZERO PUSH2 0x1C1 JUMPI PUSH0 PUSH0 REVERT JUMPDEST POP PUSH2 0x1DC PUSH1 0x4 DUP1 CALLDATASIZE SUB DUP2 ADD SWAP1 PUSH2 0x1D7 SWAP2 SWAP1 PUSH2 0x6A5 JUMP JUMPDEST PUSH2 0x605 JUMP JUMPDEST PUSH1 0x40 MLOAD PUSH2 0x1E9 SWAP2 SWAP1 PUSH2 0x953 JUMP JUMPDEST PUSH1 0x40 MLOAD DUP1 SWAP2 SUB SWAP1 RETURN JUMPDEST PUSH2 0x1FA PUSH2 0x63E JUMP JUMPDEST PUSH1 0x4 PUSH0 DUP4 DUP2 MSTORE PUSH1 0x20 ADD SWAP1 DUP2 MSTORE PUSH1 0x20 ADD PUSH0 KECCAK256 PUSH1 0x40 MLOAD DUP1 PUSH1 0x60 ADD PUSH1 0x40 MSTORE SWAP1 DUP2 PUSH0 DUP3 ADD PUSH0 SWAP1 SLOAD SWAP1 PUSH2 0x100 EXP SWAP1 DIV PUSH4 0xFFFFFFFF AND PUSH4 0xFFFFFFFF AND PUSH4 0xFFFFFFFF AND DUP2 MSTORE PUSH1 0x20 ADD PUSH0 DUP3 ADD PUSH1 0x4 SWAP1 SLOAD SWAP1 PUSH2 0x100 EXP SWAP1 DIV PUSH4 0xFFFFFFFF AND PUSH4 0xFFFFFFFF AND PUSH4 0xFFFFFFFF AND DUP2 MSTORE PUSH1 0x20 ADD PUSH0 DUP3 ADD PUSH1 0x8 SWAP1 SLOAD SWAP1 PUSH2 0x100 EXP SWAP1 DIV PUSH4 0xFFFFFFFF AND PUSH4 0xFFFFFFFF AND PUSH4 0xFFFFFFFF AND DUP2 MSTORE POP POP SWAP1 POP SWAP2 SWAP1 POP JUMP JUMPDEST PUSH0 PUSH0 SLOAD SWAP1 POP SWAP1 JUMP JUMPDEST DUP1 PUSH1 0x2 PUSH0 DUP5 DUP2 MSTORE PUSH1 0x20 ADD SWAP1 DUP2 MSTORE PUSH1 0x20 ADD PUSH0 KECCAK256 PUSH0 PUSH2 0x100 EXP DUP2 SLOAD DUP2 PUSH20 0xFFFFFFFFFFFFFFFFFFFFFFFFFFFFFFFFFFFFFFFF MUL NOT AND SWAP1 DUP4 PUSH20 0xFFFFFFFFFFFFFFFFFFFFFFFFFFFFFFFFFFFFFFFF AND MUL OR SWAP1 SSTORE POP POP POP JUMP JUMPDEST PUSH1 0x64 DUP2 PUSH0 PUSH1 0x3 DUP2 LT PUSH2 0x2FB JUMPI PUSH2 0x2FA PUSH2 0x96C JUMP JUMPDEST JUMPDEST PUSH1 0x20 MUL ADD PUSH1 0x20 DUP2 ADD SWAP1 PUSH2 0x30E SWAP2 SWAP1 PUSH2 0x9C3 JUMP JUMPDEST PUSH4 0xFFFFFFFF AND GT ISZERO DUP1 ISZERO PUSH2 0x34F JUMPI POP PUSH1 0x64 DUP2 PUSH1 0x1 PUSH1 0x3 DUP2 LT PUSH2 0x333 JUMPI PUSH2 0x332 PUSH2 0x96C JUMP JUMPDEST JUMPDEST PUSH1 0x20 MUL ADD PUSH1 0x20 DUP2 ADD SWAP1 PUSH2 0x346 SWAP2 SWAP1 PUSH2 0x9C3 JUMP JUMPDEST PUSH4 0xFFFFFFFF AND GT ISZERO JUMPDEST DUP1 ISZERO PUSH2 0x388 JUMPI POP PUSH1 0x64 DUP2 PUSH1 0x2 PUSH1 0x3 DUP2 LT PUSH2 0x36C JUMPI PUSH2 0x36B PUSH2 0x96C JUMP JUMPDEST JUMPDEST PUSH1 0x20 MUL ADD PUSH1 0x20 DUP2 ADD SWAP1 PUSH2 0x37F SWAP2 SWAP1 PUSH2 0x9C3 JUMP JUMPDEST PUSH4 0xFFFFFFFF AND GT ISZERO JUMPDEST PUSH2 0x3C7 JUMPI PUSH1 0x40 MLOAD PUSH32 0x8C379A000000000000000000000000000000000000000000000000000000000 DUP2 MSTORE PUSH1 0x4 ADD PUSH2 0x3BE SWAP1 PUSH2 0xA48 JUMP JUMPDEST PUSH1 0x40 MLOAD DUP1 SWAP2 SUB SWAP1 REVERT JUMPDEST PUSH1 0x40 MLOAD DUP1 PUSH1 0x60 ADD PUSH1 0x40 MSTORE DUP1 DUP3 PUSH0 PUSH1 0x3 DUP2 LT PUSH2 0x3E5 JUMPI PUSH2 0x3E4 PUSH2 0x96C JUMP JUMPDEST JUMPDEST PUSH1 0x20 MUL ADD PUSH1 0x20 DUP2 ADD SWAP1 PUSH2 0x3F8 SWAP2 SWAP1 PUSH2 0x9C3 JUMP JUMPDEST PUSH4 0xFFFFFFFF AND DUP2 MSTORE PUSH1 0x20 ADD DUP3 PUSH1 0x1 PUSH1 0x3 DUP2 LT PUSH2 0x417 JUMPI PUSH2 0x416 PUSH2 0x96C JUMP JUMPDEST JUMPDEST PUSH1 0x20 MUL ADD PUSH1 0x20 DUP2 ADD SWAP1 PUSH2 0x42A SWAP2 SWAP1 PUSH2 0x9C3 JUMP JUMPDEST PUSH4 0xFFFFFFFF AND DUP2 MSTORE PUSH1 0x20 ADD DUP3 PUSH1 0x2 PUSH1 0x3 DUP2 LT PUSH2 0x449 JUMPI PUSH2 0x448 PUSH2 0x96C JUMP JUMPDEST JUMPDEST PUSH1 0x20 MUL ADD PUSH1 0x20 DUP2 ADD SWAP1 PUSH2 0x45C SWAP2 SWAP1 PUSH2 0x9C3 JUMP JUMPDEST PUSH4 0xFFFFFFFF AND DUP2 MSTORE POP PUSH1 0x4 PUSH0 DUP5 DUP2 MSTORE PUSH1 0x20 ADD SWAP1 DUP2 MSTORE PUSH1 0x20 ADD PUSH0 KECCAK256 PUSH0 DUP3 ADD MLOAD DUP2 PUSH0 ADD PUSH0 PUSH2 0x100 EXP DUP2 SLOAD DUP2 PUSH4 0xFFFFFFFF MUL NOT AND SWAP1 DUP4 PUSH4 0xFFFFFFFF AND MUL OR SWAP1 SSTORE POP PUSH1 0x20 DUP3 ADD MLOAD DUP2 PUSH0 ADD PUSH1 0x4 PUSH2 0x100 EXP DUP2 SLOAD DUP2 PUSH4 0xFFFFFFFF MUL NOT AND SWAP1 DUP4 PUSH4 0xFFFFFFFF AND MUL OR SWAP1 SSTORE POP PUSH1 0x40 DUP3 ADD MLOAD DUP2 PUSH0 ADD PUSH1 0x8 PUSH2 0x100 EXP DUP2 SLOAD DUP2 PUSH4 0xFFFFFFFF MUL NOT AND SWAP1 DUP4 PUSH4 0xFFFFFFFF AND MUL OR SWAP1 SSTORE POP SWAP1 POP POP PUSH32 0x15F0028B62FA7401DABD6A17AE086F7743F7B7BC60401477E82994D7B8C6A156 DUP3 DUP3 PUSH0 PUSH1 0x3 DUP2 LT PUSH2 0x51E JUMPI PUSH2 0x51D PUSH2 0x96C JUMP JUMPDEST JUMPDEST PUSH1 0x20 MUL ADD PUSH1 0x20 DUP2 ADD SWAP1 PUSH2 0x531 SWAP2 SWAP1 PUSH2 0x9C3 JUMP JUMPDEST DUP4 PUSH1 0x1 PUSH1 0x3 DUP2 LT PUSH2 0x545 JUMPI PUSH2 0x544 PUSH2 0x96C JUMP JUMPDEST JUMPDEST PUSH1 0x20 MUL ADD PUSH1 0x20 DUP2 ADD SWAP1 PUSH2 0x558 SWAP2 SWAP1 PUSH2 0x9C3 JUMP JUMPDEST DUP5 PUSH1 0x2 PUSH1 0x3 DUP2 LT PUSH2 0x56C JUMPI PUSH2 0x56B PUSH2 0x96C JUMP JUMPDEST JUMPDEST PUSH1 0x20 MUL ADD PUSH1 0x20 DUP2 ADD SWAP1 PUSH2 0x57F SWAP2 SWAP1 PUSH2 0x9C3 JUMP JUMPDEST PUSH1 0x40 MLOAD PUSH2 0x58F SWAP5 SWAP4 SWAP3 SWAP2 SWAP1 PUSH2 0xA75 JUMP JUMPDEST PUSH1 0x40 MLOAD DUP1 SWAP2 SUB SWAP1 LOG1 POP POP JUMP JUMPDEST PUSH0 DUP2 PUSH1 0x1 PUSH0 PUSH2 0x100 EXP DUP2 SLOAD DUP2 PUSH1 0xFF MUL NOT AND SWAP1 DUP4 PUSH1 0x2 DUP2 GT ISZERO PUSH2 0x5C0 JUMPI PUSH2 0x5BF PUSH2 0x8B8 JUMP JUMPDEST JUMPDEST MUL OR SWAP1 SSTORE POP PUSH1 0x1 PUSH0 SWAP1 SLOAD SWAP1 PUSH2 0x100 EXP SWAP1 DIV PUSH1 0xFF AND SWAP1 POP SWAP2 SWAP1 POP JUMP JUMPDEST CALLVALUE PUSH1 0x3 PUSH0 DUP3 DUP3 SLOAD PUSH2 0x5EC SWAP2 SWAP1 PUSH2 0xAEE JUMP JUMPDEST SWAP3 POP POP DUP2 SWAP1 SSTORE POP JUMP JUMPDEST PUSH0 DUP2 PUSH0 DUP2 SWAP1 SSTORE POP PUSH0 SLOAD SWAP1 POP SWAP2 SWAP1 POP JUMP JUMPDEST PUSH0 PUSH1 0x2 PUSH0 DUP4 DUP2 MSTORE PUSH1 0x20 ADD SWAP1 DUP2 MSTORE PUSH1 0x20 ADD PUSH0 KECCAK256 PUSH0 SWAP1 SLOAD SWAP1 PUSH2 0x100 EXP SWAP1 DIV PUSH20 0xFFFFFFFFFFFFFFFFFFFFFFFFFFFFFFFFFFFFFFFF AND SWAP1 POP SWAP2 SWAP1 POP JUMP JUMPDEST PUSH1 0x40 MLOAD DUP1 PUSH1 0x60 ADD PUSH1 0x40 MSTORE DUP1 PUSH0 PUSH4 0xFFFFFFFF AND DUP2 MSTORE PUSH1 0x20 ADD PUSH0 PUSH4 0xFFFFFFFF AND DUP2 MSTORE PUSH1 0x20 ADD PUSH0 PUSH4 0xFFFFFFFF AND DUP2 MSTORE POP SWAP1 JUMP JUMPDEST PUSH0 PUSH0 REVERT JUMPDEST PUSH0 DUP2 SWAP1 POP SWAP2 SWAP1 POP JUMP JUMPDEST PUSH2 0x684 DUP2 PUSH2 0x672 JUMP JUMPDEST DUP2 EQ PUSH2 0x68E JUMPI PUSH0 PUSH0 REVERT JUMPDEST POP JUMP JUMPDEST PUSH0 DUP2 CALLDATALOAD SWAP1 POP PUSH2 0x69F DUP2 PUSH2 0x67B JUMP JUMPDEST SWAP3 SWAP2 POP POP JUMP JUMPDEST PUSH0 PUSH1 0x20 DUP3 DUP5 SUB SLT ISZERO PUSH2 0x6BA JUMPI PUSH2 0x6B9 PUSH2 0x66E JUMP JUMPDEST JUMPDEST PUSH0 PUSH2 0x6C7 DUP5 DUP3 DUP6 ADD PUSH2 0x691 JUMP JUMPDEST SWAP2 POP POP SWAP3 SWAP2 POP POP JUMP JUMPDEST PUSH0 PUSH4 0xFFFFFFFF DUP3 AND SWAP1 POP SWAP2 SWAP1 POP JUMP JUMPDEST PUSH2 0x6E8 DUP2 PUSH2 0x6D0 JUMP JUMPDEST DUP3 MSTORE POP POP JUMP JUMPDEST PUSH1 0x60 DUP3 ADD PUSH0 DUP3 ADD MLOAD PUSH2 0x702 PUSH0 DUP6 ADD DUP3 PUSH2 0x6DF JUMP JUMPDEST POP PUSH1 0x20 DUP3 ADD MLOAD PUSH2 0x715 PUSH1 0x20 DUP6 ADD DUP3 PUSH2 0x6DF JUMP JUMPDEST POP PUSH1 0x40 DUP3 ADD MLOAD PUSH2 0x728 PUSH1 0x40 DUP6 ADD DUP3 PUSH2 0x6DF JUMP JUMPDEST POP POP POP POP JUMP JUMPDEST PUSH0 PUSH1 0x60 DUP3 ADD SWAP1 POP PUSH2 0x741 PUSH0 DUP4 ADD DUP5 PUSH2 0x6EE JUMP JUMPDEST SWAP3 SWAP2 POP POP JUMP JUMPDEST PUSH2 0x750 DUP2 PUSH2 0x672 JUMP JUMPDEST DUP3 MSTORE POP POP JUMP JUMPDEST PUSH0 PUSH1 0x20 DUP3 ADD SWAP1 POP PUSH2 0x769 PUSH0 DUP4 ADD DUP5 PUSH2 0x747 JUMP JUMPDEST SWAP3 SWAP2 POP POP JUMP JUMPDEST PUSH0 PUSH20 0xFFFFFFFFFFFFFFFFFFFFFFFFFFFFFFFFFFFFFFFF DUP3 AND SWAP1 POP SWAP2 SWAP1 POP JUMP JUMPDEST PUSH0 PUSH2 0x798 DUP3 PUSH2 0x76F JUMP JUMPDEST SWAP1 POP SWAP2 SWAP1 POP JUMP JUMPDEST PUSH2 0x7A8 DUP2 PUSH2 0x78E JUMP JUMPDEST DUP2 EQ PUSH2 0x7B2 JUMPI PUSH0 PUSH0 REVERT JUMPDEST POP JUMP JUMPDEST PUSH0 DUP2 CALLDATALOAD SWAP1 POP PUSH2 0x7C3 DUP2 PUSH2 0x79F JUMP JUMPDEST SWAP3 SWAP2 POP POP JUMP JUMPDEST PUSH0 PUSH0 PUSH1 0x40 DUP4 DUP6 SUB SLT ISZERO PUSH2 0x7DF JUMPI PUSH2 0x7DE PUSH2 0x66E JUMP JUMPDEST JUMPDEST PUSH0 PUSH2 0x7EC DUP6 DUP3 DUP7 ADD PUSH2 0x691 JUMP JUMPDEST SWAP3 POP POP PUSH1 0x20 PUSH2 0x7FD DUP6 DUP3 DUP7 ADD PUSH2 0x7B5 JUMP JUMPDEST SWAP2 POP POP SWAP3 POP SWAP3 SWAP1 POP JUMP JUMPDEST PUSH0 PUSH0 REVERT JUMPDEST PUSH0 DUP2 SWAP1 POP DUP3 PUSH1 0x20 PUSH1 0x3 MUL DUP3 ADD GT ISZERO PUSH2 0x826 JUMPI PUSH2 0x825 PUSH2 0x807 JUMP JUMPDEST JUMPDEST SWAP3 SWAP2 POP POP JUMP JUMPDEST PUSH0 PUSH0 PUSH1 0x80 DUP4 DUP6 SUB SLT ISZERO PUSH2 0x842 JUMPI PUSH2 0x841 PUSH2 0x66E JUMP JUMPDEST JUMPDEST PUSH0 PUSH2 0x84F DUP6 DUP3 DUP7 ADD PUSH2 0x691 JUMP JUMPDEST SWAP3 POP POP PUSH1 0x20 PUSH2 0x860 DUP6 DUP3 DUP7 ADD PUSH2 0x80B JUMP JUMPDEST SWAP2 POP POP SWAP3 POP SWAP3 SWAP1 POP JUMP JUMPDEST PUSH1 0x3 DUP2 LT PUSH2 0x876 JUMPI PUSH0 PUSH0 REVERT JUMPDEST POP JUMP JUMPDEST PUSH0 DUP2 CALLDATALOAD SWAP1 POP PUSH2 0x887 DUP2 PUSH2 0x86A JUMP JUMPDEST SWAP3 SWAP2 POP POP JUMP JUMPDEST PUSH0 PUSH1 0x20 DUP3 DUP5 SUB SLT ISZERO PUSH2 0x8A2 JUMPI PUSH2 0x8A1 PUSH2 0x66E JUMP JUMPDEST JUMPDEST PUSH0 PUSH2 0x8AF DUP5 DUP3 DUP6 ADD PUSH2 0x879 JUMP JUMPDEST SWAP2 POP POP SWAP3 SWAP2 POP POP JUMP JUMPDEST PUSH32 0x4E487B7100000000000000000000000000000000000000000000000000000000 PUSH0 MSTORE PUSH1 0x21 PUSH1 0x4 MSTORE PUSH1 0x24 PUSH0 REVERT JUMPDEST PUSH1 0x3 DUP2 LT PUSH2 0x8F6 JUMPI PUSH2 0x8F5 PUSH2 0x8B8 JUMP JUMPDEST JUMPDEST POP JUMP JUMPDEST PUSH0 DUP2 SWAP1 POP PUSH2 0x906 DUP3 PUSH2 0x8E5 JUMP JUMPDEST SWAP2 SWAP1 POP JUMP JUMPDEST PUSH0 PUSH2 0x915 DUP3 PUSH2 0x8F9 JUMP JUMPDEST SWAP1 POP SWAP2 SWAP1 POP JUMP JUMPDEST PUSH2 0x925 DUP2 PUSH2 0x90B JUMP JUMPDEST DUP3 MSTORE POP POP JUMP JUMPDEST PUSH0 PUSH1 0x20 DUP3 ADD SWAP1 POP PUSH2 0x93E PUSH0 DUP4 ADD DUP5 PUSH2 0x91C JUMP JUMPDEST SWAP3 SWAP2 POP POP JUMP JUMPDEST PUSH2 0x94D DUP2 PUSH2 0x78E JUMP JUMPDEST DUP3 MSTORE POP POP JUMP JUMPDEST PUSH0 PUSH1 0x20 DUP3 ADD SWAP1 POP PUSH2 0x966 PUSH0 DUP4 ADD DUP5 PUSH2 0x944 JUMP JUMPDEST SWAP3 SWAP2 POP POP JUMP JUMPDEST PUSH32 0x4E487B7100000000000000000000000000000000000000000000000000000000 PUSH0 MSTORE PUSH1 0x32 PUSH1 0x4 MSTORE PUSH1 0x24 PUSH0 REVERT JUMPDEST PUSH2 0x9A2 DUP2 PUSH2 0x6D0 JUMP JUMPDEST DUP2 EQ PUSH2 0x9AC JUMPI PUSH0 PUSH0 REVERT JUMPDEST POP JUMP JUMPDEST PUSH0 DUP2 CALLDATALOAD SWAP1 POP PUSH2 0x9BD DUP2 PUSH2 0x999 JUMP JUMPDEST SWAP3 SWAP2 POP POP JUMP JUMPDEST PUSH0 PUSH1 0x20 DUP3 DUP5 SUB SLT ISZERO PUSH2 0x9D8 JUMPI PUSH2 0x9D7 PUSH2 0x66E JUMP JUMPDEST JUMPDEST PUSH0 PUSH2 0x9E5 DUP5 DUP3 DUP6 ADD PUSH2 0x9AF JUMP JUMPDEST SWAP2 POP POP SWAP3 SWAP2 POP POP JUMP JUMPDEST PUSH0 DUP3 DUP3 MSTORE PUSH1 0x20 DUP3 ADD SWAP1 POP SWAP3 SWAP2 POP POP JUMP JUMPDEST PUSH32 0x4D61726B73206D757374206265203C3D20313030000000000000000000000000 PUSH0 DUP3 ADD MSTORE POP JUMP JUMPDEST PUSH0 PUSH2 0xA32 PUSH1 0x14 DUP4 PUSH2 0x9EE JUMP JUMPDEST SWAP2 POP PUSH2 0xA3D DUP3 PUSH2 0x9FE JUMP JUMPDEST PUSH1 0x20 DUP3 ADD SWAP1 POP SWAP2 SWAP1 POP JUMP JUMPDEST PUSH0 PUSH1 0x20 DUP3 ADD SWAP1 POP DUP2 DUP2 SUB PUSH0 DUP4 ADD MSTORE PUSH2 0xA5F DUP2 PUSH2 0xA26 JUMP JUMPDEST SWAP1 POP SWAP2 SWAP1 POP JUMP JUMPDEST PUSH2 0xA6F DUP2 PUSH2 0x6D0 JUMP JUMPDEST DUP3 MSTORE POP POP JUMP JUMPDEST PUSH0 PUSH1 0x80 DUP3 ADD SWAP1 POP PUSH2 0xA88 PUSH0 DUP4 ADD DUP8 PUSH2 0x747 JUMP JUMPDEST PUSH2 0xA95 PUSH1 0x20 DUP4 ADD DUP7 PUSH2 0xA66 JUMP JUMPDEST PUSH2 0xAA2 PUSH1 0x40 DUP4 ADD DUP6 PUSH2 0xA66 JUMP JUMPDEST PUSH2 0xAAF PUSH1 0x60 DUP4 ADD DUP5 PUSH2 0xA66 JUMP JUMPDEST SWAP6 SWAP5 POP POP POP POP POP JUMP JUMPDEST PUSH0 DUP2 SWAP1 POP SWAP2 SWAP1 POP JUMP JUMPDEST PUSH32 0x4E487B7100000000000000000000000000000000000000000000000000000000 PUSH0 MSTORE PUSH1 0x11 PUSH1 0x4 MSTORE PUSH1 0x24 PUSH0 REVERT JUMPDEST PUSH0 PUSH2 0xAF8 DUP3 PUSH2 0xAB8 JUMP JUMPDEST SWAP2 POP PUSH2 0xB03 DUP4 PUSH2 0xAB8 JUMP JUMPDEST SWAP3 POP DUP3 DUP3 ADD SWAP1 POP DUP1 DUP3 GT ISZERO PUSH2 0xB1B JUMPI PUSH2 0xB1A PUSH2 0xAC1 JUMP JUMPDEST JUMPDEST SWAP3 SWAP2 POP POP JUMP INVALID LOG2 PUSH5 0x6970667358 0x22 SLT KECCAK256 DUPN 0x39 CREATE2 LT EOFCREATE 0xA5 BASEFEE 0xD9 0xA6 PUSH5 0x69AFFF594F SDIV SHR EXP DUP14 0xBA 0xE8 PUSH23 0xEDBDBF0817629DA104A164736F6C634300081E00330000 "
				},
				"gasEstimates": {
					"creation": {
						"codeDepositCost": "580600",
						"executionCost": "611",
						"totalCost": "581211"
					},
					"external": {
						"AddFunds()": "infinite",
						"GetStudentGrade(int256)": "infinite",
						"GetStudentId()": "2454",
						"GetStudentWallet(int256)": "2918",
						"SetStudentGrade(int256,uint32[3])": "infinite",
						"SetStudentId(int256)": "infinite",
						"SetStudentType(uint8)": "27066",
						"SetStudentWallet(int256,address)": "25006"
					}
				},
				"methodIdentifiers": {
					"AddFunds()": "9cd09483",
					"GetStudentGrade(int256)": "3edd962f",
					"GetStudentId()": "556cc692",
					"GetStudentWallet(int256)": "ce5cd34e",
					"SetStudentGrade(int256,uint32[3])": "75772ace",
					"SetStudentId(int256)": "bc1d2a9e",
					"SetStudentType(uint8)": "7d9c50f0",
					"SetStudentWallet(int256,address)": "5e4f4848"
				}
			},
			"storageLayout": {
				"storage": [
					{
						"astId": 14,
						"contract": "Student/contract/StudentInfo.sol:StudentInfo",
						"label": "id",
						"offset": 0,
						"slot": "0",
						"type": "t_int256"
					},
					{
						"astId": 17,
						"contract": "Student/contract/StudentInfo.sol:StudentInfo",
						"label": "student_type",
						"offset": 0,
						"slot": "1",
						"type": "t_enum(StudentType)12"
					},
					{
						"astId": 21,
						"contract": "Student/contract/StudentInfo.sol:StudentInfo",
						"label": "student_wallet",
						"offset": 0,
						"slot": "2",
						"type": "t_mapping(t_int256,t_address)"
					},
					{
						"astId": 23,
						"contract": "Student/contract/StudentInfo.sol:StudentInfo",
						"label": "balance",
						"offset": 0,
						"slot": "3",
						"type": "t_uint256"
					},
					{
						"astId": 28,
						"contract": "Student/contract/StudentInfo.sol:StudentInfo",
						"label": "student_grades",
						"offset": 0,
						"slot": "4",
						"type": "t_mapping(t_int256,t_struct(Grade)8_storage)"
					}
				],
				"types": {
					"t_address": {
						"encoding": "inplace",
						"label": "address",
						"numberOfBytes": "20"
					},
					"t_enum(StudentType)12": {
						"encoding": "inplace",
						"label": "enum StudentType",
						"numberOfBytes": "1"
					},
					"t_int256": {
						"encoding": "inplace",
						"label": "int256",
						"numberOfBytes": "32"
					},
					"t_mapping(t_int256,t_address)": {
						"encoding": "mapping",
						"key": "t_int256",
						"label": "mapping(int256 => address)",
						"numberOfBytes": "32",
						"value": "t_address"
					},
					"t_mapping(t_int256,t_struct(Grade)8_storage)": {
						"encoding": "mapping",
						"key": "t_int256",
						"label": "mapping(int256 => struct Grade)",
						"numberOfBytes": "32",
						"value": "t_struct(Grade)8_storage"
					},
					"t_struct(Grade)8_storage": {
						"encoding": "inplace",
						"label": "struct Grade",
						"members": [
							{
								"astId": 3,
								"contract": "Student/contract/StudentInfo.sol:StudentInfo",
								"label": "mark1",
								"offset": 0,
								"slot": "0",
								"type": "t_uint32"
							},
							{
								"astId": 5,
								"contract": "Student/contract/StudentInfo.sol:StudentInfo",
								"label": "mark2",
								"offset": 4,
								"slot": "0",
								"type": "t_uint32"
							},
							{
								"astId": 7,
								"contract": "Student/contract/StudentInfo.sol:StudentInfo",
								"label": "mark3",
								"offset": 8,
								"slot": "0",
								"type": "t_uint32"
							}
						],
						"numberOfBytes": "32"
					},
					"t_uint256": {
						"encoding": "inplace",
						"label": "uint256",
						"numberOfBytes": "32"
					},
					"t_uint32": {
						"encoding": "inplace",
						"label": "uint32",
						"numberOfBytes": "4"
					}
				}
			},
			"userdoc": {
				"kind": "user",
				"methods": {},
				"version": 1
			}
		}
	}
}