{
	"data": {
		"bytecode": {
			"linkReferences": {},
			"object": "60806040526001600355348015610014575f5ffd5b506040516127ec3803806127ec833981810160405281019061003691906101e3565b805f73ffffffffffffffffffffffffffffffffffffffff168173ffffffffffffffffffffffffffffffffffffffff16036100a7575f6040517f1e4fbdf700000000000000000000000000000000000000000000000000000000815260040161009e919061021d565b60405180910390fd5b6100b6816100c460201b60201c565b506001808190555050610236565b5f5f5f9054906101000a900473ffffffffffffffffffffffffffffffffffffffff169050815f5f6101000a81548173ffffffffffffffffffffffffffffffffffffffff021916908373ffffffffffffffffffffffffffffffffffffffff1602179055508173ffffffffffffffffffffffffffffffffffffffff168173ffffffffffffffffffffffffffffffffffffffff167f8be0079c531659141344cd1fd0a4f28419497f9722a3daafe3b4186f6b6457e060405160405180910390a35050565b5f5ffd5b5f73ffffffffffffffffffffffffffffffffffffffff82169050919050565b5f6101b282610189565b9050919050565b6101c2816101a8565b81146101cc575f5ffd5b50565b5f815190506101dd816101b9565b92915050565b5f602082840312156101f8576101f7610185565b5b5f610205848285016101cf565b91505092915050565b610217816101a8565b82525050565b5f6020820190506102305f83018461020e565b92915050565b6125a9806102435f395ff3fe6080604052600436106100aa575f3560e01c8063a18acff211610063578063a18acff214610197578063bfb231d2146101bf578063db98631a14610202578063e3591d391461021e578063f2fde38b1461025a578063f9e38f9c14610282576100b1565b806307b18bde146100b557806344004cc1146100dd57806364391ec9146101055780636a8689741461012d578063715018a6146101575780638da5cb5b1461016d576100b1565b366100b157005b5f5ffd5b3480156100c0575f5ffd5b506100db60048036038101906100d69190611735565b6102aa565b005b3480156100e8575f5ffd5b5061010360048036038101906100fe91906117ae565b610356565b005b348015610110575f5ffd5b5061012b60048036038101906101269190611909565b61038e565b005b348015610138575f5ffd5b50610141610790565b60405161014e91906119c8565b60405180910390f35b348015610162575f5ffd5b5061016b610796565b005b348015610178575f5ffd5b506101816107a9565b60405161018e91906119f0565b60405180910390f35b3480156101a2575f5ffd5b506101bd60048036038101906101b89190611ad3565b6107d0565b005b3480156101ca575f5ffd5b506101e560048036038101906101e09190611ba3565b610967565b6040516101f9989796959493929190611ccf565b60405180910390f35b61021c60048036038101906102179190611d52565b610aa0565b005b348015610229575f5ffd5b50610244600480360381019061023f9190611db3565b610f75565b60405161025191906119c8565b60405180910390f35b348015610265575f5ffd5b50610280600480360381019061027b9190611e70565b611232565b005b34801561028d575f5ffd5b506102a860048036038101906102a39190611ba3565b6112b6565b005b6102b2611366565b5f8273ffffffffffffffffffffffffffffffffffffffff16826040516102d790611ec8565b5f6040518083038185875af1925050503d805f8114610311576040519150601f19603f3d011682016040523d82523d5f602084013e610316565b606091505b5050905080610351576040517f750b219c00000000000000000000000000000000000000000000000000000000815260040160405180910390fd5b505050565b61035e611366565b61038982828573ffffffffffffffffffffffffffffffffffffffff166113ed9092919063ffffffff16565b505050565b610396611366565b8383905086869050146103de576040517f08c379a00000000000000000000000000000000000000000000000000000000081526004016103d590611f26565b60405180910390fd5b818190508484905014610426576040517f08c379a000000000000000000000000000000000000000000000000000000000815260040161041d90611f26565b60405180910390fd5b5f5f90505b86869050811015610787575f85858381811061044a57610449611f44565b5b9050602002013503610488576040517fe528e11e00000000000000000000000000000000000000000000000000000000815260040160405180910390fd5b5f600354905060035f81548092919060010191905055506040518061010001604052808787858181106104be576104bd611f44565b5b9050602002013581526020015f81526020015f73ffffffffffffffffffffffffffffffffffffffff1681526020018585858181106104ff576104fe611f44565b5b90506020020160208101906105149190611f71565b6affffffffffffffffffffff1681526020015f600381111561053957610538611bdd565b5b81526020015f73ffffffffffffffffffffffffffffffffffffffff16815260200160011515815260200189898581811061057657610575611f44565b5b90506020028101906105889190611fa8565b8080601f0160208091040260200160405190810160405280939291908181526020018383808284375f81840152601f19601f8201169050808301925050505050505081525060025f8381526020019081526020015f205f820151815f0155602082015181600101556040820151816002015f6101000a81548173ffffffffffffffffffffffffffffffffffffffff021916908373ffffffffffffffffffffffffffffffffffffffff16021790555060608201518160020160146101000a8154816affffffffffffffffffffff02191690836affffffffffffffffffffff160217905550608082015181600201601f6101000a81548160ff0219169083600381111561069657610695611bdd565b5b021790555060a0820151816003015f6101000a81548173ffffffffffffffffffffffffffffffffffffffff021916908373ffffffffffffffffffffffffffffffffffffffff16021790555060c08201518160030160146101000a81548160ff02191690831515021790555060e08201518160040190816107169190612234565b50905050807f8c3409579cc85e268df189819fe63a5895459ed136aeba64043ce7c03a4df18e89898581811061074f5761074e611f44565b5b90506020028101906107619190611fa8565b5f6040516107719392919061233d565b60405180910390a250808060010191505061042b565b50505050505050565b60035481565b61079e611366565b6107a75f61146c565b565b5f5f5f9054906101000a900473ffffffffffffffffffffffffffffffffffffffff16905090565b6107d8611366565b5f60025f8b81526020019081526020015f205f015403610824576040517f9a749d8100000000000000000000000000000000000000000000000000000000815260040160405180910390fd5b5f60025f8b81526020019081526020015f209050888882600401918261084b929190612377565b5086816002015f6101000a81548173ffffffffffffffffffffffffffffffffffffffff021916908373ffffffffffffffffffffffffffffffffffffffff16021790555085815f0181905550848160020160146101000a8154816affffffffffffffffffffff02191690836affffffffffffffffffffff16021790555083816003015f6101000a81548173ffffffffffffffffffffffffffffffffffffffff021916908373ffffffffffffffffffffffffffffffffffffffff160217905550828160010181905550818160030160146101000a81548160ff021916908315150217905550897f5e58dfa592b09c585a4ab7ef8158d20b1e52e9897f3095dbe1df700853905c2f60405160405180910390a250505050505050505050565b6002602052805f5260405f205f91509050805f015490806001015490806002015f9054906101000a900473ffffffffffffffffffffffffffffffffffffffff16908060020160149054906101000a90046affffffffffffffffffffff169080600201601f9054906101000a900460ff1690806003015f9054906101000a900473ffffffffffffffffffffffffffffffffffffffff16908060030160149054906101000a900460ff1690806004018054610a1f90612064565b80601f0160208091040260200160405190810160405280929190818152602001828054610a4b90612064565b8015610a965780601f10610a6d57610100808354040283529160200191610a96565b820191905f5260205f20905b815481529060010190602001808311610a7957829003601f168201915b5050505050905088565b610aa861152d565b6001816affffffffffffffffffffff161015610af0576040517f524f409b00000000000000000000000000000000000000000000000000000000815260040160405180910390fd5b5f60025f8481526020019081526020015f2090505f8160030160149054906101000a900460ff1690505f825f015490505f836002015f9054906101000a900473ffffffffffffffffffffffffffffffffffffffff1690505f84600201601f9054906101000a900460ff1690505f8303610b95576040517f9a749d8100000000000000000000000000000000000000000000000000000000815260040160405180910390fd5b83610bcc576040517f3de4bdce00000000000000000000000000000000000000000000000000000000815260040160405180910390fd5b5f6003811115610bdf57610bde611bdd565b5b816003811115610bf257610bf1611bdd565b5b1480610c22575060016003811115610c0d57610c0c611bdd565b5b816003811115610c2057610c1f611bdd565b5b145b15610c8f5760018560020160149054906101000a90046affffffffffffffffffffff166affffffffffffffffffffff161015610c8a576040517f0f00e02100000000000000000000000000000000000000000000000000000000815260040160405180910390fd5b610cd7565b6001866affffffffffffffffffffff1614610cd6576040517fbdd5cab700000000000000000000000000000000000000000000000000000000815260040160405180910390fd5b5b5f866affffffffffffffffffffff1684610cf19190612471565b90505f73ffffffffffffffffffffffffffffffffffffffff168373ffffffffffffffffffffffffffffffffffffffff1603610d6457803414610d5f576040517fe66e49f300000000000000000000000000000000000000000000000000000000815260040160405180910390fd5b610d92565b610d913330838673ffffffffffffffffffffffffffffffffffffffff16611573909392919063ffffffff16565b5b60026003811115610da657610da5611bdd565b5b826003811115610db957610db8611bdd565b5b03610e5457856003015f9054906101000a900473ffffffffffffffffffffffffffffffffffffffff1673ffffffffffffffffffffffffffffffffffffffff166342842e0e303389600101546040518463ffffffff1660e01b8152600401610e22939291906124b2565b5f604051808303815f87803b158015610e39575f5ffd5b505af1158015610e4b573d5f5f3e3d5ffd5b50505050610f10565b600380811115610e6757610e66611bdd565b5b826003811115610e7a57610e79611bdd565b5b03610f0f57856003015f9054906101000a900473ffffffffffffffffffffffffffffffffffffffff1673ffffffffffffffffffffffffffffffffffffffff1663449a52f83388600101546040518363ffffffff1660e01b8152600401610ee19291906124e7565b5f604051808303815f87803b158015610ef8575f5ffd5b505af1158015610f0a573d5f5f3e3d5ffd5b505050505b5b873373ffffffffffffffffffffffffffffffffffffffff167f25eac5783506476870e6e92210ff98e510dde71793a190d77d19ca2ceaf6024d898487604051610f5b9392919061253e565b60405180910390a3505050505050610f716115f5565b5050565b5f610f7e611366565b5f8503610fb7576040517fe528e11e00000000000000000000000000000000000000000000000000000000815260040160405180910390fd5b5f600354905060035f81548092919060010191905055506040518061010001604052808781526020018481526020018873ffffffffffffffffffffffffffffffffffffffff168152602001866affffffffffffffffffffff16815260200189600381111561102857611027611bdd565b5b81526020018573ffffffffffffffffffffffffffffffffffffffff1681526020016001151581526020018b8b8080601f0160208091040260200160405190810160405280939291908181526020018383808284375f81840152601f19601f8201169050808301925050505050505081525060025f8381526020019081526020015f205f820151815f0155602082015181600101556040820151816002015f6101000a81548173ffffffffffffffffffffffffffffffffffffffff021916908373ffffffffffffffffffffffffffffffffffffffff16021790555060608201518160020160146101000a8154816affffffffffffffffffffff02191690836affffffffffffffffffffff160217905550608082015181600201601f6101000a81548160ff0219169083600381111561116257611161611bdd565b5b021790555060a0820151816003015f6101000a81548173ffffffffffffffffffffffffffffffffffffffff021916908373ffffffffffffffffffffffffffffffffffffffff16021790555060c08201518160030160146101000a81548160ff02191690831515021790555060e08201518160040190816111e29190612234565b50905050807f8c3409579cc85e268df189819fe63a5895459ed136aeba64043ce7c03a4df18e8b8b8b60405161121a9392919061233d565b60405180910390a28091505098975050505050505050565b61123a611366565b5f73ffffffffffffffffffffffffffffffffffffffff168173ffffffffffffffffffffffffffffffffffffffff16036112aa575f6040517f1e4fbdf70000000000000000000000000000000000000000000000000000000081526004016112a191906119f0565b60405180910390fd5b6112b38161146c565b50565b6112be611366565b5f60025f8381526020019081526020015f205f01540361130a576040517f9a749d8100000000000000000000000000000000000000000000000000000000815260040160405180910390fd5b5f60025f8381526020019081526020015f2060030160146101000a81548160ff021916908315150217905550807f3d354d836c0997e6f0d3503a155eee7afdf69b299353b61007f9d71ccbb48a6a60405160405180910390a250565b61136e6115fe565b73ffffffffffffffffffffffffffffffffffffffff1661138c6107a9565b73ffffffffffffffffffffffffffffffffffffffff16146113eb576113af6115fe565b6040517f118cdaa70000000000000000000000000000000000000000000000000000000081526004016113e291906119f0565b60405180910390fd5b565b611467838473ffffffffffffffffffffffffffffffffffffffff1663a9059cbb85856040516024016114209291906124e7565b604051602081830303815290604052915060e01b6020820180517bffffffffffffffffffffffffffffffffffffffffffffffffffffffff8381831617835250505050611605565b505050565b5f5f5f9054906101000a900473ffffffffffffffffffffffffffffffffffffffff169050815f5f6101000a81548173ffffffffffffffffffffffffffffffffffffffff021916908373ffffffffffffffffffffffffffffffffffffffff1602179055508173ffffffffffffffffffffffffffffffffffffffff168173ffffffffffffffffffffffffffffffffffffffff167f8be0079c531659141344cd1fd0a4f28419497f9722a3daafe3b4186f6b6457e060405160405180910390a35050565b600260015403611569576040517f3ee5aeb500000000000000000000000000000000000000000000000000000000815260040160405180910390fd5b6002600181905550565b6115ef848573ffffffffffffffffffffffffffffffffffffffff166323b872dd8686866040516024016115a8939291906124b2565b604051602081830303815290604052915060e01b6020820180517bffffffffffffffffffffffffffffffffffffffffffffffffffffffff8381831617835250505050611605565b50505050565b60018081905550565b5f33905090565b5f5f60205f8451602086015f885af180611624576040513d5f823e3d81fd5b3d92505f519150505f821461163d576001811415611658565b5f8473ffffffffffffffffffffffffffffffffffffffff163b145b1561169a57836040517f5274afe700000000000000000000000000000000000000000000000000000000815260040161169191906119f0565b60405180910390fd5b50505050565b5f5ffd5b5f5ffd5b5f73ffffffffffffffffffffffffffffffffffffffff82169050919050565b5f6116d1826116a8565b9050919050565b6116e1816116c7565b81146116eb575f5ffd5b50565b5f813590506116fc816116d8565b92915050565b5f819050919050565b61171481611702565b811461171e575f5ffd5b50565b5f8135905061172f8161170b565b92915050565b5f5f6040838503121561174b5761174a6116a0565b5b5f611758858286016116ee565b925050602061176985828601611721565b9150509250929050565b5f61177d826116a8565b9050919050565b61178d81611773565b8114611797575f5ffd5b50565b5f813590506117a881611784565b92915050565b5f5f5f606084860312156117c5576117c46116a0565b5b5f6117d28682870161179a565b93505060206117e38682870161179a565b92505060406117f486828701611721565b9150509250925092565b5f5ffd5b5f5ffd5b5f5ffd5b5f5f83601f84011261181f5761181e6117fe565b5b8235905067ffffffffffffffff81111561183c5761183b611802565b5b60208301915083602082028301111561185857611857611806565b5b9250929050565b5f5f83601f840112611874576118736117fe565b5b8235905067ffffffffffffffff81111561189157611890611802565b5b6020830191508360208202830111156118ad576118ac611806565b5b9250929050565b5f5f83601f8401126118c9576118c86117fe565b5b8235905067ffffffffffffffff8111156118e6576118e5611802565b5b60208301915083602082028301111561190257611901611806565b5b9250929050565b5f5f5f5f5f5f60608789031215611923576119226116a0565b5b5f87013567ffffffffffffffff8111156119405761193f6116a4565b5b61194c89828a0161180a565b9650965050602087013567ffffffffffffffff81111561196f5761196e6116a4565b5b61197b89828a0161185f565b9450945050604087013567ffffffffffffffff81111561199e5761199d6116a4565b5b6119aa89828a016118b4565b92509250509295509295509295565b6119c281611702565b82525050565b5f6020820190506119db5f8301846119b9565b92915050565b6119ea81611773565b82525050565b5f602082019050611a035f8301846119e1565b92915050565b5f5f83601f840112611a1e57611a1d6117fe565b5b8235905067ffffffffffffffff811115611a3b57611a3a611802565b5b602083019150836001820283011115611a5757611a56611806565b5b9250929050565b5f6affffffffffffffffffffff82169050919050565b611a7d81611a5e565b8114611a87575f5ffd5b50565b5f81359050611a9881611a74565b92915050565b5f8115159050919050565b611ab281611a9e565b8114611abc575f5ffd5b50565b5f81359050611acd81611aa9565b92915050565b5f5f5f5f5f5f5f5f5f6101008a8c031215611af157611af06116a0565b5b5f611afe8c828d01611721565b99505060208a013567ffffffffffffffff811115611b1f57611b1e6116a4565b5b611b2b8c828d01611a09565b98509850506040611b3e8c828d0161179a565b9650506060611b4f8c828d01611721565b9550506080611b608c828d01611a8a565b94505060a0611b718c828d0161179a565b93505060c0611b828c828d01611721565b92505060e0611b938c828d01611abf565b9150509295985092959850929598565b5f60208284031215611bb857611bb76116a0565b5b5f611bc584828501611721565b91505092915050565b611bd781611a5e565b82525050565b7f4e487b71000000000000000000000000000000000000000000000000000000005f52602160045260245ffd5b60048110611c1b57611c1a611bdd565b5b50565b5f819050611c2b82611c0a565b919050565b5f611c3a82611c1e565b9050919050565b611c4a81611c30565b82525050565b611c5981611a9e565b82525050565b5f81519050919050565b5f82825260208201905092915050565b8281835e5f83830152505050565b5f601f19601f8301169050919050565b5f611ca182611c5f565b611cab8185611c69565b9350611cbb818560208601611c79565b611cc481611c87565b840191505092915050565b5f61010082019050611ce35f83018b6119b9565b611cf0602083018a6119b9565b611cfd60408301896119e1565b611d0a6060830188611bce565b611d176080830187611c41565b611d2460a08301866119e1565b611d3160c0830185611c50565b81810360e0830152611d438184611c97565b90509998505050505050505050565b5f5f60408385031215611d6857611d676116a0565b5b5f611d7585828601611721565b9250506020611d8685828601611a8a565b9150509250929050565b60048110611d9c575f5ffd5b50565b5f81359050611dad81611d90565b92915050565b5f5f5f5f5f5f5f5f60e0898b031215611dcf57611dce6116a0565b5b5f89013567ffffffffffffffff811115611dec57611deb6116a4565b5b611df88b828c01611a09565b98509850506020611e0b8b828c01611d9f565b9650506040611e1c8b828c0161179a565b9550506060611e2d8b828c01611721565b9450506080611e3e8b828c01611a8a565b93505060a0611e4f8b828c0161179a565b92505060c0611e608b828c01611721565b9150509295985092959890939650565b5f60208284031215611e8557611e846116a0565b5b5f611e928482850161179a565b91505092915050565b5f81905092915050565b50565b5f611eb35f83611e9b565b9150611ebe82611ea5565b5f82019050919050565b5f611ed282611ea8565b9150819050919050565b7f4172726179206c656e677468206d69736d6174636800000000000000000000005f82015250565b5f611f10601583611c69565b9150611f1b82611edc565b602082019050919050565b5f6020820190508181035f830152611f3d81611f04565b9050919050565b7f4e487b71000000000000000000000000000000000000000000000000000000005f52603260045260245ffd5b5f60208284031215611f8657611f856116a0565b5b5f611f9384828501611a8a565b91505092915050565b5f5ffd5b5f5ffd5b5f5ffd5b5f5f83356001602003843603038112611fc457611fc3611f9c565b5b80840192508235915067ffffffffffffffff821115611fe657611fe5611fa0565b5b60208301925060018202360383131561200257612001611fa4565b5b509250929050565b7f4e487b71000000000000000000000000000000000000000000000000000000005f52604160045260245ffd5b7f4e487b71000000000000000000000000000000000000000000000000000000005f52602260045260245ffd5b5f600282049050600182168061207b57607f821691505b60208210810361208e5761208d612037565b5b50919050565b5f819050815f5260205f209050919050565b5f6020601f8301049050919050565b5f82821b905092915050565b5f600883026120f07fffffffffffffffffffffffffffffffffffffffffffffffffffffffffffffffff826120b5565b6120fa86836120b5565b95508019841693508086168417925050509392505050565b5f819050919050565b5f61213561213061212b84611702565b612112565b611702565b9050919050565b5f819050919050565b61214e8361211b565b61216261215a8261213c565b8484546120c1565b825550505050565b5f5f905090565b61217961216a565b612184818484612145565b505050565b5b818110156121a75761219c5f82612171565b60018101905061218a565b5050565b601f8211156121ec576121bd81612094565b6121c6846120a6565b810160208510156121d5578190505b6121e96121e1856120a6565b830182612189565b50505b505050565b5f82821c905092915050565b5f61220c5f19846008026121f1565b1980831691505092915050565b5f61222483836121fd565b9150826002028217905092915050565b61223d82611c5f565b67ffffffffffffffff8111156122565761225561200a565b5b6122608254612064565b61226b8282856121ab565b5f60209050601f83116001811461229c575f841561228a578287015190505b6122948582612219565b8655506122fb565b601f1984166122aa86612094565b5f5b828110156122d1578489015182556001820191506020850194506020810190506122ac565b868310156122ee57848901516122ea601f8916826121fd565b8355505b6001600288020188555050505b505050505050565b828183375f83830152505050565b5f61231c8385611c69565b9350612329838584612303565b61233283611c87565b840190509392505050565b5f6040820190508181035f830152612356818587612311565b90506123656020830184611c41565b949350505050565b5f82905092915050565b612381838361236d565b67ffffffffffffffff81111561239a5761239961200a565b5b6123a48254612064565b6123af8282856121ab565b5f601f8311600181146123dc575f84156123ca578287013590505b6123d48582612219565b86555061243b565b601f1984166123ea86612094565b5f5b82811015612411578489013582556001820191506020850194506020810190506123ec565b8683101561242e578489013561242a601f8916826121fd565b8355505b6001600288020188555050505b50505050505050565b7f4e487b71000000000000000000000000000000000000000000000000000000005f52601160045260245ffd5b5f61247b82611702565b915061248683611702565b925082820261249481611702565b915082820484148315176124ab576124aa612444565b5b5092915050565b5f6060820190506124c55f8301866119e1565b6124d260208301856119e1565b6124df60408301846119b9565b949350505050565b5f6040820190506124fa5f8301856119e1565b61250760208301846119b9565b9392505050565b5f61252861252361251e84611a5e565b612112565b611702565b9050919050565b6125388161250e565b82525050565b5f6060820190506125515f83018661252f565b61255e60208301856119b9565b61256b60408301846119e1565b94935050505056fea26469706673582212201441e68f206e970c5166e4347ac6a74e64e36554cda7680d5052cf9bb0a9880364736f6c634300081f0033",
			"opcodes": "PUSH1 0x80 PUSH1 0x40 MSTORE PUSH1 0x1 PUSH1 0x3 SSTORE CALLVALUE DUP1 ISZERO PUSH2 0x14 JUMPI PUSH0 PUSH0 REVERT JUMPDEST POP PUSH1 0x40 MLOAD PUSH2 0x27EC CODESIZE SUB DUP1 PUSH2 0x27EC DUP4 CODECOPY DUP2 DUP2 ADD PUSH1 0x40 MSTORE DUP2 ADD SWAP1 PUSH2 0x36 SWAP2 SWAP1 PUSH2 0x1E3 JUMP JUMPDEST DUP1 PUSH0 PUSH20 0xFFFFFFFFFFFFFFFFFFFFFFFFFFFFFFFFFFFFFFFF AND DUP2 PUSH20 0xFFFFFFFFFFFFFFFFFFFFFFFFFFFFFFFFFFFFFFFF AND SUB PUSH2 0xA7 JUMPI PUSH0 PUSH1 0x40 MLOAD PUSH32 0x1E4FBDF700000000000000000000000000000000000000000000000000000000 DUP2 MSTORE PUSH1 0x4 ADD PUSH2 0x9E SWAP2 SWAP1 PUSH2 0x21D JUMP JUMPDEST PUSH1 0x40 MLOAD DUP1 SWAP2 SUB SWAP1 REVERT JUMPDEST PUSH2 0xB6 DUP2 PUSH2 0xC4 PUSH1 0x20 SHL PUSH1 0x20 SHR JUMP JUMPDEST POP PUSH1 0x1 DUP1 DUP2 SWAP1 SSTORE POP POP PUSH2 0x236 JUMP JUMPDEST PUSH0 PUSH0 PUSH0 SWAP1 SLOAD SWAP1 PUSH2 0x100 EXP SWAP1 DIV PUSH20 0xFFFFFFFFFFFFFFFFFFFFFFFFFFFFFFFFFFFFFFFF AND SWAP1 POP DUP2 PUSH0 PUSH0 PUSH2 0x100 EXP DUP2 SLOAD DUP2 PUSH20 0xFFFFFFFFFFFFFFFFFFFFFFFFFFFFFFFFFFFFFFFF MUL NOT AND SWAP1 DUP4 PUSH20 0xFFFFFFFFFFFFFFFFFFFFFFFFFFFFFFFFFFFFFFFF AND MUL OR SWAP1 SSTORE POP DUP2 PUSH20 0xFFFFFFFFFFFFFFFFFFFFFFFFFFFFFFFFFFFFFFFF AND DUP2 PUSH20 0xFFFFFFFFFFFFFFFFFFFFFFFFFFFFFFFFFFFFFFFF AND PUSH32 0x8BE0079C531659141344CD1FD0A4F28419497F9722A3DAAFE3B4186F6B6457E0 PUSH1 0x40 MLOAD PUSH1 0x40 MLOAD DUP1 SWAP2 SUB SWAP1 LOG3 POP POP JUMP JUMPDEST PUSH0 PUSH0 REVERT JUMPDEST PUSH0 PUSH20 0xFFFFFFFFFFFFFFFFFFFFFFFFFFFFFFFFFFFFFFFF DUP3 AND SWAP1 POP SWAP2 SWAP1 POP JUMP JUMPDEST PUSH0 PUSH2 0x1B2 DUP3 PUSH2 0x189 JUMP JUMPDEST SWAP1 POP SWAP2 SWAP1 POP JUMP JUMPDEST PUSH2 0x1C2 DUP2 PUSH2 0x1A8 JUMP JUMPDEST DUP2 EQ PUSH2 0x1CC JUMPI PUSH0 PUSH0 REVERT JUMPDEST POP JUMP JUMPDEST PUSH0 DUP2 MLOAD SWAP1 POP PUSH2 0x1DD DUP2 PUSH2 0x1B9 JUMP JUMPDEST SWAP3 SWAP2 POP POP JUMP JUMPDEST PUSH0 PUSH1 0x20 DUP3 DUP5 SUB SLT ISZERO PUSH2 0x1F8 JUMPI PUSH2 0x1F7 PUSH2 0x185 JUMP JUMPDEST JUMPDEST PUSH0 PUSH2 0x205 DUP5 DUP3 DUP6 ADD PUSH2 0x1CF JUMP JUMPDEST SWAP2 POP POP SWAP3 SWAP2 POP POP JUMP JUMPDEST PUSH2 0x217 DUP2 PUSH2 0x1A8 JUMP JUMPDEST DUP3 MSTORE POP POP JUMP JUMPDEST PUSH0 PUSH1 0x20 DUP3 ADD SWAP1 POP PUSH2 0x230 PUSH0 DUP4 ADD DUP5 PUSH2 0x20E JUMP JUMPDEST SWAP3 SWAP2 POP POP JUMP JUMPDEST PUSH2 0x25A9 DUP1 PUSH2 0x243 PUSH0 CODECOPY PUSH0 RETURN INVALID PUSH1 0x80 PUSH1 0x40 MSTORE PUSH1 0x4 CALLDATASIZE LT PUSH2 0xAA JUMPI PUSH0 CALLDATALOAD PUSH1 0xE0 SHR DUP1 PUSH4 0xA18ACFF2 GT PUSH2 0x63 JUMPI DUP1 PUSH4 0xA18ACFF2 EQ PUSH2 0x197 JUMPI DUP1 PUSH4 0xBFB231D2 EQ PUSH2 0x1BF JUMPI DUP1 PUSH4 0xDB98631A EQ PUSH2 0x202 JUMPI DUP1 PUSH4 0xE3591D39 EQ PUSH2 0x21E JUMPI DUP1 PUSH4 0xF2FDE38B EQ PUSH2 0x25A JUMPI DUP1 PUSH4 0xF9E38F9C EQ PUSH2 0x282 JUMPI PUSH2 0xB1 JUMP JUMPDEST DUP1 PUSH4 0x7B18BDE EQ PUSH2 0xB5 JUMPI DUP1 PUSH4 0x44004CC1 EQ PUSH2 0xDD JUMPI DUP1 PUSH4 0x64391EC9 EQ PUSH2 0x105 JUMPI DUP1 PUSH4 0x6A868974 EQ PUSH2 0x12D JUMPI DUP1 PUSH4 0x715018A6 EQ PUSH2 0x157 JUMPI DUP1 PUSH4 0x8DA5CB5B EQ PUSH2 0x16D JUMPI PUSH2 0xB1 JUMP JUMPDEST CALLDATASIZE PUSH2 0xB1 JUMPI STOP JUMPDEST PUSH0 PUSH0 REVERT JUMPDEST CALLVALUE DUP1 ISZERO PUSH2 0xC0 JUMPI PUSH0 PUSH0 REVERT JUMPDEST POP PUSH2 0xDB PUSH1 0x4 DUP1 CALLDATASIZE SUB DUP2 ADD SWAP1 PUSH2 0xD6 SWAP2 SWAP1 PUSH2 0x1735 JUMP JUMPDEST PUSH2 0x2AA JUMP JUMPDEST STOP JUMPDEST CALLVALUE DUP1 ISZERO PUSH2 0xE8 JUMPI PUSH0 PUSH0 REVERT JUMPDEST POP PUSH2 0x103 PUSH1 0x4 DUP1 CALLDATASIZE SUB DUP2 ADD SWAP1 PUSH2 0xFE SWAP2 SWAP1 PUSH2 0x17AE JUMP JUMPDEST PUSH2 0x356 JUMP JUMPDEST STOP JUMPDEST CALLVALUE DUP1 ISZERO PUSH2 0x110 JUMPI PUSH0 PUSH0 REVERT JUMPDEST POP PUSH2 0x12B PUSH1 0x4 DUP1 CALLDATASIZE SUB DUP2 ADD SWAP1 PUSH2 0x126 SWAP2 SWAP1 PUSH2 0x1909 JUMP JUMPDEST PUSH2 0x38E JUMP JUMPDEST STOP JUMPDEST CALLVALUE DUP1 ISZERO PUSH2 0x138 JUMPI PUSH0 PUSH0 REVERT JUMPDEST POP PUSH2 0x141 PUSH2 0x790 JUMP JUMPDEST PUSH1 0x40 MLOAD PUSH2 0x14E SWAP2 SWAP1 PUSH2 0x19C8 JUMP JUMPDEST PUSH1 0x40 MLOAD DUP1 SWAP2 SUB SWAP1 RETURN JUMPDEST CALLVALUE DUP1 ISZERO PUSH2 0x162 JUMPI PUSH0 PUSH0 REVERT JUMPDEST POP PUSH2 0x16B PUSH2 0x796 JUMP JUMPDEST STOP JUMPDEST CALLVALUE DUP1 ISZERO PUSH2 0x178 JUMPI PUSH0 PUSH0 REVERT JUMPDEST POP PUSH2 0x181 PUSH2 0x7A9 JUMP JUMPDEST PUSH1 0x40 MLOAD PUSH2 0x18E SWAP2 SWAP1 PUSH2 0x19F0 JUMP JUMPDEST PUSH1 0x40 MLOAD DUP1 SWAP2 SUB SWAP1 RETURN JUMPDEST CALLVALUE DUP1 ISZERO PUSH2 0x1A2 JUMPI PUSH0 PUSH0 REVERT JUMPDEST POP PUSH2 0x1BD PUSH1 0x4 DUP1 CALLDATASIZE SUB DUP2 ADD SWAP1 PUSH2 0x1B8 SWAP2 SWAP1 PUSH2 0x1AD3 JUMP JUMPDEST PUSH2 0x7D0 JUMP JUMPDEST STOP JUMPDEST CALLVALUE DUP1 ISZERO PUSH2 0x1CA JUMPI PUSH0 PUSH0 REVERT JUMPDEST POP PUSH2 0x1E5 PUSH1 0x4 DUP1 CALLDATASIZE SUB DUP2 ADD SWAP1 PUSH2 0x1E0 SWAP2 SWAP1 PUSH2 0x1BA3 JUMP JUMPDEST PUSH2 0x967 JUMP JUMPDEST PUSH1 0x40 MLOAD PUSH2 0x1F9 SWAP9 SWAP8 SWAP7 SWAP6 SWAP5 SWAP4 SWAP3 SWAP2 SWAP1 PUSH2 0x1CCF JUMP JUMPDEST PUSH1 0x40 MLOAD DUP1 SWAP2 SUB SWAP1 RETURN JUMPDEST PUSH2 0x21C PUSH1 0x4 DUP1 CALLDATASIZE SUB DUP2 ADD SWAP1 PUSH2 0x217 SWAP2 SWAP1 PUSH2 0x1D52 JUMP JUMPDEST PUSH2 0xAA0 JUMP JUMPDEST STOP JUMPDEST CALLVALUE DUP1 ISZERO PUSH2 0x229 JUMPI PUSH0 PUSH0 REVERT JUMPDEST POP PUSH2 0x244 PUSH1 0x4 DUP1 CALLDATASIZE SUB DUP2 ADD SWAP1 PUSH2 0x23F SWAP2 SWAP1 PUSH2 0x1DB3 JUMP JUMPDEST PUSH2 0xF75 JUMP JUMPDEST PUSH1 0x40 MLOAD PUSH2 0x251 SWAP2 SWAP1 PUSH2 0x19C8 JUMP JUMPDEST PUSH1 0x40 MLOAD DUP1 SWAP2 SUB SWAP1 RETURN JUMPDEST CALLVALUE DUP1 ISZERO PUSH2 0x265 JUMPI PUSH0 PUSH0 REVERT JUMPDEST POP PUSH2 0x280 PUSH1 0x4 DUP1 CALLDATASIZE SUB DUP2 ADD SWAP1 PUSH2 0x27B SWAP2 SWAP1 PUSH2 0x1E70 JUMP JUMPDEST PUSH2 0x1232 JUMP JUMPDEST STOP JUMPDEST CALLVALUE DUP1 ISZERO PUSH2 0x28D JUMPI PUSH0 PUSH0 REVERT JUMPDEST POP PUSH2 0x2A8 PUSH1 0x4 DUP1 CALLDATASIZE SUB DUP2 ADD SWAP1 PUSH2 0x2A3 SWAP2 SWAP1 PUSH2 0x1BA3 JUMP JUMPDEST PUSH2 0x12B6 JUMP JUMPDEST STOP JUMPDEST PUSH2 0x2B2 PUSH2 0x1366 JUMP JUMPDEST PUSH0 DUP3 PUSH20 0xFFFFFFFFFFFFFFFFFFFFFFFFFFFFFFFFFFFFFFFF AND DUP3 PUSH1 0x40 MLOAD PUSH2 0x2D7 SWAP1 PUSH2 0x1EC8 JUMP JUMPDEST PUSH0 PUSH1 0x40 MLOAD DUP1 DUP4 SUB DUP2 DUP6 DUP8 GAS CALL SWAP3 POP POP POP RETURNDATASIZE DUP1 PUSH0 DUP2 EQ PUSH2 0x311 JUMPI PUSH1 0x40 MLOAD SWAP2 POP PUSH1 0x1F NOT PUSH1 0x3F RETURNDATASIZE ADD AND DUP3 ADD PUSH1 0x40 MSTORE RETURNDATASIZE DUP3 MSTORE RETURNDATASIZE PUSH0 PUSH1 0x20 DUP5 ADD RETURNDATACOPY PUSH2 0x316 JUMP JUMPDEST PUSH1 0x60 SWAP2 POP JUMPDEST POP POP SWAP1 POP DUP1 PUSH2 0x351 JUMPI PUSH1 0x40 MLOAD PUSH32 0x750B219C00000000000000000000000000000000000000000000000000000000 DUP2 MSTORE PUSH1 0x4 ADD PUSH1 0x40 MLOAD DUP1 SWAP2 SUB SWAP1 REVERT JUMPDEST POP POP POP JUMP JUMPDEST PUSH2 0x35E PUSH2 0x1366 JUMP JUMPDEST PUSH2 0x389 DUP3 DUP3 DUP6 PUSH20 0xFFFFFFFFFFFFFFFFFFFFFFFFFFFFFFFFFFFFFFFF AND PUSH2 0x13ED SWAP1 SWAP3 SWAP2 SWAP1 PUSH4 0xFFFFFFFF AND JUMP JUMPDEST POP POP POP JUMP JUMPDEST PUSH2 0x396 PUSH2 0x1366 JUMP JUMPDEST DUP4 DUP4 SWAP1 POP DUP7 DUP7 SWAP1 POP EQ PUSH2 0x3DE JUMPI PUSH1 0x40 MLOAD PUSH32 0x8C379A000000000000000000000000000000000000000000000000000000000 DUP2 MSTORE PUSH1 0x4 ADD PUSH2 0x3D5 SWAP1 PUSH2 0x1F26 JUMP JUMPDEST PUSH1 0x40 MLOAD DUP1 SWAP2 SUB SWAP1 REVERT JUMPDEST DUP2 DUP2 SWAP1 POP DUP5 DUP5 SWAP1 POP EQ PUSH2 0x426 JUMPI PUSH1 0x40 MLOAD PUSH32 0x8C379A000000000000000000000000000000000000000000000000000000000 DUP2 MSTORE PUSH1 0x4 ADD PUSH2 0x41D SWAP1 PUSH2 0x1F26 JUMP JUMPDEST PUSH1 0x40 MLOAD DUP1 SWAP2 SUB SWAP1 REVERT JUMPDEST PUSH0 PUSH0 SWAP1 POP JUMPDEST DUP7 DUP7 SWAP1 POP DUP2 LT ISZERO PUSH2 0x787 JUMPI PUSH0 DUP6 DUP6 DUP4 DUP2 DUP2 LT PUSH2 0x44A JUMPI PUSH2 0x449 PUSH2 0x1F44 JUMP JUMPDEST JUMPDEST SWAP1 POP PUSH1 0x20 MUL ADD CALLDATALOAD SUB PUSH2 0x488 JUMPI PUSH1 0x40 MLOAD PUSH32 0xE528E11E00000000000000000000000000000000000000000000000000000000 DUP2 MSTORE PUSH1 0x4 ADD PUSH1 0x40 MLOAD DUP1 SWAP2 SUB SWAP1 REVERT JUMPDEST PUSH0 PUSH1 0x3 SLOAD SWAP1 POP PUSH1 0x3 PUSH0 DUP2 SLOAD DUP1 SWAP3 SWAP2 SWAP1 PUSH1 0x1 ADD SWAP2 SWAP1 POP SSTORE POP PUSH1 0x40 MLOAD DUP1 PUSH2 0x100 ADD PUSH1 0x40 MSTORE DUP1 DUP8 DUP8 DUP6 DUP2 DUP2 LT PUSH2 0x4BE JUMPI PUSH2 0x4BD PUSH2 0x1F44 JUMP JUMPDEST JUMPDEST SWAP1 POP PUSH1 0x20 MUL ADD CALLDATALOAD DUP2 MSTORE PUSH1 0x20 ADD PUSH0 DUP2 MSTORE PUSH1 0x20 ADD PUSH0 PUSH20 0xFFFFFFFFFFFFFFFFFFFFFFFFFFFFFFFFFFFFFFFF AND DUP2 MSTORE PUSH1 0x20 ADD DUP6 DUP6 DUP6 DUP2 DUP2 LT PUSH2 0x4FF JUMPI PUSH2 0x4FE PUSH2 0x1F44 JUMP JUMPDEST JUMPDEST SWAP1 POP PUSH1 0x20 MUL ADD PUSH1 0x20 DUP2 ADD SWAP1 PUSH2 0x514 SWAP2 SWAP1 PUSH2 0x1F71 JUMP JUMPDEST PUSH11 0xFFFFFFFFFFFFFFFFFFFFFF AND DUP2 MSTORE PUSH1 0x20 ADD PUSH0 PUSH1 0x3 DUP2 GT ISZERO PUSH2 0x539 JUMPI PUSH2 0x538 PUSH2 0x1BDD JUMP JUMPDEST JUMPDEST DUP2 MSTORE PUSH1 0x20 ADD PUSH0 PUSH20 0xFFFFFFFFFFFFFFFFFFFFFFFFFFFFFFFFFFFFFFFF AND DUP2 MSTORE PUSH1 0x20 ADD PUSH1 0x1 ISZERO ISZERO DUP2 MSTORE PUSH1 0x20 ADD DUP10 DUP10 DUP6 DUP2 DUP2 LT PUSH2 0x576 JUMPI PUSH2 0x575 PUSH2 0x1F44 JUMP JUMPDEST JUMPDEST SWAP1 POP PUSH1 0x20 MUL DUP2 ADD SWAP1 PUSH2 0x588 SWAP2 SWAP1 PUSH2 0x1FA8 JUMP JUMPDEST DUP1 DUP1 PUSH1 0x1F ADD PUSH1 0x20 DUP1 SWAP2 DIV MUL PUSH1 0x20 ADD PUSH1 0x40 MLOAD SWAP1 DUP2 ADD PUSH1 0x40 MSTORE DUP1 SWAP4 SWAP3 SWAP2 SWAP1 DUP2 DUP2 MSTORE PUSH1 0x20 ADD DUP4 DUP4 DUP1 DUP3 DUP5 CALLDATACOPY PUSH0 DUP2 DUP5 ADD MSTORE PUSH1 0x1F NOT PUSH1 0x1F DUP3 ADD AND SWAP1 POP DUP1 DUP4 ADD SWAP3 POP POP POP POP POP POP POP DUP2 MSTORE POP PUSH1 0x2 PUSH0 DUP4 DUP2 MSTORE PUSH1 0x20 ADD SWAP1 DUP2 MSTORE PUSH1 0x20 ADD PUSH0 KECCAK256 PUSH0 DUP3 ADD MLOAD DUP2 PUSH0 ADD SSTORE PUSH1 0x20 DUP3 ADD MLOAD DUP2 PUSH1 0x1 ADD SSTORE PUSH1 0x40 DUP3 ADD MLOAD DUP2 PUSH1 0x2 ADD PUSH0 PUSH2 0x100 EXP DUP2 SLOAD DUP2 PUSH20 0xFFFFFFFFFFFFFFFFFFFFFFFFFFFFFFFFFFFFFFFF MUL NOT AND SWAP1 DUP4 PUSH20 0xFFFFFFFFFFFFFFFFFFFFFFFFFFFFFFFFFFFFFFFF AND MUL OR SWAP1 SSTORE POP PUSH1 0x60 DUP3 ADD MLOAD DUP2 PUSH1 0x2 ADD PUSH1 0x14 PUSH2 0x100 EXP DUP2 SLOAD DUP2 PUSH11 0xFFFFFFFFFFFFFFFFFFFFFF MUL NOT AND SWAP1 DUP4 PUSH11 0xFFFFFFFFFFFFFFFFFFFFFF AND MUL OR SWAP1 SSTORE POP PUSH1 0x80 DUP3 ADD MLOAD DUP2 PUSH1 0x2 ADD PUSH1 0x1F PUSH2 0x100 EXP DUP2 SLOAD DUP2 PUSH1 0xFF MUL NOT AND SWAP1 DUP4 PUSH1 0x3 DUP2 GT ISZERO PUSH2 0x696 JUMPI PUSH2 0x695 PUSH2 0x1BDD JUMP JUMPDEST JUMPDEST MUL OR SWAP1 SSTORE POP PUSH1 0xA0 DUP3 ADD MLOAD DUP2 PUSH1 0x3 ADD PUSH0 PUSH2 0x100 EXP DUP2 SLOAD DUP2 PUSH20 0xFFFFFFFFFFFFFFFFFFFFFFFFFFFFFFFFFFFFFFFF MUL NOT AND SWAP1 DUP4 PUSH20 0xFFFFFFFFFFFFFFFFFFFFFFFFFFFFFFFFFFFFFFFF AND MUL OR SWAP1 SSTORE POP PUSH1 0xC0 DUP3 ADD MLOAD DUP2 PUSH1 0x3 ADD PUSH1 0x14 PUSH2 0x100 EXP DUP2 SLOAD DUP2 PUSH1 0xFF MUL NOT AND SWAP1 DUP4 ISZERO ISZERO MUL OR SWAP1 SSTORE POP PUSH1 0xE0 DUP3 ADD MLOAD DUP2 PUSH1 0x4 ADD SWAP1 DUP2 PUSH2 0x716 SWAP2 SWAP1 PUSH2 0x2234 JUMP JUMPDEST POP SWAP1 POP POP DUP1 PUSH32 0x8C3409579CC85E268DF189819FE63A5895459ED136AEBA64043CE7C03A4DF18E DUP10 DUP10 DUP6 DUP2 DUP2 LT PUSH2 0x74F JUMPI PUSH2 0x74E PUSH2 0x1F44 JUMP JUMPDEST JUMPDEST SWAP1 POP PUSH1 0x20 MUL DUP2 ADD SWAP1 PUSH2 0x761 SWAP2 SWAP1 PUSH2 0x1FA8 JUMP JUMPDEST PUSH0 PUSH1 0x40 MLOAD PUSH2 0x771 SWAP4 SWAP3 SWAP2 SWAP1 PUSH2 0x233D JUMP JUMPDEST PUSH1 0x40 MLOAD DUP1 SWAP2 SUB SWAP1 LOG2 POP DUP1 DUP1 PUSH1 0x1 ADD SWAP2 POP POP PUSH2 0x42B JUMP JUMPDEST POP POP POP POP POP POP POP JUMP JUMPDEST PUSH1 0x3 SLOAD DUP2 JUMP JUMPDEST PUSH2 0x79E PUSH2 0x1366 JUMP JUMPDEST PUSH2 0x7A7 PUSH0 PUSH2 0x146C JUMP JUMPDEST JUMP JUMPDEST PUSH0 PUSH0 PUSH0 SWAP1 SLOAD SWAP1 PUSH2 0x100 EXP SWAP1 DIV PUSH20 0xFFFFFFFFFFFFFFFFFFFFFFFFFFFFFFFFFFFFFFFF AND SWAP1 POP SWAP1 JUMP JUMPDEST PUSH2 0x7D8 PUSH2 0x1366 JUMP JUMPDEST PUSH0 PUSH1 0x2 PUSH0 DUP12 DUP2 MSTORE PUSH1 0x20 ADD SWAP1 DUP2 MSTORE PUSH1 0x20 ADD PUSH0 KECCAK256 PUSH0 ADD SLOAD SUB PUSH2 0x824 JUMPI PUSH1 0x40 MLOAD PUSH32 0x9A749D8100000000000000000000000000000000000000000000000000000000 DUP2 MSTORE PUSH1 0x4 ADD PUSH1 0x40 MLOAD DUP1 SWAP2 SUB SWAP1 REVERT JUMPDEST PUSH0 PUSH1 0x2 PUSH0 DUP12 DUP2 MSTORE PUSH1 0x20 ADD SWAP1 DUP2 MSTORE PUSH1 0x20 ADD PUSH0 KECCAK256 SWAP1 POP DUP9 DUP9 DUP3 PUSH1 0x4 ADD SWAP2 DUP3 PUSH2 0x84B SWAP3 SWAP2 SWAP1 PUSH2 0x2377 JUMP JUMPDEST POP DUP7 DUP2 PUSH1 0x2 ADD PUSH0 PUSH2 0x100 EXP DUP2 SLOAD DUP2 PUSH20 0xFFFFFFFFFFFFFFFFFFFFFFFFFFFFFFFFFFFFFFFF MUL NOT AND SWAP1 DUP4 PUSH20 0xFFFFFFFFFFFFFFFFFFFFFFFFFFFFFFFFFFFFFFFF AND MUL OR SWAP1 SSTORE POP DUP6 DUP2 PUSH0 ADD DUP2 SWAP1 SSTORE POP DUP5 DUP2 PUSH1 0x2 ADD PUSH1 0x14 PUSH2 0x100 EXP DUP2 SLOAD DUP2 PUSH11 0xFFFFFFFFFFFFFFFFFFFFFF MUL NOT AND SWAP1 DUP4 PUSH11 0xFFFFFFFFFFFFFFFFFFFFFF AND MUL OR SWAP1 SSTORE POP DUP4 DUP2 PUSH1 0x3 ADD PUSH0 PUSH2 0x100 EXP DUP2 SLOAD DUP2 PUSH20 0xFFFFFFFFFFFFFFFFFFFFFFFFFFFFFFFFFFFFFFFF MUL NOT AND SWAP1 DUP4 PUSH20 0xFFFFFFFFFFFFFFFFFFFFFFFFFFFFFFFFFFFFFFFF AND MUL OR SWAP1 SSTORE POP DUP3 DUP2 PUSH1 0x1 ADD DUP2 SWAP1 SSTORE POP DUP2 DUP2 PUSH1 0x3 ADD PUSH1 0x14 PUSH2 0x100 EXP DUP2 SLOAD DUP2 PUSH1 0xFF MUL NOT AND SWAP1 DUP4 ISZERO ISZERO MUL OR SWAP1 SSTORE POP DUP10 PUSH32 0x5E58DFA592B09C585A4AB7EF8158D20B1E52E9897F3095DBE1DF700853905C2F PUSH1 0x40 MLOAD PUSH1 0x40 MLOAD DUP1 SWAP2 SUB SWAP1 LOG2 POP POP POP POP POP POP POP POP POP POP JUMP JUMPDEST PUSH1 0x2 PUSH1 0x20 MSTORE DUP1 PUSH0 MSTORE PUSH1 0x40 PUSH0 KECCAK256 PUSH0 SWAP2 POP SWAP1 POP DUP1 PUSH0 ADD SLOAD SWAP1 DUP1 PUSH1 0x1 ADD SLOAD SWAP1 DUP1 PUSH1 0x2 ADD PUSH0 SWAP1 SLOAD SWAP1 PUSH2 0x100 EXP SWAP1 DIV PUSH20 0xFFFFFFFFFFFFFFFFFFFFFFFFFFFFFFFFFFFFFFFF AND SWAP1 DUP1 PUSH1 0x2 ADD PUSH1 0x14 SWAP1 SLOAD SWAP1 PUSH2 0x100 EXP SWAP1 DIV PUSH11 0xFFFFFFFFFFFFFFFFFFFFFF AND SWAP1 DUP1 PUSH1 0x2 ADD PUSH1 0x1F SWAP1 SLOAD SWAP1 PUSH2 0x100 EXP SWAP1 DIV PUSH1 0xFF AND SWAP1 DUP1 PUSH1 0x3 ADD PUSH0 SWAP1 SLOAD SWAP1 PUSH2 0x100 EXP SWAP1 DIV PUSH20 0xFFFFFFFFFFFFFFFFFFFFFFFFFFFFFFFFFFFFFFFF AND SWAP1 DUP1 PUSH1 0x3 ADD PUSH1 0x14 SWAP1 SLOAD SWAP1 PUSH2 0x100 EXP SWAP1 DIV PUSH1 0xFF AND SWAP1 DUP1 PUSH1 0x4 ADD DUP1 SLOAD PUSH2 0xA1F SWAP1 PUSH2 0x2064 JUMP JUMPDEST DUP1 PUSH1 0x1F ADD PUSH1 0x20 DUP1 SWAP2 DIV MUL PUSH1 0x20 ADD PUSH1 0x40 MLOAD SWAP1 DUP2 ADD PUSH1 0x40 MSTORE DUP1 SWAP3 SWAP2 SWAP1 DUP2 DUP2 MSTORE PUSH1 0x20 ADD DUP3 DUP1 SLOAD PUSH2 0xA4B SWAP1 PUSH2 0x2064 JUMP JUMPDEST DUP1 ISZERO PUSH2 0xA96 JUMPI DUP1 PUSH1 0x1F LT PUSH2 0xA6D JUMPI PUSH2 0x100 DUP1 DUP4 SLOAD DIV MUL DUP4 MSTORE SWAP2 PUSH1 0x20 ADD SWAP2 PUSH2 0xA96 JUMP JUMPDEST DUP3 ADD SWAP2 SWAP1 PUSH0 MSTORE PUSH1 0x20 PUSH0 KECCAK256 SWAP1 JUMPDEST DUP2 SLOAD DUP2 MSTORE SWAP1 PUSH1 0x1 ADD SWAP1 PUSH1 0x20 ADD DUP1 DUP4 GT PUSH2 0xA79 JUMPI DUP3 SWAP1 SUB PUSH1 0x1F AND DUP3 ADD SWAP2 JUMPDEST POP POP POP POP POP SWAP1 POP DUP9 JUMP JUMPDEST PUSH2 0xAA8 PUSH2 0x152D JUMP JUMPDEST PUSH1 0x1 DUP2 PUSH11 0xFFFFFFFFFFFFFFFFFFFFFF AND LT ISZERO PUSH2 0xAF0 JUMPI PUSH1 0x40 MLOAD PUSH32 0x524F409B00000000000000000000000000000000000000000000000000000000 DUP2 MSTORE PUSH1 0x4 ADD PUSH1 0x40 MLOAD DUP1 SWAP2 SUB SWAP1 REVERT JUMPDEST PUSH0 PUSH1 0x2 PUSH0 DUP5 DUP2 MSTORE PUSH1 0x20 ADD SWAP1 DUP2 MSTORE PUSH1 0x20 ADD PUSH0 KECCAK256 SWAP1 POP PUSH0 DUP2 PUSH1 0x3 ADD PUSH1 0x14 SWAP1 SLOAD SWAP1 PUSH2 0x100 EXP SWAP1 DIV PUSH1 0xFF AND SWAP1 POP PUSH0 DUP3 PUSH0 ADD SLOAD SWAP1 POP PUSH0 DUP4 PUSH1 0x2 ADD PUSH0 SWAP1 SLOAD SWAP1 PUSH2 0x100 EXP SWAP1 DIV PUSH20 0xFFFFFFFFFFFFFFFFFFFFFFFFFFFFFFFFFFFFFFFF AND SWAP1 POP PUSH0 DUP5 PUSH1 0x2 ADD PUSH1 0x1F SWAP1 SLOAD SWAP1 PUSH2 0x100 EXP SWAP1 DIV PUSH1 0xFF AND SWAP1 POP PUSH0 DUP4 SUB PUSH2 0xB95 JUMPI PUSH1 0x40 MLOAD PUSH32 0x9A749D8100000000000000000000000000000000000000000000000000000000 DUP2 MSTORE PUSH1 0x4 ADD PUSH1 0x40 MLOAD DUP1 SWAP2 SUB SWAP1 REVERT JUMPDEST DUP4 PUSH2 0xBCC JUMPI PUSH1 0x40 MLOAD PUSH32 0x3DE4BDCE00000000000000000000000000000000000000000000000000000000 DUP2 MSTORE PUSH1 0x4 ADD PUSH1 0x40 MLOAD DUP1 SWAP2 SUB SWAP1 REVERT JUMPDEST PUSH0 PUSH1 0x3 DUP2 GT ISZERO PUSH2 0xBDF JUMPI PUSH2 0xBDE PUSH2 0x1BDD JUMP JUMPDEST JUMPDEST DUP2 PUSH1 0x3 DUP2 GT ISZERO PUSH2 0xBF2 JUMPI PUSH2 0xBF1 PUSH2 0x1BDD JUMP JUMPDEST JUMPDEST EQ DUP1 PUSH2 0xC22 JUMPI POP PUSH1 0x1 PUSH1 0x3 DUP2 GT ISZERO PUSH2 0xC0D JUMPI PUSH2 0xC0C PUSH2 0x1BDD JUMP JUMPDEST JUMPDEST DUP2 PUSH1 0x3 DUP2 GT ISZERO PUSH2 0xC20 JUMPI PUSH2 0xC1F PUSH2 0x1BDD JUMP JUMPDEST JUMPDEST EQ JUMPDEST ISZERO PUSH2 0xC8F JUMPI PUSH1 0x1 DUP6 PUSH1 0x2 ADD PUSH1 0x14 SWAP1 SLOAD SWAP1 PUSH2 0x100 EXP SWAP1 DIV PUSH11 0xFFFFFFFFFFFFFFFFFFFFFF AND PUSH11 0xFFFFFFFFFFFFFFFFFFFFFF AND LT ISZERO PUSH2 0xC8A JUMPI PUSH1 0x40 MLOAD PUSH32 0xF00E02100000000000000000000000000000000000000000000000000000000 DUP2 MSTORE PUSH1 0x4 ADD PUSH1 0x40 MLOAD DUP1 SWAP2 SUB SWAP1 REVERT JUMPDEST PUSH2 0xCD7 JUMP JUMPDEST PUSH1 0x1 DUP7 PUSH11 0xFFFFFFFFFFFFFFFFFFFFFF AND EQ PUSH2 0xCD6 JUMPI PUSH1 0x40 MLOAD PUSH32 0xBDD5CAB700000000000000000000000000000000000000000000000000000000 DUP2 MSTORE PUSH1 0x4 ADD PUSH1 0x40 MLOAD DUP1 SWAP2 SUB SWAP1 REVERT JUMPDEST JUMPDEST PUSH0 DUP7 PUSH11 0xFFFFFFFFFFFFFFFFFFFFFF AND DUP5 PUSH2 0xCF1 SWAP2 SWAP1 PUSH2 0x2471 JUMP JUMPDEST SWAP1 POP PUSH0 PUSH20 0xFFFFFFFFFFFFFFFFFFFFFFFFFFFFFFFFFFFFFFFF AND DUP4 PUSH20 0xFFFFFFFFFFFFFFFFFFFFFFFFFFFFFFFFFFFFFFFF AND SUB PUSH2 0xD64 JUMPI DUP1 CALLVALUE EQ PUSH2 0xD5F JUMPI PUSH1 0x40 MLOAD PUSH32 0xE66E49F300000000000000000000000000000000000000000000000000000000 DUP2 MSTORE PUSH1 0x4 ADD PUSH1 0x40 MLOAD DUP1 SWAP2 SUB SWAP1 REVERT JUMPDEST PUSH2 0xD92 JUMP JUMPDEST PUSH2 0xD91 CALLER ADDRESS DUP4 DUP7 PUSH20 0xFFFFFFFFFFFFFFFFFFFFFFFFFFFFFFFFFFFFFFFF AND PUSH2 0x1573 SWAP1 SWAP4 SWAP3 SWAP2 SWAP1 PUSH4 0xFFFFFFFF AND JUMP JUMPDEST JUMPDEST PUSH1 0x2 PUSH1 0x3 DUP2 GT ISZERO PUSH2 0xDA6 JUMPI PUSH2 0xDA5 PUSH2 0x1BDD JUMP JUMPDEST JUMPDEST DUP3 PUSH1 0x3 DUP2 GT ISZERO PUSH2 0xDB9 JUMPI PUSH2 0xDB8 PUSH2 0x1BDD JUMP JUMPDEST JUMPDEST SUB PUSH2 0xE54 JUMPI DUP6 PUSH1 0x3 ADD PUSH0 SWAP1 SLOAD SWAP1 PUSH2 0x100 EXP SWAP1 DIV PUSH20 0xFFFFFFFFFFFFFFFFFFFFFFFFFFFFFFFFFFFFFFFF AND PUSH20 0xFFFFFFFFFFFFFFFFFFFFFFFFFFFFFFFFFFFFFFFF AND PUSH4 0x42842E0E ADDRESS CALLER DUP10 PUSH1 0x1 ADD SLOAD PUSH1 0x40 MLOAD DUP5 PUSH4 0xFFFFFFFF AND PUSH1 0xE0 SHL DUP2 MSTORE PUSH1 0x4 ADD PUSH2 0xE22 SWAP4 SWAP3 SWAP2 SWAP1 PUSH2 0x24B2 JUMP JUMPDEST PUSH0 PUSH1 0x40 MLOAD DUP1 DUP4 SUB DUP2 PUSH0 DUP8 DUP1 EXTCODESIZE ISZERO DUP1 ISZERO PUSH2 0xE39 JUMPI PUSH0 PUSH0 REVERT JUMPDEST POP GAS CALL ISZERO DUP1 ISZERO PUSH2 0xE4B JUMPI RETURNDATASIZE PUSH0 PUSH0 RETURNDATACOPY RETURNDATASIZE PUSH0 REVERT JUMPDEST POP POP POP POP PUSH2 0xF10 JUMP JUMPDEST PUSH1 0x3 DUP1 DUP2 GT ISZERO PUSH2 0xE67 JUMPI PUSH2 0xE66 PUSH2 0x1BDD JUMP JUMPDEST JUMPDEST DUP3 PUSH1 0x3 DUP2 GT ISZERO PUSH2 0xE7A JUMPI PUSH2 0xE79 PUSH2 0x1BDD JUMP JUMPDEST JUMPDEST SUB PUSH2 0xF0F JUMPI DUP6 PUSH1 0x3 ADD PUSH0 SWAP1 SLOAD SWAP1 PUSH2 0x100 EXP SWAP1 DIV PUSH20 0xFFFFFFFFFFFFFFFFFFFFFFFFFFFFFFFFFFFFFFFF AND PUSH20 0xFFFFFFFFFFFFFFFFFFFFFFFFFFFFFFFFFFFFFFFF AND PUSH4 0x449A52F8 CALLER DUP9 PUSH1 0x1 ADD SLOAD PUSH1 0x40 MLOAD DUP4 PUSH4 0xFFFFFFFF AND PUSH1 0xE0 SHL DUP2 MSTORE PUSH1 0x4 ADD PUSH2 0xEE1 SWAP3 SWAP2 SWAP1 PUSH2 0x24E7 JUMP JUMPDEST PUSH0 PUSH1 0x40 MLOAD DUP1 DUP4 SUB DUP2 PUSH0 DUP8 DUP1 EXTCODESIZE ISZERO DUP1 ISZERO PUSH2 0xEF8 JUMPI PUSH0 PUSH0 REVERT JUMPDEST POP GAS CALL ISZERO DUP1 ISZERO PUSH2 0xF0A JUMPI RETURNDATASIZE PUSH0 PUSH0 RETURNDATACOPY RETURNDATASIZE PUSH0 REVERT JUMPDEST POP POP POP POP JUMPDEST JUMPDEST DUP8 CALLER PUSH20 0xFFFFFFFFFFFFFFFFFFFFFFFFFFFFFFFFFFFFFFFF AND PUSH32 0x25EAC5783506476870E6E92210FF98E510DDE71793A190D77D19CA2CEAF6024D DUP10 DUP5 DUP8 PUSH1 0x40 MLOAD PUSH2 0xF5B SWAP4 SWAP3 SWAP2 SWAP1 PUSH2 0x253E JUMP JUMPDEST PUSH1 0x40 MLOAD DUP1 SWAP2 SUB SWAP1 LOG3 POP POP POP POP POP POP PUSH2 0xF71 PUSH2 0x15F5 JUMP JUMPDEST POP POP JUMP JUMPDEST PUSH0 PUSH2 0xF7E PUSH2 0x1366 JUMP JUMPDEST PUSH0 DUP6 SUB PUSH2 0xFB7 JUMPI PUSH1 0x40 MLOAD PUSH32 0xE528E11E00000000000000000000000000000000000000000000000000000000 DUP2 MSTORE PUSH1 0x4 ADD PUSH1 0x40 MLOAD DUP1 SWAP2 SUB SWAP1 REVERT JUMPDEST PUSH0 PUSH1 0x3 SLOAD SWAP1 POP PUSH1 0x3 PUSH0 DUP2 SLOAD DUP1 SWAP3 SWAP2 SWAP1 PUSH1 0x1 ADD SWAP2 SWAP1 POP SSTORE POP PUSH1 0x40 MLOAD DUP1 PUSH2 0x100 ADD PUSH1 0x40 MSTORE DUP1 DUP8 DUP2 MSTORE PUSH1 0x20 ADD DUP5 DUP2 MSTORE PUSH1 0x20 ADD DUP9 PUSH20 0xFFFFFFFFFFFFFFFFFFFFFFFFFFFFFFFFFFFFFFFF AND DUP2 MSTORE PUSH1 0x20 ADD DUP7 PUSH11 0xFFFFFFFFFFFFFFFFFFFFFF AND DUP2 MSTORE PUSH1 0x20 ADD DUP10 PUSH1 0x3 DUP2 GT ISZERO PUSH2 0x1028 JUMPI PUSH2 0x1027 PUSH2 0x1BDD JUMP JUMPDEST JUMPDEST DUP2 MSTORE PUSH1 0x20 ADD DUP6 PUSH20 0xFFFFFFFFFFFFFFFFFFFFFFFFFFFFFFFFFFFFFFFF AND DUP2 MSTORE PUSH1 0x20 ADD PUSH1 0x1 ISZERO ISZERO DUP2 MSTORE PUSH1 0x20 ADD DUP12 DUP12 DUP1 DUP1 PUSH1 0x1F ADD PUSH1 0x20 DUP1 SWAP2 DIV MUL PUSH1 0x20 ADD PUSH1 0x40 MLOAD SWAP1 DUP2 ADD PUSH1 0x40 MSTORE DUP1 SWAP4 SWAP3 SWAP2 SWAP1 DUP2 DUP2 MSTORE PUSH1 0x20 ADD DUP4 DUP4 DUP1 DUP3 DUP5 CALLDATACOPY PUSH0 DUP2 DUP5 ADD MSTORE PUSH1 0x1F NOT PUSH1 0x1F DUP3 ADD AND SWAP1 POP DUP1 DUP4 ADD SWAP3 POP POP POP POP POP POP POP DUP2 MSTORE POP PUSH1 0x2 PUSH0 DUP4 DUP2 MSTORE PUSH1 0x20 ADD SWAP1 DUP2 MSTORE PUSH1 0x20 ADD PUSH0 KECCAK256 PUSH0 DUP3 ADD MLOAD DUP2 PUSH0 ADD SSTORE PUSH1 0x20 DUP3 ADD MLOAD DUP2 PUSH1 0x1 ADD SSTORE PUSH1 0x40 DUP3 ADD MLOAD DUP2 PUSH1 0x2 ADD PUSH0 PUSH2 0x100 EXP DUP2 SLOAD DUP2 PUSH20 0xFFFFFFFFFFFFFFFFFFFFFFFFFFFFFFFFFFFFFFFF MUL NOT AND SWAP1 DUP4 PUSH20 0xFFFFFFFFFFFFFFFFFFFFFFFFFFFFFFFFFFFFFFFF AND MUL OR SWAP1 SSTORE POP PUSH1 0x60 DUP3 ADD MLOAD DUP2 PUSH1 0x2 ADD PUSH1 0x14 PUSH2 0x100 EXP DUP2 SLOAD DUP2 PUSH11 0xFFFFFFFFFFFFFFFFFFFFFF MUL NOT AND SWAP1 DUP4 PUSH11 0xFFFFFFFFFFFFFFFFFFFFFF AND MUL OR SWAP1 SSTORE POP PUSH1 0x80 DUP3 ADD MLOAD DUP2 PUSH1 0x2 ADD PUSH1 0x1F PUSH2 0x100 EXP DUP2 SLOAD DUP2 PUSH1 0xFF MUL NOT AND SWAP1 DUP4 PUSH1 0x3 DUP2 GT ISZERO PUSH2 0x1162 JUMPI PUSH2 0x1161 PUSH2 0x1BDD JUMP JUMPDEST JUMPDEST MUL OR SWAP1 SSTORE POP PUSH1 0xA0 DUP3 ADD MLOAD DUP2 PUSH1 0x3 ADD PUSH0 PUSH2 0x100 EXP DUP2 SLOAD DUP2 PUSH20 0xFFFFFFFFFFFFFFFFFFFFFFFFFFFFFFFFFFFFFFFF MUL NOT AND SWAP1 DUP4 PUSH20 0xFFFFFFFFFFFFFFFFFFFFFFFFFFFFFFFFFFFFFFFF AND MUL OR SWAP1 SSTORE POP PUSH1 0xC0 DUP3 ADD MLOAD DUP2 PUSH1 0x3 ADD PUSH1 0x14 PUSH2 0x100 EXP DUP2 SLOAD DUP2 PUSH1 0xFF MUL NOT AND SWAP1 DUP4 ISZERO ISZERO MUL OR SWAP1 SSTORE POP PUSH1 0xE0 DUP3 ADD MLOAD DUP2 PUSH1 0x4 ADD SWAP1 DUP2 PUSH2 0x11E2 SWAP2 SWAP1 PUSH2 0x2234 JUMP JUMPDEST POP SWAP1 POP POP DUP1 PUSH32 0x8C3409579CC85E268DF189819FE63A5895459ED136AEBA64043CE7C03A4DF18E DUP12 DUP12 DUP12 PUSH1 0x40 MLOAD PUSH2 0x121A SWAP4 SWAP3 SWAP2 SWAP1 PUSH2 0x233D JUMP JUMPDEST PUSH1 0x40 MLOAD DUP1 SWAP2 SUB SWAP1 LOG2 DUP1 SWAP2 POP POP SWAP9 SWAP8 POP POP POP POP POP POP POP POP JUMP JUMPDEST PUSH2 0x123A PUSH2 0x1366 JUMP JUMPDEST PUSH0 PUSH20 0xFFFFFFFFFFFFFFFFFFFFFFFFFFFFFFFFFFFFFFFF AND DUP2 PUSH20 0xFFFFFFFFFFFFFFFFFFFFFFFFFFFFFFFFFFFFFFFF AND SUB PUSH2 0x12AA JUMPI PUSH0 PUSH1 0x40 MLOAD PUSH32 0x1E4FBDF700000000000000000000000000000000000000000000000000000000 DUP2 MSTORE PUSH1 0x4 ADD PUSH2 0x12A1 SWAP2 SWAP1 PUSH2 0x19F0 JUMP JUMPDEST PUSH1 0x40 MLOAD DUP1 SWAP2 SUB SWAP1 REVERT JUMPDEST PUSH2 0x12B3 DUP2 PUSH2 0x146C JUMP JUMPDEST POP JUMP JUMPDEST PUSH2 0x12BE PUSH2 0x1366 JUMP JUMPDEST PUSH0 PUSH1 0x2 PUSH0 DUP4 DUP2 MSTORE PUSH1 0x20 ADD SWAP1 DUP2 MSTORE PUSH1 0x20 ADD PUSH0 KECCAK256 PUSH0 ADD SLOAD SUB PUSH2 0x130A JUMPI PUSH1 0x40 MLOAD PUSH32 0x9A749D8100000000000000000000000000000000000000000000000000000000 DUP2 MSTORE PUSH1 0x4 ADD PUSH1 0x40 MLOAD DUP1 SWAP2 SUB SWAP1 REVERT JUMPDEST PUSH0 PUSH1 0x2 PUSH0 DUP4 DUP2 MSTORE PUSH1 0x20 ADD SWAP1 DUP2 MSTORE PUSH1 0x20 ADD PUSH0 KECCAK256 PUSH1 0x3 ADD PUSH1 0x14 PUSH2 0x100 EXP DUP2 SLOAD DUP2 PUSH1 0xFF MUL NOT AND SWAP1 DUP4 ISZERO ISZERO MUL OR SWAP1 SSTORE POP DUP1 PUSH32 0x3D354D836C0997E6F0D3503A155EEE7AFDF69B299353B61007F9D71CCBB48A6A PUSH1 0x40 MLOAD PUSH1 0x40 MLOAD DUP1 SWAP2 SUB SWAP1 LOG2 POP JUMP JUMPDEST PUSH2 0x136E PUSH2 0x15FE JUMP JUMPDEST PUSH20 0xFFFFFFFFFFFFFFFFFFFFFFFFFFFFFFFFFFFFFFFF AND PUSH2 0x138C PUSH2 0x7A9 JUMP JUMPDEST PUSH20 0xFFFFFFFFFFFFFFFFFFFFFFFFFFFFFFFFFFFFFFFF AND EQ PUSH2 0x13EB JUMPI PUSH2 0x13AF PUSH2 0x15FE JUMP JUMPDEST PUSH1 0x40 MLOAD PUSH32 0x118CDAA700000000000000000000000000000000000000000000000000000000 DUP2 MSTORE PUSH1 0x4 ADD PUSH2 0x13E2 SWAP2 SWAP1 PUSH2 0x19F0 JUMP JUMPDEST PUSH1 0x40 MLOAD DUP1 SWAP2 SUB SWAP1 REVERT JUMPDEST JUMP JUMPDEST PUSH2 0x1467 DUP4 DUP5 PUSH20 0xFFFFFFFFFFFFFFFFFFFFFFFFFFFFFFFFFFFFFFFF AND PUSH4 0xA9059CBB DUP6 DUP6 PUSH1 0x40 MLOAD PUSH1 0x24 ADD PUSH2 0x1420 SWAP3 SWAP2 SWAP1 PUSH2 0x24E7 JUMP JUMPDEST PUSH1 0x40 MLOAD PUSH1 0x20 DUP2 DUP4 SUB SUB DUP2 MSTORE SWAP1 PUSH1 0x40 MSTORE SWAP2 POP PUSH1 0xE0 SHL PUSH1 0x20 DUP3 ADD DUP1 MLOAD PUSH28 0xFFFFFFFFFFFFFFFFFFFFFFFFFFFFFFFFFFFFFFFFFFFFFFFFFFFFFFFF DUP4 DUP2 DUP4 AND OR DUP4 MSTORE POP POP POP POP PUSH2 0x1605 JUMP JUMPDEST POP POP POP JUMP JUMPDEST PUSH0 PUSH0 PUSH0 SWAP1 SLOAD SWAP1 PUSH2 0x100 EXP SWAP1 DIV PUSH20 0xFFFFFFFFFFFFFFFFFFFFFFFFFFFFFFFFFFFFFFFF AND SWAP1 POP DUP2 PUSH0 PUSH0 PUSH2 0x100 EXP DUP2 SLOAD DUP2 PUSH20 0xFFFFFFFFFFFFFFFFFFFFFFFFFFFFFFFFFFFFFFFF MUL NOT AND SWAP1 DUP4 PUSH20 0xFFFFFFFFFFFFFFFFFFFFFFFFFFFFFFFFFFFFFFFF AND MUL OR SWAP1 SSTORE POP DUP2 PUSH20 0xFFFFFFFFFFFFFFFFFFFFFFFFFFFFFFFFFFFFFFFF AND DUP2 PUSH20 0xFFFFFFFFFFFFFFFFFFFFFFFFFFFFFFFFFFFFFFFF AND PUSH32 0x8BE0079C531659141344CD1FD0A4F28419497F9722A3DAAFE3B4186F6B6457E0 PUSH1 0x40 MLOAD PUSH1 0x40 MLOAD DUP1 SWAP2 SUB SWAP1 LOG3 POP POP JUMP JUMPDEST PUSH1 0x2 PUSH1 0x1 SLOAD SUB PUSH2 0x1569 JUMPI PUSH1 0x40 MLOAD PUSH32 0x3EE5AEB500000000000000000000000000000000000000000000000000000000 DUP2 MSTORE PUSH1 0x4 ADD PUSH1 0x40 MLOAD DUP1 SWAP2 SUB SWAP1 REVERT JUMPDEST PUSH1 0x2 PUSH1 0x1 DUP2 SWAP1 SSTORE POP JUMP JUMPDEST PUSH2 0x15EF DUP5 DUP6 PUSH20 0xFFFFFFFFFFFFFFFFFFFFFFFFFFFFFFFFFFFFFFFF AND PUSH4 0x23B872DD DUP7 DUP7 DUP7 PUSH1 0x40 MLOAD PUSH1 0x24 ADD PUSH2 0x15A8 SWAP4 SWAP3 SWAP2 SWAP1 PUSH2 0x24B2 JUMP JUMPDEST PUSH1 0x40 MLOAD PUSH1 0x20 DUP2 DUP4 SUB SUB DUP2 MSTORE SWAP1 PUSH1 0x40 MSTORE SWAP2 POP PUSH1 0xE0 SHL PUSH1 0x20 DUP3 ADD DUP1 MLOAD PUSH28 0xFFFFFFFFFFFFFFFFFFFFFFFFFFFFFFFFFFFFFFFFFFFFFFFFFFFFFFFF DUP4 DUP2 DUP4 AND OR DUP4 MSTORE POP POP POP POP PUSH2 0x1605 JUMP JUMPDEST POP POP POP POP JUMP JUMPDEST PUSH1 0x1 DUP1 DUP2 SWAP1 SSTORE POP JUMP JUMPDEST PUSH0 CALLER SWAP1 POP SWAP1 JUMP JUMPDEST PUSH0 PUSH0 PUSH1 0x20 PUSH0 DUP5 MLOAD PUSH1 0x20 DUP7 ADD PUSH0 DUP9 GAS CALL DUP1 PUSH2 0x1624 JUMPI PUSH1 0x40 MLOAD RETURNDATASIZE PUSH0 DUP3 RETURNDATACOPY RETURNDATASIZE DUP2 REVERT JUMPDEST RETURNDATASIZE SWAP3 POP PUSH0 MLOAD SWAP2 POP POP PUSH0 DUP3 EQ PUSH2 0x163D JUMPI PUSH1 0x1 DUP2 EQ ISZERO PUSH2 0x1658 JUMP JUMPDEST PUSH0 DUP5 PUSH20 0xFFFFFFFFFFFFFFFFFFFFFFFFFFFFFFFFFFFFFFFF AND EXTCODESIZE EQ JUMPDEST ISZERO PUSH2 0x169A JUMPI DUP4 PUSH1 0x40 MLOAD PUSH32 0x5274AFE700000000000000000000000000000000000000000000000000000000 DUP2 MSTORE PUSH1 0x4 ADD PUSH2 0x1691 SWAP2 SWAP1 PUSH2 0x19F0 JUMP JUMPDEST PUSH1 0x40 MLOAD DUP1 SWAP2 SUB SWAP1 REVERT JUMPDEST POP POP POP POP JUMP JUMPDEST PUSH0 PUSH0 REVERT JUMPDEST PUSH0 PUSH0 REVERT JUMPDEST PUSH0 PUSH20 0xFFFFFFFFFFFFFFFFFFFFFFFFFFFFFFFFFFFFFFFF DUP3 AND SWAP1 POP SWAP2 SWAP1 POP JUMP JUMPDEST PUSH0 PUSH2 0x16D1 DUP3 PUSH2 0x16A8 JUMP JUMPDEST SWAP1 POP SWAP2 SWAP1 POP JUMP JUMPDEST PUSH2 0x16E1 DUP2 PUSH2 0x16C7 JUMP JUMPDEST DUP2 EQ PUSH2 0x16EB JUMPI PUSH0 PUSH0 REVERT JUMPDEST POP JUMP JUMPDEST PUSH0 DUP2 CALLDATALOAD SWAP1 POP PUSH2 0x16FC DUP2 PUSH2 0x16D8 JUMP JUMPDEST SWAP3 SWAP2 POP POP JUMP JUMPDEST PUSH0 DUP2 SWAP1 POP SWAP2 SWAP1 POP JUMP JUMPDEST PUSH2 0x1714 DUP2 PUSH2 0x1702 JUMP JUMPDEST DUP2 EQ PUSH2 0x171E JUMPI PUSH0 PUSH0 REVERT JUMPDEST POP JUMP JUMPDEST PUSH0 DUP2 CALLDATALOAD SWAP1 POP PUSH2 0x172F DUP2 PUSH2 0x170B JUMP JUMPDEST SWAP3 SWAP2 POP POP JUMP JUMPDEST PUSH0 PUSH0 PUSH1 0x40 DUP4 DUP6 SUB SLT ISZERO PUSH2 0x174B JUMPI PUSH2 0x174A PUSH2 0x16A0 JUMP JUMPDEST JUMPDEST PUSH0 PUSH2 0x1758 DUP6 DUP3 DUP7 ADD PUSH2 0x16EE JUMP JUMPDEST SWAP3 POP POP PUSH1 0x20 PUSH2 0x1769 DUP6 DUP3 DUP7 ADD PUSH2 0x1721 JUMP JUMPDEST SWAP2 POP POP SWAP3 POP SWAP3 SWAP1 POP JUMP JUMPDEST PUSH0 PUSH2 0x177D DUP3 PUSH2 0x16A8 JUMP JUMPDEST SWAP1 POP SWAP2 SWAP1 POP JUMP JUMPDEST PUSH2 0x178D DUP2 PUSH2 0x1773 JUMP JUMPDEST DUP2 EQ PUSH2 0x1797 JUMPI PUSH0 PUSH0 REVERT JUMPDEST POP JUMP JUMPDEST PUSH0 DUP2 CALLDATALOAD SWAP1 POP PUSH2 0x17A8 DUP2 PUSH2 0x1784 JUMP JUMPDEST SWAP3 SWAP2 POP POP JUMP JUMPDEST PUSH0 PUSH0 PUSH0 PUSH1 0x60 DUP5 DUP7 SUB SLT ISZERO PUSH2 0x17C5 JUMPI PUSH2 0x17C4 PUSH2 0x16A0 JUMP JUMPDEST JUMPDEST PUSH0 PUSH2 0x17D2 DUP7 DUP3 DUP8 ADD PUSH2 0x179A JUMP JUMPDEST SWAP4 POP POP PUSH1 0x20 PUSH2 0x17E3 DUP7 DUP3 DUP8 ADD PUSH2 0x179A JUMP JUMPDEST SWAP3 POP POP PUSH1 0x40 PUSH2 0x17F4 DUP7 DUP3 DUP8 ADD PUSH2 0x1721 JUMP JUMPDEST SWAP2 POP POP SWAP3 POP SWAP3 POP SWAP3 JUMP JUMPDEST PUSH0 PUSH0 REVERT JUMPDEST PUSH0 PUSH0 REVERT JUMPDEST PUSH0 PUSH0 REVERT JUMPDEST PUSH0 PUSH0 DUP4 PUSH1 0x1F DUP5 ADD SLT PUSH2 0x181F JUMPI PUSH2 0x181E PUSH2 0x17FE JUMP JUMPDEST JUMPDEST DUP3 CALLDATALOAD SWAP1 POP PUSH8 0xFFFFFFFFFFFFFFFF DUP2 GT ISZERO PUSH2 0x183C JUMPI PUSH2 0x183B PUSH2 0x1802 JUMP JUMPDEST JUMPDEST PUSH1 0x20 DUP4 ADD SWAP2 POP DUP4 PUSH1 0x20 DUP3 MUL DUP4 ADD GT ISZERO PUSH2 0x1858 JUMPI PUSH2 0x1857 PUSH2 0x1806 JUMP JUMPDEST JUMPDEST SWAP3 POP SWAP3 SWAP1 POP JUMP JUMPDEST PUSH0 PUSH0 DUP4 PUSH1 0x1F DUP5 ADD SLT PUSH2 0x1874 JUMPI PUSH2 0x1873 PUSH2 0x17FE JUMP JUMPDEST JUMPDEST DUP3 CALLDATALOAD SWAP1 POP PUSH8 0xFFFFFFFFFFFFFFFF DUP2 GT ISZERO PUSH2 0x1891 JUMPI PUSH2 0x1890 PUSH2 0x1802 JUMP JUMPDEST JUMPDEST PUSH1 0x20 DUP4 ADD SWAP2 POP DUP4 PUSH1 0x20 DUP3 MUL DUP4 ADD GT ISZERO PUSH2 0x18AD JUMPI PUSH2 0x18AC PUSH2 0x1806 JUMP JUMPDEST JUMPDEST SWAP3 POP SWAP3 SWAP1 POP JUMP JUMPDEST PUSH0 PUSH0 DUP4 PUSH1 0x1F DUP5 ADD SLT PUSH2 0x18C9 JUMPI PUSH2 0x18C8 PUSH2 0x17FE JUMP JUMPDEST JUMPDEST DUP3 CALLDATALOAD SWAP1 POP PUSH8 0xFFFFFFFFFFFFFFFF DUP2 GT ISZERO PUSH2 0x18E6 JUMPI PUSH2 0x18E5 PUSH2 0x1802 JUMP JUMPDEST JUMPDEST PUSH1 0x20 DUP4 ADD SWAP2 POP DUP4 PUSH1 0x20 DUP3 MUL DUP4 ADD GT ISZERO PUSH2 0x1902 JUMPI PUSH2 0x1901 PUSH2 0x1806 JUMP JUMPDEST JUMPDEST SWAP3 POP SWAP3 SWAP1 POP JUMP JUMPDEST PUSH0 PUSH0 PUSH0 PUSH0 PUSH0 PUSH0 PUSH1 0x60 DUP8 DUP10 SUB SLT ISZERO PUSH2 0x1923 JUMPI PUSH2 0x1922 PUSH2 0x16A0 JUMP JUMPDEST JUMPDEST PUSH0 DUP8 ADD CALLDATALOAD PUSH8 0xFFFFFFFFFFFFFFFF DUP2 GT ISZERO PUSH2 0x1940 JUMPI PUSH2 0x193F PUSH2 0x16A4 JUMP JUMPDEST JUMPDEST PUSH2 0x194C DUP10 DUP3 DUP11 ADD PUSH2 0x180A JUMP JUMPDEST SWAP7 POP SWAP7 POP POP PUSH1 0x20 DUP8 ADD CALLDATALOAD PUSH8 0xFFFFFFFFFFFFFFFF DUP2 GT ISZERO PUSH2 0x196F JUMPI PUSH2 0x196E PUSH2 0x16A4 JUMP JUMPDEST JUMPDEST PUSH2 0x197B DUP10 DUP3 DUP11 ADD PUSH2 0x185F JUMP JUMPDEST SWAP5 POP SWAP5 POP POP PUSH1 0x40 DUP8 ADD CALLDATALOAD PUSH8 0xFFFFFFFFFFFFFFFF DUP2 GT ISZERO PUSH2 0x199E JUMPI PUSH2 0x199D PUSH2 0x16A4 JUMP JUMPDEST JUMPDEST PUSH2 0x19AA DUP10 DUP3 DUP11 ADD PUSH2 0x18B4 JUMP JUMPDEST SWAP3 POP SWAP3 POP POP SWAP3 SWAP6 POP SWAP3 SWAP6 POP SWAP3 SWAP6 JUMP JUMPDEST PUSH2 0x19C2 DUP2 PUSH2 0x1702 JUMP JUMPDEST DUP3 MSTORE POP POP JUMP JUMPDEST PUSH0 PUSH1 0x20 DUP3 ADD SWAP1 POP PUSH2 0x19DB PUSH0 DUP4 ADD DUP5 PUSH2 0x19B9 JUMP JUMPDEST SWAP3 SWAP2 POP POP JUMP JUMPDEST PUSH2 0x19EA DUP2 PUSH2 0x1773 JUMP JUMPDEST DUP3 MSTORE POP POP JUMP JUMPDEST PUSH0 PUSH1 0x20 DUP3 ADD SWAP1 POP PUSH2 0x1A03 PUSH0 DUP4 ADD DUP5 PUSH2 0x19E1 JUMP JUMPDEST SWAP3 SWAP2 POP POP JUMP JUMPDEST PUSH0 PUSH0 DUP4 PUSH1 0x1F DUP5 ADD SLT PUSH2 0x1A1E JUMPI PUSH2 0x1A1D PUSH2 0x17FE JUMP JUMPDEST JUMPDEST DUP3 CALLDATALOAD SWAP1 POP PUSH8 0xFFFFFFFFFFFFFFFF DUP2 GT ISZERO PUSH2 0x1A3B JUMPI PUSH2 0x1A3A PUSH2 0x1802 JUMP JUMPDEST JUMPDEST PUSH1 0x20 DUP4 ADD SWAP2 POP DUP4 PUSH1 0x1 DUP3 MUL DUP4 ADD GT ISZERO PUSH2 0x1A57 JUMPI PUSH2 0x1A56 PUSH2 0x1806 JUMP JUMPDEST JUMPDEST SWAP3 POP SWAP3 SWAP1 POP JUMP JUMPDEST PUSH0 PUSH11 0xFFFFFFFFFFFFFFFFFFFFFF DUP3 AND SWAP1 POP SWAP2 SWAP1 POP JUMP JUMPDEST PUSH2 0x1A7D DUP2 PUSH2 0x1A5E JUMP JUMPDEST DUP2 EQ PUSH2 0x1A87 JUMPI PUSH0 PUSH0 REVERT JUMPDEST POP JUMP JUMPDEST PUSH0 DUP2 CALLDATALOAD SWAP1 POP PUSH2 0x1A98 DUP2 PUSH2 0x1A74 JUMP JUMPDEST SWAP3 SWAP2 POP POP JUMP JUMPDEST PUSH0 DUP2 ISZERO ISZERO SWAP1 POP SWAP2 SWAP1 POP JUMP JUMPDEST PUSH2 0x1AB2 DUP2 PUSH2 0x1A9E JUMP JUMPDEST DUP2 EQ PUSH2 0x1ABC JUMPI PUSH0 PUSH0 REVERT JUMPDEST POP JUMP JUMPDEST PUSH0 DUP2 CALLDATALOAD SWAP1 POP PUSH2 0x1ACD DUP2 PUSH2 0x1AA9 JUMP JUMPDEST SWAP3 SWAP2 POP POP JUMP JUMPDEST PUSH0 PUSH0 PUSH0 PUSH0 PUSH0 PUSH0 PUSH0 PUSH0 PUSH0 PUSH2 0x100 DUP11 DUP13 SUB SLT ISZERO PUSH2 0x1AF1 JUMPI PUSH2 0x1AF0 PUSH2 0x16A0 JUMP JUMPDEST JUMPDEST PUSH0 PUSH2 0x1AFE DUP13 DUP3 DUP14 ADD PUSH2 0x1721 JUMP JUMPDEST SWAP10 POP POP PUSH1 0x20 DUP11 ADD CALLDATALOAD PUSH8 0xFFFFFFFFFFFFFFFF DUP2 GT ISZERO PUSH2 0x1B1F JUMPI PUSH2 0x1B1E PUSH2 0x16A4 JUMP JUMPDEST JUMPDEST PUSH2 0x1B2B DUP13 DUP3 DUP14 ADD PUSH2 0x1A09 JUMP JUMPDEST SWAP9 POP SWAP9 POP POP PUSH1 0x40 PUSH2 0x1B3E DUP13 DUP3 DUP14 ADD PUSH2 0x179A JUMP JUMPDEST SWAP7 POP POP PUSH1 0x60 PUSH2 0x1B4F DUP13 DUP3 DUP14 ADD PUSH2 0x1721 JUMP JUMPDEST SWAP6 POP POP PUSH1 0x80 PUSH2 0x1B60 DUP13 DUP3 DUP14 ADD PUSH2 0x1A8A JUMP JUMPDEST SWAP5 POP POP PUSH1 0xA0 PUSH2 0x1B71 DUP13 DUP3 DUP14 ADD PUSH2 0x179A JUMP JUMPDEST SWAP4 POP POP PUSH1 0xC0 PUSH2 0x1B82 DUP13 DUP3 DUP14 ADD PUSH2 0x1721 JUMP JUMPDEST SWAP3 POP POP PUSH1 0xE0 PUSH2 0x1B93 DUP13 DUP3 DUP14 ADD PUSH2 0x1ABF JUMP JUMPDEST SWAP2 POP POP SWAP3 SWAP6 SWAP9 POP SWAP3 SWAP6 SWAP9 POP SWAP3 SWAP6 SWAP9 JUMP JUMPDEST PUSH0 PUSH1 0x20 DUP3 DUP5 SUB SLT ISZERO PUSH2 0x1BB8 JUMPI PUSH2 0x1BB7 PUSH2 0x16A0 JUMP JUMPDEST JUMPDEST PUSH0 PUSH2 0x1BC5 DUP5 DUP3 DUP6 ADD PUSH2 0x1721 JUMP JUMPDEST SWAP2 POP POP SWAP3 SWAP2 POP POP JUMP JUMPDEST PUSH2 0x1BD7 DUP2 PUSH2 0x1A5E JUMP JUMPDEST DUP3 MSTORE POP POP JUMP JUMPDEST PUSH32 0x4E487B7100000000000000000000000000000000000000000000000000000000 PUSH0 MSTORE PUSH1 0x21 PUSH1 0x4 MSTORE PUSH1 0x24 PUSH0 REVERT JUMPDEST PUSH1 0x4 DUP2 LT PUSH2 0x1C1B JUMPI PUSH2 0x1C1A PUSH2 0x1BDD JUMP JUMPDEST JUMPDEST POP JUMP JUMPDEST PUSH0 DUP2 SWAP1 POP PUSH2 0x1C2B DUP3 PUSH2 0x1C0A JUMP JUMPDEST SWAP2 SWAP1 POP JUMP JUMPDEST PUSH0 PUSH2 0x1C3A DUP3 PUSH2 0x1C1E JUMP JUMPDEST SWAP1 POP SWAP2 SWAP1 POP JUMP JUMPDEST PUSH2 0x1C4A DUP2 PUSH2 0x1C30 JUMP JUMPDEST DUP3 MSTORE POP POP JUMP JUMPDEST PUSH2 0x1C59 DUP2 PUSH2 0x1A9E JUMP JUMPDEST DUP3 MSTORE POP POP JUMP JUMPDEST PUSH0 DUP2 MLOAD SWAP1 POP SWAP2 SWAP1 POP JUMP JUMPDEST PUSH0 DUP3 DUP3 MSTORE PUSH1 0x20 DUP3 ADD SWAP1 POP SWAP3 SWAP2 POP POP JUMP JUMPDEST DUP3 DUP2 DUP4 MCOPY PUSH0 DUP4 DUP4 ADD MSTORE POP POP POP JUMP JUMPDEST PUSH0 PUSH1 0x1F NOT PUSH1 0x1F DUP4 ADD AND SWAP1 POP SWAP2 SWAP1 POP JUMP JUMPDEST PUSH0 PUSH2 0x1CA1 DUP3 PUSH2 0x1C5F JUMP JUMPDEST PUSH2 0x1CAB DUP2 DUP6 PUSH2 0x1C69 JUMP JUMPDEST SWAP4 POP PUSH2 0x1CBB DUP2 DUP6 PUSH1 0x20 DUP7 ADD PUSH2 0x1C79 JUMP JUMPDEST PUSH2 0x1CC4 DUP2 PUSH2 0x1C87 JUMP JUMPDEST DUP5 ADD SWAP2 POP POP SWAP3 SWAP2 POP POP JUMP JUMPDEST PUSH0 PUSH2 0x100 DUP3 ADD SWAP1 POP PUSH2 0x1CE3 PUSH0 DUP4 ADD DUP12 PUSH2 0x19B9 JUMP JUMPDEST PUSH2 0x1CF0 PUSH1 0x20 DUP4 ADD DUP11 PUSH2 0x19B9 JUMP JUMPDEST PUSH2 0x1CFD PUSH1 0x40 DUP4 ADD DUP10 PUSH2 0x19E1 JUMP JUMPDEST PUSH2 0x1D0A PUSH1 0x60 DUP4 ADD DUP9 PUSH2 0x1BCE JUMP JUMPDEST PUSH2 0x1D17 PUSH1 0x80 DUP4 ADD DUP8 PUSH2 0x1C41 JUMP JUMPDEST PUSH2 0x1D24 PUSH1 0xA0 DUP4 ADD DUP7 PUSH2 0x19E1 JUMP JUMPDEST PUSH2 0x1D31 PUSH1 0xC0 DUP4 ADD DUP6 PUSH2 0x1C50 JUMP JUMPDEST DUP2 DUP2 SUB PUSH1 0xE0 DUP4 ADD MSTORE PUSH2 0x1D43 DUP2 DUP5 PUSH2 0x1C97 JUMP JUMPDEST SWAP1 POP SWAP10 SWAP9 POP POP POP POP POP POP POP POP POP JUMP JUMPDEST PUSH0 PUSH0 PUSH1 0x40 DUP4 DUP6 SUB SLT ISZERO PUSH2 0x1D68 JUMPI PUSH2 0x1D67 PUSH2 0x16A0 JUMP JUMPDEST JUMPDEST PUSH0 PUSH2 0x1D75 DUP6 DUP3 DUP7 ADD PUSH2 0x1721 JUMP JUMPDEST SWAP3 POP POP PUSH1 0x20 PUSH2 0x1D86 DUP6 DUP3 DUP7 ADD PUSH2 0x1A8A JUMP JUMPDEST SWAP2 POP POP SWAP3 POP SWAP3 SWAP1 POP JUMP JUMPDEST PUSH1 0x4 DUP2 LT PUSH2 0x1D9C JUMPI PUSH0 PUSH0 REVERT JUMPDEST POP JUMP JUMPDEST PUSH0 DUP2 CALLDATALOAD SWAP1 POP PUSH2 0x1DAD DUP2 PUSH2 0x1D90 JUMP JUMPDEST SWAP3 SWAP2 POP POP JUMP JUMPDEST PUSH0 PUSH0 PUSH0 PUSH0 PUSH0 PUSH0 PUSH0 PUSH0 PUSH1 0xE0 DUP10 DUP12 SUB SLT ISZERO PUSH2 0x1DCF JUMPI PUSH2 0x1DCE PUSH2 0x16A0 JUMP JUMPDEST JUMPDEST PUSH0 DUP10 ADD CALLDATALOAD PUSH8 0xFFFFFFFFFFFFFFFF DUP2 GT ISZERO PUSH2 0x1DEC JUMPI PUSH2 0x1DEB PUSH2 0x16A4 JUMP JUMPDEST JUMPDEST PUSH2 0x1DF8 DUP12 DUP3 DUP13 ADD PUSH2 0x1A09 JUMP JUMPDEST SWAP9 POP SWAP9 POP POP PUSH1 0x20 PUSH2 0x1E0B DUP12 DUP3 DUP13 ADD PUSH2 0x1D9F JUMP JUMPDEST SWAP7 POP POP PUSH1 0x40 PUSH2 0x1E1C DUP12 DUP3 DUP13 ADD PUSH2 0x179A JUMP JUMPDEST SWAP6 POP POP PUSH1 0x60 PUSH2 0x1E2D DUP12 DUP3 DUP13 ADD PUSH2 0x1721 JUMP JUMPDEST SWAP5 POP POP PUSH1 0x80 PUSH2 0x1E3E DUP12 DUP3 DUP13 ADD PUSH2 0x1A8A JUMP JUMPDEST SWAP4 POP POP PUSH1 0xA0 PUSH2 0x1E4F DUP12 DUP3 DUP13 ADD PUSH2 0x179A JUMP JUMPDEST SWAP3 POP POP PUSH1 0xC0 PUSH2 0x1E60 DUP12 DUP3 DUP13 ADD PUSH2 0x1721 JUMP JUMPDEST SWAP2 POP POP SWAP3 SWAP6 SWAP9 POP SWAP3 SWAP6 SWAP9 SWAP1 SWAP4 SWAP7 POP JUMP JUMPDEST PUSH0 PUSH1 0x20 DUP3 DUP5 SUB SLT ISZERO PUSH2 0x1E85 JUMPI PUSH2 0x1E84 PUSH2 0x16A0 JUMP JUMPDEST JUMPDEST PUSH0 PUSH2 0x1E92 DUP5 DUP3 DUP6 ADD PUSH2 0x179A JUMP JUMPDEST SWAP2 POP POP SWAP3 SWAP2 POP POP JUMP JUMPDEST PUSH0 DUP2 SWAP1 POP SWAP3 SWAP2 POP POP JUMP JUMPDEST POP JUMP JUMPDEST PUSH0 PUSH2 0x1EB3 PUSH0 DUP4 PUSH2 0x1E9B JUMP JUMPDEST SWAP2 POP PUSH2 0x1EBE DUP3 PUSH2 0x1EA5 JUMP JUMPDEST PUSH0 DUP3 ADD SWAP1 POP SWAP2 SWAP1 POP JUMP JUMPDEST PUSH0 PUSH2 0x1ED2 DUP3 PUSH2 0x1EA8 JUMP JUMPDEST SWAP2 POP DUP2 SWAP1 POP SWAP2 SWAP1 POP JUMP JUMPDEST PUSH32 0x4172726179206C656E677468206D69736D617463680000000000000000000000 PUSH0 DUP3 ADD MSTORE POP JUMP JUMPDEST PUSH0 PUSH2 0x1F10 PUSH1 0x15 DUP4 PUSH2 0x1C69 JUMP JUMPDEST SWAP2 POP PUSH2 0x1F1B DUP3 PUSH2 0x1EDC JUMP JUMPDEST PUSH1 0x20 DUP3 ADD SWAP1 POP SWAP2 SWAP1 POP JUMP JUMPDEST PUSH0 PUSH1 0x20 DUP3 ADD SWAP1 POP DUP2 DUP2 SUB PUSH0 DUP4 ADD MSTORE PUSH2 0x1F3D DUP2 PUSH2 0x1F04 JUMP JUMPDEST SWAP1 POP SWAP2 SWAP1 POP JUMP JUMPDEST PUSH32 0x4E487B7100000000000000000000000000000000000000000000000000000000 PUSH0 MSTORE PUSH1 0x32 PUSH1 0x4 MSTORE PUSH1 0x24 PUSH0 REVERT JUMPDEST PUSH0 PUSH1 0x20 DUP3 DUP5 SUB SLT ISZERO PUSH2 0x1F86 JUMPI PUSH2 0x1F85 PUSH2 0x16A0 JUMP JUMPDEST JUMPDEST PUSH0 PUSH2 0x1F93 DUP5 DUP3 DUP6 ADD PUSH2 0x1A8A JUMP JUMPDEST SWAP2 POP POP SWAP3 SWAP2 POP POP JUMP JUMPDEST PUSH0 PUSH0 REVERT JUMPDEST PUSH0 PUSH0 REVERT JUMPDEST PUSH0 PUSH0 REVERT JUMPDEST PUSH0 PUSH0 DUP4 CALLDATALOAD PUSH1 0x1 PUSH1 0x20 SUB DUP5 CALLDATASIZE SUB SUB DUP2 SLT PUSH2 0x1FC4 JUMPI PUSH2 0x1FC3 PUSH2 0x1F9C JUMP JUMPDEST JUMPDEST DUP1 DUP5 ADD SWAP3 POP DUP3 CALLDATALOAD SWAP2 POP PUSH8 0xFFFFFFFFFFFFFFFF DUP3 GT ISZERO PUSH2 0x1FE6 JUMPI PUSH2 0x1FE5 PUSH2 0x1FA0 JUMP JUMPDEST JUMPDEST PUSH1 0x20 DUP4 ADD SWAP3 POP PUSH1 0x1 DUP3 MUL CALLDATASIZE SUB DUP4 SGT ISZERO PUSH2 0x2002 JUMPI PUSH2 0x2001 PUSH2 0x1FA4 JUMP JUMPDEST JUMPDEST POP SWAP3 POP SWAP3 SWAP1 POP JUMP JUMPDEST PUSH32 0x4E487B7100000000000000000000000000000000000000000000000000000000 PUSH0 MSTORE PUSH1 0x41 PUSH1 0x4 MSTORE PUSH1 0x24 PUSH0 REVERT JUMPDEST PUSH32 0x4E487B7100000000000000000000000000000000000000000000000000000000 PUSH0 MSTORE PUSH1 0x22 PUSH1 0x4 MSTORE PUSH1 0x24 PUSH0 REVERT JUMPDEST PUSH0 PUSH1 0x2 DUP3 DIV SWAP1 POP PUSH1 0x1 DUP3 AND DUP1 PUSH2 0x207B JUMPI PUSH1 0x7F DUP3 AND SWAP2 POP JUMPDEST PUSH1 0x20 DUP3 LT DUP2 SUB PUSH2 0x208E JUMPI PUSH2 0x208D PUSH2 0x2037 JUMP JUMPDEST JUMPDEST POP SWAP2 SWAP1 POP JUMP JUMPDEST PUSH0 DUP2 SWAP1 POP DUP2 PUSH0 MSTORE PUSH1 0x20 PUSH0 KECCAK256 SWAP1 POP SWAP2 SWAP1 POP JUMP JUMPDEST PUSH0 PUSH1 0x20 PUSH1 0x1F DUP4 ADD DIV SWAP1 POP SWAP2 SWAP1 POP JUMP JUMPDEST PUSH0 DUP3 DUP3 SHL SWAP1 POP SWAP3 SWAP2 POP POP JUMP JUMPDEST PUSH0 PUSH1 0x8 DUP4 MUL PUSH2 0x20F0 PUSH32 0xFFFFFFFFFFFFFFFFFFFFFFFFFFFFFFFFFFFFFFFFFFFFFFFFFFFFFFFFFFFFFFFF DUP3 PUSH2 0x20B5 JUMP JUMPDEST PUSH2 0x20FA DUP7 DUP4 PUSH2 0x20B5 JUMP JUMPDEST SWAP6 POP DUP1 NOT DUP5 AND SWAP4 POP DUP1 DUP7 AND DUP5 OR SWAP3 POP POP POP SWAP4 SWAP3 POP POP POP JUMP JUMPDEST PUSH0 DUP2 SWAP1 POP SWAP2 SWAP1 POP JUMP JUMPDEST PUSH0 PUSH2 0x2135 PUSH2 0x2130 PUSH2 0x212B DUP5 PUSH2 0x1702 JUMP JUMPDEST PUSH2 0x2112 JUMP JUMPDEST PUSH2 0x1702 JUMP JUMPDEST SWAP1 POP SWAP2 SWAP1 POP JUMP JUMPDEST PUSH0 DUP2 SWAP1 POP SWAP2 SWAP1 POP JUMP JUMPDEST PUSH2 0x214E DUP4 PUSH2 0x211B JUMP JUMPDEST PUSH2 0x2162 PUSH2 0x215A DUP3 PUSH2 0x213C JUMP JUMPDEST DUP5 DUP5 SLOAD PUSH2 0x20C1 JUMP JUMPDEST DUP3 SSTORE POP POP POP POP JUMP JUMPDEST PUSH0 PUSH0 SWAP1 POP SWAP1 JUMP JUMPDEST PUSH2 0x2179 PUSH2 0x216A JUMP JUMPDEST PUSH2 0x2184 DUP2 DUP5 DUP5 PUSH2 0x2145 JUMP JUMPDEST POP POP POP JUMP JUMPDEST JUMPDEST DUP2 DUP2 LT ISZERO PUSH2 0x21A7 JUMPI PUSH2 0x219C PUSH0 DUP3 PUSH2 0x2171 JUMP JUMPDEST PUSH1 0x1 DUP2 ADD SWAP1 POP PUSH2 0x218A JUMP JUMPDEST POP POP JUMP JUMPDEST PUSH1 0x1F DUP3 GT ISZERO PUSH2 0x21EC JUMPI PUSH2 0x21BD DUP2 PUSH2 0x2094 JUMP JUMPDEST PUSH2 0x21C6 DUP5 PUSH2 0x20A6 JUMP JUMPDEST DUP2 ADD PUSH1 0x20 DUP6 LT ISZERO PUSH2 0x21D5 JUMPI DUP2 SWAP1 POP JUMPDEST PUSH2 0x21E9 PUSH2 0x21E1 DUP6 PUSH2 0x20A6 JUMP JUMPDEST DUP4 ADD DUP3 PUSH2 0x2189 JUMP JUMPDEST POP POP JUMPDEST POP POP POP JUMP JUMPDEST PUSH0 DUP3 DUP3 SHR SWAP1 POP SWAP3 SWAP2 POP POP JUMP JUMPDEST PUSH0 PUSH2 0x220C PUSH0 NOT DUP5 PUSH1 0x8 MUL PUSH2 0x21F1 JUMP JUMPDEST NOT DUP1 DUP4 AND SWAP2 POP POP SWAP3 SWAP2 POP POP JUMP JUMPDEST PUSH0 PUSH2 0x2224 DUP4 DUP4 PUSH2 0x21FD JUMP JUMPDEST SWAP2 POP DUP3 PUSH1 0x2 MUL DUP3 OR SWAP1 POP SWAP3 SWAP2 POP POP JUMP JUMPDEST PUSH2 0x223D DUP3 PUSH2 0x1C5F JUMP JUMPDEST PUSH8 0xFFFFFFFFFFFFFFFF DUP2 GT ISZERO PUSH2 0x2256 JUMPI PUSH2 0x2255 PUSH2 0x200A JUMP JUMPDEST JUMPDEST PUSH2 0x2260 DUP3 SLOAD PUSH2 0x2064 JUMP JUMPDEST PUSH2 0x226B DUP3 DUP3 DUP6 PUSH2 0x21AB JUMP JUMPDEST PUSH0 PUSH1 0x20 SWAP1 POP PUSH1 0x1F DUP4 GT PUSH1 0x1 DUP2 EQ PUSH2 0x229C JUMPI PUSH0 DUP5 ISZERO PUSH2 0x228A JUMPI DUP3 DUP8 ADD MLOAD SWAP1 POP JUMPDEST PUSH2 0x2294 DUP6 DUP3 PUSH2 0x2219 JUMP JUMPDEST DUP7 SSTORE POP PUSH2 0x22FB JUMP JUMPDEST PUSH1 0x1F NOT DUP5 AND PUSH2 0x22AA DUP7 PUSH2 0x2094 JUMP JUMPDEST PUSH0 JUMPDEST DUP3 DUP2 LT ISZERO PUSH2 0x22D1 JUMPI DUP5 DUP10 ADD MLOAD DUP3 SSTORE PUSH1 0x1 DUP3 ADD SWAP2 POP PUSH1 0x20 DUP6 ADD SWAP5 POP PUSH1 0x20 DUP2 ADD SWAP1 POP PUSH2 0x22AC JUMP JUMPDEST DUP7 DUP4 LT ISZERO PUSH2 0x22EE JUMPI DUP5 DUP10 ADD MLOAD PUSH2 0x22EA PUSH1 0x1F DUP10 AND DUP3 PUSH2 0x21FD JUMP JUMPDEST DUP4 SSTORE POP JUMPDEST PUSH1 0x1 PUSH1 0x2 DUP9 MUL ADD DUP9 SSTORE POP POP POP JUMPDEST POP POP POP POP POP POP JUMP JUMPDEST DUP3 DUP2 DUP4 CALLDATACOPY PUSH0 DUP4 DUP4 ADD MSTORE POP POP POP JUMP JUMPDEST PUSH0 PUSH2 0x231C DUP4 DUP6 PUSH2 0x1C69 JUMP JUMPDEST SWAP4 POP PUSH2 0x2329 DUP4 DUP6 DUP5 PUSH2 0x2303 JUMP JUMPDEST PUSH2 0x2332 DUP4 PUSH2 0x1C87 JUMP JUMPDEST DUP5 ADD SWAP1 POP SWAP4 SWAP3 POP POP POP JUMP JUMPDEST PUSH0 PUSH1 0x40 DUP3 ADD SWAP1 POP DUP2 DUP2 SUB PUSH0 DUP4 ADD MSTORE PUSH2 0x2356 DUP2 DUP6 DUP8 PUSH2 0x2311 JUMP JUMPDEST SWAP1 POP PUSH2 0x2365 PUSH1 0x20 DUP4 ADD DUP5 PUSH2 0x1C41 JUMP JUMPDEST SWAP5 SWAP4 POP POP POP POP JUMP JUMPDEST PUSH0 DUP3 SWAP1 POP SWAP3 SWAP2 POP POP JUMP JUMPDEST PUSH2 0x2381 DUP4 DUP4 PUSH2 0x236D JUMP JUMPDEST PUSH8 0xFFFFFFFFFFFFFFFF DUP2 GT ISZERO PUSH2 0x239A JUMPI PUSH2 0x2399 PUSH2 0x200A JUMP JUMPDEST JUMPDEST PUSH2 0x23A4 DUP3 SLOAD PUSH2 0x2064 JUMP JUMPDEST PUSH2 0x23AF DUP3 DUP3 DUP6 PUSH2 0x21AB JUMP JUMPDEST PUSH0 PUSH1 0x1F DUP4 GT PUSH1 0x1 DUP2 EQ PUSH2 0x23DC JUMPI PUSH0 DUP5 ISZERO PUSH2 0x23CA JUMPI DUP3 DUP8 ADD CALLDATALOAD SWAP1 POP JUMPDEST PUSH2 0x23D4 DUP6 DUP3 PUSH2 0x2219 JUMP JUMPDEST DUP7 SSTORE POP PUSH2 0x243B JUMP JUMPDEST PUSH1 0x1F NOT DUP5 AND PUSH2 0x23EA DUP7 PUSH2 0x2094 JUMP JUMPDEST PUSH0 JUMPDEST DUP3 DUP2 LT ISZERO PUSH2 0x2411 JUMPI DUP5 DUP10 ADD CALLDATALOAD DUP3 SSTORE PUSH1 0x1 DUP3 ADD SWAP2 POP PUSH1 0x20 DUP6 ADD SWAP5 POP PUSH1 0x20 DUP2 ADD SWAP1 POP PUSH2 0x23EC JUMP JUMPDEST DUP7 DUP4 LT ISZERO PUSH2 0x242E JUMPI DUP5 DUP10 ADD CALLDATALOAD PUSH2 0x242A PUSH1 0x1F DUP10 AND DUP3 PUSH2 0x21FD JUMP JUMPDEST DUP4 SSTORE POP JUMPDEST PUSH1 0x1 PUSH1 0x2 DUP9 MUL ADD DUP9 SSTORE POP POP POP JUMPDEST POP POP POP POP POP POP POP JUMP JUMPDEST PUSH32 0x4E487B7100000000000000000000000000000000000000000000000000000000 PUSH0 MSTORE PUSH1 0x11 PUSH1 0x4 MSTORE PUSH1 0x24 PUSH0 REVERT JUMPDEST PUSH0 PUSH2 0x247B DUP3 PUSH2 0x1702 JUMP JUMPDEST SWAP2 POP PUSH2 0x2486 DUP4 PUSH2 0x1702 JUMP JUMPDEST SWAP3 POP DUP3 DUP3 MUL PUSH2 0x2494 DUP2 PUSH2 0x1702 JUMP JUMPDEST SWAP2 POP DUP3 DUP3 DIV DUP5 EQ DUP4 ISZERO OR PUSH2 0x24AB JUMPI PUSH2 0x24AA PUSH2 0x2444 JUMP JUMPDEST JUMPDEST POP SWAP3 SWAP2 POP POP JUMP JUMPDEST PUSH0 PUSH1 0x60 DUP3 ADD SWAP1 POP PUSH2 0x24C5 PUSH0 DUP4 ADD DUP7 PUSH2 0x19E1 JUMP JUMPDEST PUSH2 0x24D2 PUSH1 0x20 DUP4 ADD DUP6 PUSH2 0x19E1 JUMP JUMPDEST PUSH2 0x24DF PUSH1 0x40 DUP4 ADD DUP5 PUSH2 0x19B9 JUMP JUMPDEST SWAP5 SWAP4 POP POP POP POP JUMP JUMPDEST PUSH0 PUSH1 0x40 DUP3 ADD SWAP1 POP PUSH2 0x24FA PUSH0 DUP4 ADD DUP6 PUSH2 0x19E1 JUMP JUMPDEST PUSH2 0x2507 PUSH1 0x20 DUP4 ADD DUP5 PUSH2 0x19B9 JUMP JUMPDEST SWAP4 SWAP3 POP POP POP JUMP JUMPDEST PUSH0 PUSH2 0x2528 PUSH2 0x2523 PUSH2 0x251E DUP5 PUSH2 0x1A5E JUMP JUMPDEST PUSH2 0x2112 JUMP JUMPDEST PUSH2 0x1702 JUMP JUMPDEST SWAP1 POP SWAP2 SWAP1 POP JUMP JUMPDEST PUSH2 0x2538 DUP2 PUSH2 0x250E JUMP JUMPDEST DUP3 MSTORE POP POP JUMP JUMPDEST PUSH0 PUSH1 0x60 DUP3 ADD SWAP1 POP PUSH2 0x2551 PUSH0 DUP4 ADD DUP7 PUSH2 0x252F JUMP JUMPDEST PUSH2 0x255E PUSH1 0x20 DUP4 ADD DUP6 PUSH2 0x19B9 JUMP JUMPDEST PUSH2 0x256B PUSH1 0x40 DUP4 ADD DUP5 PUSH2 0x19E1 JUMP JUMPDEST SWAP5 SWAP4 POP POP POP POP JUMP INVALID LOG2 PUSH5 0x6970667358 0x22 SLT KECCAK256 EQ COINBASE DUPN 0x8F KECCAK256 PUSH15 0x970C5166E4347AC6A74E64E36554CD 0xA7 PUSH9 0xD5052CF9BB0A98803 PUSH5 0x736F6C6343 STOP ADDMOD 0x1F STOP CALLER "
		},
		"gasEstimates": {
			"creation": {
				"codeDepositCost": "1928200",
				"executionCost": "infinite",
				"totalCost": "infinite"
			},
			"external": {
				"addBatchItems(string[],uint256[],uint88[])": "infinite",
				"addItem(string,uint8,address,uint256,uint88,address,uint256)": "infinite",
				"buy(uint256,uint88)": "infinite",
				"deactivateItem(uint256)": "infinite",
				"items(uint256)": "infinite",
				"nextItemId()": "2492",
				"owner()": "2625",
				"renounceOwnership()": "infinite",
				"transferOwnership(address)": "infinite",
				"updateItem(uint256,string,address,uint256,uint88,address,uint256,bool)": "infinite",
				"withdrawERC20(address,address,uint256)": "infinite",
				"withdrawNative(address,uint256)": "infinite"
			}
		},
		"methodIdentifiers": {
			"addBatchItems(string[],uint256[],uint88[])": "64391ec9",
			"addItem(string,uint8,address,uint256,uint88,address,uint256)": "e3591d39",
			"buy(uint256,uint88)": "db98631a",
			"deactivateItem(uint256)": "f9e38f9c",
			"items(uint256)": "bfb231d2",
			"nextItemId()": "6a868974",
			"owner()": "8da5cb5b",
			"renounceOwnership()": "715018a6",
			"transferOwnership(address)": "f2fde38b",
			"updateItem(uint256,string,address,uint256,uint88,address,uint256,bool)": "a18acff2",
			"withdrawERC20(address,address,uint256)": "44004cc1",
			"withdrawNative(address,uint256)": "07b18bde"
		}
	},
	"abi": [
		{
			"inputs": [
				{
					"internalType": "address",
					"name": "initialOwner",
					"type": "address"
				}
			],
			"stateMutability": "nonpayable",
			"type": "constructor"
		},
		{
			"inputs": [],
			"name": "InsufficientStock",
			"type": "error"
		},
		{
			"inputs": [],
			"name": "InvalidQuantity",
			"type": "error"
		},
		{
			"inputs": [],
			"name": "ItemDoesNotExist",
			"type": "error"
		},
		{
			"inputs": [],
			"name": "ItemNotActive",
			"type": "error"
		},
		{
			"inputs": [
				{
					"internalType": "address",
					"name": "owner",
					"type": "address"
				}
			],
			"name": "OwnableInvalidOwner",
			"type": "error"
		},
		{
			"inputs": [
				{
					"internalType": "address",
					"name": "account",
					"type": "address"
				}
			],
			"name": "OwnableUnauthorizedAccount",
			"type": "error"
		},
		{
			"inputs": [],
			"name": "PriceZero",
			"type": "error"
		},
		{
			"inputs": [],
			"name": "QtyOneRequiredForNFT",
			"type": "error"
		},
		{
			"inputs": [],
			"name": "ReentrancyGuardReentrantCall",
			"type": "error"
		},
		{
			"inputs": [
				{
					"internalType": "address",
					"name": "token",
					"type": "address"
				}
			],
			"name": "SafeERC20FailedOperation",
			"type": "error"
		},
		{
			"inputs": [],
			"name": "WithdrawFailed",
			"type": "error"
		},
		{
			"inputs": [],
			"name": "WrongNativeAmount",
			"type": "error"
		},
		{
			"anonymous": false,
			"inputs": [
				{
					"indexed": true,
					"internalType": "uint256",
					"name": "itemId",
					"type": "uint256"
				},
				{
					"indexed": false,
					"internalType": "string",
					"name": "name",
					"type": "string"
				},
				{
					"indexed": false,
					"internalType": "enum ShopOptimized.ItemType",
					"name": "itemType",
					"type": "uint8"
				}
			],
			"name": "ItemAdded",
			"type": "event"
		},
		{
			"anonymous": false,
			"inputs": [
				{
					"indexed": true,
					"internalType": "uint256",
					"name": "itemId",
					"type": "uint256"
				}
			],
			"name": "ItemDeactivated",
			"type": "event"
		},
		{
			"anonymous": false,
			"inputs": [
				{
					"indexed": true,
					"internalType": "uint256",
					"name": "itemId",
					"type": "uint256"
				}
			],
			"name": "ItemUpdated",
			"type": "event"
		},
		{
			"anonymous": false,
			"inputs": [
				{
					"indexed": true,
					"internalType": "address",
					"name": "previousOwner",
					"type": "address"
				},
				{
					"indexed": true,
					"internalType": "address",
					"name": "newOwner",
					"type": "address"
				}
			],
			"name": "OwnershipTransferred",
			"type": "event"
		},
		{
			"anonymous": false,
			"inputs": [
				{
					"indexed": true,
					"internalType": "address",
					"name": "buyer",
					"type": "address"
				},
				{
					"indexed": true,
					"internalType": "uint256",
					"name": "itemId",
					"type": "uint256"
				},
				{
					"indexed": false,
					"internalType": "uint256",
					"name": "quantity",
					"type": "uint256"
				},
				{
					"indexed": false,
					"internalType": "uint256",
					"name": "totalPaid",
					"type": "uint256"
				},
				{
					"indexed": false,
					"internalType": "address",
					"name": "paymentToken",
					"type": "address"
				}
			],
			"name": "Purchased",
			"type": "event"
		},
		{
			"inputs": [
				{
					"internalType": "string[]",
					"name": "names",
					"type": "string[]"
				},
				{
					"internalType": "uint256[]",
					"name": "prices",
					"type": "uint256[]"
				},
				{
					"internalType": "uint88[]",
					"name": "quantities",
					"type": "uint88[]"
				}
			],
			"name": "addBatchItems",
			"outputs": [],
			"stateMutability": "nonpayable",
			"type": "function"
		},
		{
			"inputs": [
				{
					"internalType": "string",
					"name": "name",
					"type": "string"
				},
				{
					"internalType": "enum ShopOptimized.ItemType",
					"name": "itemType",
					"type": "uint8"
				},
				{
					"internalType": "address",
					"name": "paymentToken",
					"type": "address"
				},
				{
					"internalType": "uint256",
					"name": "price",
					"type": "uint256"
				},
				{
					"internalType": "uint88",
					"name": "quantity",
					"type": "uint88"
				},
				{
					"internalType": "address",
					"name": "nftContract",
					"type": "address"
				},
				{
					"internalType": "uint256",
					"name": "nftTokenId",
					"type": "uint256"
				}
			],
			"name": "addItem",
			"outputs": [
				{
					"internalType": "uint256",
					"name": "",
					"type": "uint256"
				}
			],
			"stateMutability": "nonpayable",
			"type": "function"
		},
		{
			"inputs": [
				{
					"internalType": "uint256",
					"name": "itemId",
					"type": "uint256"
				},
				{
					"internalType": "uint88",
					"name": "quantity",
					"type": "uint88"
				}
			],
			"name": "buy",
			"outputs": [],
			"stateMutability": "payable",
			"type": "function"
		},
		{
			"inputs": [
				{
					"internalType": "uint256",
					"name": "itemId",
					"type": "uint256"
				}
			],
			"name": "deactivateItem",
			"outputs": [],
			"stateMutability": "nonpayable",
			"type": "function"
		},
		{
			"inputs": [
				{
					"internalType": "uint256",
					"name": "",
					"type": "uint256"
				}
			],
			"name": "items",
			"outputs": [
				{
					"internalType": "uint256",
					"name": "price",
					"type": "uint256"
				},
				{
					"internalType": "uint256",
					"name": "nftTokenId",
					"type": "uint256"
				},
				{
					"internalType": "address",
					"name": "paymentToken",
					"type": "address"
				},
				{
					"internalType": "uint88",
					"name": "quantity",
					"type": "uint88"
				},
				{
					"internalType": "enum ShopOptimized.ItemType",
					"name": "itemType",
					"type": "uint8"
				},
				{
					"internalType": "address",
					"name": "nftContract",
					"type": "address"
				},
				{
					"internalType": "bool",
					"name": "active",
					"type": "bool"
				},
				{
					"internalType": "string",
					"name": "name",
					"type": "string"
				}
			],
			"stateMutability": "view",
			"type": "function"
		},
		{
			"inputs": [],
			"name": "nextItemId",
			"outputs": [
				{
					"internalType": "uint256",
					"name": "",
					"type": "uint256"
				}
			],
			"stateMutability": "view",
			"type": "function"
		},
		{
			"inputs": [],
			"name": "owner",
			"outputs": [
				{
					"internalType": "address",
					"name": "",
					"type": "address"
				}
			],
			"stateMutability": "view",
			"type": "function"
		},
		{
			"inputs": [],
			"name": "renounceOwnership",
			"outputs": [],
			"stateMutability": "nonpayable",
			"type": "function"
		},
		{
			"inputs": [
				{
					"internalType": "address",
					"name": "newOwner",
					"type": "address"
				}
			],
			"name": "transferOwnership",
			"outputs": [],
			"stateMutability": "nonpayable",
			"type": "function"
		},
		{
			"inputs": [
				{
					"internalType": "uint256",
					"name": "itemId",
					"type": "uint256"
				},
				{
					"internalType": "string",
					"name": "name",
					"type": "string"
				},
				{
					"internalType": "address",
					"name": "paymentToken",
					"type": "address"
				},
				{
					"internalType": "uint256",
					"name": "price",
					"type": "uint256"
				},
				{
					"internalType": "uint88",
					"name": "quantity",
					"type": "uint88"
				},
				{
					"internalType": "address",
					"name": "nftContract",
					"type": "address"
				},
				{
					"internalType": "uint256",
					"name": "nftTokenId",
					"type": "uint256"
				},
				{
					"internalType": "bool",
					"name": "active",
					"type": "bool"
				}
			],
			"name": "updateItem",
			"outputs": [],
			"stateMutability": "nonpayable",
			"type": "function"
		},
		{
			"inputs": [
				{
					"internalType": "address",
					"name": "token",
					"type": "address"
				},
				{
					"internalType": "address",
					"name": "to",
					"type": "address"
				},
				{
					"internalType": "uint256",
					"name": "amount",
					"type": "uint256"
				}
			],
			"name": "withdrawERC20",
			"outputs": [],
			"stateMutability": "nonpayable",
			"type": "function"
		},
		{
			"inputs": [
				{
					"internalType": "address payable",
					"name": "to",
					"type": "address"
				},
				{
					"internalType": "uint256",
					"name": "amount",
					"type": "uint256"
				}
			],
			"name": "withdrawNative",
			"outputs": [],
			"stateMutability": "nonpayable",
			"type": "function"
		},
		{
			"stateMutability": "payable",
			"type": "receive"
		}
	]
}